:020000040800F2
:10000000E0280120250400082D0400082F04000822
:100010003104000833040008350400080000000023
:10002000000000000000000000000000F5020008D1
:100030003904000800000000AD03000811040008A6
:100040003F0400083F0400083F0400083F04000884
:100050003F0400083F0400083F0400083F04000874
:100060003F0400083F0400083F0400083F04000864
:100070003F0400083F0400083F0400083F04000854
:100080003F0400083F0400083F0400083F04000844
:100090003F0400083F0400083F0400083F04000834
:1000A0003F0400083F0400083F0400083F04000824
:1000B0003F0400083F0400083F0400083F04000814
:1000C0003F0400083F0400083F0400083F04000804
:1000D0003F0400083F0400083F0400083F040008F4
:1000E0003F0400083F0400083F0400083F040008E4
:1000F0003F0400083F0400083F0400083F040008D4
:100100003F0400083F0400083F0400083F040008C3
:100110003F0400083F0400083F0400083F040008B3
:100120003F0400083F0400083F0400083F040008A3
:100130003F0400083F0400083F0400083F04000893
:100140003F0400083F0400083F0400083F04000883
:100150003F0400083F0400083F0400083F04000873
:100160003F0400083F0400083F0400083F04000863
:100170003F0400083F0400083F040008000000009E
:100180003F0400083F0400083F0400083F04000843
:100190003F0400083F0400083F0400083F04000833
:1001A0003F0400083F0400083F0400083F04000823
:1001B0003F0400083F0400083F0400083F04000813
:1001C0003F0400083F04000800F002F800F03CF88B
:1001D0000AA090E8000C82448344AAF10107DA45A2
:1001E00001D100F031F8AFF2090EBAE80F0013F0B8
:1001F000010F18BFFB1A43F00103184758220000F3
:1002000078220000103A24BF78C878C1FAD8520783
:1002100024BF30C830C144BF04680C607047000080
:100220000023002400250026103A28BF78C1FBD8FF
:10023000520728BF30C148BF0B6070471FB502F09E
:10024000C3F81FBD10B510BD00F022F91146FFF72D
:10025000F5FF0FB400F00CF80FBC00F0B5FF00F094
:1002600005F903B4FFF7EEFF03BC00F00BF9000043
:1002700004B000F0CDFF0448002101F01DF800F0AB
:10028000D9FF00F0F3F800002C24000880F309885F
:100290007047EFF309807047684680F30988044887
:1002A0000078C00714BF0220032080F31488704731
:1002B000EC230008DFF818C0EFF305831B0618BF16
:1002C0006047EFF31483DB0708BF604700DF704728
:1002D00087130008DFF818C0EFF305831B0618BF6B
:1002E0006047EFF31483DB0708BF604700DF704708
:1002F0006D150008EFF30980816911F8021CE1BB5C
:1003000090E80F1010B5E047BDE81040EFF3098CFE
:100310008CE80700214B93E80600914208BF704724
:1003200041B91EF0100F16D11D49086820F00100D8
:10033000086010E01EF0100F06BF2CED108A01209F
:10034000002081F825002CE9F00FC1F828C00CB47A
:1003500001F0B6FC0CBC1A60D2F828C0BCE8F00F63
:1003600092F8250000280EBF6FF0020E6FF0120EFB
:10037000BCEC108A8CF30988704710B5094A1268E2
:10038000914209D8084C54F8214090E80F10A0473A
:10039000EFF3098C8CE80F0010BD00002400012051
:1003A00034EF00E0DC040008DC04000810B501F0C4
:1003B0004BFBBDE81040154B93E80600914208BF87
:1003C0007047EFF3098C1EF0100F06BF2CED108A5A
:1003D0000120002081F825002CE9F00FC1F828C089
:1003E0000CB401F06DFC0CBC1A60D2F828C0BCE85B
:1003F000F00F92F8250000280EBF6FF0020E6FF08C
:10040000120EBCEC108A8CF309887047240001207E
:1004100010B501F01DFDCCE710B500F0B3FF01F001
:1004200017FDC6E70948804709480047FEE7FEE791
:10043000FEE7FEE7FEE7FEE7FEE7FEE7FEE7FEE794
:1004400004480549054A064B704700008D0F000817
:10045000C9010008E0220120E0280120E024012059
:10046000E0240120004870477C22012010B504469A
:10047000AFF300802046BDE81040FFF7F2BE7047A2
:100480007047704701491820ABBEFEE72600020006
:100490007546FFF7E7FFAE4605006946534620F074
:1004A0000700854618B020B5FFF7CAFFBDE8204019
:1004B0004FF000064FF000074FF000084FF0000B20
:1004C00021F00701AC46ACE8C009ACE8C009ACE8D3
:1004D000C009ACE8C0098D467047704700000000B5
:1004E00010B500F0DFFC00F08FFC10BD00BFFEE790
:1004F00001480068704700002C00012010B5084832
:10050000006840F4007006490860032000F05EF8BF
:100510000F2000F007F800F019F8002010BD0000CF
:10052000003C024070B50446074800684FF47A71F9
:10053000B0FBF1F5284600F04DFC00222146501E8C
:1005400000F005F8002070BD1800012070472DE96B
:10055000F05F80460D461646002700F049FD07462D
:1005600039462A46334601F00700C0F1070ABAF1BE
:10057000040F02D94FF0040A01E0C0F1070AD14686
:1005800000F1040ABAF1070F02D24FF0000A01E0AD
:10059000A0F1030AD4464FF0010A0AFA09FAAAF1B7
:1005A000010A0AEA020A0AFA0CFA4FF0010B0BFAE6
:1005B0000CFBABF1010B0BEA030B4AEA0B042146DF
:1005C000404600F01DFDBDE8F09F000000BF00F0B8
:1005D0000702064B19684FF6FF031940044B0B4303
:1005E00043EA0221014B196000BF70470CED00E0A7
:1005F0000000FA0538B5002400BF2048006840F02C
:1006000080501E4908600846006800F08050009045
:1006100000BF00BF1A48006840F4803018490860E5
:10062000FFF766FF044607E0FFF762FF001BB0F527
:100630007A7F01D9032038BD1148406800F480302A
:10064000B0F5803FF0D10E48006840F400300C490E
:100650000860FFF74DFF044607E0FFF749FF001B66
:10066000B0F57A7F01D90320E5E70548406800F43A
:100670000030B0F5003FF0D10020DCE74038024008
:100680000070004070B504460D46002666480068BC
:1006900000F00F00A8420ED26348006820F00F005F
:1006A0002843614908600846006800F00F00A8422E
:1006B00001D0012070BD207800F00200022807D18F
:1006C0005A48006820F0F000A168084357490860C4
:1006D000207800F00100002860D06068012807D170
:1006E000524808380068C0F34040A0B90120E1E753
:1006F0006068022807D14D4808380068C0F34060A0
:1007000048B90120D6E7494808380068C0F34000DE
:1007100008B90120CEE74548006820F00300616871
:10072000084342490860FFF7E3FE06466068012877
:1007300010D108E0FFF7DCFE801B41F288318842CF
:1007400001D90320B6E73948006800F00C000428FE
:10075000F0D123E06068022810D108E0FFF7C8FE5E
:10076000801B41F28831884201D90320A2E72F483B
:10077000006800F00C000828F0D10FE008E0FFF757
:10078000B7FE801B41F28831884201D9032091E7EE
:100790002648006800F00C000028F0D122480068CC
:1007A00000F00F00A8420ED91F48006820F00F008B
:1007B00028431D4908600846006800F00F00A84261
:1007C00001D0012076E7207800F00400042807D14A
:1007D0001648006820F4E050E168084313490860B7
:1007E000207800F00800082808D11048006820F49C
:1007F0006040216940EAC1000C49086000F01CF823
:100800000A49096801F0F001F02292FAA2F2B2FA64
:1008100082F2D140064A515CC840064908600F2068
:10082000FFF780FE002045E7003C02400838024008
:100830003C2400081800012070B50021002200238C
:100840000020274C246804F00C0424B1042C04D0AC
:10085000082C41D103E0234840E023483EE0204CEF
:10086000241F246804F03F011D4C241F246804F455
:10087000800484B11C4CB4FBF1F5194C241F24688E
:1008800047F6C076344096FAA6F6B6FA86F6F440F5
:1008900005FB04F20FE0134CB4FBF1F5104C241FE0
:1008A000246847F6C076344096FAA6F6B6FA86F67D
:1008B000F44005FB04F20A4C241F246804F440347D
:1008C0004FF4403595FAA5F5B5FA85F5EC40641C72
:1008D0006300B2FBF3F001E0024800BF00BF70BD4F
:1008E000083802400024F40040787D01F8B5044641
:1008F00000250026207800F00100002871D0FD4876
:10090000006800F00C0004280DD0FA48006800F0E0
:100910000C00082813D1F748001F006800F480007D
:10092000B0F5800F0BD1F34808380068C0F34040A1
:10093000002869D06068002866D10120F8BD00BF9A
:100940006068B0F5803F08D1EA480838006840F494
:100950008030E849083908602EE0606868B9E548E9
:100960000838006820F48030E249083908600846F9
:10097000006820F4802008601EE06068B0F5A02FB9
:100980000DD1DC480838006840F48020D949083986
:1009900008600846006840F4803008600CE0D548E4
:1009A0000838006820F48030D249083908600846C9
:1009B000006820F48020086000BF606890B1FFF7F5
:1009C00097FD054606E0FFF793FD401B642801D91B
:1009D0000320B3E7C74808380068C0F34040002848
:1009E000F1D011E0FFF784FD054606E0FFF780FD3A
:1009F000401B642801D90320A0E7BE4808380068DE
:100A0000C0F340400028F1D1207800F00200022815
:100A100073D1B848006800F00C0058B1B5480068C0
:100A200000F00C00082821D1B248001F006800F433
:100A30008000D8B9AF4808380068C0F3400020B142
:100A4000E068012801D0012078E7AA48083800684A
:100A500020F0F800F82292FAA2F2B2FA82F22169AA
:100A600091400843A3490839086046E0E06850B364
:100A7000A0480838006840F001009E490839086025
:100A8000FFF736FD054606E0FFF732FD401B022862
:100A900001D9032052E7974808380068C0F34000A6
:100AA0000028F1D093480838006820F0F800F822B8
:100AB00092FAA2F2B2FA82F22169914008438D497A
:100AC0000839086019E08B480838006820F00100F8
:100AD000884908390860FFF70BFD054606E0FFF777
:100AE00007FD401B022801D9032027E78148083869
:100AF0000068C0F340000028F1D1207800F0080021
:100B0000082836D16069D0B17A486C30006840F06E
:100B1000010078496C310860FFF7EAFC054606E001
:100B2000FFF7E6FC401B022801D9032006E77148C5
:100B30006C300068C0F340000028F1D019E06D4827
:100B40006C30006820F001006A496C310860FFF7E2
:100B5000CFFC054606E0FFF7CBFC401B022801D97D
:100B60000320EBE663486C300068C0F340000028C7
:100B7000F1D1207800F00400042874D15D483830A9
:100B8000006800F0805080B900BF5A4838300068D3
:100B900040F080505749383108600846006800F03E
:100BA0008050009000BF00BF01265348006800F449
:100BB0008070B0B95048006840F480704E490860B9
:100BC000FFF796FC054606E0FFF792FC401B642801
:100BD00001D90320B2E64848006800F4807000287C
:100BE000F2D000BFA068012808D1424868300068F0
:100BF00040F001003F49683108602DE0A06868B905
:100C00003C486830006820F001003A4968310860CB
:100C10000846006820F0040008601DE0A068052870
:100C20000DD134486830006840F004003149683123
:100C300008600846006840F0010008600CE02D489C
:100C40006830006820F001002A49683108600846D1
:100C5000006820F00400086000BFA068A8B1FFF79A
:100C600047FC054609E02EE0FFF742FC401B41F23D
:100C70008831884201D9032060E61E486830006848
:100C8000C0F340000028EFD013E0FFF731FC054629
:100C900008E0FFF72DFC401B41F28831884201D962
:100CA00003204BE6134868300068C0F3400000287A
:100CB000EFD1012E07D10F483830006820F0805066
:100CC0000C4938310860A069F0B30A48006800F0A8
:100CD0000C00082878D0A06902285CD105480838A3
:100CE000006820F08070034908390860FFF700FCB5
:100CF00005460AE00838024000700040FFF7F8FBA4
:100D0000401B022801D9032018E631480068C0F3CF
:100D100040600028F2D1E06940F00050216A0843A9
:100D200047F6C07292FAA2F2B2FA82F2616A914078
:100D300008430122A16AC2EB51014FF4403292FAFA
:100D4000A2F2B2FA82F200E040E0914008434FF094
:100D5000706292FAA2F2B2FA82F2E16A914008431A
:100D60001B49091D0860081F006840F08070091FBA
:100D70000860FFF7BDFB054606E0FFF7B9FB401B27
:100D8000022801D90320D9E511480068C0F340606A
:100D90000028F2D01AE00E48006820F080700C495C
:100DA0000860FFF7A5FB054607E0FFF7A1FB401B26
:100DB000022802D90320C1E506E005480068C0F317
:100DC00040600028F1D101E00120B7E50020B5E541
:100DD0000038024070B504462546681EB0F1807F99
:100DE00001D301200FE0681E4FF0E02148610F2180
:100DF0004FF0FF3000F004F900204FF0E02188614F
:100E000007200861002070BD10B50023234C23602B
:100E100000BF00BF00BFBFF34F8F00BF00BF00BFC8
:100E2000231F1868C0F34E3100BFC0F3C90200BFD2
:100E300043F6E07303EA41134FF0404404EA82743E
:100E40002343174C236000BF00BF131EA2F1010211
:100E5000EED10B1EA1F10101E7D100BF00BF00BF21
:100E6000BFF34F8F00BF00BF00BF0C4B703B1B6830
:100E700043F48033094C703C236000BF00BF00BFC7
:100E8000BFF34F8F00BF00BF00BF00BF00BF00BF58
:100E9000BFF36F8F00BF00BF00BF10BD84ED00E047
:100EA00060EF00E000BF00BF00BFBFF34F8F00BF87
:100EB00000BF00BF00BF00BF00BFBFF36F8F00BF08
:100EC00000BF00BF00201449086000BF00BF00BF82
:100ED000BFF34F8F00BF00BF00BF00BF00BF00BF08
:100EE000BFF36F8F00BF00BF00BF0C48006840F425
:100EF00000300A49086000BF00BF00BFBFF34F8F3A
:100F000000BF00BF00BF00BF00BF00BFBFF36F8FB7
:100F100000BF00BF00BF704750EF00E014ED00E0DD
:100F200000B591B0012000900004019000200390D2
:100F30000220069041050791192108914FF4D871BC
:100F4000099102210A9109210B916846FFF7CEFC15
:100F500008B1FFF7CBFAFFF74DFB08B1FFF7C6FA70
:100F60000F200C9002200D9000200E904FF4A05006
:100F70000F904FF48050109007210CA8FFF782FBD0
:100F800008B1FFF7B3FA11B000BD000014480068C3
:100F900040F47000124908601248006840F00100F7
:100FA0001049086000200F49083108600D480068AA
:100FB0000D4908400B4908600C48091D0860081FCE
:100FC000006820F48020091F0860002005490C31CA
:100FD00008604FF0006002498039086070470000E7
:100FE00088ED00E000380240FFFFF6FE10300024DC
:100FF00002480068C0F30220704700000CED00E0DA
:1010000010B5002804DB0A07130E054A135406E046
:101010000A07140E034A00F00F031B1FD45410BD1F
:1010200000E400E018ED00E010B5002A06DA22F036
:101030000042D21D22F00703102203E0D21C22F04E
:1010400003030C2213B19C188C4201D9012010BD5E
:10105000024401448360C0E90021C91AD0188842C3
:1010600002D810600246F9E70020106010BD0000B1
:1010700005490978002905D000684FF6FF71DFF8AF
:101080000CC000DF704700001D000120D1190008CE
:1010900004490978002903D00068DFF80CC000DF9C
:1010A000704700001D000120F9180008084800687A
:1010B000C0010BD507480068C00707D00548803835
:1010C0000068002802DA0449012008707047000017
:1010D000FCED00E0800E00E0400001204FF0604297
:1010E000D36F002BFCD0036BD367D36F002BFCD0E6
:1010F000C07840EA0120A2F87C0070474FF06041C0
:10110000CA6F002AFCD081F87C0070470EB580229F
:1011100000B109B110460AE001780129FAD101A90C
:1011200000F020F8042801D0002000E01020DDE9C4
:10113000011203B000BD70B50D46040003D012B912
:101140002078012801D0802070BD204600F0CEFA22
:1011500028B12946204600F030F8002070BD8120DB
:1011600070BD000010B504468089002824D0608935
:1011700004EB800000690860606840B16078022874
:1011800005D10021204600F0ADFC00F09BFC04F1ED
:101190000C0000BFD0E85F1F491E8AB2C0E8512F83
:1011A0000029F7D16089401C80B26081E1898842C2
:1011B00001D100206081042010BD10B500F092FC28
:1011C000BDE8104000F07EBCFFF78AF900F020F87F
:1011D000FFF794F9FFF7A4FE00F02CF808E00548AB
:1011E0000068401C034908604FF4FA7000F004F8EE
:1011F000F5E7000000000120EFF3058109B182202E
:101200007047DFF808C000DF704700006921000860
:10121000EFF3058008B182207047EFF31480C00718
:1012200003D0DFF80CC000DF704700F0A7BF00005C
:101230007D21000888B0EFF3058010B1822008B04E
:101240007047EFF3148010F00301134806D0012912
:101250001BD0022911D0032919D113E008A981F369
:1012600009880078C0070BD05FF0020080F3148873
:10127000BFF34F8FBFF36F8F09E00078C00706D12F
:101280000320F3E70078C00701D0FF20D7E7DFF89D
:101290000CC000DFD3E70000EC230008ED210008BC
:1012A000EFF305820AB1FFF731BFDFF808C000DFB6
:1012B0007047000059220008EFF305820AB10020B0
:1012C0007047EFF31482D20702D1044A52781AB160
:1012D000DFF80CC000DF704700F0DCBF1C0001200D
:1012E00095220008DFF80CC000DFDFF80CC000DF3B
:1012F000FEE70000012300081D230008DFF804C0FA
:1013000000DF704755230008094C4FF0FF35294690
:101310002068FFF7C5FF02460846102AF7D1FFF7FD
:10132000EDFF0028F3D0024608469047EFE70000A3
:1013300008000120012806D0022805D0032804D087
:10134000042804D102E003E002E001E000E000BF75
:1013500000BF00BFFEE700BFFEE7000007480168CE
:101360004FF0E020416100218161072101610448C3
:10137000016841F07F41016040177047E823000891
:1013800020ED00E0704750E8001F31B10B6840E8E5
:101390000032002AF7D108467047BFF32F8FFAE7D3
:1013A00010B568B161B10B3121F0030201684468E6
:1013B0000B1A1B1B934205D2084609680029F5D178
:1013C000002010BD210007D021180368C1E90032B8
:1013D000016001F1080010BD4260083010BD00003E
:1013E00070B50D46002812D04FF6FF71084C8842A8
:1013F00004D222680146104600F0A2FB2068457026
:10140000044800F0DDF8BDE8704000F06BBC70BD32
:10141000240001204C2201200F4810B50D494268DC
:101420000E480B680068934204D00A60CB88421EC5
:101430001A448A808A8880B282420AD100200860D9
:10144000054800F0BDF80146BDE81040024800F034
:101450009BBB10BD380001204C2201202C00012034
:1014600070B5194DE86800282CD0A88A401EA882C3
:10147000002621E0A06838B161684160606810B161
:10148000A16881606660A6600F482146183800F0A8
:101490007BFBA08AA8826078042804D10B49E08AEB
:1014A00009880844A08201206070E068E860E06874
:1014B00008B10561E6602661A88A002802D1EC68BF
:1014C000002CD7D170BD0000642201202C00012027
:1014D00070B504000FD00D4DA178012628688278E0
:1014E00091420CD900F06CFB286846702046BDE89C
:1014F000704000F0F7BB064800F062F8F7E766704E
:101500002146BDE87040024800F03EBB24000120A7
:101510004C2201200321FFF763BF000010B50446F1
:10152000008B084320836278618B062A18D0052A35
:1015300019D1084217D001EA000262838843208350
:10154000204600F077FB01206070628B0821204666
:1015500000F068FB2146BDE81040034800F014BBD2
:1015600031EA0002EAD010BD4C220120814202D3B0
:1015700042688A4201D80120704702680A60BFF3BE
:101580005F8F50E8003F0A689A42F6D140E80012A7
:10159000002AF2D10020704768B161B100220839F9
:1015A00002E00246006830B18842FAD12AB10068F0
:1015B0001060002070470120704700214160F8E76B
:1015C0000146406842684A600B780022022B05D031
:1015D000012B03D0032B01D04260704743680BB14D
:1015E0009960426082607047810700D00020704798
:1015F00070B5044600201546207001226270A1706B
:1016000084F824106060A060E06020612062A08205
:10161000E0822083608384F82500E08C18B90548B7
:10162000FFF7B1FEE06229462046BDE8704000F0B9
:101630001DB80000C001012008B1082901D2012015
:1016400070470144091F002201600A604260104691
:101650007047000003480021016003490988C180E8
:101660007047000038000120DC23000870B5C28CF0
:101670001C4D930802D12A88C2F38D03C26A02EB83
:101680008302540700D5121F4FF0807442E9021400
:1016900000242646B2F1400242F82460641C0E2C5D
:1016A000FAD3C4691462826201632968C90014D53F
:1016B000112B12D94FF0FF31103B11EB53014FF0BA
:1016C000CC3305D042F8043C42F8083D491EF9D11C
:1016D000C16A121F8A4200D91360C06A02490160C0
:1016E00070BD0000D8230008A52E5AE2C189808968
:1016F000081A704701220270002242708270426014
:1017000002814281103982818908C18170470000BD
:101710002DE9F041044640680E464FF0000804F100
:101720000C05E8B36078012701283ED0022813D0C9
:1017300003285CD10846FFF726FE050057D0204657
:10174000FFF73EFF0446294600F066FA6770204620
:1017500000F070FA214621E02046FFF731FF0646EF
:10176000002100F059FA2189F06904EB8101086138
:10177000D5E85F0F401C81B2C5E8501F0028F7D1A3
:101780002089401C80B22081E189884201D1A4F8DF
:1017900008807770304600F04DFA3146174800E077
:1017A0000CE0BDE8F04100F0EFB92046FFF708FF7C
:1017B00004463246102100F035FAC7E7A089E189D6
:1017C000884216D2208904EB80000661D5E85F0FBD
:1017D000401C81B2C5E8501F0028F7D12089401C69
:1017E00080B22081E189884201D1A4F80880BDE857
:1017F000F081BDE8F0410320FFF79CBD4C220120A1
:1018000070B50446808915460026C0B3608904EB94
:101810008000006908606089401C80B26081E189B5
:10182000884200D16681606810B1607802280BD0D0
:1018300014F10C04D4E85F0F401E81B2C4E8501FBD
:101840000028F7D1002070BD2046FFF7B9FE0546FD
:10185000002100F0E1F92189E86904EB81010861C8
:101860002089401C80B22081E189884200D12681F4
:10187000284600F0DFF92846FFF72AFEE2E7FFE7F7
:101880003DB10B48626801682AB1204600F07CF93E
:1018900008E0012070BD616001684E6000688460EE
:1018A0000120607008212846FFF79AFDF1E700004B
:1018B00024000120002814D0411C13D00C4A4FF6FC
:1018C000FE7190420CD800EB4002C2EBC0120948F6
:1018D000036803EBC202521EB2FBF3F0884204D944
:1018E000084670474FF6FF70704780B2704700009F
:1018F00000093D00F82300082DE9F0410446408826
:1019000020B1314DA1682A68914202D0FF20BDE884
:10191000F081401E0004000C608053D12968086AE1
:10192000A04209D1E068086208E0C268A24202D180
:10193000E268C26002E010460028F6D191F8240067
:101940000A6A06E053681BB19B78834200D91846A7
:10195000D268002AF6D18870DFF8708061680126AD
:1019600011B32046FFF72CFE0746002100F054F982
:10197000384600F05FF96680A760386AE0603C6234
:101980002968D8F804008A788078824201D33846E2
:1019900016E00E4800F0F8F839460C4800F0F4F86C
:1019A000286846707E700AE0D8F804108A782968A2
:1019B000824207D9054800F0E7F828684670002001
:1019C000FFF786FD0020A2E7240001204C22012021
:1019D00070B51C4D0E4604464188286861B1A26866
:1019E000824210D1A1F57F40FF3803D0491C6180AD
:1019F000002070BDFF2070BDA060016AE16004623C
:101A000001206080F4E776B191788078814203D23A
:101A10009070A06800F0DEF8606830B12046296858
:101A200000F0B2F808E0012070BD28686060296805
:101A3000002048602868846009213046FFF7D0FC08
:101A4000F1E700002400012070B51B480121026865
:101A50005170006800F0B4F8184D6C7818E000BFC1
:101A600005EBC40148680278EAB1012A20D000F0F1
:101A70000DF9E878641C844200D100240F48801CD2
:101A8000D0E84F1F491EC9B2C0E8421F002AF7D153
:101A9000A8780028E4D16C700948FFF791FDBDE8F3
:101AA000704000F01FB9098989B2FFF737FDE0E700
:101AB0008968FFF72DFEDCE724000120381E012095
:101AC0004C2201200548017811B101214170704775
:101AD00003494FF08050086070470000300001203B
:101AE00004ED00E0F0B4154DAB1CEE784FEA0507AD
:101AF000D3E84F2FB24202D1BFF32F8F11E0521C17
:101B0000D4B2C3E8424F002AF2D100BFD7E84F2F2A
:101B1000541CB44200D10024E4B2C7E8434F002B68
:101B2000F4D1EB78934205D905EBC202C2E9010179
:101B3000F0BC7047F0BC0220FFF7FCBB381E012050
:101B4000104A10B5D368ABB113469B8A03E08CB141
:101B50002246A48A2344D4688B42F8D3C460D06060
:101B60000261C46804B12061591A8182908A401AC6
:101B7000908210BD0024C460D060C91A02619182B5
:101B8000848210BD6422012030B502780023022A2D
:101B900003D0012A01D0032A00D101238C7800E070
:101BA0001046426812B19578A542F9D24A60416068
:101BB0001BB102B19160886030BD0020FBE70000DE
:101BC00003494A6842600022826048607047000012
:101BD0004C22012010B5836804462BB96078012897
:101BE0000ED1084B03E09B6818780028FBD02046F4
:101BF00000F034F82146BDE810401846FFF7C4BF96
:101C000010BD00004C22012090F82510806A09B117
:101C1000603070472030704710B50C46FFF7F4FF76
:101C2000046010BD70B515460C46FFF7EDFFC0E926
:101C3000004570BD10B5016900290ED0C268CA60A8
:101C4000C36800223BB18B8A848A23448B82C36899
:101C50001961C26000E08A82026110BD816839B1F9
:101C600042684A604168002901D0806888607047F6
:101C7000054906E04A68824202D1406848607047E0
:101C800011460029F6D170474C22012010B5416859
:101C900081B1FFF795FC0446FFF7CCFF012060708F
:101CA00001462046FFF7B8FF2146BDE81040034833
:101CB000FFF76ABF4188491C418010BD4C220120BA
:101CC00006480068D0E90A10814203D3006804493D
:101CD000884202D00120FFF72DBB7047240001206D
:101CE000A52E5AE20749022248604270064A12783D
:101CF000002A05D006C98A4202D0C078FFF7FEB993
:101D000070470000240001204000012070B5FFF75B
:101D1000CDF900200446204A204902E042F8204044
:101D2000401C0B889842F9D31D48342201881D4875
:101D3000FFF77AF91C48008880B240F000421B4847
:101D400001681B48FFF770F91A48082201881A48F1
:101D50000068FFF769F9194DFF20194AE870EC8413
:101D600000212846FFF744FC164804210170446016
:101D700015480170C46004618482144815490560E7
:101D8000022068701248047044700978C170BDE880
:101D90007040FFF75FBC0000BC1E0120D423000888
:101DA0000024000848000120D8230008042400086B
:101DB000C001012028240008100001201822012061
:101DC000571300084C220120642201202400012026
:101DD000381E01200C2400081B4810B5016841F48E
:101DE0007F01016000684FF07F4101EA0020164941
:101DF000C0431439B0FA80F00968C0F10800C1F39B
:101E00000221814200D3481C0F49091F0B686FF063
:101E10008072824063F317020A60FFF79FFA0B4952
:101E2000002808600EDB00F1E021FF2281F8002489
:101E300000F01F02012191404009800000F1E020E4
:101E4000C0F8001110BD000020ED00E034000120BA
:101E50000C4810B50268012151700068FFF7B0FE10
:101E6000FFF7DAFA08480168491C0160FFF7F8FA41
:101E700000F07CFA0548FFF7A3FBBDE81040FFF730
:101E800031BF0000240001202C0001204C22012041
:101E9000002805D0810702D10178002900D0002058
:101EA0007047000030B50B4C0023626805E0956870
:101EB0008D4204D813461268491B002AF7D10260EC
:101EC000816012B19568691A91600BB1186030BDDC
:101ED000606030BD1C0001202DE9F0411E46174610
:101EE00080460D4611F0FF0F00D14D1C1848FFF73A
:101EF0004AFA041E16D0280AE762E084E9B2424694
:101F00002046E661FFF774FB01251248124905E0FF
:101F100000EB850252F8042C32B16D1C0A88954200
:101F2000F6D90020BDE8F081002DFAD000EB850045
:101F300040F8044C0948E570007818B101212046AA
:101F4000FFF7CCF82046FFF7C3FA2846EAE700007F
:101F500048000120BC1E0120D423000840000120BD
:101F60002DE9F05F584DDFF85891DFF85881296866
:101F70004FF0010A002618B1CA78AB46824243D11D
:101F80004E70FEF786F929688862FFF799FE286887
:101F9000046A1FE06068C0B12046FFF711FB0746E6
:101FA0000021FFF739FE3846FFF744FE87F801A00D
:101FB00039464648FFF7E8FDE168A4F802A0A760AB
:101FC000386AE0603C620C4604E0E0686680A66027
:101FD000E6600446002CDDD12868C27808EB820157
:101FE00041F8046CC16A3A48FFF7C0FA2868C66233
:101FF00099F8001011B10021FFF770F835482968F1
:10200000FFF7B4FA2E6056E03349098888420CD8AD
:1020100008EB800858F8045C3DB12846FFF71EFE27
:102020002846FFF707FE2C6A22E0FF20BDE8F09F5C
:102030006068C0B12046FFF7C3FA07460021FFF7EA
:10204000EBFD3846FFF7F6FD87F801A039461F483B
:10205000FFF79AFDE168A4F802A0A760386AE06083
:102060003C620C4604E0E0686680A660E6600446D8
:10207000002CDDD148F8046C1548E96AFFF776FAC0
:10208000EE6299F8000018B100212846FFF726F803
:1020900029461048FFF76AFA0C48DBF80010406840
:1020A0008B7882789A4209D981F801A00748DBF839
:1020B0000010FFF769FD0020FFF70AFA0020B5E7DE
:1020C00040000120BC1E0120240001204C220120E0
:1020D000C001012048000120D423000870B51A4D2A
:1020E00080B11A4A128890421FD8194A02EB800028
:1020F00050F8044CCCB1A17084F824102868A04298
:1021000005D014E028688170286880F824101148F0
:1021100040688078884215D90E482968FFF734FD59
:1021200029680120487000200AE0FF2070BD204689
:10213000FFF750FD6078012804D10648FFF740FA08
:10214000FFF7C6F9002070BD24000120D423000849
:10215000BC1E01204C22012002480068002800D04B
:10216000C07870472400012010B5002804D0FFF784
:10217000A1FBFFF7CFF9402010BD000010B5134CB4
:10218000207860B91248400705D11248016810480C
:10219000FFF752FA08B1852010BDFFF7B7FD0E49D1
:1021A000FF2009688870207858B900210B4800F09A
:1021B00041F80B49086000210A4800F06BF80A4911
:1021C0000860012020700020607010BD1C000120FC
:1021D000B80501200824000824000120202400085C
:1021E00008000120102400080400012070B50F4DE4
:1021F000687808B1002070BD0D4C206890F824105C
:102200000020FFF76BFF2068C178FF2903D1816AA6
:10221000203181F30988616811B960600020206075
:10222000FFF7DAFD01206870E4E700001C000120E0
:102230002400012010B5040005D0216819B16068A0
:1022400008B102780AB1002010BD8900103189B2AE
:10225000FFF750FA606810BD3EB504000D464FF020
:10226000800012D0217801290FD12846FFF722FBE8
:102270000246204601A9FFF7C3FA012801D0102029
:1022800003E00DB1402000E00020DDE9011203B0C1
:1022900030BD000070B50E46040029D0206838B368
:1022A000606810F1030F23DB032821DCE16829B10A
:1022B0001048FFF775F805001AD000E000256068A7
:1022C000E168001D40EA012133462A462068FFF7F5
:1022D00003FE40B1084901EB8000084950F8040CA6
:1022E000826A516370BD1DB129460248FFF754F957
:1022F000002070BDB8050120BC1E0120E5120008B9
:1023000010B5FFF729FF002804D0034901EB800036
:1023100050F8040C10BD0000BC1E012010B5FFF7E2
:10232000B7FD18B1C18C19B1C46A02E0802010BD9C
:102330000024C078FFF714FEFF2806D01CB1214608
:102340000348FFF729F9002010BD812010BD0000CF
:10235000B805012010B5FFF747F920B141690A68B7
:102360000169104610BD0020014610BD2DE9F04165
:10237000134E7468002C1CD0A068124F401E4FF002
:102380000108A06012E025462468746000222946F6
:102390003868FEF7D0FE10B10420FEF7CBFF687955
:1023A000012808D085F80480002C02D0A0680028FD
:1023B000E9D0BDE8F0812846E968FFF773FDF3E74F
:1023C0001C000120080001204FF04070E1EE100ACF
:1023D0007047000007000000E80307010500010046
:1023E00000E6DF0CD8000000BF4B03000100000036
:1023F0000200010052000400E80300000000000099
:1024000078010000F80300008018000010000000B0
:10241000091300080200000001000000C8000000CD
:1024200004000000D81E012000000000C9110008AF
:102430000000000001000000D007000000000000C4
:102440000000000001020304060708090000000064
:10245000010203047424000800000120440000006D
:1024600004020008B8240008440001209C28000051
:102470002002000800000000000000000000000032
:102480000000000000000000000000000024F40034
:10249000000000000000000000000000000000003C
:1024A000000000000000000000000000000000002C
:0824B000000000000000000024
:04000005080001C925
:00000001FF
