:020000040800F2
:1000000098630320650400086D0400086F0400086D
:100010007104000873040008750400080000000063
:100020000000000000000000000000003503000890
:100030007904000800000000ED03000851040008E6
:100040007F0400087F0400087F0400087F04000884
:100050007F0400087F0400087F0400087F04000874
:100060007F0400087F0400087F0400087F04000864
:100070007F0400087F0400087F0400087F04000854
:100080007F0400087F0400087F0400087F04000844
:100090007F0400087F0400087F0400087F04000834
:1000A0007F0400087F0400087F0400087F04000824
:1000B0007F0400087F0400087F0400087F04000814
:1000C0007F0400087F0400087F0400087F04000804
:1000D0007F0400087F0400087F0400087F040008F4
:1000E0007F0400087F0400087F0400087F040008E4
:1000F0007F0400087F0400087F0400087F040008D4
:100100007F0400087F0400087F0400087F040008C3
:100110007F0400087F0400087F0400087F040008B3
:100120007F0400087F0400087F0400087F040008A3
:100130007F0400087F0400087F0400087F04000893
:100140007F0400087F0400087F0400087F04000883
:100150007F0400087F0400087F0400087F04000873
:100160007F0400087F0400087F0400087F04000863
:100170007F0400087F0400087F04000800000000DE
:100180007F0400087F0400087F0400087F04000843
:100190007F0400087F0400087F0400087F04000833
:1001A000218700087F040008391700087F04000831
:1001B0007F0400087F0400087F0400087F04000813
:1001C0007F0400087F04000800F002F800F05CF8EB
:1001D0000AA090E8000C82448344AAF10107DA45A2
:1001E00001D100F051F8AFF2090EBAE80F0013F098
:1001F000010F18BFFB1A43F00103184720620100EA
:10020000406201000A444FF0000C10F8013B13F06B
:10021000070408BF10F8014B1D1108BF10F8015B5F
:10022000641E05D010F8016B641E01F8016BF9D152
:1002300013F0080F1EBF10F8014BAD1C0C1B09D1A9
:100240006D1E58BF01F801CBFAD505E014F8016B1B
:1002500001F8016B6D1EF9D59142D6D370470000AD
:100260000023002400250026103A28BF78C1FBD8BF
:10027000520728BF30C148BF0B6070471FB512F04E
:100280007BF91FBD10B510BD00F040FB1146FFF714
:10029000F5FF0FB400F00CF80FBC10F05BFF00F09E
:1002A0007CF903B4FFF7EEFF03BC00F029FB00006C
:1002B00004B010F079FF0448002110F0F7FF10F0AF
:1002C00085FF00F06AF900008826010880F309889C
:1002D0007047EFF309807047684680F30988044847
:1002E0000078C00714BF0220032080F314887047F1
:1002F00048260108DFF818C0EFF305831B0618BF76
:100300006047EFF31483DB0708BF604700DF7047E7
:10031000D7130108DFF818C0EFF305831B0618BFD9
:100320006047EFF31483DB0708BF604700DF7047C7
:10033000BD150108EFF30980816911F8021CE1BBCA
:1003400090E80F1010B5E047BDE81040EFF3098CBE
:100350008CE80700214B93E80600914208BF7047E4
:1003600041B91EF0100F16D11D49086820F0010098
:10037000086010E01EF0100F06BF2CED108A01205F
:10038000002081F825002CE9F00FC1F828C00CB43A
:1003900011F0C6FC0CBC1A60D2F828C0BCE8F00F03
:1003A00092F8250000280EBF6FF0020E6FF0120EBB
:1003B000BCEC108A8CF30988704710B5094A1268A2
:1003C000914209D8084C54F8214090E80F10A047FA
:1003D000EFF3098C8CE80F0010BD0000E400012051
:1003E00034EF00E0580900085809000810B511F072
:1003F0005BFBBDE81040154B93E80600914208BF37
:100400007047EFF3098C1EF0100F06BF2CED108A19
:100410000120002081F825002CE9F00FC1F828C048
:100420000CB411F07DFC0CBC1A60D2F828C0BCE8FA
:10043000F00F92F8250000280EBF6FF0020E6FF04B
:10044000120EBCEC108A8CF309887047E40001207E
:1004500010B511F02DFDCCE710B510F0BBFF11F079
:1004600027FDC6E70948804709480047FEE7FEE741
:10047000FEE7FEE7FEE7FEE7FEE7FEE7FEE7FEE754
:1004800004480549054A064B70470000B18B000837
:10049000C9010008985D032098630320985F03203A
:1004A000985F032000487047345D032053EA020C34
:1004B00000F069802DE9F04B4FF00006002B1FBFC4
:1004C000B3FA83F503FA05F424FA05F65E4012BF89
:1004D0001643B2FA82F502FA05F4C5F120051EBFF3
:1004E00022FA05FC44EA0C04203556EA044C4FEA93
:1004F000144418BF641C4FF000084FF000099042EC
:1005000071EB030C39D3002919BFB1FA81F701FA55
:1005100007F6B0FA80F700FA07F6C7F120071EBF0A
:1005200020FA07FC46EA0C062037B6FBF4FCA7EBE2
:100530000507103F07F01F0BCBF120060CFA0BFB51
:100540002CFA06F644BFB3460026202FA4BF5E4611
:100550004FF0000B5BEA060C08BF4FF0010B19EBE4
:100560000B09ABFB027C48EB0608C01B06FB02CC68
:100570000BFB03CC71EB0C01C1E70B460246414675
:100580004846BDE8F08B13B54FF000004FF0000176
:10059000AFF30080BDE81C40704710B50446AFF3D0
:1005A00000802046BDE81040FFF77BBE40EA010313
:1005B00010B59B070FD1042A0DD310C808C9121F0C
:1005C0009C42F8D020BA19BA884201D9012010BD46
:1005D0004FF0FF3010BD1AB1D30703D0521C07E013
:1005E000002010BD10F8013B11F8014B1B1B07D177
:1005F00010F8013B11F8014B1B1B01D1921EF1D1E8
:10060000184610BD40EA0103024630B59B0710D1E1
:100610004FF0013400E008C208C91D1B9D4315EAD4
:10062000C41FF8D013F0FF0102F8011B0DD01B0A04
:10063000F8E711F8013B002B02F8013B05D011F857
:10064000013B002B02F8013BF3D130BD431A28BF18
:100650009A4240F2B080032A1044114440F22680AE
:1006600010F0030F1EBF11F8013D521E00F8013DAE
:1006700010F0030F7FF4F6AF11F0030300F0F380E6
:10068000083AC0F00B8051F8043D083A51F804CD07
:1006900040F8043D40F804CDFFF7F3BF121D5CBFE6
:1006A00051F8043D40F8043DAFF30080D20724BF69
:1006B00011F8013D11F801CD48BF11F8012C24BFFC
:1006C00000F8013D00F801CD48BF00F8012C70474B
:1006D00001B500F070F801BD10B5203AC0F00B80F4
:1006E000B1E81850203AA0E81850B1E81850A0E836
:1006F0001850BFF4F5AF5FEA027C24BFB1E8185090
:10070000A0E8185044BF18C918C0BDE810405FEAFF
:10071000827C24BF51F8043B40F8043B08BF70477B
:10072000D20728BF31F8023B48BF11F8012B28BF80
:1007300020F8023B48BF00F8012B704701F0FF038F
:10074000114601B543EA032242EA024200F0B7F83B
:1007500001BD02F0FF0343EA032242EA024200F035
:10076000AEB84FF0000200B51346944696462039C5
:1007700022BFA0E80C50A0E80C50B1F12001BFF45A
:10078000F7AF090728BFA0E80C5048BF0CC05DF8C0
:1007900004EB890028BF40F8042B08BF704748BF0E
:1007A00020F8022B11F0804F18BF00F8012B704782
:1007B000704770477047032A40F2308010F0030CF6
:1007C00000F0158011F8013BBCF1020F624498BFA4
:1007D00011F801CB00F8013B38BF11F8013BA2F141
:1007E000040298BF00F801CB38BF00F8013B11F0BC
:1007F00003033FF471AF083AC0F0088051F8043B9E
:10080000083A51F804CBA0E80810F5E7121D5CBFC8
:1008100051F8043B40F8043BAFF30080D20724BFFB
:1008200011F8013B11F801CB48BF11F8012B24BF8F
:1008300000F8013B00F801CB48BF00F8012B7047DE
:10084000431A28BF9A427FF647AF104410F0030FB7
:1008500011441EBF11F8013D521E00F8013D10F079
:10086000030F7FF4F6AF103AC0F00A8010B531E9FB
:100870001850103A20E91850BFF4F9AFBDE8104005
:10088000530724BF31E9081020E9081044BF51F88C
:10089000043D40F8043D12F0030F08BF7047D20733
:1008A00028BF31F8023D48BF11F8012C28BF20F8BD
:1008B000023D48BF00F8012C70474FF000020429A8
:1008C000C0F0128010F0030C3FF44DAFCCF1040CDB
:1008D000BCF1020F18BF00F8012BA8BF20F8022BB3
:1008E000A1EB0C01FFF73FBF5FEAC17C24BF00F81A
:1008F000012B00F8012B48BF00F8012B70470000C6
:1009000001491820ABBEFEE7260002007546FFF73E
:10091000C9FDAE4605006946534620F007008546EE
:1009200018B020B5FFF7ACFDBDE820404FF0000641
:100930004FF000074FF000084FF0000B21F00701C7
:10094000AC46ACE8C009ACE8C009ACE8C009ACE80A
:10095000C0098D46704770470000000010B51E4862
:100960001E49086002201E490860072048600420D4
:1009700088600720C8600220086148618861002003
:10098000164948600021154881600421C16010218A
:10099000016140214161890081610021C1614FF401
:1009A00000610162490041620021816200F068F843
:1009B0000B490A4806F074FA18B101200949087079
:1009C00002E000200749087040F2036000F00CF8D4
:1009D0000448007810BD0000400100A0600501201F
:1009E000940501204E00012038B5044600200090F7
:1009F0000120214908601020486001208860002003
:100A0000C8604FF6FF721D4806F07FFA012004F01F
:100A1000C9F9022018490860102048600120886048
:100A20000020C8604FF6FF72144806F06EFA0320EB
:100A30001149086010204860082088600020C860C4
:100A40004FF6FF720D4806F060FA4FF40870009000
:100A5000042009490860102048600120886000983F
:100A6000C8604FF6FF72054806F04FFA214603486A
:100A700006F037FA38BD0000B005012060050120FE
:100A800030B587B004460D4600BF6648006840F0A8
:100A90000100644908600846006800F00100019008
:100AA00000BF00BF00BF5F480838006840F4800006
:100AB0005C49083908600846006800F4800001902D
:100AC00000BF00BF00BF0846006840F00400086097
:100AD0000846006800F00400019000BF00BF00BF9E
:100AE0000846006840F0080008600846006800F00A
:100AF0000800019000BF00BF00BF0846006840F03A
:100B0000100008600846006800F01000019000BF67
:100B100000BF00BF0846006840F02000086008469B
:100B2000006800F02000019000BF00BF00BF084631
:100B3000006840F0400008600846006800F040008F
:100B4000019000BF00BF00BF0846006840F0800071
:100B500008600846006800F08000019000BF00BFF8
:100B60000220039001200490022005900C200690A2
:100B70000820029002A92C4804F022F94CF20370DC
:100B8000029002A9294804F01BF94FF683700290E5
:100B900002A9274804F014F94FF63F00029002A979
:100BA000244804F00DF948F23310029002A92248BB
:100BB00004F006F92820029002A9204804F000F968
:100BC00000201F49486080211D4881608900C16064
:100BD0004900016189004161890081610021C16191
:100BE0004FF4003101620021416203218162002142
:100BF000C162016313481249086000BF08462063C0
:100C0000846300BF04F029F80D4804F057F800226F
:100C10000F21382005F075F8382005F062F807B08C
:100C200030BD00003838024000080240000C02408D
:100C3000001002400014024000180240001C024054
:100C4000C0050120106402402DE9F04190B0054636
:100C50004FF0000800200390029001907E48006849
:100C600001697E480078884728702878002870D06D
:100C70000024E4E004A800EB440207A800EB4401D0
:100C8000754800684369754800789847744800784B
:100C900001280BD107A830F814000DA921F8140081
:100CA00004A830F814000AA921F814006C48007850
:100CB00000F0020038B107A830F81400C0F58050E9
:100CC0000DA921F814006648007800F0040038B13E
:100CD00004A830F81400C0F580500AA921F81400C7
:100CE0005F48007800F0080058B107A830F81400F9
:100CF0000AA921F8140004A830F814000DA921F85D
:100D000014000DA830F81400564951F824108842F8
:100D100007D90DA830F81400524951F82410401A90
:100D200006E0504850F824000DA931F81410401A7C
:100D300086B20AA830F814004B4951F824108842B2
:100D400008D90AA830F81400474951F82410401A6D
:100D500007E07CE0444850F824000AA931F8141058
:100D6000401A87B2F01905280BDD0DA830F81400E1
:100D70003C4941F824000AA830F814003A4941F8E7
:100D800024003648007870280DD10DA830F81410D2
:100D9000A81C20F814100AA830F8141005F10C0053
:100DA00020F8141016E02F4850F824002F49098825
:100DB0004843C0F30F31A81C20F814102A4850F8FB
:100DC00024002B4909884843C0F30F3105F10C007A
:100DD00020F8141001A802AB03AA214600901F4876
:100DE000007810F015F80398C1B205F1160001550E
:100DF0000298C1B205F120000155019830B10128D7
:100E000009D002280CD0032814D10EE0012105F1ED
:100E10001B00015511E0022105F11B0001550CE0FA
:100E2000032105F11B00015507E0002105F11B001E
:100E3000015502E04FF0010800BF00BF641C287894
:100E4000A0423FF617AF284600F014F8804640460F
:100E500010B0BDE8F08100005000012059000120D1
:100E60005800012080060120940601205400012032
:100E70005600012038B50446002000900025694640
:100E8000174800780FF0B6FF0098182816D005DC38
:100E900058B110280CD014281CD10CE01C2810D0FC
:100EA000402811D0492815D111E00020A06213E09C
:100EB0000120A06210E00220A0620DE00320A062E9
:100EC0000AE00420A06207E00520A06204E00620FA
:100ED000A06201E0012500BF00BF284638BD000028
:100EE0005900012070B504460D46002610480480C4
:100EF0001048058010480168702088470E484168F6
:100F00007020884751280FD10B480C490860702089
:100F10000B49087008200B49087008480068C16830
:100F200007480078884700E00326304670BD00007F
:100F30005400012056000120200001205000012013
:100F4000590001205800012038B545680446014683
:100F5000284607F0D8FE00282BD02068304A1128F8
:100F60000DD006DC0B2825D00E2833D00F2852D107
:100F700012E0282849D0B0F5107F4CD108E09268E3
:100F8000002A16D02146284601B0BDE8304010475F
:100F9000214628465268F7E7284601F057F80090A6
:100FA000406E0468684601F079F8002C01D02846AC
:100FB000A04738BD284601F049F80090683000F09D
:100FC000A3FF009803216C3000F0ACFF684601F0ED
:100FD00065F820E0E168486809680D2902D02029F9
:100FE00013D105E0002810DD28460EF02DF806E0AC
:100FF000002804DD2846BDE838400EF025B8284614
:10100000BDE8384002210EF035B8E06818B900217B
:10101000284600F083F92046BDE8384008F038B98A
:101020001C020120F0B5044685B08069B4F908506F
:10103000668A0027CDE90265CDE900170490B4F96E
:101040000C00B4F91060C118B4F90A00B4F90E50DC
:10105000104433462A4600F007F80546616800F060
:1010600066F905B02846F0BD2DE9F04F85B01F4662
:10107000DDE911B4DDE90E5690468946824601F05D
:10108000EDFD16484C34CDE90204CDE900563B464F
:1010900042464946504608F043F8040018D000F094
:1010A000D5FF10225946049007F0FEFE0498302226
:1010B0000B493430FFF710FB094D04990C3D2868AB
:1010C000486604A800F0EAFF28684168204688477F
:1010D00002F03AFE05B02046BDE8F08F490F000847
:1010E00028020120F0B5044680688B4989B051F888
:1010F0002050606800287DD0052804D006287AD0CA
:10110000122879D1AEE0E86900284FD095E80E00AA
:101110008DE80F0004F110010FC903F02FFA00262B
:1011200055F8260002F081FAA169E8690A1A2169D6
:1011300001446069304401F039FBA169E8690A1A89
:1011400021690144E069801B01F030FBE169E86935
:101150000A1A616901442069304401F093FBE16996
:10116000E8690A1A61690144A069801B01F08AFBE1
:10117000761C022ED4DBA86802F057FAE069E96910
:101180006669431A206942183144801C521E01F0DE
:10119000C9FBE169E869A2690B1A61690144101A87
:1011A000401C921E01F0BEFBEE6913E05FF00006EA
:1011B00055F8260002F039FAE069831BA069821B0A
:1011C000606981192069304401F01CFB761C022EF5
:1011D000EEDB0226D5E90301CDE900016169E06992
:1011E00008444310A069891C821B2069304401F027
:1011F000A1FA02E089E012E08AE0D5E90501CDE933
:101200000001E36960690121184401EB6001A069F4
:101210009B1E821B2069304401F08CFA78E0206824
:1012200000F014FF0490206809F062FA40B1A06851
:1012300008B1002008E00498006F28B1012003E005
:101240000498406F00B10220049901EB8000C56E44
:1012500004A800F023FF00231A462846216801F065
:10126000F5F855E0206800F0F1FE0490866EEEB3CC
:10127000B0F95C70A168D1B3032942D05FF00001DE
:1012800000EB8101406D0C6C02F0ECF9204602F09D
:10129000CCF905A801F0FEFBBDF81410A88B0144A1
:1012A000ADF81410BDF81810081AADF81800BDF804
:1012B0001600801CADF81600BDF81A00801EADF8AF
:1012C0001A000498B0F96020B0F95E1005A802F089
:1012D00095F804A800F0E2FE022002F04DFA304634
:1012E00000F0B4FE3A4605A9079001E00BE006E0E5
:1012F00001F074F90DF11C0000F0D0FE08E00121AE
:10130000BEE70221BCE704A8F6E7206808F0BEFEAD
:1013100009B00020F0BD00002C5B01084FF4807282
:101320000029114601D007F083BD07F0D3BC2DE999
:10133000FF410E4605004FF0010421D001F08EFC64
:10134000284600F083FE0190876E01A8009700F008
:10135000A5FE3146684603F0E3FB78B1009800240F
:10136000B84208D0284600F071FE019000998166CD
:1013700001A800F093FE284608F018FC02F0E4FCF7
:1013800004B02046BDE8F081F8B544680546014642
:10139000204607F0B8FC002836D028680B2839D042
:1013A0000E2805D00F2821D0B0F5107F3CD12CE0BD
:1013B000204600F04BFE009010F8746F47786846A6
:1013C00000F06CFE204609F093F910B3E86841681C
:1013D000002929DD0068202826D17F1CB7FBF6F004
:1013E00006FB1071204600F032F91DE0254620462C
:1013F00000F02CFE0090006F0468684600F04EFE7E
:10140000002C01D02846A047F8BD294620460DF003
:10141000E5FE09E0204600F019FE0090783000F06B
:1014200073FD684600F03AFE2846BDE8F84007F034
:101430002FBFF0B585B0B0F90850468A846902968E
:10144000CDE903540027CDE90017B0F90C10B0F92D
:101450001050B0F90E40B0F90A00194410442B4660
:10146000224600F003F805B0F0BD00002DE9F04F72
:1014700085B01D46DDE90E9716468A468346DDF89F
:10148000488001F0EBFB244C0EB135B10AE0206836
:101490008068006880470646F7E720688068006833
:1014A000804705461C481D49001DC068884201D17F
:1014B00047F0010708F15400194ACDE90220CDE9AF
:1014C00000972B4632465146584607F029FE050044
:1014D0001CD000F0BBFD10220490119907F0E4FC31
:1014E0000D4904983C22091D3430FFF7F5F80498A3
:1014F00021680167022180F874100F21C16704A8D8
:1015000000F0CCFD206841682846884702F01CFCAA
:1015100005B02846BDE8F08F58020120785634FF08
:10152000891300082DE9FF470446006810B109F04F
:10153000DFF868B10022314850F8221060680A28AC
:1015400041D007DCF0B306280DD0072854D106E0BF
:101550000122F0E712280AD019284DD137E02046A1
:101560000AF056FA48E020460BF0B4FB44E020684D
:1015700000F06CFD0290B0F9548090F85650476C22
:10158000466B02A800F08AFD206800F050F8814602
:10159000684607F083FFBDF8001009EB050008441A
:1015A000ADF80000246A304602F05CF8022002F038
:1015B000E3F8384602F039F842466946204601F021
:1015C0000DF819E007E020460BF002FC14E08869F2
:1015D00004B0BDE8F087206808F058FD206800F0EE
:1015E00035FD0390B0F90610B0F90220891A491CA4
:1015F000C16703A800F052FD0020E9E7A45B0108E1
:1016000038B505004FF000040FD001F027FB284645
:1016100000F01CFD009018B1046C284608F0C6FAD2
:10162000684600F03BFD02F08FFB204638BD38B520
:10163000044601F013FB204600F008FD0090C46F43
:10164000684600F02BFD02F07FFB204638BD38B520
:101650000C4605001BD001F001FB284600F0F6FC0B
:10166000009090F87410A1420CD980F8754068463B
:1016700000F014FD284608F099FA0521284608F0E4
:1016800019FB02E0684600F009FD02F05DFB38BD81
:10169000FEB50D46040022D0002D20D001F0DEFA68
:1016A000204600F0D3FC0190866F01A8009600F060
:1016B000F5FC2946684603F033FA70B10098B04251
:1016C00008D0204600F0C2FC01900099816701A873
:1016D00000F0E4FC204608F069FA02F035FBFEBD9C
:1016E00000B589B024216846FFF73BF81920019026
:1016F00003480068806841686846884709B000BDB3
:101700005802012010B507F0DFF907F08FF910BD7E
:101710007CB507F0F1FE0546002000902B46044AF8
:1017200005210190034800F077FD044620467CBD6A
:10173000D90A0108A4250108022002490968886025
:1017400070470000E059032001460878103818233C
:10175000B0FBF3F20848805CC865032A05D9086825
:101760006FF30900001D886503E008686FF3090046
:101770008865886D704700009826010801460020A2
:101780008A6A8B6903BB32B1012A0CD0022A10D0BD
:10179000032A17D115E0CB6A03F08073B3F1807F81
:1017A00000D101200FE0CB6AB3F1C07F00D101204E
:1017B00009E0CB6A03F08073B3F1807F00D1012090
:1017C00001E000E000BF35E08B69B3F5005F1BD19D
:1017D00032B1012A06D0022A0CD0032A12D10BE022
:1017E000012010E0CB6A03F08073B3F1807F00D159
:1017F000012008E0012006E0CB6AB3F1C07F00D1F0
:10180000012000E000BF15E032B1012A05D0022A14
:1018100004D0032A0CD103E000BF00BF012008E080
:10182000CB6A03F08073B3F1807F00D1012000E028
:1018300000BF00BF704700BFFEE730B5024600237F
:1018400000240868012816D013686FF30E03D1E94D
:1018500001052843CD6828430D6928434D69284375
:101860008D692843CD6928430D6A28434D6A284372
:101870000343136019E0136823F4F843D1E9070523
:1018800028434D6A2843034354686FF30E04D1E99B
:1018900001052843CD6828430D6928434D69284335
:1018A0008D692843044313605460002030BD024614
:1018B000506940EA4100506100207047F8B5064683
:1018C0000C461546002000900027D4E9000108438B
:1018D000A168491E40EA4110E16840EA41200090B9
:1018E0000098306103F082FB074609E0681C38B1BC
:1018F00025B103F07BFBC01BA84201D90320F8BD32
:10190000B06900F020000028F0D100BFF7E7000028
:1019100070B50346154600220024012D1FD09A6899
:1019200002F070420868401E4E68761E40EA0616B5
:101930008868401E46EA0026C868401E46EA00360F
:10194000088A401E46EA0046888A401E46EA00563B
:10195000087E401E46EA006002439A6022E09A68D0
:1019600011480240C868401E0603888A401E46EAA5
:1019700000500243DC6804F070440868401E4E6862
:10198000761E40EA06168868401E46EA0026088A47
:10199000401E46EA0046087E401E46EA00600443B8
:1019A0009A60DC60002070BDFF0F0FFF2DE9F0434F
:1019B0000446C56887B090468946002001F046FE7F
:1019C000064625B1287910B146F0020001E026F064
:1019D000020001F03BFE2069012558B1D4E9021252
:1019E0008DE82600039563882288046841464846AE
:1019F000A0471EE0124F134B214638681B68427CFB
:101A0000E068984730B9E088012801D0002001E063
:101A10003868806BA288E388A1680095CDE904103E
:101A2000CDE902320195638822884146484605F097
:101A3000C3FD07B03046BDE8F04301F007BE00002B
:101A400050010120400101200E4810B5006801F04E
:101A5000E1FD0D48006801F0E8FD012001F06EFE97
:101A6000002001F079FE002001F086FE002001F048
:101A7000EDFD0648006801F0F5FDBDE810400020CE
:101A800001F02EBE4C01012048010120440101203B
:101A9000014AC2E900017047F0000120014AC2E991
:101AA00000017047F8000120014AC2E900017047B7
:101AB00000010120014AC2E900017047F401012040
:101AC0002DE9F04FDFF828B191B04FF0FF35DBF88A
:101AD0000030B3F922100691DE69B3F92490F4695D
:101AE000A189814206D8E289824203D3471AD4F8F9
:101AF000008012E0D4E9018100296FD00A88824277
:101B00006CD84D88854269D3801A82B2486800EB50
:101B10008200B0F90070B0F90250781C5ED0307EBF
:101B2000A17C10FB01FA217CCDE90701B3F92A6001
:101B3000304606F031FAC0B20E90DBF8000007FB29
:101B40000A81A37C826B0127CDE90412CDE90273DF
:101B5000C069089AC17E807ECDE90001DDE90603F7
:101B6000494605F029FD681C18D046F0020006F031
:101B700013FADBF80000A37C05FB0A81826BCDE938
:101B80000273CDE90412C069089AC17E807ECDE956
:101B90000001DDE90603494605F00EFDDBF8000013
:101BA0005D46C069417E007E814214D9022E12D06A
:101BB00086F0040006F0F0F92868C069027EC37E52
:101BC00012FB0391437E857E089A06984B4412FBD4
:101BD000050205F07DFE0E9806F0DEF9DBF8000048
:101BE000627C418C1144418411B0BDE8F08F00004B
:101BF0005001012004480068C069C06909B1027C35
:101C00000A60407C704700005001012002200880DB
:101C10007047C06982898A4202D8C2898A4210D23A
:101C2000806880B102888A420DD843888B420AD3EB
:101C3000406800EB8100A0EB8200B0F900000028B2
:101C400001DB012070470020704700002DE9F043C0
:101C5000304C034687B020681946B0F92A60C06945
:101C6000C06900F086F8002850D041680088181A32
:101C700001EBC0053046AF7806F08EF9814620684A
:101C80006A680123816BCDE90237CDE90421C1697E
:101C9000CB7E8A7ECDE900230B7EB0F924102A7812
:101CA000B0F9220005F088FC2068C069417E027E00
:101CB00091421FD9C07E11FB00F812FB00F7022EE3
:101CC00018D000F0ECFE064600F0B2FE01F0ADFCCC
:101CD00021682A78CB69B1F92200DB7E12FB03026E
:101CE000B1F9241001EB0803394405F0F1FD304649
:101CF00001F09BFC484606F04FF920686A78C369FA
:101D0000B0F922109B7E12FB0311418407B0BDE89D
:101D1000F08300005001012030B50F4C05460B4602
:101D200020682946C069C06900F023F8002812D055
:101D30004168008824682A1A0120E46900EBC20087
:101D4000085CA47E10FB04F0002B04D011F83210C4
:101D500011FB04F1196030BD500101200120088001
:101D6000704700B5C06900F004F8002800D00120D9
:101D700000BD06E002888A4202D842888A4202D226
:101D800080680028F6D170472DE9F0410025154EF6
:101D9000154C18E02069C5EB451700EB870074224D
:101DA000001D3168FEF798FC2069002140F82710DB
:101DB00000EB870000F10C018161011D0A1DC0E9E3
:101DC0000F126D1C4164A0688542E3DB0CF034FA0D
:101DD0002169C0EB401001EB8000001D3060BDE8C0
:101DE000F0810000500101205003012070B510491E
:101DF0000E480860084602F08BFE0D4C143CA068AB
:101E0000C0EB40108500284600F09AF8094B20618D
:101E10002A461B68002198474FF0FF30206001F0F0
:101E2000D9FFBDE870400CF007BA0000B1F100081E
:101E3000640301203403012000F0D2FEFFF768FCA8
:101E40000549086006E000F045FD05200FF0A0F907
:101E500001F092FFF7E700000000012010B5040038
:101E600009D000F0FBFE204608F068FF044601F0B0
:101E70006BFF204610BD002010BD000038B50546A0
:101E800000F0ECFE2846FFF7E9FF04000AD000F05E
:101E9000DDF8064B00902A461B68002198476846EB
:101EA00000F0FCF801F050FF204638BD340301205B
:101EB000024A106021F0030050607047145B032059
:101EC00010B5040011D000F0C9FE0848042101EB50
:101ED000C401406B4158486808F0E8FE20460DF008
:101EE00021FBBDE8104001F02FBF10BD545A032064
:101EF000002805D0034AD16B016001B14860D0636E
:101F000070470000545A032010B5044600F0A6FEA6
:101F10002068FFF7D5FF00202060BDE8104001F0E9
:101F200013BF000070B50D460646002405E000BF53
:101F300006EB8400FFF7E8FF641CAC42F8DB70BDE1
:101F40002DE9F04104460CF0F7FB2848E41C24F08E
:101F50000305016C2D1DA94200D90D46C46B13E089
:101F600054F8042CAA420ED184B1216809B16268E8
:101F70004A60616809B122680A60C26BA24231D12D
:101F80002168C1632EE02468002CE9D18046816B72
:101F9000C0680F1857F8040C3E1A306838B100209A
:101FA0000DF02AFB57F8040C3E1A3068D0B970685F
:101FB000A84217DB3044441B3046241D0DF0D4FAF0
:101FC000D8F80C10491BC8F80C10D8F81410294484
:101FD000C8F814107068401B02D0314608F066FE45
:101FE00044F8045C2046BDE8F0810000545A032008
:101FF00010B500240CF0A0FB0C490F2001EBC0022F
:10200000526C1AB101EBC000406C08E0401EF5D5DF
:1020100008E04168A14200D90C46806810B1806890
:102020000028F6D1A4F10C0010BD0000545A032082
:10203000002138B10449042202EBC000496B085862
:1020400041680C3908467047545A03200549CA694B
:10205000521CCA61496B01EBC0010A78521C0A701C
:1020600000F034B8545A032010B500F0F7FDFFF724
:10207000BFFF64220849B0F5800F04D990FBF2F449
:10208000086A444303E0096A4143B1FBF2F401F0FA
:102090005BFE204610BD0000545A03200A49026826
:1020A0004B6B52F8082C03EBC2021378022B03D3BC
:1020B000CB690BB15B1ECB611178491E11700021F9
:1020C0000160084670470000545A03200349042267
:1020D00002EBC000496B085808307047545A03207F
:1020E00070B514460D46064600F0B8FD204600F0D7
:1020F000E3FC0300174804EB840109D050F82100E9
:1021000041688068711A2A1A184601F0D9FA1CE051
:1021100000EB8104A268B24201D0012200E000225B
:10212000E368AB4201D0012300E000231A430CD046
:10213000236943B150F82100816840686A1A311A56
:10214000184601F023FAC4E90265BDE8704001F0C9
:10215000FBBD0000945C032010B5C2B2CBB2D21A12
:1021600000D5524293B25B43C0F30722C1F3072468
:10217000121B00D55242000C92B2A0EB114002FBA0
:10218000023200B2002801DA404200B280B200FB05
:10219000002010BD10B50021084600F011FD43F6E7
:1021A000FF725042BDE8104013460146AFF3008075
:1021B0002DE9FC411C4615460E46074600F04EFD33
:1021C000042005F0E9FE804612484069C16C006DAC
:1021D0000F4406440D440444ADF80070ADF80450BB
:1021E000ADF80260ADF80640684608F00DF907E06A
:1021F00023462A463146384605F06AFB08F0C6F801
:102200000028F5D1404605F0C7FE01F09DFDBDE870
:10221000FC8100003C0101202DE9F8431C00DDE9B0
:10222000089816460F46054602D107F065F90446A0
:1022300000962E6843464A4621462846B047061E69
:1022400039D007F04EF98146698A304606F0F0FD34
:10225000304607F073FF484607F070FF4FF0000864
:102260000CE000BFCDF8008055F81CCF00231A46C3
:1022700049462846E04700B307F060FF7F1E002F65
:10228000F0DC1D21484607F00CFE601C12D000F067
:10229000E5FC07F07DF930B1FFF718FF8469B4421F
:1022A00001D02000F8D1B44202D0304607F096FEAB
:1022B00001F04AFD3046BDE8F883304607F022F8C9
:1022C0000020F8E72DE9F0411C4616460D4607466A
:1022D000022B02DB0020BDE8F0811C20FFF730FE5E
:1022E0000028F8D00DB105610AE0094A52F824101F
:1022F00009B905E011460A68002AFBD109690161A4
:1023000084618682002101604160C0E90217E2E732
:102310008401012070B51D46FFF7D4FF040009D0E9
:1023200000F00EF8E068006820B90348006800EB90
:1023300085008465204670BD50010120FFF7D8BD9F
:1023400070B5C0B38269022A36DA2149531C0C7871
:102350009C4200DA0B701F4C54F8221019B944F853
:10236000220032E019464B68002BFBD106E0CB6817
:10237000C5681B682D68AB4203DD09680029F6D1EA
:102380001AE0C1B1CB68C6681B683668B3420CD18D
:10239000838A012B05D008E01946DB681B68AB4235
:1023A00003DB0B68002BF7D129B14B6833B1186000
:1023B0004A68426004E0FFE7012070BD44F8220053
:1023C0004860884200D100210160002070BD0000FB
:1023D000AA0101208401012010B503E00468FFF781
:1023E000AFFF20460028F9D110BD000010B50C4BFE
:1023F0008269002153F82240844205D1046843F8E1
:102400002240026802B1516042680AB10368136059
:1024100002680AB1436853600160416010BD00006A
:102420008401012000207047022801DB0020704752
:10243000054951F8200004E0C16809680029F6D078
:1024400000680028F8D17047840101202DE9F84385
:102450001D461646884604000CD0FFF7F7FD009095
:10246000006807686846FFF719FE2B46324641466A
:102470002046B847BDE8F8832DE9FC4706005FD049
:1024800000F0ECFB00F02EFB3C4C81462068B0F9DC
:10249000228000F061FB216807468A8CD01B88846B
:1024A00041E000BF47F6FF71304602F0B7F98246BF
:1024B0000146304602F088F92168054691F82C0063
:1024C00000F00300012841D002283BD000204A8CB4
:1024D000101A4884ADF800006A1E1044ADF80400DC
:1024E000888CADF80200A9F101010844ADF806009E
:1024F0006A465146304601F011FE2168BDF80200DF
:1025000088845146304601F00DFB064430780A2895
:102510001ED00D281CD0BDF8000021682844488436
:10252000307818B1761C30780028BBD12068818CB7
:1025300039448184818D21F00301818501F004FCFF
:10254000BDE8FC8705EBD5704010C0E72846BEE724
:10255000206890F82C1001F0030101290BD002290A
:1025600009D0018C418431780A29D9D1828C02EBBF
:1025700009018184D4E7A0F82280F4E7500101200A
:1025800070B514460D46064600F068FB0548006825
:10259000458484843046FFF76FFFBDE8704001F04A
:1025A000D3BB0000500101202DE9F04107460A4845
:1025B00015460E460068B0F92C0040F0020001F00C
:1025C000CBF804462A4631463846FFF7D9FF204665
:1025D000BDE8F04101F0C0B85001012047F6FF739B
:1025E000AFF300802DE9FC411F4690460D460600E2
:1025F0004FF000041AD000F031FB65B1284607F017
:102600008DFD040007D002462946684602F078F99D
:10261000684607F083FD3B4642462946304601F0B6
:10262000D5FD204607F07AFD01F08EFBBDE8FC8168
:102630007CB514460D46064600F010FB11480068B4
:10264000C16C006D0D4404443188681E0844ADF827
:102650000400ADF800507188601E0844ADF8060013
:10266000ADF80240684607F0CFFE06E02246294654
:102670003046FFF79BF907F089FE0028F6D101F0FC
:1026800063FB7CBD500101201CB50A46014668462B
:1026900002F030FA00F0E2FA2548BDF800100068B8
:1026A00030F84C2F1144ADF80010BDF802108288AC
:1026B0001144ADF80210BDF8041002881144ADF8C1
:1026C0000410BDF8061080880844ADF8060068467E
:1026D00007F09AFE27E000BFBDF900400BE000BF05
:1026E000BDF90210204605F095F8BDF90610204608
:1026F00005F090F8A41CBDF90400A042F0DABDF981
:1027000002400AE0BDF90000214605F083F8BDF95A
:102710000400214605F07EF8A41CBDF90600A04285
:10272000F0DA07F033FE0028D6D101F00DFB1CBD16
:10273000500101202DE9F04F87B09B46DDE910984C
:1027400092460C46054600F089FA16480168C86CA6
:10275000096D47190E1900EB0A0501EB0B04ADF8E2
:102760001070ADF81450ADF81260ADF8164004A822
:1027700007F04AFE88B1DFF830B04FF0010ACDE92A
:102780000098CDE902BA23462A46314638460AF077
:1027900088FB07F0FBFD0028F1D101F0D5FA07B066
:1027A000BDE8F08F50010120BD7700082DE9FC4104
:1027B00014460D46064600F051FA114F3968C86CB0
:1027C000096D054404440E44ADF80050ADF80440D2
:1027D000ADF80260ADF80660684607F015FE08E047
:1027E000386822463146406E03682846984707F00D
:1027F000CDFD0028F4D101F0A7FABDE8FC8100006E
:10280000500101202DE9FC411C4616460D460746A5
:1028100000F024FA1A480168087ECA6C096D174452
:102820000D440C44401E391A1644ADF800103118FE
:10283000ADF80410291A2044ADF80600ADF80210D6
:10284000684607F0E1FD15E032462946384604F0B7
:10285000B5FF32462146384604F0B0FF621E691CBF
:10286000384605F00BF8621E691C304605F006F884
:1028700007F08CFD0028E7D101F066FABDE8FC8185
:10288000500101207CB514460D46064600F0E6F9DD
:102890000F480068C16C006D0E4405440444ADF857
:1028A0000060ADF80460ADF80250ADF8064068462F
:1028B00007F0AAFD06E022462946304604F0DEFF76
:1028C00007F064FD0028F6D101F03EFA7CBD00005F
:1028D0005001012010B5002400E0012400F004F8AC
:1028E0000028FAD1204610BD0B4810B5006800241E
:1028F00010B1804700B1012406F07CFD00B1012435
:102900000648006810B1804700B1012404480068FF
:1029100000B18047204610BD5801012090010120E0
:102920008C0101202DE9FC411C4615460E46074648
:1029300000F094F910480068C16C006D0F44064423
:102940000D440444ADF80070ADF80450ADF80260D9
:10295000ADF80640684607F057FD07E023462A46D3
:102960003146384604F0B4FF07F010FD0028F5D1D9
:1029700001F0EAF9BDE8FC815001012008B50B46E1
:10298000002805D0009281888268C08800F001F894
:1029900008BD10B50828029C30D008DC04FB01F407
:1029A00001280AD0022813D0042804D11CE01028E2
:1029B00028D020282CD0002010BD04EBD30003F039
:1029C0000701105CC1F10701C84000F0010010BD13
:1029D00004EB93000621105C01EA4301C1F10601FA
:1029E000C84000F0030010BD04EB5300D907105C91
:1029F00002D000F00F0010BD000910BD04FB013033
:102A0000105C10BD481004FB003032F8100010BDFF
:102A1000881004FB003052F8200010BD034951F823
:102A20002000C1688A6A0821104700008401012043
:102A300010B500F013F904F07BFF05F043F80446ED
:102A400001F082F9204610BD10B5044600F006F9E9
:102A5000054800210068C069426820469047044646
:102A600001F072F9204610BD5001012070B50C46EE
:102A7000054600F0F3F8064821460068C069426840
:102A800028469047044601F05FF9204670BD0000DB
:102A900050010120002801D006F000BD704710B59C
:102AA00000F0DCF804F04CFF05F00CF8044601F0EF
:102AB0004BF9204610BD00000021022802D2024935
:102AC00051F8201008467047E401012010B500F0CD
:102AD000C5F803480068047C01F036F9204610BDB3
:102AE0005001012010B500F0B9F804480068C06931
:102AF000447E01F029F9204610BD0000500101205C
:102B000070B515460E46044600F0A8F82A46314630
:102B1000204604F05BFF040002D0002030602860F3
:102B200001F012F9204670BD70B50C46054600F064
:102B300095F82146284601F09BFEBDE8704001F063
:102B400003B910B5044601F085FE01462046BDE8F4
:102B5000104001F039BE000010B5002400F07EF8EE
:102B60000B48006890F82C1001F00C01042904D0E7
:102B7000082906D00C2907D103E0C069047E641E31
:102B800002E0C069007E440801F0DEF8204610BD76
:102B900050010120017EC07E11FB00F07047000053
:102BA000024951F820000069006870478401012043
:102BB000024951F8200000694068704784010120F3
:102BC00070B50C46054600F049F804480068458495
:102BD000848401F0B9F8002070BD0000500101208C
:102BE00070B501F0CBF91B4C2E20207001F0CEF80F
:102BF00019480BF05DFD04F0D7FF054604F010FF07
:102C0000C0B1002604F020FFB0B10020064307D079
:102C100004F023FF064604F00CFF314605F0B6F938
:102C20000021084600F06AFD06F012FFFFF7ACF83D
:102C3000206B09E00126E5E70120E7E7006800B125
:102C40008047206B406820630028F7D10120A070E6
:102C5000284670BD3C010120205B032070B5184C54
:102C6000E06820B101F08DF86168884204D001F07D
:102C7000BDF801F086F86060E068401CE060012863
:102C80001CD10BF0D9FA05462068854216D00028E1
:102C900013DBFFF7C7FB01462068C0EB4012206939
:102CA00000EB82029167C5EB4511064A00EB8100FB
:102CB000011D1160806FFFF78FFB256070BD000064
:102CC00050030120500101201CB5040004D10E481E
:102CD0000068046E002C16D0FFF7C0FF2046FFF7F7
:102CE000B5F9009044696846FFF7D8F94CB1204621
:102CF000FFF7ACF9019081688968884701A8FFF760
:102D0000CDF901F021F81CBD5001012001490A460E
:102D100000F002B801F0FFFF2DE9F04387B015463F
:102D20000C465FEA000846D0FFF798FF002000F04D
:102D30008DFC814621480068066E4046FFF786F903
:102D400000900068806900F049FC074640F6FF707B
:102D5000C44204D10098B0F90440B0F9065000987C
:102D6000611E0289ADF804401144ADF80810418994
:102D7000681E0844ADF80650ADF80A0006F078F970
:102D80006846FFF78BF901A807F03EFB06E02A46EC
:102D90002146404600F0D0FA07F0F8FA0028F6D1B4
:102DA000384600F01BFC304600F090F9484600F031
:102DB0004DFC00F0C9FF07B0BDE8F08350010120D1
:102DC0002DE9FE4F984691468A46834600270C9E81
:102DD000FFF744FF184819490068407C51F820402B
:102DE000E1680968042903D02468002CF8D100E0C8
:102DF0001CB9FFF719FB041E1BD0E0680121C26A51
:102E000020469047050011D02469A0688047401CE7
:102E100002D10B4C46F001060096CDE90154434621
:102E20004A465146584600F0E5F9074600F08CFF47
:102E30003846BDE8FE8F00005001012084010120CA
:102E4000AC5B010838B504001CD0FFF707FF0E4843
:102E50000068006EA04201D100F0B2FB2046FFF7EF
:102E6000F5F80090406908B100F057FF009800683D
:102E7000FFF764FA6846FFF711F92046FFF720F8DC
:102E800000F062FF38BD0000500101202DE9FF4F26
:102E900083B09A468B460746FFF7E0FEDFF838918D
:102EA000D9F80000447C4D4800570128204606DD33
:102EB00004F0BCFD0546204604F0CCFD05E004F01E
:102EC0009EFD0546204604F0A0FD04461FB302A95E
:102ED00001A8FFF729FEB7F90000002800DA00205A
:102EE000B7F902608046002E00DA002601984119E9
:102EF000B7F90400491E0CF062F805460298011962
:102F0000B7F90600491E0CF05AF8A5EB0802841B1D
:102F1000521C641C03E04FF0000846462A46BAF1F2
:102F2000000F01D1C4F1000A002A51DD002C4FDD51
:102F300010980090534631464046FFF741FF5FEA44
:102F4000000A10D000F07CF80746A04206D0D9F85D
:102F50000000806C10B1322107F0E6FD504600F011
:102F6000B5F8002523E059460598884700F0ECFEA7
:102F7000012007B0BDE8F08F611BB94202DA50466C
:102F800000F088F83DB172194146504600F0C6F88D
:102F90005046FFF799FE5946059888471048016842
:102FA00009B1002088475046FFF7B0FE3D44A542D6
:102FB000E2DB5046FFF746FF002000F087F8A7420B
:102FC00006D0D9F80000806C10B1332107F0ACFDB9
:102FD00000F0BAFE0020CCE750010120A80101203A
:102FE0007C03012038B505004FF0000411D0FFF735
:102FF00035FE2846FFF72AF80090006800698068CF
:10300000804705F04FFB04466846FFF747F800F09D
:103010009BFE204638BD38B504000ED0FFF71EFEDB
:103020002046FFF713F800F1180400906846FFF7F8
:1030300035F800F089FE204638BD002038BD00007C
:1030400038B504460025FFF709FE1CB9084800689A
:10305000046E44B12046FEF7F9FF0090B0F90A5023
:103060006846FFF71BF800F06FFE284638BD0000E9
:103070005001012070B505460024284608F00EFADC
:10308000641C18B1BDE8704000F07AB8052CF4DB80
:1030900070BD000038B50C46050004D10A48006830
:1030A000056E002D0FD0FFF7D9FD2846FEF7CEFFA5
:1030B0000090B0F90A10A14200DD44816846FEF795
:1030C000EDFF00F041FE38BD50010120F8B5054686
:1030D000FFF7C4FD104E3068046ECDB10CB100F0A6
:1030E0006FFA06F0C5F82846FEF7B0FF0090316889
:1030F0000D660068FFF724F96846FEF7CFFF04F07D
:10310000BDFF04F00DFF00BF00F01EFE2046F8BD1D
:1031100000F056FAF8E70000500101207CB5154692
:103120000E46040004D115480068046E002C24D01B
:10313000FFF794FD2046FEF789FF2DB20090C58071
:1031400034B2848004F0ECFE0098406980B1FEF750
:103150007DFF009A0190B2F908108180B2F90A202F
:10316000C28011B10AB10480458001A8FEF796FF24
:103170006846FEF793FF00F0E7FD7CBD500101209B
:1031800001490A4600F002B801F0FFFF7FB515467D
:103190000C4606002DD0FFF761FD3046FEF756FFC6
:1031A00040F6FF710190CC4203D1B0F90440B0F970
:1031B00006500289611E1144ADF80840ADF80C10AC
:1031C0004189681E0844ADF80E00ADF80A5001A808
:1031D000FEF764FF02A807F017F906E02A46214629
:1031E000304600F091F807F0D1F80028F6D100F051
:1031F000ABFD7FBD2DE9FF4FDFF8E8B083B01C4683
:10320000DBF80010DDE9106092464FF000084B7CBF
:1032100042461299FFF756F8050060D02869806889
:10322000804705F03FFA81460AFB09F1C91DCF0826
:10323000FEF71AFFF10705D1C11700EB917080105E
:1032400000EB4000002C09DC1FB11838B0FBF7F090
:1032500000E000206442A04200DC0446F00707D1F1
:103260000090DDE903012346524600F0DBFC804676
:10327000002C03DC2846FFF761F830E004FB07F080
:103280001830F10702D0FEF7E9FD01E0FEF7F6FD88
:1032900006001CD0FEF7DAFE0190056003998180DC
:1032A0000499C180A0F808A04481C0F81480C0E946
:1032B000037901A8FEF7F2FE1298AE602861DBF8F0
:1032C0000000407CA861304607B0BDE8F08F28467A
:1032D000FFF734F8B8F1000001D0FEF7F1FD00204F
:1032E000F2E7000050010120054B30B41B68054C8B
:1032F0005B7C54F823301B6930BC0CF03FBF0000EE
:103300005001012084010120F8B515460E460746FC
:10331000FEF79CFE009000681621C068426A0020FB
:10332000904704466846FEF7B9FE002C03D02A46B3
:1033300031463846A047F8BDF8B516460F46050099
:1033400012D0FEF783FE009044696846FEF7A6FEA1
:103350002846FFF747FE0346082800DD2CB1324619
:10336000394628460CF0D4FFF8BD32463946284687
:103370000DF06EF9F8BD0000094A126802B1002094
:10338000074A243252F82030002B07DBA2F1180341
:1033900043F820104FF0FF3142F820107047000032
:1033A000B801012010B5002821D009B30AB3B1F942
:1033B0000040B2F900309C4200DA23460380B1F9A4
:1033C0000240B2F902309C4200DA23464380B1F950
:1033D0000440B2F904309C4200DD23468380B1F9F9
:1033E0000610B2F90620914200DC1146C18010BDE2
:1033F00011460A6802604968416010BD00280BD080
:1034000003880B44038083881944818041881144D8
:103410004180C1881144C1807047000070B50E4DD5
:103420000446D5E90001884209D10C49884201D1FE
:103430003C3000E00C3807C884E8070006E090E85C
:103440000E0084E80E000AF04DFF2860207A002864
:1034500000D0012070BD000078040120D45C03205E
:103460000448D0E90010814201D1012070470020BA
:10347000704700007804012010B509490446086827
:1034800020B908480860084601F042FB0749064891
:10349000086020460CF004FEBDE8104000F07CB946
:1034A00088040120C5F100088596000894010120D8
:1034B00070B50025FFF7D2FB094CD4E90020824209
:1034C0000AD0D2E9005610460AF016FF20603146B5
:1034D000284606F0F7FB012500F036FC284670BDB3
:1034E000400301202DE9FC41154DDDE908742D68EC
:1034F000B5F90860864200DD3046B5F90C609642A9
:1035000000DA3246824219DBB5F90A608E4200DDEC
:103510003146B5F90E509D4200DA2B468B420DDB49
:1035200000E02C46E5682D6825B1042D02D0256801
:10353000002DF6D1CDE9007404F0DCFBBDE8FC8180
:1035400050010120B0F90220B1F906309A4213DC93
:10355000B1F90220B0F906309A420DDCB0F9002032
:10356000B1F904309A4207DCB1F90010B0F9040057
:10357000814201DC0120704700207047014602486B
:1035800074220068FDF7A8B85001012070B51546F7
:103590000E4604000AD0FFF761FB2A46314620465A
:1035A0000CF0D0FABDE8704000F0CEBB70BD00005A
:1035B000024974220968FDF78FB80000500101200C
:1035C00010B5FFF74BFB04F061FC04F057FD05F06C
:1035D0004FFDBDE8104000F0B7BB000070B50B4DCB
:1035E00004462868467CFFF739FB022C09D22046A6
:1035F000FEF71AFF28B128684474FFF7E1FF04487A
:10360000046000F0A1FB304670BD000050010120B5
:10361000AC02012010B50446FFF720FB204604F061
:1036200055FCBDE8104000F08FBB10B50446FFF715
:1036300015FB204604F082FCBDE8104000F084BB7E
:1036400001498860704700003C01012010B5044624
:10365000FFF704FB204604F09FFC044600F074FBD7
:10366000204610BD70B50446FFF7F8FA044800681C
:10367000C56904B1C46100F067FB284670BD000055
:10368000500101200249CA69C86110467047000014
:103690000801012001494860704700003C010120F9
:1036A00002490A68086010467047000008010120BE
:1036B00002494A684860104670470000080101202E
:1036C00070B514460D460646FFF7C8FA224629464D
:1036D000304604F07DFC044600F036FB204670BD09
:1036E00070B50546FFF7BAFA03480068847E857610
:1036F00000F02AFB204670BD5001012070B50C4639
:103700000546FFF7ABFA09482246058008480480C1
:1037100008480068417C084850F82100C1680B6ADD
:1037200029469847BDE8704000F00EBBB00101206B
:10373000B2010120500101208401012070B505462D
:10374000FFF78CFA03480068047E057600F0FCFA67
:10375000204670BD5001012070B50446FFF77EFA87
:1037600004480068B0F92C50848500F0EDFA284632
:1037700070BD00005001012070B50446FFF76EFADD
:1037800004480068B0F92A50448500F0DDFA284664
:1037900070BD00005001012002480068002800D0E0
:1037A000004770477003012002498A6802B98860A7
:1037B000FFF7F2BF4003012010B504000ED0FFF761
:1037C0004DFA20460BF0EAFE20460CF0A7FC2046FE
:1037D000FEF776FBBDE8104000F0B6BA10BD38B574
:1037E0000C46050011D0FFF739FA2846FEF72EFCEB
:1037F00000908089204201D0012400E00024684626
:10380000FEF74CFC00F0A0FA00E00124204638BD91
:1038100038B50546002028600648046844B12046B3
:10382000FEF714FC0090006928606846FEF736FC3D
:10383000204638BD9804012038B504004FF0000040
:103840000D46086011D02046FEF700FC0090846809
:1038500044B16846FEF722FC2046FEF7F7FB0090D5
:10386000006928606846FEF719FC204638BD000054
:103870002DE9F04706460C4617461D46DDF8208028
:10388000BC4201D0454502D10120BDE8F08716B108
:10389000012E18D10BE01B48007800F0040010B195
:1038A00004F0CAF801E004F0B3F881460DE01548D1
:1038B000007800F0040010B104F0AAF801E004F070
:1038C000BBF8814601E00120DFE700BF6042A8EBC2
:1038D00005014843391B90FBF1F028440A4941F89F
:1038E0003600A9F10100001BA8EB05014843391B74
:1038F00090FBF1F02844044901EBC6014860002028
:10390000C3E7000088000120940001202DE9FC4756
:10391000684605F0B3F908B1BDE8FC879DF80400DE
:10392000002879D04348007800F0040040B1BDF988
:10393000020041490860BDF900004049086007E005
:10394000BDF900003C490860BDF902003B49086030
:103950003B480068384909680C1A3948806837497B
:1039600009680D1A3348007800F0040030B104F003
:1039700063F8074604F04CF8064605E004F048F802
:10398000074604F059F80646781E44432C48406820
:103990002B490968401A94FBF0F4701E45432848EF
:1039A000C06827498968401A95FBF0F525480078DA
:1039B000012824D124480068844203DD224800689D
:1039C000201A02E020480068001B80461F4800685B
:1039D000854203DD1D480068281A02E01B48006884
:1039E000401B814608EB0900022820DD29462046BD
:1039F00000F038F8144804601448056017E02946C0
:103A0000204600F02FF8104804601048056001209F
:103A10000C4908700BE0FFE70A480078012806D13E
:103A2000002008490870411E084600F01BF800BF3E
:103A300072E70000880001208C0001209000012026
:103A400094000120A4000120A8000120AC00012066
:103A500010B505F031F910BD01490860704700004C
:103A600088000120074A002806DB002904DB012327
:103A70001372C2E9000101E000201072014800F059
:103A800003B80000945B03203EB504460C221149A4
:103A9000FCF78CFD002813D00F480E4D026882B150
:103AA00094E80B008DE80B00684601A990479DE85B
:103AB0000E0085E80E00002802D16846FFF7DCFC06
:103AC0003EBD2046FFF7D8FC94E8070085E80700D4
:103AD0003EBD0000405C03206C03012010B504468D
:103AE000FFF714FF10BD000002490968491C014A94
:103AF00011607047740001202DE9F041084E044622
:103B0000056830680168284688470746306841687C
:103B100028468847284420603846BDE8F0810000E8
:103B2000540101202DE9F0410C4606460025064FC0
:103B300005E0386841683046884706440544641EFD
:103B4000F7D22846BDE8F081540101202DE9F0416B
:103B50001E46069C1746884605463A46A8687F1CBE
:103B60003346D0F804C041462846E047641EF4D1ED
:103B7000BDE8F08170B5B0F90040091BB0F9044010
:103B80008C422CDD00F11404B0F902500069521B84
:103B900002FB0040CA1800EBE104521ED010B0EB4B
:103BA000E10501F007034FF0FF0102F0070221FADF
:103BB00003F0C2F1070201FA02F1CEB221780FD070
:103BC00001436D1E04F8011B002D05DDFF2229466F
:103BD0002046FCF7BEFD2C4420783043207070BD99
:103BE00030400143217070BD10B5B0F90030B0F91C
:103BF0000240C91A00F114030069121B02FB0030D5
:103C000000EBE10001F0070302788021D9400A436C
:103C1000027010BDB0F90610026951431430FCF770
:103C2000A0BD00002DE9F843804602F10F0000110D
:103C3000470003FB07F01C46154689461430FEF783
:103C40001DF9060018D0FFF709F83046FEF7FEF917
:103C50000090A0F80080A0F802908580C4800749F9
:103C600081600121818107616846FEF717FA00F043
:103C70006BF83046BDE8F8830020FBE7C463010819
:103C800070B5B0F90660B0F904400B6800F1140596
:103C900096421BDD0069A34202FB005000EBE302E9
:103CA00014DA641EE010A0EBE30512F8010B03F038
:103CB0000704A040C4B206E045B1083312F8014B36
:103CC00023F007036D1E002CF6D004E0002070BD29
:103CD0006006040E5B1C2006FAD5FF2C07D01846A0
:103CE00002E06406240E401C6606FAD400E0D81DEB
:103CF000C443640705D006E012F8014BFF2C09D13C
:103D000008306D1EF8D5C01A401C0B6070BD6206ED
:103D1000140E401C2206FAD4F5E738B50546FEF726
:103D20009DFF2846FEF792F900908189491E0CB24A
:103D300084816846FEF7B2F914B92846FEF7C0F848
:103D400000F002F838BD00000348C168491EC16098
:103D500001D100F055B870475003012010B54FF461
:103D600000310348FEF7A4F80248FFF769FC10BDD4
:103D700038550120D02E010810B501200DF008FAA9
:103D800010BD10B50DF0B4FA10BD000010B5002242
:103D900001210C480DF0BEFA0B49086001210A48C8
:103DA00000680DF0CDFAFFF753FE0022012107480D
:103DB0000DF0B0FA064908601421054800680DF0BE
:103DC000BFFA10BDB826010878000120C0260108FE
:103DD0007C00012010B503480DF03AFA0249086052
:103DE00010BD0000C82601088000012010B54FF06A
:103DF000FF31024800680DF04DFA10BD800001202F
:103E000010B5024800680DF039FA10BD800001209D
:103E10000EB508B102AA00E00022002301A96846FD
:103E200000F084FC0EBD0000074910B50C7818B1F5
:103E300001200870801E03E0002008706FF07F40B2
:103E400003F078FB204610BD3D01012010B5082A83
:103E50000EDC0346012A18D0022A56D0042A76D056
:103E600010F8042B03F8012B491EF9D1012010BDD5
:103E7000102A08DC4FEA000230F8043B22F8023B2B
:103E8000491EF9D1F2E7002010BD10F8042BD2072B
:103E9000120E491E34D010F8044B491E04F00104E0
:103EA00042EA84122CD010F8044B491E04F001049D
:103EB00042EA441224D010F8044B491E04F00104D5
:103EC00042EA04121CD010F8044B491E04F001040D
:103ED00042EAC40214D010F8044B491E04F0010455
:103EE00042EA84020CD010F8044B491E04F001048D
:103EF00042EA440204D010F8044B04F001042243C7
:103F000003F8012B0029C0D1B0E710F8042B920769
:103F1000120E491E15D010F8044B491E04F003047C
:103F200042EA04120DD010F8044B491E04F00304B9
:103F300042EA840205D010F8044B04F00304224343
:103F4000491E03F8012B0029DFD18FE7FFE710F8A6
:103F5000042B1207120E491E05D010F8044B04F072
:103F60000F042243491E03F8012B0029EFD17DE7FE
:103F700038B50024009400F01DF838BD0B4810B58A
:103F8000416B002910D101214163FFF7E7FEFDF7E6
:103F90002DFF04F085F80549054838310860BDE873
:103FA0001040084600F0B4BD10BD00003C010120E7
:103FB000D9F000082DE9F0410D460699044601B9F3
:103FC00001461F68082A09DC0E46012A1AD0022A77
:103FD0005BD0042A7DD0082A13D18DE0102A07DC9B
:103FE000D3F810C00E46BCF1000F04D0022389E0C4
:103FF0000020BDE8F08101CCB84726F8020B6D1E09
:10400000F9D189E001CCB847C0074FEA10686D1EAE
:1040100036D001CCB84748EA801000F0FF086D1E8A
:104020002ED001CCB84748EA401000F0FF086D1EC2
:1040300026D001CCB84748EA001000F0FF086D1EFA
:104040001ED001CCB84748EAC00000F0FF086D1E42
:1040500016D001CCB84748EA800000F0FF086D1E7A
:104060000ED001CCB84748EA400000F0FF086D1EB2
:1040700006D001CCB84740EA080000F0FF086D1EEA
:1040800006F8018B002DBDD146E001CCB847800772
:104090004FEA10686D1E16D001CCB84748EA0010F0
:1040A00000F0FF086D1E0ED001CCB84748EA800032
:1040B00000F0FF086D1E06D001CCB84740EA0800AA
:1040C00000F0FF086D1E06F8018B002DDDD123E006
:1040D000FFE701CCB84700074FEA10686D1E06D015
:1040E00001CCB84740EA080000F0FF086D1E06F852
:1040F000018B002DEDD10FE0D3F810C0BCF1000F03
:1041000004D001232A462046E04705E001CCB84709
:1041100006F8010B6D1EF9D101206AE77CB5064651
:1041200028480D46006868B1002006F06DF906E0E9
:104130006A462946304607F023FC06F027F9002896
:10414000F6D17CBD106800901F4C50680190226829
:10415000BDF8000032F84C1F0844ADF80000BDF86F
:10416000020091880844ADF80200BDF804001188EF
:104170000844ADF80400BDF8060091880844ADF885
:104180000600684606F040F90EE000BF2068BDF862
:1041900000106A464184BDF80210818429463046E9
:1041A00007F0EEFB06F0F2F80028EFD1206830F8B7
:1041B000221F428D891A01804188C28D891A41804F
:1041C0007CBD0000AC010120500101202DE9FF4F12
:1041D00085B000209B4691460D4602900390FEF765
:1041E00081FC4FF0000ADDF814800646544625B1E4
:1041F000286800906868019002E06846FEF74AFC73
:1042000019F00C0F02D05D46002713E0BDF9024003
:104210002DE029467F1C059800F000FB01466D1A31
:104220000598FFF77FFC05990844059005A800F064
:1042300039FB08B9002DECD109F00C00042804D09A
:10424000082802D00C2812D105E0BDF9060007FBB2
:104250001604641C0BE0BDF90600BDF90210401AFB
:1042600007FB1600401C00EBD07001EB60045D46BC
:10427000DFF838B14E4FCDF8148079E02946059823
:1042800000F0CCFA2D1A01460490059800F09CFA33
:1042900019F003010ED0012965D002290DD1BDF915
:1042A0000420BDF90010521A121A02EBD27201EB6F
:1042B000620101E0BDF900108A463A68401E504490
:1042C000A2F822A09484ADF80C00A019401EADF80D
:1042D0000E00DDE90410ADF808A0ADF80A4002AA0E
:1042E000FFF71CFF9BF8000070B3386890F82A00B5
:1042F000800729D4059941450CD1BDF90A30BDF993
:1043000002108B4206DDBDF90420BDF900005B1EE2
:10431000FDF74EFFBDF90820BDF90000824206DD21
:10432000BDF90E30BDF90A10521EFDF741FFBDF96F
:104330000C00BDF90420904206DABDF90E30BDF93B
:104340000A10401CFDF734FFDDE90410FFF7EAFB1B
:10435000059908440590FEF7C5FB044405A800F044
:10436000A1FA28B106E0BDF90410091A491CA3E717
:10437000002D83D19BF80000002814D0386890F8F5
:104380002A0080070FD4059941450CD0BDF90E10C5
:10439000BDF90630994206DABDF90420BDF90000E6
:1043A000491CFDF705FF09B0BDE8F08FB4010120FD
:1043B000500101202DE9FF4F8DB00020DDF86C90F9
:1043C000164600901D4604460246C9F8000008AB98
:1043D00003A902A800F0AAF918B1002011B0BDE8A5
:1043E000F08F0898854200DD0546604F0B956049C7
:1043F0003868407C51F82010049109690691FEF755
:104400000DFB05903868407CFEF7D2FB5949834686
:10441000884201D0012000E000200A9001CE1A99C4
:1044200088478246000E079077D0009870BB0D98A1
:1044300000EB04084D480068B0F90800404503DD72
:10444000A0EB0807804600E000270299049801EBE2
:10445000840101EB8701CDE900100B990D984218FA
:1044600009920E9B40461946521EFFF73BF8012069
:104470000090059818280ADA0298DDE9052300EB78
:10448000840000EB8700E91B00F0AEF812E00A9808
:1044900080B1029800EB840000EB87070998A0EB3D
:1044A000080859463868884701C7A8F101005FEA43
:1044B0000008F6D1304BD86980B3DDE9020700EB84
:1044C000840007EB8402CDE902022B4C361F2B46F9
:1044D000E46930460299A047FF203168B0EB116FC4
:1044E00002D10299096804E0029A1268B0EB126FD7
:1044F00001D1039A1160029906F10406091D029187
:104500000399091D03916D1EE7D10397D9F80000A7
:1045100040F00100C9F8000021E022E0FFE7079821
:10452000FF2812D0C0F1FF0202981B6850F8241037
:104530002AF07F409847039941F82400D9F80000F9
:1045400040F00101C9F8001005E00298039950F805
:10455000240041F82400641C6D1E7FF45FAF0398B3
:104560003CE7039941F824A0E8E70000500101204E
:1045700084010120457B0008080101202DE9FF4F3F
:1045800087B00C46DDE91698DDE914BA0546FEF75A
:1045900065FB1448099A0168C86C096D47198518AC
:1045A0000E190A98ADF810700C18ADF81450ADF84B
:1045B0001260ADF8164004A805F026FF0BE0CDE927
:1045C0000298CDE900BA23462A463146384608F01B
:1045D0004BFD05F0DBFE0028F1D1FFF7B5FB0BB07A
:1045E000BDE8F08F500101202DE9F05F0C1E16DDB3
:1045F0005E68014600EB8405082A12DC611E012A70
:1046000026D0022A47D0042A6AD0082A07D10719DF
:1046100017F8010DB04745F8040D641EF8D1BDE848
:10462000F09F102AFBDC5F693FB12246BC46BDE823
:10463000F04F02235DF804EB604701EB440700BF35
:1046400037F8020DB04745F8040D641EF8D1E6E7CF
:1046500000EBE10001F0070710F801A98146802076
:1046600020FA07F8B5F104050AEA0800C7F10701C6
:10467000C840B04745F804093FB14FEA48604FEAE7
:1046800010687F1E641EEFD1C9E719F801A907273A
:104690004FF00108F6E700EBA10001F0030710F866
:1046A00001A981467900C02020FA01F84FF0060BDD
:1046B000B5F104050AEA0800ABEB4701C840B04772
:1046C00045F804093FB14FEA88604FEA10687F1E41
:1046D000641EEFD1A3E7032719F801A9B846F7E74D
:1046E00000EB6100012710F801A9A7438146B9003A
:1046F000F02020FA01F84FF0040B2D1F0AEA080001
:10470000ABEB8701C840B04745F804093FB14FEA19
:1047100008704FEA10687F1E641EEFD17FE719F81A
:1047200001A901274FF00F08F6E700002DE9F04737
:10473000224C06461F46A06990468946002540B98E
:104740000120A06104F128011D480860084600F01E
:10475000DFF9606930B91B480068606110B903F087
:1047600051F9606107B138604EB1A06830B9606935
:104770008000FDF7E5FBA06000B901253060B9F1CC
:10478000000F0AD0E06830B960698000FDF7D8FBFF
:10479000E06000B90125C9F80000B8F1000F0AD0A7
:1047A000206930B960698000FDF7CAFB206100B95B
:1047B0000125C8F800002846BDE8F087080101205F
:1047C000B1F00008A001012073B5124A01A90098B8
:1047D0001268904700240090C8B10F49002509686D
:1047E000C969496959B10A684AB1019990477CBDC4
:1047F0006846FFF781F90546FEF726F9044401985B
:10480000401E0190F4D5284600F040F804442046AC
:104810007CBD00003C0301205001012073B50D4612
:104820000098002490B10A490968C969496959B1D9
:104830004A684AB1294690477CBD6846FFF75CF953
:1048400020B10A2802D0641CAC42F6DB20467CBDB5
:104850005001012031B50024009808B905E0641C1E
:104860006846FFF749F90028F9D1204638BD000015
:10487000044AB2F9002002600348B0F90000086061
:1048800070470000B0010120B201012038B50024BA
:1048900069460094FEF7EAF80099814200DD0C1A9F
:1048A000204638BD38B50446006800906846FFF7DA
:1048B00023F910B10A2802D003E0012038BD009886
:1048C0002060002038BDB0F90030B1F900209342DB
:1048D00000DA0280B0F90230B1F90220934200DA26
:1048E0004280B0F90430B1F90420934200DD8280A7
:1048F000B0F90620B1F906108A4200DDC180704788
:1049000070B5B1F90040B2F900309C4200DD234699
:104910000380B1F90250B2F90240A54200DD2C46F5
:104920004480B1F90460B2F90450AE4200DA354671
:104930008580B1F90610B2F90620914200DB1146DC
:10494000C1809D4201DBA14201DA002070BD01203F
:1049500070BD0000014602480068407C00F002B8CB
:10496000500101202DE9F84301268946044602281A
:104970005DDA304F7A6802B190472E4D5FEA090048
:1049800005F1100532D0012803D0B9F1020F4ED144
:1049900018E055F8240088B92046FDF745FD009041
:1049A00018B3C0680D21426A6846904702003ED0A5
:1049B00049460098904755F824000026401C45F8C9
:1049C000240034E02046FDF72FFD009068B1C06858
:1049D0000D21426A68469047040028D0386800B12B
:1049E000804749460098A047002620E055F824005B
:1049F000A846012812D12046FDF716FD009068B1A7
:104A0000C0680D21426A68469047050006D03868A4
:104A100000B1804749460098A847002658F824105E
:104A200009B1012200E00022891A48F8241030461A
:104A3000BDE8F8831C03012030B581F07F43FF24DB
:104A400080F07F4094EA116101D120F07F43010E94
:104A500011FB02F1B1FBF4F100F0FF15C1F1FF020F
:104A600003F0FF14544301FB05444FF0FF15240AE3
:104A700005EA1323C0F30720534340F0807001FB85
:104A8000003104F0FF1001F0FF21084380F07F4067
:104A900030BD00002DE9F05F0646DDF83890154680
:104AA0000C4600200D99804688421ED2DFF840B0A7
:104AB0000C9F4FF0FF0A02CE08CCAAEB116202FB5A
:104AC00009F2B2FBFAF0C2B221F07F401946DBF8DE
:104AD0000030984720F07F4001C57F1EEBD10A9837
:104AE00004EB800408F10100DCE7BDE8F09F000062
:104AF000080101200B88134403808B889B1A838054
:104B00004B8813444380C988891AC18070470000CC
:104B10000249CA6A4260C862704700003C01012035
:104B20002DE9F8430768064688460025384600F018
:104B300079F848B3404600F085F8441C3846FDF744
:104B400077FA84420DD1FCB13846FDF77FFA104B5D
:104B5000009022461B68414698476846FDF79EFA3A
:104B600011E02046FDF77AF904000DD0FDF76EFA4A
:104B700041460090FBF746FD6846FDF78FFA304648
:104B8000FDF7C2F9346001252846BDE8F88300002E
:104B90003803012030B50346CCB202E003F8014BE4
:104BA000521E0AB19907F9D1910818D004EB0445B7
:104BB00002F0030205EB052506E020C3091F20C310
:104BC00043F8085B43F8045C0429F6DA01E020C3EB
:104BD000491E0029FBD102E003F8014B521E002AB6
:104BE000FAD130BD024600204FF080414318934275
:104BF00001D8D21A581840088908F7D17047000028
:104C000000B907A021B906A102E03AB1401C491C35
:104C100002780B789A42F8D0012070470020704744
:104C20000000000038B50D46012448B1FDF70EFA2A
:104C300029460090FFF7E4FF04466846FDF72EFA88
:104C4000204638BD4FF0FF3128B100BF10F8012BCE
:104C5000491C002AFAD10846704770B504460CB9C1
:104C6000012070BD94F83500022800D1F9E72068D2
:104C7000006820F0010021680860002021680860B9
:104C800021684860216888602168C86021680861DF
:104C90002120216848612046FCF756FD054694F81E
:104CA0005C103F208840A8600020606584F83500D3
:104CB00000BF84F8340000BF00BFD2E72DE9F04107
:104CC0000446002500F092F9074614B90120BDE81A
:104CD000F081606A00B100BF00BF002084F834009A
:104CE00000BF022084F835002068006820F0010031
:104CF000216808600AE000F079F9C01B052805D991
:104D000020206065032084F83500E0E72068006813
:104D100000F001000028EED1206805682048054019
:104D2000D4E901010843E168084321690843616946
:104D30000843A1690843E1690843216A0843054320
:104D4000606A042803D1D4E90B01084305432068B5
:104D500005602068456925F00705606A0543606ABB
:104D600004280BD1A06A05432046FCF707FD28B1B3
:104D700040206065012084F83500A8E7206845617F
:104D80002046FCF7E1FC064694F85C103F20884082
:104D9000B06000206065012084F83500002096E7AF
:104DA0003F8010F031B5002400F020F9044600BF28
:104DB00000F01CF9001B00998842F9D338BD0000AF
:104DC000F8B502460B46002100250024002000BF54
:104DD000E4E0012606FA01F51E6806EA0504AC4285
:104DE00071D15E68022E02D05E68122E13D1CF08F8
:104DF00002F1200656F827004E07F70E0F26BE4098
:104E0000B0434F07FF0E1E69BE403043CF0802F18A
:104E1000200646F8270010684F000326BE40B04326
:104E20001E7906F003064F00BE40304310605E68F6
:104E3000012E08D05E68022E05D05E68112E02D0C9
:104E40005E68122E13D190684F000326BE40B04317
:104E50004F00DE68BE4030439060506801268E40AF
:104E6000B0431E79C6F300168E4030435060D068C0
:104E70004F000326BE40B0434F009E68BE40304303
:104E8000D0605E6806F08056B6F1805FA8D100BFA2
:104E9000444E366846F48046424F3E603E46366891
:104EA00006F48046009600BF00BF3F4E8F0856F8BC
:104EB00027008E07370F0F26BE40B0433B4EB2424D
:104EC00002D100262EE068E0394EB24201D101261F
:104ED00028E0384EB24201D1022623E0364EB242DB
:104EE00001D103261EE0354EB24201D1042619E05D
:104EF000334EB24201D1052614E0324EB24201D106
:104F000006260FE0304EB24201D107260AE02F4EAE
:104F1000B24201D1082605E02D4EB24201D1092648
:104F200000E00A268F073F0FBE4030431E4E8F0819
:104F300046F82700274E3068A0435E6806F48036A6
:104F4000B6F5803F00D12043224E3060361D3068D8
:104F5000A0435E6806F40036B6F5003F00D120435A
:104F60001C4E361D3060361D3068A0435E6806F466
:104F70008016B6F5801F00D12043164E08363060EB
:104F8000361D3068A0435E6806F40016B6F5001FB3
:104F900000D120430F4E0C363060491C1029FFF41D
:104FA00018AFF8BD44380240083801400000024004
:104FB0000004024000080240000C024000100240C1
:104FC0000014024000180240001C02400020024071
:104FD00000240240003C014042694A40426170475F
:104FE0000AB1816101E00B048361704701480068E8
:104FF00070470000EC00012010B504460CB90120F8
:1050000010BD242084F841002068006820F00100D1
:1050100021680860204600F02DFA0020606484F8C2
:105020004100206384F8420000BF84F8400000BFC4
:1050300000BFE5E7014691F84100704710B504460E
:105040000CB9012010BD94F8410028B9002084F863
:105050004000204600F00FFA242084F84100206828
:10506000006820F0010021680860606820F070602E
:10507000216808612068806820F400402168886009
:10508000E068012805D1A06840F4004021688860EC
:1050900004E0A06840F4044021688860E0680228C9
:1050A00002D18002216848602068406813490843A3
:1050B000216848602068C06820F400402168C8600A
:1050C000D4E904010843A16940EA01202168C860CD
:1050D000D4E907010843216808602068006840F0AF
:1050E00001002168086000206064202084F84100ED
:1050F0000020206384F8420000BFA3E70080000284
:105100002DE9FC5F0446894692469B46DDE90C7812
:105110000E9E002594F8410020287DD117B1B8F1EA
:10512000000F02D10120BDE8FC9F00BF94F84000B1
:10513000012801D10220F6E7012084F8400000BFD9
:10514000FFF754FF054619230122D103204600959D
:1051500002F010F808B10320E5E7222084F84100AE
:10516000402084F84200002060646762A4F82A802E
:1051700060635B46524649462046CDE9006501F032
:1051800055FF80B1606C042806D100BF002084F870
:10519000400000BF0120C6E700BF002084F84000A7
:1051A00000BF0320BFE7608DFF280DD9FF202085B9
:1051B0004FF41050009094F828204FF08073494627
:1051C000204601F0BFFF0CE0608D20854FF41050A9
:1051D000009094F828204FF000734946204601F0D3
:1051E000B1FF00BF3346002204212046009501F0A4
:1051F000C1FF08B1032096E72068406AC1B2626A25
:10520000501C60621170208D401E2085608D401EF4
:105210006085208D48BB00E04BE0608D28B33346AD
:10522000002280212046009501F0A4FF08B1032050
:1052300079E7608DFF280CD9FF20208500200090A1
:1052400094F828204FF080734946204601F07AFFF9
:105250000BE0608D20850020009094F828204FF00E
:1052600000734946204601F06DFF608D0028B9D1DA
:105270002A463146204601F0A8FF30B1606C042870
:1052800001D101204FE703204DE720202168C861AC
:10529000206840680849084021684860202084F858
:1052A0004100002084F8420000BF84F8400000BFA5
:1052B00039E7022037E7000000E800FE2DE9FC5F37
:1052C0000446894692469B46DDE90C780E9E0025F1
:1052D00094F8410020286ED117B1B8F1000F02D127
:1052E0000120BDE8FC9F00BF94F84000012801D1D7
:1052F0000220F6E7012084F8400000BFFFF776FEA9
:10530000054619230122D1032046009501F032FF02
:1053100008B10320E5E7212084F84100402084F80B
:105320004200002060646762A4F82A8060635B46E4
:10533000524649462046CDE9006501F0BDFE80B1E8
:10534000606C042806D100BF002084F8400000BF34
:105350000120C6E700BF002084F8400000BF032002
:10536000BFE7608DFF280CD9FF202085002000902A
:1053700094F828204FF080734946204601F0E2FE61
:105380000BE0608D20850020009094F828204FF0DD
:1053900000734946204601F0D5FE00BF2A4631463B
:1053A000204601F03DFF38B1606C042801D1012096
:1053B00097E7032095E759E0616A481C6062087826
:1053C00021688862608D401E6085208D401E20858A
:1053D000208D38BB608D28B33346002280212046C3
:1053E000009501F0C7FE08B103207AE7608DFF2821
:1053F0000CD9FF2020850020009094F828204FF041
:1054000080734946204601F09DFE0BE0608D2085AB
:105410000020009094F828204FF000734946204661
:1054200001F090FE608D0028B8D12A463146204612
:1054300001F0CBFE30B1606C042801D1012050E7AF
:1054400003204EE720202168C86120684068084991
:10545000084021684860202084F84100002084F83A
:10546000420000BF84F8400000BF3AE7022038E75E
:1054700000E800FE7047704710B50848006840F427
:10548000007006490860032000F07AFC0F2000F04D
:1054900007F800F0FBFB002010BD0000003C0240BC
:1054A00070B50446074800684FF47A71B0FBF1F517
:1054B000284601F047FD00222146501E00F021FC45
:1054C000002070BD70000120F0B50446154600268E
:1054D0000022002700BF94F8A000012801D102207B
:1054E000F0BD012084F8A00000BF022084F8A100D4
:1054F000002237E003EB830000EBC30C04F138001B
:1055000000EB8C000069062813D108784FF0100CCE
:105510000CFB022C40EA0C60B1F800C00CF47F4C8C
:1055200040EA0C00D1F800C00CF47F0C40EA0C06F5
:105530000EE0087840EA0260B1F800C00CF47F4C3D
:1055400040EA0C00D1F800C00CF47F0C40EA0C06D5
:105550000F1D3946206884304FF0800C0CFB03008F
:105560000664521CAA42C5D3012084F8A10000BFE2
:10557000002084F8A00000BF00BFB1E730B50346AB
:1055800000BF93F8A000012801D1022030BD012006
:1055900083F8A00000BF022083F8A10018688430BF
:1055A000802404FB0200C06800F07F441868843047
:1055B000802505FB0200C46018688430802404FB49
:1055C0000200C16001201C68606283F8A10000BF76
:1055D000002083F8A00000BF00BFD7E770B50446E5
:1055E0000E46154600BF94F8A000012801D1022004
:1055F00070BD012084F8A00000BF022084F8A10043
:1056000005EB850101EBC50204F1380101EB8200D5
:1056100034223146FBF760F82A463146204603F033
:1056200087F801202168486284F8A10000BF0020AB
:1056300084F8A00000BF00BFDAE710B5024600BF43
:1056400092F8A000012801D1022010BD012082F8AB
:10565000A00000BF022082F8A10010688430CB01B6
:10566000C05820F0020310688430CC01035101209F
:105670001368586282F8A10000BF002082F8A000E1
:1056800000BF00BFE1E710B5024600BF92F8A000DE
:10569000012801D1022010BD012082F8A00000BF26
:1056A000022082F8A10010688430CB01C05840F07D
:1056B000100310688430CC01035101201368586234
:1056C00082F8A10000BF002082F8A00000BF00BF48
:1056D000E1E710B5024600BF92F8A000012801D111
:1056E000022010BD012082F8A00000BF022082F835
:1056F000A10010688430CB01C05840F0020310684C
:105700008430CC01035101201368586282F8A10053
:1057100000BF002082F8A00000BF00BFE1E7704793
:1057200010B504462068806B00F00400F0B12068DA
:10573000806B00F00400C8B12068406B20F00400CA
:105740002168486304202168C863D4F8A40040F0AD
:105750000100C4F8A400042084F8A10000BF0020C8
:1057600084F8A00000BF2046FFF7D9FF2068806BB7
:1057700000F00200F0B12068806B00F00200C8B1B8
:105780002068406B20F002002168486302202168F5
:10579000C863D4F8A40040F00200C4F8A4000420B8
:1057A00084F8A10000BF002084F8A00000BF2046BC
:1057B000FFF7B5FF2068806B00F00100B8B12068EA
:1057C000806B00F0010090B12068406B20F0010078
:1057D0002168486301202168C86384F8A10000BFE4
:1057E000002084F8A00000BF204600F0B3F8206835
:1057F000806B00F00800C0B12068806B00F00800EA
:1058000098B12068406B20F00800216848630820A8
:105810002168C863012084F8A10000BF002084F83B
:10582000A00000BF204600F0FFF810BD70B5044690
:10583000002500260CB9012070BD94F8A10028B9FC
:10584000002084F8A000204600F0C8F8022084F868
:10585000A1002068806920F0704021688861D4E947
:1058600001010843E1680843216908432168896907
:1058700008432168886120688068354908402168AC
:105880008860A08A050420688068A16929430843CC
:10589000216888602068C0682D4908402168C86078
:1058A000A08B05042068C068216A29430843216849
:1058B000C860206800692649084021680861A08CFA
:1058C000050420680069A16A29430843216808612A
:1058D000206840691E49084021684861A08D050480
:1058E00020684069216B294308432168486194F886
:1058F0003500050294F8360006042068C06A00F0FE
:105900007F402168C86246EA050094F834100843D5
:105910002168C96A08432168C8622068406B40F06A
:105920000400216848632068406B40F00200216851
:1059300048632068806940F0010021688861002088
:10594000C4F8A400012084F8A100002074E700003E
:1059500000F800F070B5054600242EE01A4850F813
:105960002400002828DB194850F82400184951F871
:1059700024104843144951F824104843154951F85C
:105980002410154A52F8242000FB012622463146F5
:10599000284600F04AF82868406A40F0010029686B
:1059A0004862094850F824102046FDF7E5FC4FF006
:1059B000FF30054941F82400641C012CCEDB002196
:1059C000284600F00DF870BDB0000120BC00012099
:1059D000C0000120C4000120CC260108704700004F
:1059E000024600BF92F8A000012801D102207047B2
:1059F000012082F8A00000BF022082F8A1001068F8
:105A0000406B40F0010013685863064801600120B4
:105A100082F8A10000BF002082F8A00000BF00BFF4
:105A2000E5E700004068014070472DE9F041044679
:105A30000E46174600BF94F8A000012802D10220AC
:105A4000BDE8F081012084F8A00000BF022084F8A6
:105A5000A10007EB870000EBC70104F1380000EB61
:105A600081056E623A462946204602F061FE012019
:105A70002168486284F8A10000BF002084F8A000DB
:105A800000BF00BFDCE72DE9F04104460E46174693
:105A900000BF94F8A000012802D10220BDE8F081E7
:105AA000012084F8A00000BF022084F8A10007EBC9
:105AB000870000EBC70104F1380000EB81056E613F
:105AC0003A462946204602F033FE0120216848620A
:105AD00084F8A10000BF002084F8A00000BF00BF30
