:020000040800F2
:1000000078400220650400086D0400086F040008B1
:100010007104000873040008750400080000000063
:100020000000000000000000000000003503000890
:100030007904000800000000ED03000851040008E6
:100040007F0400087F0400087F0400087F04000884
:100050007F0400087F0400087F0400087F04000874
:100060007F0400087F0400087F0400087F04000864
:100070007F0400087F0400087F0400087F04000854
:100080007F0400087F0400087F0400087F04000844
:100090007F0400087F0400087F0400087F04000834
:1000A0007F0400087F0400087F0400087F04000824
:1000B0007F0400087F0400087F0400087F04000814
:1000C0007F0400087F0400087F0400087F04000804
:1000D0007F0400087F0400087F0400087F040008F4
:1000E0007F0400087F0400087F0400087F040008E4
:1000F0007F0400087F0400087F0400087F040008D4
:100100007F0400087F0400087F0400087F040008C3
:100110007F0400087F0400087F0400087F040008B3
:100120007F0400087F0400087F0400087F040008A3
:100130007F0400087F0400087F0400087F04000893
:100140007F0400087F0400087F0400087F04000883
:100150007F0400087F0400087F0400087F04000873
:100160007F0400087F0400087F0400087F04000863
:100170007F0400087F0400087F04000800000000DE
:100180007F0400087F0400087F0400087F04000843
:100190007F0400087F0400087F0400087F04000833
:1001A0003DA100087F0400081D1400087F0400081A
:1001B0007F0400087F0400087F0400087F04000813
:1001C0007F0400087F04000800F002F800F05CF8EB
:1001D0000AA090E8000C82448344AAF10107DA45A2
:1001E00001D100F051F8AFF2090EBAE80F0013F098
:1001F000010F18BFFB1A43F0010318474C97010089
:100200006C9701000A444FF0000C10F8013B13F00A
:10021000070408BF10F8014B1D1108BF10F8015B5F
:10022000641E05D010F8016B641E01F8016BF9D152
:1002300013F0080F1EBF10F8014BAD1C0C1B09D1A9
:100240006D1E58BF01F801CBFAD505E014F8016B1B
:1002500001F8016B6D1EF9D59142D6D370470000AD
:100260000023002400250026103A28BF78C1FBD8BF
:10027000520728BF30C148BF0B6070471FB516F04A
:1002800063FD1FBD10B510BD00F040FB1146FFF728
:10029000F5FF0FB400F00CF80FBC15F0ABF900F04F
:1002A0007CF903B4FFF7EEFF03BC00F029FB00006C
:1002B00004B015F0EDF90448002115F06BFA15F0C3
:1002C000F9F900F06AF90000BC6D010880F30988B3
:1002D0007047EFF309807047684680F30988044847
:1002E0000078C00714BF0220032080F314887047F1
:1002F0007C6D0108DFF818C0EFF305831B0618BFFB
:100300006047EFF31483DB0708BF604700DF7047E7
:10031000BF580108DFF818C0EFF305831B0618BFAC
:100320006047EFF31483DB0708BF604700DF7047C7
:10033000A55A0108EFF30980816911F8021CE1BB9D
:1003400090E80F1010B5E047BDE81040EFF3098CBE
:100350008CE80700214B93E80600914208BF7047E4
:1003600041B91EF0100F16D11D49086820F0010098
:10037000086010E01EF0100F06BF2CED108A01205F
:10038000002081F825002CE9F00FC1F828C00CB43A
:1003900015F03AFF0CBC1A60D2F828C0BCE8F00F88
:1003A00092F8250000280EBF6FF0020E6FF0120EBB
:1003B000BCEC108A8CF30988704710B5094A1268A2
:1003C000914209D8084C54F8214090E80F10A047FA
:1003D000EFF3098C8CE80F0010BD0000E400012051
:1003E00034EF00E0580900085809000810B515F06E
:1003F000CFFDBDE81040154B93E80600914208BFC1
:100400007047EFF3098C1EF0100F06BF2CED108A19
:100410000120002081F825002CE9F00FC1F828C048
:100420000CB415F0F1FE0CBC1A60D2F828C0BCE880
:10043000F00F92F8250000280EBF6FF0020E6FF04B
:10044000120EBCEC108A8CF309887047E40001207E
:1004500010B515F0A1FFCCE710B515F02FFA15F087
:100460009BFFC6E70948804709480047FEE7FEE7CB
:10047000FEE7FEE7FEE7FEE7FEE7FEE7FEE7FEE754
:1004800004480549054A064B7047000005B20008BC
:10049000C9010008783A022078400220783C022006
:1004A000783C022000487047143A022053EA020CBC
:1004B00000F069802DE9F04B4FF00006002B1FBFC4
:1004C000B3FA83F503FA05F424FA05F65E4012BF89
:1004D0001643B2FA82F502FA05F4C5F120051EBFF3
:1004E00022FA05FC44EA0C04203556EA044C4FEA93
:1004F000144418BF641C4FF000084FF000099042EC
:1005000071EB030C39D3002919BFB1FA81F701FA55
:1005100007F6B0FA80F700FA07F6C7F120071EBF0A
:1005200020FA07FC46EA0C062037B6FBF4FCA7EBE2
:100530000507103F07F01F0BCBF120060CFA0BFB51
:100540002CFA06F644BFB3460026202FA4BF5E4611
:100550004FF0000B5BEA060C08BF4FF0010B19EBE4
:100560000B09ABFB027C48EB0608C01B06FB02CC68
:100570000BFB03CC71EB0C01C1E70B460246414675
:100580004846BDE8F08B13B54FF000004FF0000176
:10059000AFF30080BDE81C40704710B50446AFF3D0
:1005A00000802046BDE81040FFF77BBE40EA010313
:1005B00010B59B070FD1042A0DD310C808C9121F0C
:1005C0009C42F8D020BA19BA884201D9012010BD46
:1005D0004FF0FF3010BD1AB1D30703D0521C07E013
:1005E000002010BD10F8013B11F8014B1B1B07D177
:1005F00010F8013B11F8014B1B1B01D1921EF1D1E8
:10060000184610BD40EA0103024630B59B0710D1E1
:100610004FF0013400E008C208C91D1B9D4315EAD4
:10062000C41FF8D013F0FF0102F8011B0DD01B0A04
:10063000F8E711F8013B002B02F8013B05D011F857
:10064000013B002B02F8013BF3D130BD032A40F2FD
:10065000308010F0030C00F0158011F8013BBCF164
:10066000020F624498BF11F801CB00F8013B38BF7C
:1006700011F8013BA2F1040298BF00F801CB38BF8A
:1006800000F8013B11F0030300F06B80083AC0F062
:10069000088051F8043B083A51F804CBA0E8081050
:1006A000F5E7121D5CBF51F8043B40F8043BAFF383
:1006B0000080D20724BF11F8013B11F801CB48BFDD
:1006C00011F8012B24BF00F8013B00F801CB48BF13
:1006D00000F8012B7047431A28BF9A427FF6B6AF45
:1006E000032A1044114440F2268010F0030F1EBF6D
:1006F00011F8013D521E00F8013D10F0030F7FF488
:10070000F6AF11F0030300F0AE80083AC0F00B80A2
:1007100051F8043D083A51F804CD40F8043D40F842
:1007200004CDFFF7F3BF121D5CBF51F8043D40F844
:10073000043DAFF30080D20724BF11F8013D11F84A
:1007400001CD48BF11F8012C24BF00F8013D00F88D
:1007500001CD48BF00F8012C704701B5FFF776FFC7
:1007600001BD10B5203AC0F00B80B1E81850203A16
:10077000A0E81850B1E81850A0E81850BFF4F5AF41
:100780005FEA027C24BFB1E81850A0E8185044BFCB
:1007900018C918C0BDE810405FEA827C24BF51F838
:1007A000043B40F8043B08BF7047D20728BF31F82C
:1007B000023B48BF11F8012B28BF20F8023B48BF7D
:1007C00000F8012B704701F0FF03114601B543EA21
:1007D000032242EA024200F072F801BD02F0FF0378
:1007E00043EA032242EA024200F069B84FF00002F5
:1007F00000B5134694469646203922BFA0E80C5017
:10080000A0E80C50B1F12001BFF4F7AF090728BFF1
:10081000A0E80C5048BF0CC05DF804EB890028BF6D
:1008200040F8042B08BF704748BF20F8022B11F096
:10083000804F18BF00F8012B704770477047704712
:10084000431A28BF9A427FF68CAF104410F0030F72
:1008500011441EBF11F8013D521E00F8013D10F079
:10086000030F7FF4F6AF103AC0F00A8010B531E9FB
:100870001850103A20E91850BFF4F9AFBDE8104005
:10088000530724BF31E9081020E9081044BF51F88C
:10089000043D40F8043D12F0030F08BF7047D20733
:1008A00028BF31F8023D48BF11F8012C28BF20F8BD
:1008B000023D48BF00F8012C70474FF000020429A8
:1008C000C0F0128010F0030C3FF492AFCCF1040C96
:1008D000BCF1020F18BF00F8012BA8BF20F8022BB3
:1008E000A1EB0C01FFF784BF5FEAC17C24BF00F8D5
:1008F000012B00F8012B48BF00F8012B70470000C6
:1009000001491820ABBEFEE7260002007546FFF73E
:10091000C9FDAE4605006946534620F007008546EE
:1009200018B020B5FFF7ACFDBDE820404FF0000641
:100930004FF000074FF000084FF0000B21F00701C7
:10094000AC46ACE8C009ACE8C009ACE8C009ACE80A
:10095000C0098D4670477047000000005A49096879
:1009600021F44031594AC2F804131146D1F8041356
:1009700042681143544A11600168496821F480714A
:100980000268516001684A68016942EA012102680F
:1009900051600168496821F0407102685160016846
:1009A000496882681143026851600168896821F4CE
:1009B00000610268916001688968C2681143026839
:1009C0009160434A816A914218D00168896821F098
:1009D00070610268916001688968826A11430268E7
:1009E00091600168896821F0405102689160016856
:1009F0008968C26A1143026891600BE001688968E6
:100A000021F07061026891600168896821F04051AD
:100A1000026891600168896821F0020102689160B2
:100A200001688A68816942EA410102689160016A4D
:100A3000D1B10168496841F4006102685160016800
:100A4000496821F460410268516001684A68416A5E
:100A5000491E4FF4604393FAA3F3B3FA83F399402A
:100A60000A4301684A6005E00168496821F40061B1
:100A7000026851600168C96A21F470010268D1629C
:100A80000168CA6A818B491E42EA01510268D1623B
:100A90000168896821F400710268916001688A68C0
:100AA000016B42EA4121026891600168896821F482
:100AB00080610268916001688A68416942EA812127
:100AC000026891607047000004230140002001404B
:100AD0000100000F002800DC4042704710B51E489E
:100AE0001E49086002201E49086007204860042053
:100AF00088600720C8600220086148618861002082
:100B0000164948600021154881600421C160102108
:100B1000016140214161890081610021C1614FF47F
:100B200000610162490041620021816200F068F8C1
:100B30000B490A4807F0C4FE18B1012009490870A2
:100B400002E000200749087040F2036000F00CF852
:100B50000448007810BD0000400100A000070120FB
:100B6000340701204E00012038B5044600200090D3
:100B70000120214908601020486001208860002081
:100B8000C8604FF6FF721D4807F0CFFE012005F048
:100B90001DFE02201849086010204860012088606E
:100BA0000020C8604FF6FF72144807F0BEFE032015
:100BB0001149086010204860082088600020C86043
:100BC0004FF6FF720D4807F0B0FE4FF4087000902A
:100BD00004200949086010204860012088600098BE
:100BE000C8604FF6FF72054807F09FFE2146034894
:100BF00007F087FE38BD00005007012000070120E4
:100C000030B587B004460D4600BF6648006840F026
:100C10000100644908600846006800F00100019086
:100C200000BF00BF00BF5F480838006840F4800084
:100C30005C49083908600846006800F480000190AB
:100C400000BF00BF00BF0846006840F00400086015
:100C50000846006800F00400019000BF00BF00BF1C
:100C60000846006840F0080008600846006800F088
:100C70000800019000BF00BF00BF0846006840F0B8
:100C8000100008600846006800F01000019000BFE6
:100C900000BF00BF0846006840F02000086008461A
:100CA000006800F02000019000BF00BF00BF0846B0
:100CB000006840F0400008600846006800F040000E
:100CC000019000BF00BF00BF0846006840F08000F0
:100CD00008600846006800F08000019000BF00BF77
:100CE0000220039001200490022005900C20069021
:100CF0000820029002A92C4805F076FD4CF2037002
:100D0000029002A9294805F06FFD4FF6837002900A
:100D100002A9274805F068FD4FF63F00029002A99E
:100D2000244805F061FD48F23310029002A92248E0
:100D300005F05AFD2820029002A9204805F054FD34
:100D400000201F49486080211D4881608900C160E2
:100D50004900016189004161890081610021C1610F
:100D60004FF40031016200214162032181620021C0
:100D7000C162016313481249086000BF084620633E
:100D8000846300BF05F07CFC0D4805F0ABFC00223D
:100D90000F21382006F0C5FC382006F0B2FC07B061
:100DA00030BD00003838024000080240000C02400C
:100DB000001002400014024000180240001C0240D3
:100DC00060070120106402402DE9F04190B0054613
:100DD0004FF0000800200390029001907E480068C8
:100DE00001697E480078884728702878002870D0EC
:100DF0000024E4E004A800EB440207A800EB44014F
:100E000075480068436975480078984774480078C9
:100E100001280BD107A830F814000DA921F81400FF
:100E200004A830F814000AA921F814006C480078CE
:100E300000F0020038B107A830F81400C0F5805067
:100E40000DA921F814006648007800F0040038B1BC
:100E500004A830F81400C0F580500AA921F8140045
:100E60005F48007800F0080058B107A830F8140077
:100E70000AA921F8140004A830F814000DA921F8DB
:100E800014000DA830F81400564951F82410884277
:100E900007D90DA830F81400524951F82410401A0F
:100EA00006E0504850F824000DA931F81410401AFB
:100EB00086B20AA830F814004B4951F82410884231
:100EC00008D90AA830F81400474951F82410401AEC
:100ED00007E07CE0444850F824000AA931F81410D7
:100EE000401A87B2F01905280BDD0DA830F8140060
:100EF0003C4941F824000AA830F814003A4941F866
:100F000024003648007870280DD10DA830F8141050
:100F1000A81C20F814100AA830F8141005F10C00D1
:100F200020F8141016E02F4850F824002F490988A3
:100F30004843C0F30F31A81C20F814102A4850F879
:100F400024002B4909884843C0F30F3105F10C00F8
:100F500020F8141001A802AB03AA214600901F48F4
:100F6000007814F0A5F90398C1B205F116000155F7
:100F70000298C1B205F120000155019830B1012855
:100F800009D002280CD0032814D10EE0012105F16C
:100F90001B00015511E0022105F11B0001550CE079
:100FA000032105F11B00015507E0002105F11B009D
:100FB000015502E04FF0010800BF00BF641C287813
:100FC000A0423FF617AF284600F014F8804640468E
:100FD00010B0BDE8F0810000500001205900012050
:100FE000580001202008012034080120540001206D
:100FF0005600012038B504460020009000256946BF
:101000001748007814F046F90098182816D005DC27
:1010100058B110280CD014281CD10CE01C2810D07A
:10102000402811D0492815D111E00020A06213E01A
:101030000120A06210E00220A0620DE00320A06267
:101040000AE00420A06207E00520A06204E0062078
:10105000A06201E0012500BF00BF284638BD0000A6
:101060005900012070B504460D4600261048048042
:101070001048058010480168702088470E48416874
:101080007020884751280FD10B480C490860702008
:101090000B49087008200B49087008480068C168AF
:1010A00007480078884700E00326304670BD0000FE
:1010B0005400012056000120200001205000012092
:1010C0005900012058000120F8B544680546014642
:1010D00020460AF042F9002836D028680B2839D07B
:1010E0000E2805D00F2821D0B0F5107F3CD12CE080
:1010F000204601F0F1FF009010F8746F47786846C1
:1011000002F040F820460BF091FF10B3E868416808
:10111000002929DD0068202826D17F1CB7FBF6F0C6
:1011200006FB1071204600F03FF91DE025462046E1
:1011300001F0D2FF0090006F0468684602F022F8C8
:10114000002C01D02846A047F8BD2946204611F0C2
:1011500090FE09E0204601F0BFFF0090783001F0DA
:1011600027FF684602F00EF82846BDE8F8400AF06E
:10117000B3BBF0B585B00DF1280C9CE8F0004FF042
:10118000000C8DE8F01000F003F805B0F0BD000091
:101190002DE9F04F85B01D46DDE90E9716468A46CB
:1011A0008346DDF8488002F037FF244C0EB135B19C
:1011B0000AE020688068006880470646F7E72068F4
:1011C00080680068804705461C481D49001DC068AE
:1011D000884201D147F0010708F15400194ACDE9CE
:1011E0000220CDE900972B463246514658460AF078
:1011F000BBFA05001CD001F06FFF1022049011997A
:101200000AF0F4F90D4904983C22091D3430FFF727
:10121000A8FA049821680167022180F874100F2150
:10122000C16704A801F0AEFF2068416828468847DE
:1012300004F032F805B02846BDE8F08F1C0201200A
:10124000785634FFC91000082DE9FF4704460068AE
:1012500010B10BF0EBFE68B10022314850F82210BB
:1012600060680A2841D007DCF0B306280DD00728B3
:1012700054D106E00122F0E712280AD019284DD1F6
:1012800037E020460DF090F948E020460EF0CCFB08
:1012900044E0206801F020FF0290B0F9548090F8FB
:1012A0005650476C466B02A801F06CFF206800F0B6
:1012B00050F8814668460AF027FCBDF8001009EB9B
:1012C00005000844ADF80000246A304603F0BEFB78
:1012D000022003F045FC384603F09BFB424669467A
:1012E000204602F07DFA19E007E020460EF0C1FC2E
:1012F00014E0886904B0BDE8F08720680BF038FB83
:10130000206801F0E9FE0390B0F90610B0F9022060
:10131000891A491CC16703A801F034FF0020E9E7DE
:10132000CC90010838B505004FF000040FD002F052
:1013300073FE284601F0D0FE009018B1046C2846D8
:101340000BF052F8684601F01DFF03F0A5FF2046A0
:1013500038BD38B5044602F05FFE204601F0BCFE01
:101360000090C46F684601F00DFF03F095FF204622
:1013700038BD38B505004FF000040CD002F04CFE2B
:10138000284601F0A9FE009090F87540684601F0EB
:10139000F9FE03F081FF204638BD10B5FFF7E9FFE5
:1013A000012800D0002010BD38B50C4605001BD028
:1013B00002F032FE284601F08FFE009090F8741083
:1013C000A1420CD980F87540684601F0DBFE284642
:1013D0000BF00AF8052128460BF070F802E0684689
:1013E00001F0D0FE03F058FF38BD000000B589B011
:1013F00024216846FFF7FAF9192001900348006894
:10140000806841686846884709B000BD1C02012019
:1014100010B509F051FA09F001FA10BD0220024995
:101420000968886070470000A836022001460878E5
:1014300010381823B0FBF3F20848805CC865032A13
:1014400005D908686FF30900001D886503E0086886
:101450006FF309008865886D70470000CC6D010846
:10146000014600208A6A8B6903BB32B1012A0CD085
:10147000022A10D0032A17D115E0CB6A03F080733B
:10148000B3F1807F00D101200FE0CB6AB3F1C07FC0
:1014900000D1012009E0CB6A03F08073B3F1807FB3
:1014A00000D1012001E000E000BF35E08B69B3F519
:1014B000005F1BD132B1012A06D0022A0CD0032AC8
:1014C00012D10BE0012010E0CB6A03F08073B3F17E
:1014D000807F00D1012008E0012006E0CB6AB3F153
:1014E000C07F00D1012000E000BF15E032B1012A29
:1014F00005D0022A04D0032A0CD103E000BF00BFAC
:10150000012008E0CB6A03F08073B3F1807F00D143
:10151000012000E000BF00BF704700BFFEE730B50C
:101520000246002300240868012816D013686FF3D0
:101530000E03D1E901052843CD6828430D692843EE
:101540004D6928438D692843CD6928430D6A284396
:101550004D6A28430343136019E0136823F4F843EA
:10156000D1E9070528434D6A2843034354686FF3C4
:101570000E04D1E901052843CD6828430D692843AD
:101580004D6928438D69284304431360546000204B
:1015900030BD0246506940EA41005061002070476A
:1015A000F8B506460C461546002000900027D4E901
:1015B00000010843A168491E40EA4110E16840EA81
:1015C000412000900098306105F020FA074609E0BC
:1015D000681C38B125B105F019FAC01BA84201D921
:1015E0000320F8BDB06900F020000028F0D100BF52
:1015F000F7E7000070B50346154600220024012DD0
:101600001FD09A6802F070420868401E4E68761E2D
:1016100040EA06168868401E46EA0026C868401E52
:1016200046EA0036088A401E46EA0046888A401E7E
:1016300046EA0056087E401E46EA006002439A6071
:1016400022E09A6811480240C868401E0603888A52
:10165000401E46EA00500243DC6804F0704408680B
:10166000401E4E68761E40EA06168868401E46EA0E
:101670000026088A401E46EA0046087E401E46EACA
:10168000006004439A60DC60002070BDFF0F0FFF14
:101690002DE9F047044640688EB00027804601F0EF
:1016A0001BFD0090B0F87CA0D0F86890D0F8806066
:1016B000D0F88850C06D00B10768684601F062FD3F
:1016C00005E0696820468847002843D12D68002D31
:1016D000F7D12068172853D00CDC0F283DD004DC4C
:1016E0000B2877D00D2825D18BE0112810D0142895
:1016F00020D13BE0262846D004DC1E2851D02028EB
:1017000018D18AE02A2816D0B0F5107F12D128E02F
:101710004046E56801F0E0FC0290697A39B9297A1F
:10172000012904D130F87C1F41F48071018002A8A6
:1017300001F028FD75E0404601F0CEFC0090E16824
:1017400011B1C0F8841002E0D0F88400E06068466F
:1017500001F018FD0EB0BDE8F087D7B34046B8479A
:101760005FE02146404611F0BBFBF3E705A9404688
:1017700000F001FBE0680699016007994160E9E724
:10178000C4F80C90E6E7E0680228E3D1CDF8308099
:10179000E0680D9027200A900AA9A0680BF040FE8F
:1017A000D8E7E068012804D00021404600F0B1FAF3
:1017B000D0E730460AF067FE68B130460BF02CF8EF
:1017C00030460AF039FD98B10121304609F05AFE41
:1017D0000EE026E02FE048460BF072F80646404641
:1017E00001F07AFC0090C0F88060684601F0CAFC05
:1017F0000121404600F08DFA002EABD10020E060C0
:10180000A8E75FEA0A700CD4E068C06848B1007AC3
:1018100038B140460BF000F803E02146404611F095
:1018200064F82146404609F098FD002892D02046F1
:101830000AF052F88EE7404601F04EFC00907030FE
:1018400001F0B6FB684673E7F0B587B01D46DDE9E9
:101850000D73044600200C9ECDE90304CDE905106C
:10186000CDE9000202903A463146284600F002F8DF
:1018700007B0F0BD2DE9F04F8BB09846DDE9155665
:1018800091468A468346149F1A9C02F0C5FB334852
:10189000603445F48055CDE90204CDE90075434636
:1018A0004A465146584609F05FFF04004FD001F008
:1018B00013FC30220490179909F098FE049828220E
:1018C00027493430FEF74DFF04981999244F41669B
:1018D000A0F87C600026C0F88060C666083FC0F8AB
:1018E00088607968C16504A801F04CFC05A9204610
:1018F00000F041FA1B4841F2827103960094CDE951
:101900000110BDF91E00BDF91A10BDF91C20431AC3
:10191000BDF918005B1C121A521C09F025FF06467F
:101920007868416820468847204601F0D5FB04903E
:10193000866604A801F026FC42F20400054202D1AA
:1019400020460AF07BF82046189900F0F1F903F0E0
:10195000A3FC0BB02046BDE8F08F000091160008F4
:1019600064020120311F00082DE9F041044694B0C3
:10197000006800F0B7F908B1D94D01E0D84D2C3519
:10198000606815281ED00CDC0B281FD004DC002852
:101990007ED005287DD12FE10E287BD01228F9D1E9
:1019A00041E1162806D0172808D0182808D01C288E
:1019B000F0D109E0E86914B0BDE8F081286AFAE7DF
:1019C000686AF8E7A86AF6E76869F4E720680B90A8
:1019D0001C200C90206801F07FFB0390016D0BA888
:1019E0008847064603A801F0CDFB022E0FDB95E8E1
:1019F00007008DE80700D4E904023346A16904F02A
:101A000079F820698719A069A0EB06082CE02868FE
:101A100002F0FFFF2169E8690A18521E606902F0AE
:101A20002DF8A269E869111A491C606902F026F8CC
:101A3000D4E904077F1C394602F070F83946A069E2
:101A400002F06CF8686802F0E4FF20693946401C37
:101A500002F064F8A0693946401E02F05FF8A06900
:101A60002769A0F10208BF1C286802F0D2FF424695
:101A70003946606902F002F8686802F0CAFF6069DE
:101A800042463946401C01F0F9FF686A022802E02C
:101A900015E1B0E000E10BDDA86802F0BAFF616972
:101AA0006A6A881C8B180146424638465B1E27E04E
:101AB000296AB14226DD6069022E074600F102085C
:101AC00001DB374401E007F10207206901DB304404
:101AD00001E000F1020022693B460A444146A2F1BE
:101AE000010202F0DBF8022E02DBA069821B01E09A
:101AF000A269921EA069E9693B46401A4146401C12
:101B000002F0CCF8022E02DB6069064401E066694F
:101B1000B61CE76928687F1E02F07BFF3A46314613
:101B2000206902F06BF83A463146A06902F066F887
:101B3000E7696868BF1E02F06CFF20693A463146CB
:101B4000401C02F05BF8A0693A463146401E02F0A4
:101B500055F8E869022802DC286A022823DDA86A11
:101B6000022802DDE1690F1A01E0E769BF1EA868DB
:101B700002F04FFFE969022909DD20693B4642185E
:101B800000F1020C31466046521E02F087F8286AC6
:101B9000022808DDA269E8693B46101A3146401C5C
:101BA000921E02F07BF8286802F033FFD4E9062089
:101BB000216901F063FF686802F02BFFD4E9062079
:101BC0002169401E491C521E01F058FFA86A0228D4
:101BD00011DDA1692669E469A1F10208271AA41E92
:101BE000B61C7F1CA86802F014FF23464246394603
:101BF000304602F053F871E0208A00B2ADF81400CC
:101C0000A18A09B2ADF81610228B12B2ADF81820D5
:101C1000A38B1BB2ADF81A302C69ED68CDE90054E6
:101C200001F0C6FE5AE0208A298B0844ADF8140062
:101C3000A08AADF81600208B298B401AADF8180049
:101C4000A08BADF81A00206801F046FA0390006FEF
:101C5000F0B1022002F084FF039890F87C10C1F3E9
:101C6000C00100EB8100006C02F0D3FE0398406BD2
:101C700002F0ECFE0398006F01F02EFA0399099030
:101C8000B1F95A2005A901F0ABFD09A801F07AFAD3
:101C900003A801F077FA21E0208AADF81400A08AA9
:101CA000ADF81600208BADF81800A08BADF81A0027
:101CB000A86802F0AEFE05A802F01CF80EE020684D
:101CC00001F00AFA039030F85A1F41F00C0101802C
:101CD00003A801F057FA20680AF04AFE00206AE6DD
:101CE0004004012038B505004FF000040FD002F089
:101CF00093F9284601F0F0F9009090F87C00000775
:101D000000D50124684601F03DFA03F0C5FA2046EB
:101D100038BD70B50D46040009D002F07DF92946A2
:101D2000204611F0E5FEBDE8704003F0B5BA70BD85
:101D30007CB50D4604001DD002F06EF9204601F07E
:101D4000CBF90090006F0190684601F01BFA29461C
:101D500001A804F0AFF958B1204601F0BDF9009098
:101D600001990167684601F00DFA20460AF03CFB34
:101D700003F092FA7CBD2DE9F34F85B000270C46A5
:101D8000B846059801F0A8F90090C06D012185685A
:101D900005982A68904782462A680321059890474B
:101DA00004902A6802210598904703902A68002130
:101DB00005989047064600980AF0B6FF83460098BB
:101DC0000AF0B9FF8146009890F83210890601D5D3
:101DD000B0F9588000F036F805460098C06E10B192
:101DE0000AF03DF8074625806780A4F804A0049A0D
:101DF000ABEB020006EB0802401E2A4420813A4465
:101E0000E280039BA9EB0302521E6281A4F80CA09E
:101E100020827019E681401E6082684601F0B2F9A6
:101E2000B4F90C000190B4F91000029002AA01A9C3
:101E3000059800F039F80198A0810298208207B037
:101E4000BDE8F08F10B50146002091F832209206CF
:101E500007D5B1F95400002803D1486B02F078F897
:101E6000801C10BD70B58AB00C46054601F034F9EF
:101E70000990C06D866809A801F084F9009534B115
:101E8000012C06D0022C0BD0032C04D10AE0182020
:101E900000E0162001907168684688470AB070BD5E
:101EA0001520F7E71720F5E72DE9FC41174688468E
:101EB000044601F011F90090C16D056868468E680E
:101EC00001F060F93268002120469047064620461E
:101ED00009F07CFE27E000BF01F0FEF80190B0F9A8
:101EE00000102AB2B0F90430891A9A1AB0F90230F7
:101EF000A3EB2543B34210D190F82800000605D586
:101F00003868884209DB491E396006E0D8F80000CD
:101F1000904202DC521CC8F8002001A801F032F9FE
:101F2000204609F0F1FE0400D6D1BDE8FC81000096
:101F30002DE9F0430446406889B0054609F002FFE8
:101F4000814601F0C9F80290D0F84880D0F880703E
:101F5000466E02A801F016F92068172852D008DC56
:101F60000E2839D00F2811D014284BD015283CD179
:101F700048E01E281DD01F2829D022283FD0312814
:101F800033D10020E06009B0BDE8F0831F4940462E
:101F9000884503D007F0A8FC01F060FA002EF2D0CB
:101FA000D4E902122068CDE90405CDE9061204A89F
:101FB0001FE0E0680028E6D02FB1AF4203D03846DA
:101FC0000AF02AFCDFE728460AF07AFCDBE7214624
:101FD000484609F0C2F9D6E7E0684168002904DD07
:101FE00000680928EFD00A2805D05EB12046C4F861
:101FF0000490B047C7E728460AF096FCC3E7C4F848
:102000000C80C0E7204609F067FCBCE7785634FF37
:102010002DE9F0430446C56887B090468946002004
:1020200002F008FD064625B1287910B146F00200FD
:1020300001E026F0020002F0FDFC2069012558B104
:10204000D4E902128DE8260003956388228804688B
:1020500041464846A0471EE0124F134B21463868C0
:102060001B68427CE068984730B9E088012801D0BD
:10207000002001E03868806BA288E388A1680095A1
:10208000CDE90410CDE902320195638822884146EA
:10209000484606F09FFF07B03046BDE8F04302F027
:1020A000C9BC000050010120400101201CB50024E2
:1020B000019401AC009400F0E7F81CBD2DE9FF4F3E
:1020C00083B0814606988A46A0EB0A08109E00203D
:1020D0000090A2EB09043568934654EA080018D032
:1020E0002046FEF7F7FC07464046FEF7F3FC874222
:1020F0000BDA2046444680464846D146824658463A
:10210000DDF818B0069001200090002C07DD204675
:1021100006E007B04846BDE8F04F00F03BB960422A
:10212000A0420AD04846D9466442C8F10008834616
:102130004FF0FF37DDF818A000E001275148B8F153
:10214000000F11D004EBD4714FEA610B01DACBF12F
:10215000000B4C480068807E88B3002F02DA30689C
:102160002044306000257BE000990029016821D0DF
:10217000897E11B10027804615E007B05A464946CE
:102180005046BDE8F04F07F087B828466D1C11F0A7
:10219000A9FD38B9D8F8000009EB0701406E426884
:1021A000504690477F1CA742EFDD6D1E356007B09B
:1021B000BDE8F08F8A7E1AB10027804617E019E04B
:1021C000486E5A465146036807B04846BDE8F04F8E
:1021D000184728466D1C11F085FD38B9D8F8001055
:1021E00009EB0700496E4A68514690477F1CA74299
:1021F000EFDDDAE700250FE008FB05B090FBF4F116
:1022000001EB0A00009951B11E4A09EB0501126861
:10221000526E526890476D1CA542EDDDC7E7194923
:1022200009EB05030968496E4A6801461846F1E75B
:1022300008FB05B090FBF4F101EB0A000190306857
:102240003844306011F04EFD48B9009890B10D4807
:1022500009EB05010068406E4268019890476D1CCB
:10226000A542E5DD3068002F01DA20443060C01B54
:1022700030609CE7034909EB05000968496E4A682C
:102280000199EBE7500101202DE9FF470F46404936
:102290001646804609680C981D460A7E012A1CD005
:1022A000A8EB0600791B50EA01031CD0A2F101093A
:1022B00012F06AFE00F58060824603F098FF00FB92
:1022C00009F4504603F098FF00FB09F1002C0CDAEA
:1022D000C4F50070801240420AE000903246394650
:1022E0004046FFF7EBFEBDE8FF8704F50074A0123F
:1022F000002904DAC1F5007189124C4202E001F5AF
:1023000000718C12002804DD411C01EBD1714910D1
:1023100003E000EBD0714910401E00EBD07042107A
:10232000002C04DD601C00EBD070401003E004EBD7
:10233000D4704010641E04EBD47308EB0104ADF8B4
:1023400000403C18ADF80240A8EB02045B10B21A42
:10235000ADF80440ADF808203144FC1AEA1AADF893
:102360000C102844ADF80A20ADF80E000023ADF89B
:1023700006401A460421684600F07AF8394640467D
:102380000DF0FAFF294630460DF0F6FFABE70000EE
:1023900050010120064A13681A7E012A05D0521EF8
:1023A00002EBD272521000F005B85A6E5268104714
:1023B000500101202DE9F05F0646884640F2C32017
:1023C00002FB00F14FF47A7091FBF0F702FB02F18F
:1023D00002EBD27001EB600B1446B118234A301B9C
:1023E0007F1C1268526E13680A46414698470125C1
:1023F00038E000BF05FB05F004FB040159451CDD76
:10240000BC4219DD194B06EB050AA6EB05091B6852
:10241000AAF1010208EB04015B6E09F101001B68DF
:102420009847124BAAF10102A8EB04011B6809F1BD
:1024300001005B6E1B689847641E0C4B3219301B01
:102440001B68924608EB05015B6E81461B68984746
:10245000064B5246A8EB05011B6848465B6E1B689D
:1024600098476D1CBD42C5DDBDE8F09F50010120BD
:102470002DE9FF4F43F6FF740F46664283B09B463B
:10248000814600210BE000BF09EB8100B0F902009A
:10249000A04200DA0446B04200DD0646491CB942BB
:1024A000F2DB67480068406900280DD0B0F90610DB
:1024B0001A46A1EB0B01B14200DA0E46B0F9020058
:1024C000801AA04200DD0446B4E0DFF878A10020C5
:1024D0000546CAF8000088E0781E854201DA6B1CC8
:1024E00000E0002309EB850C09EB8302BCF9020034
:1024F000B2F90210A04244D1A14215D139F92330DA
:10250000059A39F9251003EB020C4D4A059812681B
:10251000084404EB0B01526E6045136801DA624611
:102520002AE00246604627E02846A4464FF000080D
:102530007A1E0BE008B1401E00E0781E09EB800314
:10254000B3F90230634504D108F101089045F1DB8D
:102550002346A34248D01A1B39F92500A1EB040CED
:10256000059B92EA0C0F09D4354A184404EB0B0181
:102570001268526E13680246984735E00BF046F831
:1025800032E0A14230D001DBA04203DDA0422BDBD0
:10259000A14229DCE04688420ADC0346A04223DC53
:1025A0000846A14220DBB8F900C0B2F9001008E0EB
:1025B0000B46A14218DCA04216DBB2F900C0B8F904
:1025C0000010E21AA1EB0C0151430029A0EB030219
:1025D00002DD01EB620102E0A1EB6201491CC01ABD
:1025E00091FBF0F06044C9E76D1CBD42FFF674AF8B
:1025F0000598009004EB0B000190002080460546F2
:1026000013E01149B8F1000F31F915A009D0009974
:1026100001EB0A0208440A490968496E0B680199EE
:10262000984788F0010850466D1C064909688D429C
:10263000E7DB641CB4427FF748AF07B0BDE8F08F1A
:102640005001012098030120B03802200E4810B537
:10265000006802F0D3F90D48006802F0DAF90120B1
:1026600002F060FA002002F06BFA002002F078FA23
:10267000002002F0DFF90648006802F0E7F9BDE843
:102680001040002002F020BA4C0101204801012036
:102690004401012033B583B004001BD001F0BCFC21
:1026A000204600F019FD0190456E01A800F06AFD7A
:1026B000049800F011FD00908460684600F062FD0F
:1026C000042204A9284600F07FFD204609F08CFE74
:1026D00002F0E2FD05B030BD2DE9F04104460025D1
:1026E000D4E90007B0F5407F00D1012521463846E6
:1026F00008F033FE064615B1384610F04AF8002EB1
:102700002FD02068052806D00B280ED00F2806D021
:10271000262821D10EE0384610F03BF81CE0384660
:10272000E168BDE8F04110F009BA3846BDE8F04173
:1027300010F00AB9E06805280ED1384609F034FBDC
:10274000A168884205D0384609F01EFBA16888427E
:1027500002D1606810F03EFB2046BDE8F04109F070
:10276000BBB8BDE8F081F0B585B00DF1280C9CE850
:10277000F0004FF0000C8DE8F01000F003F805B009
:10278000F0BD00002DE9F04F85B09846DDE90E560A
:1027900091468A468346109F129C01F03DFC1848E2
:1027A0006C34CDE90204CDE9005643464A46514611
:1027B000584608F0D9FF04001BD000F042FD054642
:1027C00000F03FFD0646204600F086FC0490C0E97C
:1027D00019560022119908F009FF0498302209497E
:1027E0003430FDF7BEFF0498A0F8787004A800F01C
:1027F000C9FC02F051FD05B02046BDE8F08F000095
:10280000D92600088C02012013B582B0044601F0DD
:1028100003FC204600F060FC009060B1406A00F0CC
:102820005BFC01460190022303AA009800F06BF8BC
:1028300001A800F0A7FC684600F0A4FC02F02CFD03
:102840001FBD00002DE9F04385B01D4690460F46A0
:10285000814601F0E1FB2C2000F064FB060025D04E
:10286000780000F05FFB04000FD0B8F1000F0CD02F
:102870005DB1204600F030FC0F4B00906A001B68F1
:1028800041469847684600F07DFC304600F024FC45
:102890000A49029000F10C02446282E8A20208494F
:1028A00001600849416002A800F06CFC02F0F4FCF1
:1028B00005B03046BDE8F083900301205D1F01089C
:1028C000FD2C0108D9290108F8B515460E46070068
:1028D0004FF0000415D001F09FFB384600F0FCFBE0
:1028E0000090042D08D200EB8500446BB44203D065
:1028F0004663384609F078FD684600F043FC02F074
:10290000CBFC2046F8BD2DE9F041044680681D4609
:1029100017460E46002826D0D4E9040290420ED174
:10292000521E6A4371193046FDF7D5FE20692A46CA
:10293000401E05FB00603946FDF7CDFE0EE005FBAD
:102940000013401C20612A4639461846FDF7C3FE95
:10295000E16819B12046BDE8F0410847A068BDE82C
:10296000F04100F002B8BDE8F08110B58AB004462D
:1029700000F0B2FB09A904AACDE9002105AB08903B
:1029800006AA07A90EF003FF08A800F0FBFB02A9A6
:10299000204609F067F9BDF8080007990844ADF82A
:1029A0000800BDF80A0006990844ADF80A00BDF811
:1029B0000C000599401AADF80C00BDF80E00049902
:1029C000401AADF80E0002A9204609F0CDFC0AB06D
:1029D00010BD0000014AC2E900017047F00001206B
:1029E000014AC2E900017047F8000120014AC2E92A
:1029F0000001704700010120014AC2E9000170474F
:102A0000F40101202DE9F04FDFF828B191B04FF02B
:102A1000FF35DBF80030B3F922100691DE69B3F917
:102A20002490F469A189814206D8E289824203D3C5
:102A3000471AD4F8008012E0D4E9018100296FD050
:102A40000A8882426CD84D88854269D3801A82B246
:102A5000486800EB8200B0F90070B0F90250781CB1
:102A60005ED0307EA17C10FB01FA217CCDE907010C
:102A7000B3F92A60304606F09DFFC0B20E90DBF835
:102A8000000007FB0A81A37C826B0127CDE90412B9
:102A9000CDE90273C069089AC17E807ECDE900014C
:102AA000DDE90603494606F095FA681C18D046F0A1
:102AB000020006F07FFFDBF80000A37C05FB0A8123
:102AC000826BCDE90273CDE90412C069089AC17E18
:102AD000807ECDE90001DDE90603494606F07AFA79
:102AE000DBF800005D46C069417E007E814214D95A
:102AF000022E12D086F0040006F05CFF2868C06940
:102B0000027EC37E12FB0391437E857E089A06985F
:102B10004B4412FB050206F0E9FB0E9806F04AFF53
:102B2000DBF80000627C418C1144418411B0BDE8A7
:102B3000F08F00005001012004480068C069C0699E
:102B400009B1027C0A60407C7047000050010120FE
:102B5000022008807047C06982898A4202D8C289EF
:102B60008A4210D2806880B102888A420DD8438898
:102B70008B420AD3406800EB8100A0EB8200B0F9E1
:102B80000000002801DB0120704700207047000092
:102B90002DE9F043304C034687B020681946B0F960
:102BA0002A60C069C06900F086F8002850D04168EA
:102BB0000088181A01EBC0053046AF7806F0FAFE1F
:102BC000814620686A680123816BCDE90237CDE92F
:102BD0000421C169CB7E8A7ECDE900230B7EB0F94A
:102BE00024102A78B0F9220006F0F4F92068C069B0
:102BF000417E027E91421FD9C07E11FB00F812FB7C
:102C000000F7022E18D001F010F9064601F0D6F8B0
:102C100001F0FFFE21682A78CB69B1F92200DB7E42
:102C200012FB0302B1F9241001EB0803394406F04A
:102C30005DFB304601F0EDFE484606F0BBFE206825
:102C40006A78C369B0F922109B7E12FB031141849C
:102C500007B0BDE8F08300005001012030B50F4CF3
:102C600005460B4620682946C069C06900F023F874
:102C7000002812D04168008824682A1A0120E469DB
:102C800000EBC200085CA47E10FB04F0002B04D013
:102C900011F8321011FB04F1196030BD5001012010
:102CA00001200880704700B5C06900F004F80028D2
:102CB00000D0012000BD06E002888A4202D8428886
:102CC0008A4202D280680028F6D170472DE9F0418F
:102CD0000025154E154C18E02069C5EB451700EB93
:102CE00087007422001D3168FDF73BFD206900213B
:102CF00040F8271000EB870000F10C018161011DF5
:102D00000A1DC0E90F126D1C4164A0688542E3DB17
:102D10000EF004FE2169C0EB401001EB8000001DA5
:102D20003060BDE8F081000050010120AC030120BB
:102D300070B510490E480860084603F0B3F90D4C11
:102D4000143CA068C0EB40108500284600F03EF916
:102D5000094B20612A461B68002198474FF0FF303D
:102D6000206002F0E5FABDE870400EF0D7BD00002B
:102D7000012B0108C00301208C0301201FB501F0C5
:102D80000DF94FF488704FF4F07100221346CDE92D
:102D90000021029002223D493DA0FEF755FD3F492A
:102DA0000860002002220B461B68CDE90120009339
:102DB00003901923A022B4216E2007F070FB38493C
:102DC000086000220221354B1B68CDE901120093F7
:102DD00003926423C8223C211846FFF7C4FC314902
:102DE000086000224FF47F012E480068FFF76CFD59
:102DF00001230022C8214FF6FF70FFF723FD2A4967
:102E000008600846016827480068FFF743FC002275
:102E10000221224B1B68CDE9011200930392192372
:102E2000A022E621642008F04FF820490860002025
:102E300002221A4B1B68CDE901200093039019234D
:102E40001A46DC210A20FEF794F9194908601BE0B4
:102E500017480068FEF7A1FA60B1164801881048CB
:102E6000006807F0CBFB1348008801B20E480068E9
:102E7000FFF7CAFC0D48006808F035F90E490880D4
:102E800000F0E4FE02F020FAE2E70000616A0108C7
:102E90004D61696E2057696E646F770004000120F0
:102EA000080001200C000120100001201400012066
:102EB000180001200000012002000120F8B50C00DC
:102EC00005460ED001F0A8F8204600F01BF80600D9
:102ED00010D000F001F92246009025B12946074B99
:102EE00003E00020F8BD064B00211B6898476846A8
:102EF00000F048F902F0D0F93046F8BD9003012007
:102F00008C03012010B5040009D001F085F820469B
:102F10000AF0E2FB044602F0BFF9204610BD002093
:102F200010BD000038B5054601F076F82846FFF7D9
:102F3000E9FF04000AD000F0CFF8064B00902A46C3
:102F40001B6800219847684600F01CF902F0A4F9BC
:102F5000204638BD8C030120024A106021F0030096
:102F600050607047DC37022010B5040011D001F02A
:102F700053F80848042101EBC401406B41584868EC
:102F80000AF062FB204610F0B9FCBDE8104002F0E8
:102F900083B910BD1C370220002805D0034AD16B2D
:102FA000016001B14860D063704700001C37022007
:102FB00010B5044601F030F82068FFF7D5FF002077
:102FC0002060BDE8104002F067B900002DE9F04133
:102FD00004460EF023FF2848E41C24F00305016C8E
:102FE0002D1DA94200D90D46C46B13E054F8042CE2
:102FF000AA420ED184B1216809B162684A60616851
:1030000009B122680A60C26BA24231D12168C16352
:103010002EE02468002CE9D18046816BC0680F182F
:1030200057F8040C3E1A306838B1002010F0D0FC7C
:1030300057F8040C3E1A3068D0B97068A84217DB04
:103040003044441B3046241D10F07AFCD8F80C1094
:10305000491BC8F80C10D8F814102944C8F81410EB
:103060007068401B02D031460AF0EEFA44F8045C66
:103070002046BDE8F08100001C37022010B5002476
:103080000EF0CCFE0C490F2001EBC002526C1AB1BD
:1030900001EBC000406C08E0401EF5D508E0416837
:1030A000A14200D90C46806810B180680028F6D192
:1030B000A4F10C0010BD00001C370220002138B123
:1030C0000449042202EBC000496B085841680C39DE
:1030D000084670471C3702200549CA69521CCA615C
:1030E000496B01EBC0010A78521C0A7000F062B80B
:1030F0001C3702207CB506460C460846FFF702FF47
:10310000050021D006B33046FFF7D8FFA04200DA11
:10311000044600F081FF2846FFF7DEFF00903046AE
:10312000FFF7DAFF094B019001461B682246009821
:103130009847684600F026F801A800F023F83046CA
:10314000FFF712FF02F0A8F828467CBD900301208B
:1031500010B500F061FFFFF791FF64220849B0F558
:10316000800F04D990FBF2F4086A444303E0096A33
:103170004143B1FBF2F402F08FF8204610BD00008D
:103180001C3702200A4902684B6B52F8082C03EBEB
:10319000C2021378022B03D3CB690BB15B1ECB6148
:1031A0001178491E11700021016008467047000027
:1031B0001C3702200349042202EBC000496B085867
:1031C000083070471C3702202DE9FC414FF0000603
:1031D0000B465FEA000834462BD032B11146184640
:1031E000FFF76CFE060000D101244046FFF774FF94
:1031F0000090078845686846FFF7C4FFCCB9B9005E
:103200002846091DFFF776FF050015D0FFF764FF7C
:10321000019040F8276001A8FFF7B4FF4046FFF790
:103220005BFF009045600188491C01806846FFF7FC
:10323000A9FF2046BDE8FC813046FFF795FE01243A
:10324000F7E70820FFF76EBE7CB5050023D0FFF737
:1032500043FF00904068C0B1FFF73EFF002401909B
:1032600005E0019800EB8400FFF7A2FE641C0098C3
:103270000088A042F5DC01A8FFF784FF0098001D3C
:10328000FFF796FE0099002008806846FFF77AFF56
:103290002846FFF769FE7CBD38B5002430B1FFF742
:1032A0001BFF009004886846FFF76CFF204638BD7E
:1032B00038B50D46002448B1FFF70EFF29460090AF
:1032C00000F006F804466846FFF75CFF204638BD6C
:1032D00038B50D4601880024A94209D9406838B1A3
:1032E000FFF7FAFE009050F825406846FFF74AFFC6
:1032F000204638BD70B50C46054600F0C3FEC1B28D
:1033000023462846BDE87040002200F001B80000C6
:10331000F0B52D271C68B0F1004F08D0002600281A
:103320000DDA651C1D6027704042012408E0651C11
:1033300001261D606FF000402770491E01E0002447
:10334000091BC9B22AB3491EC9B222E00C46491E64
:10335000C9B2944205D1124C27781C68651C1D60C7
:103360002770104C54F8215090FBF5F4E4B20A2C6D
:1033700011D804FB150011B90EB1641CE4B20A2C7B
:1033800002D10124491CC9B21D686F1C30341F6072
:103390002C700029DAD1196800200870F0BD0000F7
:1033A0003C010120A86E010870B514460D46064682
:1033B00000F032FE204600F045FD0300174804EB04
:1033C000840109D050F8210041688068711A2A1AD6
:1033D000184601F069FB1CE000EB8104A268B242D0
:1033E00001D0012200E00022E368AB4201D00123BA
:1033F00000E000231A430CD0236943B150F82100A8
:10340000816840686A1A311A184601F0B3FAC4E9B3
:103410000265BDE8704001F03FBF00007439022032
:1034200010B5C2B2CBB2D21A00D5524293B25B43AE
:10343000C0F30722C1F30724121B00D55242000C2F
:1034400092B2A0EB114002FB023200B2002801DA76
:10345000404200B280B200FB002010BD10B5002138
:10346000084600F08BFD43F6FF725042BDE8104065
:1034700013460146AFF300802DE9FC411C4615467A
:103480000E46074600F0C8FD042006F093FA804679
:1034900012484069C16C006D0F4406440D44044459
:1034A000ADF80070ADF80450ADF80260ADF806401C
:1034B000684609F047FC07E023462A46314638466D
:1034C00005F014FF09F0F2FB0028F5D1404606F0A4
:1034D00071FA01F0E1FEBDE8FC8100003C01012031
:1034E000B0F90630B0F90420B0F90210B0F90000CC
:1034F000FFF7C2BF2DE9F0411C4616460D460746B0
:10350000022B02DB0020BDE8F0811C20FFF75EFDEE
:103510000028F8D00DB105610AE0094A52F82410DC
:1035200009B905E011460A68002AFBD10969016161
:1035300084618682002101604160C0E90217E2E7F0
:103540008401012070B51D46FFF7D4FF040009D0A7
:1035500000F00EF8E068006820B90348006800EB4E
:1035600085008465204670BD50010120FFF714BD21
:1035700070B5C0B38269022A36DA2149531C0C782F
:103580009C4200DA0B701F4C54F8221019B944F811
:10359000220032E019464B68002BFBD106E0CB68D5
:1035A000C5681B682D68AB4203DD09680029F6D1A8
:1035B0001AE0C1B1CB68C6681B683668B3420CD14B
:1035C000838A012B05D008E01946DB681B68AB42F3
:1035D00003DB0B68002BF7D129B14B6833B11860BE
:1035E0004A68426004E0FFE7012070BD44F8220011
:1035F0004860884200D100210160002070BD0000B9
:10360000AA0101208401012010B503E00468FFF73E
:10361000AFFF20460028F9D110BD000010B50C4BBB
:103620008269002153F82240844205D1046843F89E
:103630002240026802B1516042680AB10368136017
:1036400002680AB1436853600160416010BD000028
:103650008401012000207047022801DB0020704710
:10366000054951F8200004E0C16809680029F6D036
:1036700000680028F8D17047840101202DE9FC473B
:1036800006005FD000F0C8FC00F0F2FB3C4C814625
:103690002068B0F9228000F03DFC216807468A8C42
:1036A000D01B888441E000BF47F6FF71304602F02E
:1036B0007FFB82460146304602F050FB21680546FA
:1036C00091F82C0000F00300012841D002283BD0E3
:1036D00000204A8C101A4884ADF800006A1E10447D
:1036E000ADF80400888CADF80200A9F1010108448E
:1036F000ADF806006A465146304601F0BDFF21682C
:10370000BDF8020088845146304601F0B3FC0644FF
:1037100030780A281ED00D281CD0BDF80000216882
:1037200028444884307818B1761C30780028BBD102
:103730002068818C39448184818D21F00301818549
:1037400001F0AAFDBDE8FC8705EBD5704010C0E78D
:103750002846BEE7206890F82C1001F003010129EB
:103760000BD0022909D0018C418431780A29D9D1A2
:10377000828C02EB09018184D4E7A0F82280F4E76F
:103780005001012070B514460D46064600F044FC79
:1037900005480068458484843046FFF76FFFBDE824
:1037A000704001F079BD0000500101202DE9F04189
:1037B00007460A4815460E460068B0F92C0040F04E
:1037C000020001F0BDF904462A4631463846FFF7AB
:1037D000D9FF2046BDE8F04101F0B2B95001012007
:1037E00047F6FF73AFF300802DE9FC411F4690467A
:1037F0000D4606004FF000041AD000F00DFC65B134
:10380000284609F025F9040007D0024629466846F3
:1038100002F040FB684609F01BF93B464246294648
:10382000304601F081FF204609F012F901F034FD25
:10383000BDE8FC817CB514460D46064600F0ECFB65
:1038400011480068C16C006D0D4404443188681E45
:103850000844ADF80400ADF800507188601E0844BB
:10386000ADF80600ADF80240684609F06BFA06E0D4
:10387000224629463046FEF7CBFB09F017FA00280E
:10388000F6D101F009FD7CBD500101201CB50A46AE
:103890000146684602F0F8FB00F0BEFB2548BDF883
:1038A0000010006830F84C2F1144ADF80010BDF83E
:1038B000021082881144ADF80210BDF8041002888D
:1038C0001144ADF80410BDF8061080880844ADF826
:1038D0000600684609F036FA27E000BFBDF900404F
:1038E0000BE000BFBDF90210204605F0A1FCBDF9B8
:1038F0000610204605F09CFCA41CBDF90400A04263
:10390000F0DABDF902400AE0BDF90000214605F0F9
:103910008FFCBDF90400214605F08AFCA41CBDF90A
:103920000600A042F0DA09F0C1F90028D6D101F072
:10393000B3FC1CBD500101202DE9F04F87B09B4620
:10394000DDE9109892460C46054600F065FB1648E6
:103950000168C86C096D47190E1900EB0A0501EBE7
:103960000B04ADF81070ADF81450ADF81260ADF85E
:10397000164004A809F0E6F988B1DFF830B04FF03E
:10398000000ACDE90098CDE902BA2B462246394615
:1039900030460CF051FA09F089F90028F1D101F014
:1039A0007BFC07B0BDE8F08F500101209992000820
:1039B0002DE9F04F87B09B46DDE9109892460C4602
:1039C000054600F029FB16480168C86C096D4719C7
:1039D0000E1900EB0A0501EB0B04ADF81070ADF801
:1039E0001450ADF81260ADF8164004A809F0AAF919
:1039F00088B1DFF830B04FF0010ACDE90098CDE989
:103A000002BA23462A46314638460CF015FA09F028
:103A10004DF90028F1D101F03FFC07B0BDE8F08F6F
:103A200050010120D99100082DE9FE4F9846DDE9AB
:103A30000D6514468A4683460C9F00F0EDFA0E4849
:103A40000068C16C01EB0409016D002001EB080462
:103A500009F078F90AE00097CDE9016523464A4666
:103A6000514658460CF092FA09F020F90028F2D19C
:103A7000BDE8FE4F01F010BC500101202DE9FC41D2
:103A800014460D46064600F0C7FA114F3968C86C57
:103A9000096D054404440E44ADF80050ADF80440EF
:103AA000ADF80260ADF80660684609F04BF908E031
:103AB000386822463146406E03682846984709F028
:103AC000F5F80028F4D101F0E7FBBDE8FC81000027
:103AD000500101202DE9F0411C4615460E460746CF
:103AE00000F09AFA0C480168C86C096D0744054457
:103AF0000E440C44002009F025F907E023462A462D
:103B000031463846FEF7D2FA09F0D0F80028F5D150
:103B1000BDE8F04101F0C0BB500101207CB50C466E
:103B2000064600F079FA0F4D2868C16C006D0E440E
:103B30000444ADF80460ADF80060ADF80640ADF89F
:103B40000240684609F0FEF807E028682146406E0A
:103B500042683046904709F0A9F80028F5D101F0F5
:103B60009BFB7CBD500101202DE9FC411C46164603
:103B70000D46074600F050FA1A480168087ECA6CE4
:103B8000096D17440D440C44401E391A1644ADF813
:103B900000103118ADF80410291A2044ADF80600C1
:103BA000ADF80210684609F0CDF815E03246294616
:103BB000384605F011FB32462146384605F00CFB2D
:103BC000621E691C384605F067FB621E691C3046A0
:103BD00005F062FB09F06AF80028E7D101F05CFB10
:103BE000BDE8FC8150010120B0F90630B0F9042095
:103BF000B0F90210B0F90000FFF7B6BF7CB514466B
:103C00000D46064600F008FA0F480068C16C006DCA
:103C10000E4405440444ADF80060ADF80460ADF80E
:103C20000250ADF80640684609F08CF806E02246DE
:103C30002946304605F030FB09F038F80028F6D167
:103C400001F02AFB7CBD00005001012010B50024CA
:103C500000E0012400F004F80028FAD1204610BD4D
:103C60000B4810B50068002410B1804700B1012452
:103C700007F0F6FE00B101240648006810B1804745
:103C800000B101240448006800B18047204610BDFF
:103C900058010120900101208C0101202DE9FC41F7
:103CA0001C4615460E46074600F0B6F91048006857
:103CB000C16C006D0F4406440D440444ADF800701F
:103CC000ADF80450ADF80260ADF80640684609F062
:103CD00039F807E023462A463146384605F006FB08
:103CE00008F0E4FF0028F5D101F0D6FABDE8FC8128
:103CF00050010120B0F90630B0F90420B0F90210EB
:103D0000B0F90000FFF7CABF08B50B46002805D080
:103D1000009281888268C08800F001F808BD10B563
:103D20000828029C30D008DC04FB01F401280AD0EA
:103D3000022813D0042804D11CE0102828D0202801
:103D40002CD0002010BD04EBD30003F00701105C61
:103D5000C1F10701C84000F0010010BD04EB930061
:103D60000621105C01EA4301C1F10601C84000F0E0
:103D7000030010BD04EB5300D907105C02D000F023
:103D80000F0010BD000910BD04FB0130105C10BD18
:103D9000481004FB003032F8100010BD881004FBFE
:103DA000003052F8200010BD034951F82000C168CE
:103DB0008A6A0821104700008401012010B500F034
:103DC0002BF905F0C3FA05F08BFB044601F064FA09
:103DD000204610BD10B5044600F01EF9054800212C
:103DE0000068C069426820469047044601F054FAD2
:103DF000204610BD5001012070B50C46054600F06C
:103E00000BF9064821460068C06942682846904779
:103E1000044601F041FA204670BD00005001012027
:103E2000002801D007F070BE704710B500F0F4F81C
:103E300005F094FA05F054FB044601F02DFA2046F3
:103E400010BD00000021022802D2024951F82010C2
:103E500008467047E401012010B500F0DDF8034882
:103E60000068047C01F018FA204610BD50010120C2
:103E700010B500F0D1F804480068C069447E01F034
:103E80000BFA204610BD00005001012010B500F0D3
:103E9000C3F801F059FF044601F0FEF9204610BDB9
:103EA00070B515460E46044600F0B6F82A4631466F
:103EB000204605F099FA040002D000203060286006
:103EC00001F0EAF9204670BD10B500F0A5F80348EE
:103ED0000068847E01F0E0F9204610BD5001012009
:103EE00070B50C46054600F097F82146284601F0CB
:103EF00089FFBDE8704001F0CFB910B5044601F06C
:103F000073FF01462046BDE8104001F027BF01F0D5
:103F1000E5B9000010B5002400F07EF80B480068F9
:103F200090F82C1001F00C01042904D0082906D0C7
:103F30000C2907D103E0C069047E641E02E0C06959
:103F4000007E440801F0A8F9204610BD5001012070
:103F5000017EC07E11FB00F070470000024951F85D
:103F6000200000690068704784010120024951F86F
:103F700020000069406870478401012070B50C463C
:103F8000054600F049F8044800684584848401F03F
:103F900083F9002070BD00005001012070B501F0D0
:103FA0009BFA1B4C2E20207001F09EF919480DF051
:103FB000F1FE05F007FB054605F040FAC0B100260A
:103FC00005F050FAB0B10020064307D005F053FACF
:103FD000064605F03CFA314605F0E6FC00210846AD
:103FE00000F080FD08F052F9FEF770FE206B09E04A
:103FF0000126E5E70120E7E7006800B18047206B74
:10400000406820630028F7D10120A070284670BDC9
:104010003C010120E837022070B5184CE06820B15F
:1040200001F057F96168884204D001F08DF901F080
:1040300050F96060E068401CE06001281CD10DF080
:104040006DFC05462068854216D0002813DBFFF77B
:1040500001FB01462068C0EB4012206900EB8202A0
:104060009167C5EB4511064A00EB8100011D116007
:10407000806FFFF7C9FA256070BD0000AC03012016
:104080005001012010B5011E01DD024600E04A4248
:10409000064B012053F82040944202D8401C0A28C5
:1040A000F8DB002900DA401C10BD0000A86E0108F2
:1040B0001CB5040004D10E480068046E002C16D014
:1040C000FFF7AAFF2046FFF707F80090446968460B
:1040D000FFF758F84CB12046FEF7FEFF01908168CB
:1040E0008968884701A8FFF74DF801F0D5F81CBD95
:1040F0005001012001490A4600F002B801F0FFFF1B
:104100002DE9F04387B015460C465FEA000846D01B
:10411000FFF782FF002000F08DFC814621480068F7
:10412000066E4046FEF7D8FF00900068806900F0F8
:1041300049FC074640F6FF70C44204D10098B0F92C
:104140000440B0F906500098611E0289ADF80440A1
:104150001144ADF808104189681E0844ADF80650B6
:10416000ADF80A0007F06CFA6846FFF70BF801A8F3
:1041700008F0E8FD06E02A462146404600F0D0FA65
:1041800008F094FD0028F6D1384600F01BFC3046BC
:1041900000F090F9484600F04DFC01F07DF807B0C2
:1041A000BDE8F083500101202DE9FE4F984691466D
:1041B0008A46834600270C9EFFF72EFF18481949B0
:1041C0000068407C51F82040E1680968042903D068
:1041D0002468002CF8D100E01CB9FFF73DFA041E5A
:1041E0001BD0E0680121C26A20469047050011D02B
:1041F0002469A0688047401C02D10B4C46F00106A0
:104200000096CDE9015443464A465146584600F0CF
:10421000E5F9074601F040F83846BDE8FE8F00009A
:104220005001012084010120F490010838B50400F8
:104230001CD0FFF7F1FE0E480068006EA04201D1CD
:1042400000F0B2FB2046FEF747FF0090406908B13E
:1042500001F00BF800980068FFF788F96846FEF750
:1042600091FF2046FEF780FE01F016F838BD0000F1
:10427000500101202DE9FF4F83B09A468B46074637
:10428000FFF7CAFEDFF83891D9F80000447C4D48AA
:1042900000570128204606DD05F0D6F805462046E1
:1042A00005F0E6F805E005F0B8F80546204605F00B
:1042B000BAF804461FB302A901A8FFF711FEB7F927
:1042C0000000002800DA0020B7F902608046002EC6
:1042D00000DA002601984119B7F90400491E0EF0D2
:1042E000BFFA054602980119B7F90600491E0EF0FB
:1042F000B7FAA5EB0802841B521C641C03E04FF0C4
:10430000000846462A46BAF1000F01D1C4F1000A5E
:10431000002A51DD002C4FDD1098009053463146A5
:104320004046FFF741FF5FEA000A10D000F07CF83A
:104330000746A04206D0D9F80000806C10B13221A7
:1043400009F09AF8504600F0B5F8002523E05946E8
:104350000598884700F0A0FF012007B0BDE8F08F66
:10436000611BB94202DA504600F088F83DB172197B
:104370004146504600F0C6F85046FFF799FE5946B0
:10438000059888471048016809B1002088475046C1
:10439000FFF7B0FE3D44A542E2DB5046FFF746FF83
:1043A000002000F087F8A74206D0D9F80000806C02
:1043B00010B1332109F060F800F06EFF0020CCE767
:1043C00050010120A8010120D803012038B50500C3
:1043D0004FF0000411D0FFF71FFE2846FEF77CFEC9
:1043E0000090006800698068804705F069FE044617
:1043F0006846FEF7C7FE00F04FFF204638BD38B5CF
:1044000004000ED0FFF708FE2046FEF765FE00F11F
:10441000180400906846FEF7B5FE00F03DFF204608
:1044200038BD002038BD000038B504460025FFF730
:10443000F3FD1CB908480068046E44B12046FEF73D
:104440004BFE0090B0F90A506846FEF79BFE00F064
:1044500023FF284638BD00005001012070B50546F5
:104460000024284609F0D8FD641C18B1BDE870404E
:1044700000F07AB8052CF4DB70BD000038B50C46AE
:10448000050004D10A480068056E002D0FD0FFF723
:10449000C3FD2846FEF720FE0090B0F90A10A142A5
:1044A00000DD44816846FEF76DFE00F0F5FE38BD84
:1044B00050010120F8B50546FFF7AEFD104E3068FB
:1044C000046ECDB10CB100F06FFA07F0F5F9284693
:1044D000FEF702FE009031680D660068FFF748F8AD
:1044E0006846FEF74FFE05F0D7FA05F027FA00BF41
:1044F00000F0D2FE2046F8BD00F056FAF8E70000C2
:10450000500101207CB515460E46040004D1154823
:104510000068046E002C24D0FFF77EFD2046FEF7D5
:10452000DBFD2DB20090C58034B2848005F006FA20
:104530000098406980B1FEF7CFFD009A0190B2F972
:1045400008108180B2F90A20C28011B10AB104803A
:10455000458001A8FEF716FE6846FEF713FE00F040
:104560009BFE7CBD5001012001490A4600F002B8C3
:1045700001F0FFFF7FB515460C4606002DD0FFF772
:104580004BFD3046FEF7A8FD40F6FF710190CC428E
:1045900003D1B0F90440B0F906500289611E1144FC
:1045A000ADF80840ADF80C104189681E0844ADF81C
:1045B0000E00ADF80A5001A8FEF7E4FD02A808F0CD
:1045C000C1FB06E02A462146304600F091F808F08B
:1045D0006DFB0028F6D100F05FFE7FBD2DE9FF4F97
:1045E000DFF8E8B083B01C46DBF80010DDE91060AE
:1045F00092464FF000084B7C42461299FEF77AFF34
:10460000050060D028698068804705F059FD814623
:104610000AFB09F1C91DCF08FEF79AFDF10705D184
:10462000C11700EB9170801000EB4000002C09DCFA
:104630001FB11838B0FBF7F000E000206442A04240
:1046400000DC0446F00707D10090DDE903012346B2
:10465000524600F08FFD8046002C03DC2846FEF712
:1046600085FF30E004FB07F01830F10702D0FEF7B9
:1046700049FC01E0FEF756FC06001CD0FEF72CFDBD
:1046800001900560039981800499C180A0F808A079
:104690004481C0F81480C0E9037901A8FEF772FDD7
:1046A0001298AE602861DBF80000407CA8613046BB
:1046B00007B0BDE8F08F2846FEF758FFB8F10000BC
:1046C00001D0FEF751FC0020F2E70000500101206C
:1046D000054B30B41B68054C5B7C54F823301B69D8
:1046E00030BC0FF0CBBF000050010120840101203D
:1046F000F8B515460E460746FEF7EEFC009000683A
:104700001621C068426A0020904704466846FEF7BA
:1047100039FD002C03D02A4631463846A047F8BD63
:10472000F8B516460F46050012D0FEF7D5FC0090EE
:1047300044696846FEF726FD2846FFF747FE034614
:10474000082800DD2CB132463946284610F060F8C2
:10475000F8BD32463946284610F0FAF9F8BD000097
:10476000094A126802B10020074A243252F8203068
:10477000002B07DBA2F1180343F820104FF0FF31A4
:1047800042F8201070470000B801012010B5002841
:1047900021D009B30AB3B1F90040B2F900309C420C
:1047A00000DA23460380B1F90240B2F902309C429C
:1047B00000DA23464380B1F90440B2F904309C4248
:1047C00000DD23468380B1F90610B2F9062091423C
:1047D00000DC1146C18010BD11460A6802604968BC
:1047E000416010BD00280BD003880B4403808388F0
:1047F00019448180418811444180C1881144C1809D
:104800007047000070B50E4D0446D5E9000188429E
:1048100009D10C49884201D13C3000E00C3807C86E
:1048200084E8070006E090E80E0084E80E000DF032
:10483000CBF82860207A002800D0012070BD00004D
:104840006C050120B43902200448D0E900108142EF
:1048500001D1012070470020704700006C05012045
:1048600010B509490446086820B908480860084698
:1048700001F018FC07490648086020460FF090FE3A
:10488000BDE8104000F07CB97C050120152B010823
:104890008DBE00089401012070B50025FFF7BCFB18
:1048A000094CD4E9002082420AD0D2E900561046D1
:1048B0000DF094F820603146284607F007FE0125E8
:1048C00000F0EAFC284670BD9C0301202DE9FC4164
:1048D000154DDDE908742D68B5F90860864200DDE4
:1048E0003046B5F90C60964200DA3246824219DB56
:1048F000B5F90A608E4200DD3146B5F90E509D4291
:1049000000DA2B468B420DDB00E02C46E5682D6873
:1049100025B1042D02D02568002DF6D1CDE9007413
:1049200004F0F6FEBDE8FC8150010120B0F9022040
:10493000B1F906309A4213DCB1F90220B0F9063021
:104940009A420DDCB0F90020B1F904309A4207DC3C
:10495000B1F90010B0F90400814201DC0120704778
:10496000002070470146024874220068FBF7F9BE38
:104970005001012070B515460E4604000AD0FFF71D
:104980004BFB2A46314620460FF020FBBDE8704025
:1049900000F082BC70BD0000024974220968FBF778
:1049A000E0BE00005001012010B5FFF735FB04F018
:1049B0007BFF05F071F806F043FEBDE8104000F003
:1049C0006BBC000070B50B4D04462868467CFFF7B1
:1049D00023FB022C09D22046FEF73EFE28B12868B0
:1049E0004474FFF7E1FF0448046000F055FC3046D2
:1049F00070BD0000500101200403012010B50446E1
:104A0000FFF70AFB204604F06FFFBDE8104000F0FE
:104A100043BC10B50446FFF7FFFA204604F09CFFA4
:104A2000BDE8104000F038BC0149886070470000C4
:104A30003C01012010B50446FFF7EEFA204604F0D1
:104A4000B9FF044600F028FC204610BD70B50446AE
:104A5000FFF7E2FA04480068C56904B1C46100F0D8
:104A60001BFC284670BD0000500101200249CA69A4
:104A7000C8611046704700000801012001494860E4
:104A8000704700003C01012002490A680860104696
:104A9000704700000801012002494A68486010463A
:104AA000704700000801012070B514460D46064607
:104AB000FFF7B2FA22462946304604F097FF044633
:104AC00000F0EAFB204670BD70B50546FFF7A4FA7A
:104AD00003480068847E857600F0DEFB204670BDCA
:104AE0005001012070B50C460546FFF795FA0948BC
:104AF000224605800848048008480068417C084830
:104B000050F82100C1680B6A29469847BDE87040FB
:104B100000F0C2BBB0010120B20101205001012010
:104B20008401012070B50546FFF776FA0348006856
:104B3000047E057600F0B0FB204670BD50010120D8
:104B400070B50446FFF768FA04480068B0F92C50C5
:104B5000848500F0A1FB284670BD000050010120B3
:104B600070B50446FFF758FA04480068B0F92A50B7
:104B7000448500F091FB284670BD000050010120E3
:104B800002480068002800D000477047CC0301208D
:104B900002498A6802B98860FFF7F2BF9C030120CE
:104BA0002DE9FC41984616460D460746FFF734FAB4
:104BB0001C20FEF7B7F904002DD01C491A480860E4
:104BC0002046FEF789FA009015B9FFF7A0F90546CF
:104BD00000980760C0E90465A0F80C806846FEF7FD
:104BE000D1FA20460DF090FD114DA86840B9012082
:104BF000A86005F10C010F480860084601F052FA60
:104C00002046FEF769FA0190296849B181602C605D
:104C100001A8FEF7B7FA00F03FFB2046BDE8FC8193
:104C200000212C608160F3E7614C000858010120ED
:104C30008C0501202D2B010810B504000ED0FFF7C4
:104C4000EBF920460EF096FE20460FF0E7FC2046DA
:104C5000FEF78AF9BDE8104000F01EBB10BD000051
:104C60002DE9F04188B00025FFF7D6F9184C6768A8
:104C700025E000BFFFF74BF906466068FEF72CFA07
:104C800001904169891B002915DC61680296049135
:104C90000169039146686660D0F8008001A8FEF7BC
:104CA00071FA02A84146884766B160680125B8429A
:104CB00005D1002506E001A8FEF764FA02E060686D
:104CC0000028D7D100F0E8FA08B02846BDE8F08106
:104CD0008C05012038B50C46050011D0FFF79CF972
:104CE0002846FEF7F9F900908089204201D001247E
:104CF00000E000246846FEF745FA00F0CDFA00E037
:104D00000124204638BD38B5040017D0FFF784F9D8
:104D10002046FEF7E1F90090FFF7F9F80146009808
:104D20008269114441616846FEF72CFA20460FF073
:104D300075FC20460DF0E8FC00F0AEFA38BD38B541
:104D40000C4605000BD0FFF767F92846FEF7C4F9BB
:104D5000009084616846FEF715FA00F09DFA38BDB0
:104D600038B50546002028600648046844B120464E
:104D7000FEF7B2F90090006928606846FEF702FA73
:104D8000204638BD8C05012038B504004FF00000E6
:104D90000D46086011D02046FEF79EF90090846809
:104DA00044B16846FEF7EEF92046FEF795F900900B
:104DB000006928606846FEF7E5F9204638BD000026
:104DC0002DE9F04706460C4617461D46DDF82080C3
:104DD000BC4201D0454502D10120BDE8F08716B1A3
:104DE000012E18D10BE01B48007800F0040010B130
:104DF00004F030FB01E004F019FB81460DE015489A
:104E0000007800F0040010B104F010FB01E004F0A1
:104E100021FB814601E00120DFE700BF6042A8EBF3
:104E200005014843391B90FBF1F028440A4941F839
:104E30003600A9F10100001BA8EB05014843391B0E
:104E400090FBF1F02844044901EBC60148600020C2
:104E5000C3E7000088000120940001202DE9FC47F1
:104E6000684606F035FA08B1BDE8FC879DF80400F5
:104E7000002879D04348007800F0040040B1BDF923
:104E8000020041490860BDF900004049086007E0A0
:104E9000BDF900003C490860BDF902003B490860CB
:104EA0003B480068384909680C1A39488068374916
:104EB00009680D1A3348007800F0040030B104F09E
:104EC000C9FA074604F0B2FA064605E004F0AEFA65
:104ED000074604F0BFFA0646781E44432C48406853
:104EE0002B490968401A94FBF0F4701E454328488A
:104EF000C06827498968401A95FBF0F52548007875
:104F0000012824D124480068844203DD2248006837
:104F1000201A02E020480068001B80461F480068F5
:104F2000854203DD1D480068281A02E01B4800681E
:104F3000401B814608EB0900022820DD2946204657
:104F400000F038F8144804601448056017E029465A
:104F5000204600F02FF8104804601048056001203A
:104F60000C4908700BE0FFE70A480078012806D1D9
:104F7000002008490870411E084600F01BF800BFD9
:104F800072E70000880001208C00012090000120C1
:104F900094000120A4000120A8000120AC00012001
:104FA00010B506F0B3F910BD014908607047000064
:104FB00088000120074A002806DB002904DB0123C2
:104FC0001372C2E9000101E000201072014800F0F4
:104FD00003B800005C3802203EB504460C2211499B
:104FE000FBF7E4FA002813D00F480E4D026882B197
:104FF00094E80B008DE80B00684601A990479DE8F6
:105000000E0085E80E00002802D16846FFF728FC54
:105010003EBD2046FFF724FC94E8070085E8070022
:105020003EBD000020390220C803012010B504460F
:10503000FFF714FF10BD000002490968491C014A2E
:1050400011607047740001202DE9F041084E0446BC
:105050000568306801682846884707463068416817
:1050600028468847284420603846BDE8F081000083
:10507000540101202DE9F0410C4606460025064F5B
:1050800005E0386841683046884706440544641E98
:10509000F7D22846BDE8F081540101202DE9F04106
:1050A0001E46069C1746884605463A46A8687F1C59
:1050B0003346D0F804C041462846E047641EF4D188
:1050C000BDE8F08170B5B0F90040091BB0F90440AB
:1050D0008C422CDD00F11404B0F902500069521B1F
:1050E00002FB0040CA1800EBE104521ED010B0EBE6
:1050F000E10501F007034FF0FF0102F0070221FA7A
:1051000003F0C2F1070201FA02F1CEB221780FD00A
:1051100001436D1E04F8011B002D05DDFF22294609
:105120002046FBF75BFB2C4420783043207070BD99
:1051300030400143217070BD10B5B0F90030B0F9B6
:105140000240C91A00F114030069121B02FB00306F
:1051500000EBE10001F0070302788021D9400A4307
:10516000027010BDB0F90610026951431430FBF70C
:105170003DBB00002DE9F843804602F10F0000110D
:10518000470003FB07F01C46154689461430FDF71F
:10519000C9FE060018D0FEF73FFF3046FDF79CFF22
:1051A0000090A0F80080A0F802908580C480074994
:1051B00081600121818107616846FDF7E3FF00F00E
:1051C0006BF83046BDE8F8830020FBE70C99010836
:1051D00070B5B0F90660B0F904400B6800F1140531
:1051E00096421BDD0069A34202FB005000EBE30284
:1051F00014DA641EE010A0EBE30512F8010B03F0D3
:105200000704A040C4B206E045B1083312F8014BD0
:1052100023F007036D1E002CF6D004E0002070BDC3
:105220006006040E5B1C2006FAD5FF2C07D018463A
:1052300002E06406240E401C6606FAD400E0D81D85
:10524000C443640705D006E012F8014BFF2C09D1D6
:1052500008306D1EF8D5C01A401C0B6070BD620688
:10526000140E401C2206FAD4F5E738B50546FEF7C1
:10527000D3FE2846FDF730FF00908189491E0CB20D
:1052800084816846FDF77EFF14B92846FDF76CFE61
:1052900000F002F838BD00000348C168491EC16033
:1052A00001D100F05BB87047AC03012010B54FF49A
:1052B00080310348FDF750FE0248FFF7B5FB10BDF3
:1052C000003201208076010810B5012010F0D4F9D9
:1052D00010BD10B510F080FA10BD00000148006844
:1052E000704700007400012010B5002201210C4815
:1052F00010F084FA0B49086001210A48006810F098
:1053000093FAFFF74DFE00220121074810F076FACC
:105310000649086014210548006810F085FA10BDA0
:10532000EC6D010878000120F46D01087C0001207B
:1053300010B5034810F000FA0249086010BD0000E3
:10534000FC6D01088000012010B54FF0FF310248CC
:10535000006810F013FA10BD8000012010B502485B
:10536000006810F0FFF910BD800001200EB508B1F3
:1053700002AA00E00022002301A9684600F096FC82
:105380000EBD0000074910B50C7818B10120087057
:10539000801E03E0002008706FF07F4003F0D8FD0E
:1053A000204610BD3D01012010B5082A0EDC034641
:1053B000012A18D0022A56D0042A76D010F8042BDD
:1053C00003F8012B491EF9D1012010BD102A08DC79
:1053D0004FEA000230F8043B22F8023B491EF9D1A3
:1053E000F2E7002010BD10F8042BD207120E491E60
:1053F00034D010F8044B491E04F0010442EA841230
:105400002CD010F8044B491E04F0010442EA441267
:1054100024D010F8044B491E04F0010442EA04129F
:105420001CD010F8044B491E04F0010442EAC402E7
:1054300014D010F8044B491E04F0010442EA84021F
:105440000CD010F8044B491E04F0010442EA440257
:1054500004D010F8044B04F00104224303F8012B9C
:105460000029C0D1B0E710F8042B9207120E491E94
:1054700015D010F8044B491E04F0030442EA04124C
:105480000DD010F8044B491E04F0030442EA8402D4
:1054900005D010F8044B04F003042243491E03F81E
:1054A000012B0029DFD18FE7FFE710F8042B12074B
:1054B000120E491E05D010F8044B04F00F042243CD
:1054C000491E03F8012B0029EFD17DE738B50024F0
:1054D000009400F01DF838BD0B4810B5416B002951
:1054E00010D101214163FFF7E1FEFDF721FC04F03B
:1054F000E5FA0549054838310860BDE8104008461E
:1055000000F0D0BD10BD00003C010120292A010897
:105510002DE9F0410D460699044601B901461F6880
:10552000082A09DC0E46012A1AD0022A5BD0042A76
:105530007DD0082A13D18DE0102A07DCD3F810C0E3
:105540000E46BCF1000F04D0022389E00020BDE824
:10555000F08101CCB84726F8020B6D1EF9D189E025
:1055600001CCB847C0074FEA10686D1E36D001CC99
:10557000B84748EA801000F0FF086D1E2ED001CC1D
:10558000B84748EA401000F0FF086D1E26D001CC55
:10559000B84748EA001000F0FF086D1E1ED001CC8D
:1055A000B84748EAC00000F0FF086D1E16D001CCD5
:1055B000B84748EA800000F0FF086D1E0ED001CC0D
:1055C000B84748EA400000F0FF086D1E06D001CC45
:1055D000B84740EA080000F0FF086D1E06F8018B8E
:1055E000002DBDD146E001CCB84780074FEA1068D6
:1055F0006D1E16D001CCB84748EA001000F0FF0835
:105600006D1E0ED001CCB84748EA800000F0FF08BC
:105610006D1E06D001CCB84740EA080000F0FF0834
:105620006D1E06F8018B002DDDD123E0FFE701CCD4
:10563000B84700074FEA10686D1E06D001CCB84786
:1056400040EA080000F0FF086D1E06F8018B002DEF
:10565000EDD10FE0D3F810C0BCF1000F04D001234E
:105660002A462046E04705E001CCB84706F8010B82
:105670006D1EF9D101206AE77CB5064628480D4623
:10568000006868B1002007F05DFB06E06A46294625
:10569000304608F041FF07F009FB0028F6D17CBD39
:1056A000106800901F4C506801902268BDF80000FF
:1056B00032F84C1F0844ADF80000BDF80200918894
:1056C0000844ADF80200BDF8040011880844ADF8A4
:1056D0000400BDF8060091880844ADF8060068464D
:1056E00007F030FB0EE000BF2068BDF800106A46EE
:1056F0004184BDF8021081842946304608F00CFF31
:1057000007F0D4FA0028EFD1206830F8221F428D2C
:10571000891A01804188C28D891A41807CBD0000B0
:10572000AC010120500101202DE9FF4F85B0002080
:105730009B4691460D4602900390FEF799FB4FF071
:10574000000ADDF814800646544625B1286800900A
:105750006868019002E06846FEF762FB19F00C0FE2
:1057600002D05D46002713E0BDF902402DE0294636
:105770007F1C059800F01CFB01466D1A0598FFF789
:1057800079FC05990844059005A800F055FB08B977
:10579000002DECD109F00C00042804D0082802D018
:1057A0000C2812D105E0BDF9060007FB1604641CA5
:1057B0000BE0BDF90600BDF90210401A07FB160008
:1057C000401C00EBD07001EB60045D46DFF838B19F
:1057D0004E4FCDF8148079E02946059800F0E8FA9C
:1057E0002D1A01460490059800F0B8FA19F003014B
:1057F0000ED0012965D002290DD1BDF90420BDF9D3
:105800000010521A121A02EBD27201EB620101E08F
:10581000BDF900108A463A68401E5044A2F822A002
:105820009484ADF80C00A019401EADF80E00DDE91F
:105830000410ADF808A0ADF80A4002AAFFF71CFF5B
:105840009BF8000070B3386890F82A00800729D4CC
:10585000059941450CD1BDF90A30BDF902108B42C2
:1058600006DDBDF90420BDF900005B1EFDF704FE56
:10587000BDF90820BDF90000824206DDBDF90E30F9
:10588000BDF90A10521EFDF7F7FDBDF90C00BDF978
:105890000420904206DABDF90E30BDF90A10401C12
:1058A000FDF7EAFDDDE90410FFF7E4FB0599084484
:1058B0000590FEF7DDFA044405A800F0BDFA28B112
:1058C00006E0BDF90410091A491CA3E7002D83D195
:1058D0009BF80000002814D0386890F82A00800750
:1058E0000FD4059941450CD0BDF90E10BDF9063015
:1058F000994206DABDF90420BDF90000491CFDF704
:10590000BBFD09B0BDE8F08FB401012050010120BA
:1059100049B1002802DAA0EB610001E000EB610070
:1059200090FBF1F070470020704700002DE9FF4F19
:105930008DB00020DDF86C90164600901D460446A0
:105940000246C9F8000008AB03A902A800F0AEF9AE
:1059500018B1002011B0BDE8F08F0898854200DD35
:105960000546604F0B9560493868407C51F820101F
:10597000049109690691FEF717FA05903868407C92
:10598000FEF7F4FA59498346884201D0012000E02D
:1059900000200A9001CE1A9988478246000E07908F
:1059A00077D0009870BB0D9800EB04084D48006854
:1059B000B0F90800404503DDA0EB0807804600E091
:1059C00000270299049801EB840101EB8701CDE9DE
:1059D00000100B990D98421809920E9B40461946EB
:1059E000521EFEF773FF01200090059818280ADA6E
:1059F0000298DDE9052300EB840000EB8700E91B3A
:105A000000F0B2F812E00A9880B1029800EB84002E
:105A100000EB87070998A0EB0808594638688847C3
:105A200001C7A8F101005FEA0008F6D1304BD86940
:105A300080B3DDE9020700EB840007EB8402CDE9C7
:105A400002022B4C361F2B46E46930460299A047D0
:105A5000FF203168B0EB116F02D10299096804E0B0
:105A6000029A1268B0EB126F01D1039A1160029989
:105A700006F10406091D02910399091D03916D1E8B
:105A8000E7D10397D9F8000040F00100C9F8000001
:105A900021E022E0FFE70798FF2812D0C0F1FF02C3
:105AA00002981B6850F824102AF07F409847039909
:105AB00041F82400D9F8000040F00101C9F80010B5
:105AC00005E00298039950F8240041F82400641C72
:105AD0006D1E7FF45FAF03983CE7039941F824A063
