:020000040800F2
:1000000078040020DD010008EF170008D91400086B
:10001000ED170008C50200083519000800000000AF
:100020000000000000000000000000001718000899
:10003000C702000800000000131800081918000883
:10004000F7010008F7010008F7010008F7010008B0
:10005000F701000815180008F7010008F70100086B
:10006000F7010008F7010008F7010008F701000890
:10007000F7010008F7010008F7010008F701000880
:10008000F7010008F7010008F7010008F701000870
:10009000F7010008F7010008F7010008F701000860
:1000A000F7010008F7010008F7010008F701000850
:1000B000F7010008F7010008F7010008F701000840
:1000C000F7010008F7010008F7010008F701000830
:1000D000F7010008F7010008F7010008F701000820
:1000E000F7010008F7010008F7010008F701000810
:1000F000F7010008F7010008F7010008F701000800
:10010000F7010008F7010008F7010008F7010008EF
:10011000F7010008F7010008F7010008F7010008DF
:10012000F7010008F7010008F7010008F7010008CF
:10013000F7010008F7010008F7010008F7010008BF
:10014000F7010008F7010008F7010008F7010008AF
:10015000F7010008F7010008F7010008F70100089F
:10016000F7010008F7010008F7010008F70100088F
:10017000F7010008F7010008F7010008000000007F
:10018000F7010008F7010008F7010008F70100086F
:10019000F7010008F7010008F7010008F70100085F
:1001A000F7010008F7010008F7010008F70100084F
:1001B000F7010008F7010008F7010008F70100083F
:1001C000F7010008F7010008DFF80CD000F068F82C
:1001D0000048004755190008780400200648804769
:1001E00006480047FEE7FEE7FEE7FEE7FEE7FEE71C
:1001F000FEE7FEE7FEE7FEE7E1180008C901000898
:100200002DE9F05F0546002092469B46884606464B
:10021000814640241BE0284641464746224600F0DE
:100220002FF853465A46C01A914110D3114618462A
:10023000224600F016F82D1A67EB01084F462246B9
:100240000120002100F00DF817EB00094E41201E9F
:10025000A4F10104DFDC484631462A464346BDE8A6
:10026000F09F202A04DB203A00FA02F100207047B8
:100270009140C2F1200320FA03F3194390407047E4
:10028000202A04DB203A21FA02F00021704721FAEB
:1002900002F3D040C2F12002914008431946704752
:1002A000064C074D06E0E06840F0010394E80700C3
:1002B00098471034AC42F6D3FFF78AFFD81A0008EB
:1002C000F81A0008FEE770472DE9F84FDFF89CE1C7
:1002D00000224FF001084FF0030B4FF00F0A00BF50
:1002E0000B6808FA02F42340A34271D14D68022D35
:1002F00001D0122D0FD1D5080E69570700EB8505E7
:10030000A9462D6AFF0E0AFA07FCBE4025EA0C0535
:100310002E43C9F820600F79550006680BFA05FCDA
:1003200007F0030726EA0C06AF40374307604E6824
:10033000012E05D0022E03D0112E01D0122E0ED187
:100340008668CF6826EA0C06AF4037438760466868
:100350000F79A643C7F30017974037434760C46837
:100360008E6824EA0C04AE402643C6604C68E40064
:1003700075D53F4C256845F480452560246822F0FA
:100380000306950704F4804400943A4C2D0F26444C
:10039000D6F80848DFF8E0C00AFA05F7604524EA15
:1003A000070401D100272EE0344FB84201D10127C4
:1003B00029E0334FB84201D1022724E0314FB8423F
:1003C00001D103271FE0304FB84202D104271AE0C1
:1003D00045E02E4FB84201D1052714E02C4FB8421A
:1003E00001D106270FE02B4FB84201D107270AE0C1
:1003F000294FB84201D1082705E0284FB84201D162
:10040000092700E00A27AF4027437546C6F8087859
:100410004E68DEF80040F60324EA030400D51C43CE
:10042000124E2C60361D4D683468AD0324EA030477
:1004300000D51C430D4F346008374D683C68ED0211
:1004400024EA030400D51C43084D3C600C354E687B
:100450002C68B60224EA030400D51C432C60521C0D
:10046000102AFFF43DAFBDE8F88F0000003C0140CA
:1004700044380240003001400000024000040240C5
:1004800000080240000C024000100240001402402C
:1004900000180240001C02400020024000240240DC
:1004A00042694A40426170470AB18161704709045C
:1004B000FBE7000001488068704700001C00002036
:1004C00030B590F84120202A24D190F84020012A0C
:1004D00020D0012380F84030242280F841202023BE
:1004E00000240268156825F001051560026815688A
:1004F00025F480551560026815680D431560016884
:100500000A6842F001020A6080F8413080F84040F9
:10051000002030BD022030BD30B590F84120202AA7
:1005200022D190F84020012A1ED0012380F84030CB
:10053000242280F84120202400250268136823F03B
:10054000010313600268136823F4706343EA012116
:10055000116001680A6842F001020A6080F84140B7
:1005600080F84050002030BD022030BD70B504003E
:1005700004D094F84100002510B106E0012070BDC0
:10058000204684F8405000F07BF9242084F8410094
:100590002068016821F001010160D4E9001020F019
:1005A000706008612068816821F400418160E06822
:1005B00021680128A06806D040F404408860E06803
:1005C000022803D006E040F40040F7E721684FF42A
:1005D0000060486020212068114A4368134343604B
:1005E0002068C26822F40042C26054F8106B0DCC3F
:1005F000104340EA0320F06054F81C3CD4E90002A8
:100600001043186054F81C0D026842F001020260A9
:10061000656484F84110256384F84250002070BD61
:10062000008000022DE9F84F044690F841001F4673
:100630009046DDF828A08B4620287DD194F8400014
:10064000012879D0012084F84000FFF733FF012210
:10065000064619230090D103204600F0A3FF38BBC3
:100660000025222184F84110102084F8420065649E
:100670006785618DFF2735484FF00079C4F82480E5
:10068000FF294FF08078656303D927853A460090AB
:1006900032E0618D2185009033E05946204600F01C
:1006A0006BFF32E000F0A8FF18B1606C042848D05E
:1006B00019E02168606A496A421C62620170208DFB
:1006C000401E0004000C2085618DA1F101016185AF
:1006D0001BD1608DC8B10022534680212046009670
:1006E00000F060FF10B10320BDE8F88F608DFF2897
:1006F00004D927853A4600954346CEE7608D20858C
:1007000000954B4694F82820C7E7608D3246514645
:1007100000282046C6D100F0B5FF0028C5D12068CA
:1007200020210B4AC161206843681340436084F86C
:10073000411084F8425000E005E0002084F8405069
:10074000D2E70120D0E70220CEE70000002400809D
:1007500000E800FE2DE9F84F044690F841001F46DE
:100760009046DDF828A08B4620287CD194F84000E4
:1007700001287FD0012084F84000FFF79BFE012272
:10078000064619230090D103204600F00BFF38BB2A
:100790000025212184F84110102084F8420065646E
:1007A0006785618DFF2734484FF00079C4F82480B5
:1007B000FF294FF08078656303D927853A4600907A
:1007C00031E0618D2185009032E05946204600F0ED
:1007D000D3FE31E000F07EFF18B1606C042847D0F2
:1007E00018E0606A411C6162017820688162608D56
:1007F000401E6085208D401E0004000C20851BD10A
:10080000608DC8B10022534680212046009600F03A
:10081000C9FE10B10320BDE8F88F608DFF2804D910
:1008200027853A4600954346CFE7608D20850095A1
:100830004B4694F82820C8E7608D32465146002880
:100840002046C7D100F01EFF0028C6D12068202115
:100850000A4AC161206843681340436084F841102C
:1008600084F8425000E005E0002084F84050D2E7D0
:100870000120D0E70220CEE70020008000E800FE43
:1008800010B5006886B00D49884214D112210122AA
:10089000032304244FF440708DE81F000848694684
:1008A000FFF712FD0748016841F40011016000687C
:1008B00000F40010059006B010BD00000054004088
:1008C0000004024040380240024881680278114426
:1008D000816070471C000020094810B5016841F490
:1008E00000710160016841F480710160032000F033
:1008F0009FF8002000F006F800F024F8002010BD5A
:10090000003C024070B50D4D04464FF47A700C4A1D
:1009100029781268B0FBF1F0B2FBF0F000F0C5FDF1
:1009200048B9102C07D200222146501E00F060F872
:1009300000206C6070BD012070BD00001C00002014
:1009400028000020234808B5016841F0805101606B
:10095000006800F0805000901E48001D016841F4BE
:1009600080410160006800F480400090032000F0A6
:100970005FF800226FF00B00114600F039F80022FA
:100980006FF00A00114600F033F800226FF0090002
:10099000114600F02DF80022501F114600F028F8F3
:1009A0000022101F114600F023F80022901E11466D
:1009B00000F01EF80022501E114600F019F8002227
:1009C0000520114600F014F8BDE80840052000F0AD
:1009D00003B8000040380240410900F01F028900BE
:1009E000012001F1E0219040C1F8000170470000B2
:1009F0000E4BF0B41B680D46C3F30223C3F1070688
:100A0000042E00D90426191D072901D2002300E075
:100A1000DB1E012404FA06F19C40491E2940641E95
:100A2000994014402143F0BC00F0E2BE0CED00E020
:100A3000064900F0070210B54FF6FF040868044BA2
:100A4000204040EA02201843086010BD0CED00E091
:100A50000000FA051848F8B5016841F080510160BE
:100A60000068164C00F080500090206840F4803000
:100A70002060FFF71FFD4FF47A76054605E000BFC2
:100A8000FFF718FD401BB0420FD86068C003F7D5D0
:100A9000206840F400302060FFF70CFD054606E0BA
:100AA000FFF708FD401BB04201D90320F8BD606884
:100AB0008003F5D50020F8BD4038024000700040AA
:100AC0002DE9F84F04460078DFF824944FF0000633
:100AD0003746C0070ED0D9F8001021F40001C9F83C
:100AE0000010D9F80010626B1143C9F80010606B58
:100AF00000B90126FE4D2068843500030ED5E16B58
:100B0000286820F4401008432860E06BB0F5801F8F
:100B100001D010B102E0012600E0012720684FF467
:100B2000800BC0020CD5216C286820F440000843DB
:100B30002860206C584501D1012601E000B9012749
:100B40002068C10100D50126800666D5E848383006
:100B5000016841F0805101600068DFF898A300F05F
:100B600080500090DAF8001041F48071CAF800104B
:100B7000FFF7A0FC804605E0FFF79CFCA0EB080017
:100B800064287DD8DAF80000C005F5D5DFF8608369
:100B900008F16808D8F8000010F440702AD0218EBF
:100BA00001F44071814225D0D8F80010D8F8002017
:100BB00021F4407142F48032C8F80020D8F80020B7
:100BC00022F48032C8F80020C8F80010D8F80000DD
:100BD000C0070FD0FFF76EFC824607E0FFF76AFC04
:100BE000A0EB0A0141F288308142CAD8D8F800004F
:100BF0008007F3D5206BC0F3012103297ED0D9F8FB
:100C0000001021F4F811C9F80010228ED8F8001055
:100C1000C2F30B021143C8F800102078C00607D5B4
:100C2000286820F0807028602868A16B084328603D
:100C30002188AF488830490405D5626E016821F4E7
:100C40004031114301602188090405D5A26E016875
:100C500021F44021114301602168C90305D5E26EEA
:100C6000016821F44011114301602168890305D511
:100C7000226F016821F4400111430160217800E0F6
:100C800018E1490605D5626C016821F003011143A2
:100C900001602178090605D5A26C016821F00C01DC
:100CA000114301602188C90505D5E26C016821F076
:100CB0003001114301602188890505D5226D016845
:100CC00021F0C001114301602188490505D5626DFD
:100CD000016821F44071114301602188090505D59F
:100CE000A26D016821F44061114301602188C904AB
:100CF00007D5E26D016821F4405100E041E0114365
:100D000001602188890405D5226E016821F44041E3
:100D1000114301602168490205D5A26F016821F0E5
:100D200080611143016021684FF0006A890209D592
:100D3000E26F016821F0006111430160E16F5145EC
:100D400000D1012721680A0700D50127490305D5ED
:100D5000626F016821F0407111430160216809024E
:100D600006D5D4F88020016821F08051114301603C
:100D7000DFF88491012E0ED02068B0F1007F0AD0F8
:100D80008FE05E4AD9F80030104023F4F812024395
:100D9000C9F8002039E7D9F800004E4620F08060FD
:100DA000C9F80000FFF786FB804605E0FFF782FBED
:100DB000A0EB080064287DD830680001F6D42178C3
:100DC0004B487C30C90712D0616B81B9237A6268C5
:100DD0000168D0F800C09201C1F3014142EA01422A
:100DE000CCF3036142EA016141EA037101602168C9
:100DF0000A0303D5E26BB2F5801F04D0C9021AD5ED
:100E0000216C594517D16368016894F80CC00268D9
:100E10009B01C1F3014143EA0141C2F3027241EA7D
:100E20000C6141EA027101602968626A21F01F01C8
:100E3000521E114329602168C90110D5238A6268B6
:100E40000168D0F800C09201C1F3036142EA034295
:100E500042EA0162CCF3027142EA01710160216849
:100E600089010CD56168228A237B94F808C0890126
:100E700041EA024141EA036141EA0C7101603168D3
:100E8000B04641F080613160FFF714FB064604E094
:100E9000FFF710FB801B64280CD8D8F80000000175
:100EA000F6D56FB3D9F800004E4620F08050C9F84F
:100EB000000000E079E0FFF7FDFA074605E000BF1B
:100EC000FFF7F8FAC01B64286FD83068C043800071
:100ED000F6D50748216880300A0301D5E26B1AB1C4
:100EE000C90225D5216C19BB63690168277E08E01A
:100EF000083802400070004000380240FFFCFF0F3D
:100F00005AE00268C1F301419B0143EA0143C2F385
:100F1000027143EA076242EA0171016029686FF0D9
:100F2000FF03A26A21F4F85103EB02221143296066
:100F30002168890212D5E16F51450FD1238C626976
:100F4000016807689201C1F3036142EA034242EA81
:100F50000162C7F3027142EA017101602178090759
:100F600016D561690268D0F800C08B01277FC2F3F3
:100F70000362CCF3014143EA014141EA026141EAE3
:100F8000077101602868E16A20F440300843286056
:100F9000306840F080503060FFF78CFA044607E07C
:100FA000FFF788FA001B642802D90320BDE8F88FF8
:100FB0003068C0438000F3D40020F7E72DE9F04704
:100FC00005000F4663D0444E306800F00F00B84271
:100FD00009D2306820F00F0038433060306800F0EC
:100FE0000F00B84253D128683C4C810712D5400706
:100FF00003D5206840F4E05020602878000703D52E
:10100000206840F460402060A968206820F0F0006B
:10101000084320602878C0072AD03049686808391A
:10102000012810D00968022810D0890700292EDA7B
:10103000216821F0030101432160FFF73BFA80465C
:1010400041F288390DE009688903EFE78901EDE78E
:10105000FFF730FAA0EB0801494502D90320BDE8AB
:10106000F0876868216801F00C01B1EB800FEFD1C7
:10107000306800F00F00B8420BD9306820F00F0044
:1010800038433060306800F00F00B84201D00120D2
:10109000E5E72878400705D5E968206820F4E050A6
:1010A000084320602878000706D52869216821F4C4
:1010B000604141EAC000206000F01CF82168084A45
:1010C000C1F30311515CC840064908600020FFF7D6
:1010D00019FC0020C3E70000003C02400838024031
:1010E000C81A000828000020014800687047000066
:1010F00028000020154910B51548096811F00C02A8
:1011000013D01449042A0FD0082A0ED10F4C241FE3
:101110002268236802F03F025B0207D52068C0F313
:101120008810A0FB010106E0084610BD2168C1F34C
:101130008811A1FB00010023FFF762F82168C1F3C9
:101140000141491C4900B0FBF1F010BD08380240D4
:101150000024F40040787D012DE9F84F05004FF0A0
:1011600000076ED02878DFF81C93A9F1040AC007A5
:10117000AAF104044CD0D9F800104846C1F381010B
:10118000012908D00068C0F3810002280AD1DAF8EA
:101190000000400206D52068800339D56868002821
:1011A000DFD035E06868B0F5803F0BD010B1B0F506
:1011B000A02F11D0206820F480302060206820F417
:1011C000802002E0206840F480302060686890B1A0
:1011D000FFF770F906460AE0206840F4802020609E
:1011E000F0E700BFFFF766F9801B642872D820681B
:1011F0008003F7D50CE0FFF75DF9064605E000BF78
:10120000FFF758F9801B6428F0D820688003F7D4D2
:101210002878800742D5D9F80010484611F00C0F05
:1012200008D00068C0F3810002280BD1DAF8000072
:10123000400207D42068800718D5E868012800D14B
:1012400014E01CE1E8680028206817D040F0010095
:101250002060FFF72FF9064605E000BFFFF72AF9E7
:10126000801B0228C2D820688007F7D5286921682A
:1012700021F0F80141EAC00020600FE020F00100F9
:101280002060FFF717F9064605E000BFFFF712F9E7
:10129000801B02281ED820688007F7D42878000712
:1012A00029D5784869696C3000298046016812D0D8
:1012B00041F001010160FFF7FDF8064605E000BFBF
:1012C000FFF7F8F8801B022804D8D8F80000800740
:1012D000F6D510E089E021F001010160FFF7EAF89E
:1012E000064604E0FFF7E6F8801B02287DD8D8F810
:1012F00000008007F6D4287840076BD5DFF884819A
:1013000008F13808D8F80000C0000BD4D8F8001055
:1013100041F08051C8F80010D8F80000012700F013
:101320008050009058480168C90512D4016883466E
:1013300041F480710160FFF7BDF8064605E000BF8B
:10134000FFF7B8F8801B64284FD8DBF80000C00511
:10135000F6D54C4EA868683601280AD008B1052891
:1013600011D0306820F001003060306820F00400B7
:1013700002E0306840F001003060A868A0B1FFF7DB
:1013800099F883460CE0306840F004003060F0E7E4
:10139000FFF790F8A0EB0B0141F28830814266D84C
:1013A00030688007F4D50EE0FFF784F8834607E045
:1013B000FFF780F8A0EB0B0141F28830814256D84C
:1013C00030688007F4D42FB1D8F8001021F0805194
:1013D000C8F80010A869C8B3D9F80010C1F381019A
:1013E00002294CD00228206800E040E020F0807004
:1013F000206003D0FFF75EF805463BE0FFF75AF8A0
:10140000064604E0FFF756F8801B02282FD8206814
:101410008001F7D4D5E90962D5E907011B4B5708CC
:1014200095F82C20084303EB074343EA8611084351
:1014300040EA026040F00050CAF80000206840F026
:1014400080702060FFF736F8054606E015E000BF23
:10145000FFF730F8401B022809D820688001F7D533
:101460000BE000BFFFF726F8401B022802D903203B
:10147000BDE8F88F20688001F4D40020F8E701204F
:10148000F6E7000008380240007000400000FFFF4F
:1014900004284FF0E020016903D021F0040101612C
:1014A000704741F00401FAE77047401EB0F1807FB9
:1014B00010B501D3012010BD4FF0E02460610F2171
:1014C000601700F095F90020A0610721216110BD8F
:1014D00010B5FFF7E9FF10BDFEE701688A69D24346
:1014E000920701D400228A6200688169C943C90752
:1014F00003D0816941F00101816170472DE9F0411C
:101500000446006890460E468069C043C0062FD44A
:101510000025202720688069C043800611D5701CF3
:10152000F8D02EB1FEF7C6FFA0EB0800B042F1D90B
:1015300084F8417084F84250032084F84050BDE89C
:10154000F08121681020C8612068C7612046FFF73C
:10155000C4FF20680422074943680B40436062646B
:1015600084F8417084F84250012084F84050E6E746
:101570000020E4E700E800FE70B50068C1F309014F
:10158000074E41EA0241049C4FF4806542681943CA
:1015900005EA54553543AA4321430A43426070BDCE
:1015A000FF63FF032DE9F0411D4617460E46044632
:1015B000DDF8188013E0681C11D02DB1FEF77AFF1A
:1015C000A0EB0800A8420AD90020202184F841108D
:1015D00084F8420084F840000320BDE8F0812068D0
:1015E000806936EA000004D00020B842E3D0002031
:1015F000F3E70120F9E700002DE9F04100259046CE
:1016000020260F46044633E0424639462046FFF77F
:1016100075FF10B10120BDE8F08120688069C043EA
:10162000800614D420688169C943490701D4218DFB
:1016300019BB1349C661206842680A40426065646C
:1016400084F8416084F8425084F84050E2E72FB1BA
:10165000FEF730FFA0EB0800B84209D9606C84F8AF
:10166000405040F02000606484F841600320D2E7DD
:1016700020688069C0434007C6D40020CBE7000043
:1016800000E800FE70B516460D4604461BE03246E3
:1016900029462046FFF732FF08B1012070BD25B171
:1016A000FEF708FF801BA8420DD9626C002084F869
:1016B0004000202142F02002626484F8411084F846
:1016C0004200032070BD20688069C0438006DED4DC
:1016D000002070BD70B516460D4604461DE032462A
:1016E00029462046FFF70AFF08B1012070BD681C9B
:1016F00013D025B1FEF7DEFE801BA8420DD9626C27
:10170000002084F84000202142F02002626484F826
:10171000411084F84200032070BD20688069C043F6
:101720008007DCD4002070BD1A4810B586B001686F
:1017300041F002010160016801F0020105910168B8
:1017400041F001010160016801F0010105910168AA
:1017500041F480710160016801F4807105910168B4
:1017600041F080010160006800220B4C022100F072
:10177000800005902046FEF797FE00210220009091
:1017800001222046CDE9012103916946FEF79CFD27
:1017900006B010BD30380240002002401148002140
:1017A00070B50F4D0123104AFF240560C0E90121E7
:1017B000C0E90331C0E90541C1610162FEF7D6FE0F
:1017C00000B1FEE707480021FEF77AFE00B1FEE710
:1017D00004480021FEF7A0FE002800D0FEE770BDFF
:1017E000005400402C00002032279140FEE7704753
:1017F000090700284FEA116106DA00F00F0000F136
:10180000E02080F8141D704700F1E02080F80014FB
:10181000704770477047704710B5FFF755F8BDE83F
:101820001040FFF755BE00002B4870B5B4B00168FA
:1018300041F080510160006800F0805032902748EC
:10184000016841F44041016000681923022400F45A
:101850004040329001201D01820501040926CDE996
:101860002742CDE92101CDE92935CDE92B4621A833
:10187000FFF772FC00B1FEE7FFF7ECF800B1FEE7FE
:101880004FF480524FF4A0510025CDE930122DAA1B
:101890000F20062182E831002DA8FFF78FFB00B151
:1018A000FEE74FF48040199500906846FFF708F96D
:1018B00000B1FEE7FFF718FC4FF47A71B0FBF1F0CE
:1018C000FFF7F3FD0420FFF7E3FD0022501E114651
:1018D000FFF78EF834B070BD403802400070004011
:1018E000104A30B51048146800210F4B44F47004BE
:1018F0001460083305680D4A0D4C45F0010505607C
:1019000019600368051D1340074A03600C322C6000
:101910000568E305034C25F480250560803C1160D3
:10192000236030BD88ED00E000380240FFFFF6FE86
:1019300010300024FEE702E008C8121F08C1002A88
:10194000FAD170477047002001E001C1121F002A40
:10195000FBD1704708B5BFF34F8FBFF36F8F564968
:101960004FF00008534B4046C1F80080196841F41D
:1019700000311960BFF34F8FBFF36F8F4D49703146
:101980000860BFF34F8F081F4B4D43F6FF741035AF
:101990000068C0F34E31C0F3C90204EA4116104694
:1019A00046EA80772F60401EFAD2491EF5D2BFF377
:1019B0004F8F186840F480301860BFF34F8FBFF32B
:1019C0006F8FFEF789FFFFF72FFFFFF7ADFEFFF7E1
:1019D000E5FE3A4C1C26082002232246D021267020
:1019E0004FF47A77607036480097FEF7B3FEDFF861
:1019F000D49020B9012248460221FEF755FD2670F9
:101A00000A252E4A01232E48D0210095FEF7A2FE7A
:101A100018B902214846FEF743FD84F801800123EE
:101A20002748621CD02146460097FEF7FBFD18B9F7
:101A300002214846FEF734FD204F4FF03B08143F8B
:101A400084F800801D4A01231D48D0210095FEF72F
:101A500081FE667006231A48621CD1210095FEF7AC
:101A6000E1FDB4F8010040BA404281B23980B4F8D7
:101A7000030040BA404280B27880B4F80520400BA1
:101A800000EE900A52BA53424A0B99B2B98001EE65
:101A9000102A4B0B00EE103AB8EE411AF8EE600A2D
:101AA000B8EE400A87ED021AC7ED030A87ED040A73
:101AB000C6E7000014ED00E050EF00E01400002045
:101AC0002C00002000200240000000000000000068
:101AD0000102030406070809F81A000800000020A4
:101AE0002C00000036190008241B00082C000020E0
:101AF0004C0400004619000800000000000000002F
:101B000000000000000000000000000000000000D5
:101B100000000000010000001000000000000000B4
:041B20000024F400A9
:04000005080001C925
:00000001FF
