:020000040800F2
:10000000B8630320650400086D0400086F0400084D
:100010007104000873040008750400080000000063
:100020000000000000000000000000003503000890
:100030007904000800000000ED03000851040008E6
:100040007F0400087F0400087F0400087F04000884
:100050007F0400087F0400087F0400087F04000874
:100060007F0400087F0400087F0400087F04000864
:100070007F0400087F0400087F0400087F04000854
:100080007F0400087F0400087F0400087F04000844
:100090007F0400087F0400087F0400087F04000834
:1000A0007F0400087F0400087F0400087F04000824
:1000B0007F0400087F0400087F0400087F04000814
:1000C0007F0400087F0400087F0400087F04000804
:1000D0007F0400087F0400087F0400087F040008F4
:1000E0007F0400087F0400087F0400087F040008E4
:1000F0007F0400087F0400087F0400087F040008D4
:100100007F0400087F0400087F0400087F040008C3
:100110007F0400087F0400087F0400087F040008B3
:100120007F0400087F0400087F0400087F040008A3
:100130007F0400087F0400087F0400087F04000893
:100140007F0400087F0400087F0400087F04000883
:100150007F0400087F0400087F0400087F04000873
:100160007F0400087F0400087F0400087F04000863
:100170007F0400087F0400087F04000800000000DE
:100180007F0400087F0400087F0400087F04000843
:100190007F0400087F0400087F0400087F04000833
:1001A000259400087F040008BD1300087F040008A0
:1001B0007F0400087F0400087F0400087F04000813
:1001C0007F0400087F04000800F002F800F05CF8EB
:1001D0000AA090E8000C82448344AAF10107DA45A2
:1001E00001D100F051F8AFF2090EBAE80F0013F098
:1001F000010F18BFFB1A43F0010318477C4A0300A4
:100200009C4A03000A444FF0000C10F8013B13F025
:10021000070408BF10F8014B1D1108BF10F8015B5F
:10022000641E05D010F8016B641E01F8016BF9D152
:1002300013F0080F1EBF10F8014BAD1C0C1B09D1A9
:100240006D1E58BF01F801CBFAD505E014F8016B1B
:1002500001F8016B6D1EF9D59142D6D370470000AD
:100260000023002400250026103A28BF78C1FBD8BF
:10027000520728BF30C148BF0B6070471FB515F04B
:10028000AFF81FBD10B510BD00F040FB1146FFF7E1
:10029000F5FF0FB400F00CF80FBC13F08FFE00F068
:1002A0007CF903B4FFF7EEFF03BC00F029FB00006C
:1002B00004B013F0ADFE0448002113F02BFF13F03F
:1002C000B9FE00F06AF900008CFB020880F309888F
:1002D0007047EFF309807047684680F30988044847
:1002E0000078C00714BF0220032080F314887047F1
:1002F0004CFB0208DFF818C0EFF305831B0618BF9C
:100300006047EFF31483DB0708BF604700DF7047E7
:100310003F420108DFF818C0EFF305831B0618BF42
:100320006047EFF31483DB0708BF604700DF7047C7
:1003300025440108EFF30980816911F8021CE1BB33
:1003400090E80F1010B5E047BDE81040EFF3098CBE
:100350008CE80700214B93E80600914208BF7047E4
:1003600041B91EF0100F16D11D49086820F0010098
:10037000086010E01EF0100F06BF2CED108A01205F
:10038000002081F825002CE9F00FC1F828C00CB43A
:1003900014F0FAFB0CBC1A60D2F828C0BCE8F00FCD
:1003A00092F8250000280EBF6FF0020E6FF0120EBB
:1003B000BCEC108A8CF30988704710B5094A1268A2
:1003C000914209D8084C54F8214090E80F10A047FA
:1003D000EFF3098C8CE80F0010BD0000E400012051
:1003E00034EF00E0580900085809000810B514F06F
:1003F0008FFABDE81040154B93E80600914208BF04
:100400007047EFF3098C1EF0100F06BF2CED108A19
:100410000120002081F825002CE9F00FC1F828C048
:100420000CB414F0B1FB0CBC1A60D2F828C0BCE8C4
:10043000F00F92F8250000280EBF6FF0020E6FF04B
:10044000120EBCEC108A8CF309887047E40001207E
:1004500010B514F061FCCCE710B513F0EFFE14F00A
:100460005BFCC6E70948804709480047FEE7FEE70E
:10047000FEE7FEE7FEE7FEE7FEE7FEE7FEE7FEE754
:1004800004480549054A064B70470000B598000826
:10049000C9010008B85D0320B8630320B85F0320DA
:1004A000B85F032000487047545D032053EA020CF4
:1004B00000F069802DE9F04B4FF00006002B1FBFC4
:1004C000B3FA83F503FA05F424FA05F65E4012BF89
:1004D0001643B2FA82F502FA05F4C5F120051EBFF3
:1004E00022FA05FC44EA0C04203556EA044C4FEA93
:1004F000144418BF641C4FF000084FF000099042EC
:1005000071EB030C39D3002919BFB1FA81F701FA55
:1005100007F6B0FA80F700FA07F6C7F120071EBF0A
:1005200020FA07FC46EA0C062037B6FBF4FCA7EBE2
:100530000507103F07F01F0BCBF120060CFA0BFB51
:100540002CFA06F644BFB3460026202FA4BF5E4611
:100550004FF0000B5BEA060C08BF4FF0010B19EBE4
:100560000B09ABFB027C48EB0608C01B06FB02CC68
:100570000BFB03CC71EB0C01C1E70B460246414675
:100580004846BDE8F08B13B54FF000004FF0000176
:10059000AFF30080BDE81C40704710B50446AFF3D0
:1005A00000802046BDE81040FFF77BBE40EA010313
:1005B00010B59B070FD1042A0DD310C808C9121F0C
:1005C0009C42F8D020BA19BA884201D9012010BD46
:1005D0004FF0FF3010BD1AB1D30703D0521C07E013
:1005E000002010BD10F8013B11F8014B1B1B07D177
:1005F00010F8013B11F8014B1B1B01D1921EF1D1E8
:10060000184610BD40EA0103024630B59B0710D1E1
:100610004FF0013400E008C208C91D1B9D4315EAD4
:10062000C41FF8D013F0FF0102F8011B0DD01B0A04
:10063000F8E711F8013B002B02F8013B05D011F857
:10064000013B002B02F8013BF3D130BD431A28BF18
:100650009A4240F2B080032A1044114440F22680AE
:1006600010F0030F1EBF11F8013D521E00F8013DAE
:1006700010F0030F7FF4F6AF11F0030300F0F380E6
:10068000083AC0F00B8051F8043D083A51F804CD07
:1006900040F8043D40F804CDFFF7F3BF121D5CBFE6
:1006A00051F8043D40F8043DAFF30080D20724BF69
:1006B00011F8013D11F801CD48BF11F8012C24BFFC
:1006C00000F8013D00F801CD48BF00F8012C70474B
:1006D00001B500F070F801BD10B5203AC0F00B80F4
:1006E000B1E81850203AA0E81850B1E81850A0E836
:1006F0001850BFF4F5AF5FEA027C24BFB1E8185090
:10070000A0E8185044BF18C918C0BDE810405FEAFF
:10071000827C24BF51F8043B40F8043B08BF70477B
:10072000D20728BF31F8023B48BF11F8012B28BF80
:1007300020F8023B48BF00F8012B704701F0FF038F
:10074000114601B543EA032242EA024200F0B7F83B
:1007500001BD02F0FF0343EA032242EA024200F035
:10076000AEB84FF0000200B51346944696462039C5
:1007700022BFA0E80C50A0E80C50B1F12001BFF45A
:10078000F7AF090728BFA0E80C5048BF0CC05DF8C0
:1007900004EB890028BF40F8042B08BF704748BF0E
:1007A00020F8022B11F0804F18BF00F8012B704782
:1007B000704770477047032A40F2308010F0030CF6
:1007C00000F0158011F8013BBCF1020F624498BFA4
:1007D00011F801CB00F8013B38BF11F8013BA2F141
:1007E000040298BF00F801CB38BF00F8013B11F0BC
:1007F00003033FF471AF083AC0F0088051F8043B9E
:10080000083A51F804CBA0E80810F5E7121D5CBFC8
:1008100051F8043B40F8043BAFF30080D20724BFFB
:1008200011F8013B11F801CB48BF11F8012B24BF8F
:1008300000F8013B00F801CB48BF00F8012B7047DE
:10084000431A28BF9A427FF647AF104410F0030FB7
:1008500011441EBF11F8013D521E00F8013D10F079
:10086000030F7FF4F6AF103AC0F00A8010B531E9FB
:100870001850103A20E91850BFF4F9AFBDE8104005
:10088000530724BF31E9081020E9081044BF51F88C
:10089000043D40F8043D12F0030F08BF7047D20733
:1008A00028BF31F8023D48BF11F8012C28BF20F8BD
:1008B000023D48BF00F8012C70474FF000020429A8
:1008C000C0F0128010F0030C3FF44DAFCCF1040CDB
:1008D000BCF1020F18BF00F8012BA8BF20F8022BB3
:1008E000A1EB0C01FFF73FBF5FEAC17C24BF00F81A
:1008F000012B00F8012B48BF00F8012B70470000C6
:1009000001491820ABBEFEE7260002007546FFF73E
:10091000C9FDAE4605006946534620F007008546EE
:1009200018B020B5FFF7ACFDBDE820404FF0000641
:100930004FF000074FF000084FF0000B21F00701C7
:10094000AC46ACE8C009ACE8C009ACE8C009ACE80A
:10095000C0098D46704770470000000010B51E4862
:100960001E49086002201E490860072048600420D4
:1009700088600720C8600220086148618861002003
:10098000164948600021154881600421C16010218A
:10099000016140214161890081610021C1614FF401
:1009A00000610162490041620021816200F068F843
:1009B0000B490A4806F030FF18B1012009490870B8
:1009C00002E000200749087040F2036000F00CF8D4
:1009D0000448007810BD0000400100A080050120FF
:1009E000B40501204E00012038B5044600200090D7
:1009F0000120214908601020486001208860002003
:100A0000C8604FF6FF721D4806F03BFF012004F05E
:100A100085FE022018490860102048600120886087
:100A20000020C8604FF6FF72144806F02AFF03202A
:100A30001149086010204860082088600020C860C4
:100A40004FF6FF720D4806F01CFF4FF4087000903F
:100A5000042009490860102048600120886000983F
:100A6000C8604FF6FF72054806F00BFF21460348A9
:100A700006F0F3FE38BD0000D005012080050120FE
:100A800030B587B004460D4600BF6648006840F0A8
:100A90000100644908600846006800F00100019008
:100AA00000BF00BF00BF5F480838006840F4800006
:100AB0005C49083908600846006800F4800001902D
:100AC00000BF00BF00BF0846006840F00400086097
:100AD0000846006800F00400019000BF00BF00BF9E
:100AE0000846006840F0080008600846006800F00A
:100AF0000800019000BF00BF00BF0846006840F03A
:100B0000100008600846006800F01000019000BF67
:100B100000BF00BF0846006840F02000086008469B
:100B2000006800F02000019000BF00BF00BF084631
:100B3000006840F0400008600846006800F040008F
:100B4000019000BF00BF00BF0846006840F0800071
:100B500008600846006800F08000019000BF00BFF8
:100B60000220039001200490022005900C200690A2
:100B70000820029002A92C4804F0DEFD4CF203701C
:100B8000029002A9294804F0D7FD4FF68370029025
:100B900002A9274804F0D0FD4FF63F00029002A9B9
:100BA000244804F0C9FD48F23310029002A92248FB
:100BB00004F0C2FD2820029002A9204804F0BCFDE8
:100BC00000201F49486080211D4881608900C16064
:100BD0004900016189004161890081610021C16191
:100BE0004FF4003101620021416203218162002142
:100BF000C162016313481249086000BF08462063C0
:100C0000846300BF04F0E5FC0D4804F013FD0022EE
:100C10000F21382005F031FD382005F01EFD07B00A
:100C200030BD00003838024000080240000C02408D
:100C3000001002400014024000180240001C024054
:100C4000E0050120106402402DE9F04190B0054616
:100C50004FF0000800200390029001907E48006849
:100C600001697E480078884728702878002870D06D
:100C70000024E4E004A800EB440207A800EB4401D0
:100C8000754800684369754800789847744800784B
:100C900001280BD107A830F814000DA921F8140081
:100CA00004A830F814000AA921F814006C48007850
:100CB00000F0020038B107A830F81400C0F58050E9
:100CC0000DA921F814006648007800F0040038B13E
:100CD00004A830F81400C0F580500AA921F81400C7
:100CE0005F48007800F0080058B107A830F81400F9
:100CF0000AA921F8140004A830F814000DA921F85D
:100D000014000DA830F81400564951F824108842F8
:100D100007D90DA830F81400524951F82410401A90
:100D200006E0504850F824000DA931F81410401A7C
:100D300086B20AA830F814004B4951F824108842B2
:100D400008D90AA830F81400474951F82410401A6D
:100D500007E07CE0444850F824000AA931F8141058
:100D6000401A87B2F01905280BDD0DA830F81400E1
:100D70003C4941F824000AA830F814003A4941F8E7
:100D800024003648007870280DD10DA830F81410D2
:100D9000A81C20F814100AA830F8141005F10C0053
:100DA00020F8141016E02F4850F824002F49098825
:100DB0004843C0F30F31A81C20F814102A4850F8FB
:100DC00024002B4909884843C0F30F3105F10C007A
:100DD00020F8141001A802AB03AA214600901F4876
:100DE000007812F049FF0398C1B205F116000155D1
:100DF0000298C1B205F120000155019830B10128D7
:100E000009D002280CD0032814D10EE0012105F1ED
:100E10001B00015511E0022105F11B0001550CE0FA
:100E2000032105F11B00015507E0002105F11B001E
:100E3000015502E04FF0010800BF00BF641C287894
:100E4000A0423FF617AF284600F014F8804640460F
:100E500010B0BDE8F08100005000012059000120D1
:100E600058000120A0060120B406012054000120F2
:100E70005600012038B50446002000900025694640
:100E80001748007812F0EAFE0098182816D005DC02
:100E900058B110280CD014281CD10CE01C2810D0FC
:100EA000402811D0492815D111E00020A06213E09C
:100EB0000120A06210E00220A0620DE00320A062E9
:100EC0000AE00420A06207E00520A06204E00620FA
:100ED000A06201E0012500BF00BF284638BD000028
:100EE0005900012070B504460D46002610480480C4
:100EF0001048058010480168702088470E484168F6
:100F00007020884751280FD10B480C490860702089
:100F10000B49087008200B49087008480068C16830
:100F200007480078884700E00326304670BD00007F
:100F30005400012056000120200001205000012013
:100F4000590001205800012038B545680446014683
:100F5000284608F05AFD00282BD02068304A112876
:100F60000DD006DC0B2825D00E2833D00F2852D107
:100F700012E0282849D0B0F5107F4CD108E09268E3
:100F8000002A16D02146284601B0BDE8304010475F
:100F9000214628465268F7E7284601F015FB0090E5
:100FA000406E0468684601F037FB002C01D02846EB
:100FB000A04738BD284601F007FB0090683001F0DB
:100FC00061FA009803216C3001F06AFA684601F07A
:100FD00023FB20E0E168486809680D2902D0202938
:100FE00013D105E0002810DD284610F043FD06E08F
:100FF000002804DD2846BDE8384010F03BBD2846F7
:10100000BDE83840022110F04BBDE06818B900215E
:10101000284600F083F92046BDE8384008F0DEBEDF
:101020001C020120F0B5044685B08069B4F908506F
:10103000668A0027CDE90265CDE900170490B4F96E
:101040000C00B4F91060C118B4F90A00B4F90E50DC
:10105000104433462A4600F007F80546616800F060
:1010600066F905B02846F0BD2DE9F04F85B01F4662
:10107000DDE911B4DDE90E5690468946824602F05C
:1010800027FA16484C34CDE90204CDE900563B4618
:1010900042464946504608F0E9FD040018D001F0E8
:1010A00093FA10225946049008F080FD04983022EB
:1010B0000B493430FFF710FB094D04990C3D2868AB
:1010C000486604A801F0A8FA2868416820468847C5
:1010D00003F0CAFA05B02046BDE8F08F490F0008BA
:1010E00028020120F0B5044680688B4989B051F888
:1010F0002050606800287DD0052804D006287AD0CA
:10110000122879D1AEE0E86900284FD095E80E00AA
:101110008DE80F0004F110010FC903F0F9FE00265D
:1011200055F8260002F011FFA169E8690A1A216941
:1011300001446069304401F075FDA169E8690A1A4B
:1011400021690144E069801B01F06CFDE169E869F7
:101150000A1A616901442069304401F0F5FDE16932
:10116000E8690A1A61690144A069801B01F0ECFD7D
:10117000761C022ED4DBA86802F0E7FEE069E9697C
:101180006669431A206942183144801C521E01F0DE
:101190002BFEE169E869A2690B1A61690144101A22
:1011A000401C921E01F020FEEE6913E05FF0000685
:1011B00055F8260002F0C9FEE069831BA069821B76
:1011C000606981192069304401F07EFD761C022E91
:1011D000EEDB0226D5E90301CDE900016169E06992
:1011E00008444310A069891C821B2069304401F027
:1011F000DDFC02E089E012E08AE0D5E90501CDE9F5
:101200000001E36960690121184401EB6001A069F4
:101210009B1E821B2069304401F0C8FC78E02068E6
:1012200001F0D2F9049020680AF08CF840B1A0686F
:1012300008B1002008E00498006F28B1012003E005
:101240000498406F00B10220049901EB8000C56E44
:1012500004A801F0E1F900231A462846216801F0AC
:10126000B3FB55E0206801F0AFF90490866EEEB351
:10127000B0F95C70A168D1B3032942D05FF00001DE
:1012800000EB8101406D0C6C02F07CFE204602F008
:101290005CFE05A801F06AFEBDF81410A88B01449D
:1012A000ADF81410BDF81810081AADF81800BDF804
:1012B0001600801CADF81600BDF81A00801EADF8AF
:1012C0001A000498B0F96020B0F95E1005A802F089
:1012D00025FD04A801F0A0F9022002F0DDFE304651
:1012E00001F072F93A4605A9079001E00BE006E02B
:1012F00001F032FC0DF11C0001F08EF908E0012133
:10130000BEE70221BCE704A8F6E7206809F0DAFC92
:1013100009B00020F0BD0000184403084FF48072AB
:101320000029114601D008F005BC08F055BB2DE995
:10133000FF410E4605004FF0010421D002F0C8F82D
:10134000284601F041F90190876E01A8009701F04D
:1013500063F93146684604F09FF878B1009800249C
:10136000B84208D0284601F02FF901900099816613
:1013700001A801F051F9284609F0E0F903F074F9E9
:1013800004B02046BDE8F08110B508F01FFA08F05F
:10139000CFF910BD7CB508F067FE0546002000902F
:1013A0002B46044A03210190034801F0F3F9044657
:1013B00020467CBDE9390108E0FA02080220024912
:1013C0000968886070470000005A032001460878C9
:1013D00010381823B0FBF3F20848805CC865032A74
:1013E00005D908686FF30900001D886503E00868E7
:1013F0006FF309008865886D704700009CFB020848
:10140000014600208A6A8B6903BB32B1012A0CD0E5
:10141000022A10D0032A17D115E0CB6A03F080739B
:10142000B3F1807F00D101200FE0CB6AB3F1C07F20
:1014300000D1012009E0CB6A03F08073B3F1807F13
:1014400000D1012001E000E000BF35E08B69B3F579
:10145000005F1BD132B1012A06D0022A0CD0032A28
:1014600012D10BE0012010E0CB6A03F08073B3F1DE
:10147000807F00D1012008E0012006E0CB6AB3F1B3
:10148000C07F00D1012000E000BF15E032B1012A89
:1014900005D0022A04D0032A0CD103E000BF00BF0C
:1014A000012008E0CB6A03F08073B3F1807F00D1A4
:1014B000012000E000BF00BF704700BFFEE730B56D
:1014C0000246002300240868012816D013686FF331
:1014D0000E03D1E901052843CD6828430D6928434F
:1014E0004D6928438D692843CD6928430D6A2843F7
:1014F0004D6A28430343136019E0136823F4F8434B
:10150000D1E9070528434D6A2843034354686FF324
:101510000E04D1E901052843CD6828430D6928430D
:101520004D6928438D6928430443136054600020AB
:1015300030BD0246506940EA4100506100207047CA
:10154000F8B506460C461546002000900027D4E961
:1015500000010843A168491E40EA4110E16840EAE1
:10156000412000900098306104F0FCF9074609E042
:10157000681C38B125B104F0F5F9C01BA84201D9A7
:101580000320F8BDB06900F020000028F0D100BFB2
:10159000F7E7000070B50346154600220024012D30
:1015A0001FD09A6802F070420868401E4E68761E8E
:1015B00040EA06168868401E46EA0026C868401EB3
:1015C00046EA0036088A401E46EA0046888A401EDF
:1015D00046EA0056087E401E46EA006002439A60D2
:1015E00022E09A6811480240C868401E0603888AB3
:1015F000401E46EA00500243DC6804F0704408686C
:10160000401E4E68761E40EA06168868401E46EA6E
:101610000026088A401E46EA0046087E401E46EA2A
:10162000006004439A60DC60002070BDFF0F0FFF74
:101630002DE9F047044640688EB00027804600F050
:10164000C3FF0090B0F87CA0D0F86890D0F880601C
:10165000D0F88850C06D00B10768684600F0DCFF24
:1016600005E0696820468847002843D12D68002D91
:10167000F7D12068172853D00CDC0F283DD004DCAC
:101680000B2877D00D2825D18BE0112810D01428F5
:1016900020D13BE0262846D004DC1E2851D020284B
:1016A00018D18AE02A2816D0B0F5107F12D128E090
:1016B0004046E56800F088FF0290697A39B9297AD6
:1016C000012904D130F87C1F41F48071018002A807
:1016D00000F0A2FF75E0404600F076FF0090E16860
:1016E00011B1C0F8841002E0D0F88400E0606846D0
:1016F00000F092FF0EB0BDE8F087D7B34046B84780
:101700005FE02146404610F0ADFAF3E705A94046F8
:1017100000F00BFBE0680699016007994160E9E77A
:10172000C4F80C90E6E7E0680228E3D1CDF83080F9
:10173000E0680D9027200A900AA9A06809F0F2FF3E
:10174000D8E7E068012804D00021404600F0BBFA49
:10175000D0E7304609F05BF868B1304609F006FA88
:10176000304608F02DFF98B10121304608F0E2F92B
:101770000EE026E02FE0484609F04CFA06464046C7
:1017800000F022FF0090C0F88060684600F044FF3F
:101790000121404600F097FA002EABD10020E06016
:1017A000A8E75FEA0A700CD4E068C06848B1007A24
:1017B00038B1404609F0DAF903E02146404610F01E
:1017C0008CF92146404608F020F9002892D02046A6
:1017D00008F004FB8EE7404600F0F6FE0090703003
:1017E00000F050FE684673E7F0B587B0B0F90840E6
:1017F0000DF10C0C0C9E876945688CE8F000448A5A
:101800000025CDE900150294B0F90C10B0F9105084
:10181000B0F90E40B0F90A00194410442B46224694
:1018200000F002F807B0F0BD2DE9F04F8BB09846FC
:10183000DDE9155691468A468346149F1A9C01F0AD
:1018400047FE3348603445F48055CDE90204CDE9C4
:10185000007543464A465146584608F007FA0400C8
:101860004FD000F0B1FE30220490179908F09EF995
:101870000498282227493430FEF72EFF049819993E
:10188000244F4166A0F87C600026C0F88060C666E0
:10189000083FC0F888607968C16504A800F0BCFE04
:1018A00005A9204600F041FA1B4841F282710396D7
:1018B0000094CDE90110BDF91E00BDF91A10BDF963
:1018C0001C20431ABDF918005B1C121A521C08F0A8
:1018D000CDF906467868416820468847204600F0E2
:1018E00073FE0490866604A800F096FE42F204009F
:1018F000054202D1204608F023FB2046189900F04B
:10190000F1F902F0B1FE0BB02046BDE8F08F000007
:101910003116000860020120E51E00082DE9F041A3
:10192000044694B0006800F0B7F908B1D94D01E061
:10193000D84D2C35606815281ED00CDC0B281FD024
:1019400004DC00287ED005287DD12FE10E287BD035
:101950001228F9D141E1162806D0172808D01828F6
:1019600008D01C28F0D109E0E86914B0BDE8F08186
:10197000286AFAE7686AF8E7A86AF6E76869F4E7A8
:1019800020680B901C200C90206800F01DFE039036
:10199000016D0BA88847064603A800F03DFE022E05
:1019A0000FDB95E807008DE80700D4E90402334611
:1019B000A16903F073FA20698719A069A0EB0608F2
:1019C0002CE0286802F0C1FA2169E8690A18521E61
:1019D000606901F027F9A269E869111A491C606978
:1019E00001F020F9D4E904077F1C394601F046F9DB
:1019F0003946A06901F042F9686802F0A6FA206948
:101A00003946401C01F03AF9A0693946401E01F000
:101A100035F9A0692769A0F10208BF1C286802F007
:101A200094FA42463946606901F0FCF8686802F0B1
:101A30008CFA606942463946401C01F0F3F8686A46
:101A4000022802E015E1B0E000E10BDDA86802F039
:101A50007CFA61696A6A881C8B18014642463846DE
:101A60005B1E27E0296AB14226DD6069022E074627
:101A700000F1020801DB374401E007F102072069A9
:101A800001DB304401E000F1020022693B460A44D8
:101A90004146A2F1010201F0A7F9022E02DBA06982
:101AA000821B01E0A269921EA069E9693B46401AC7
:101AB0004146401C01F098F9022E02DB60690644A1
:101AC00001E06669B61CE76928687F1E02F03DFAEE
:101AD0003A463146206901F037F93A463146A06965
:101AE00001F032F9E7696868BF1E02F02EFA20693A
:101AF0003A463146401C01F027F9A0693A46314682
:101B0000401E01F021F9E869022802DC286A022857
:101B100023DDA86A022802DDE1690F1A01E0E76906
:101B2000BF1EA86802F011FAE969022909DD2069DF
:101B30003B46421800F1020C31466046521E01F04D
:101B400053F9286A022808DDA269E8693B46101AA1
:101B50003146401C921E01F047F9286802F0F5F961
:101B6000D4E90620216901F05DF8686802F0EDF91A
:101B7000D4E906202169401E491C521E01F052F88A
:101B8000A86A022811DDA1692669E469A1F10208A9
:101B9000271AA41EB61C7F1CA86802F0D6F923469B
:101BA00042463946304601F01FF971E0208A00B202
:101BB000ADF81400A18A09B2ADF81610228B12B24A
:101BC000ADF81820A38B1BB2ADF81A302C69ED6864
:101BD000CDE9005400F0EAFF5AE0208A298B08443E
:101BE000ADF81400A08AADF81600208B298B401A9E
:101BF000ADF81800A08BADF81A00206800F0E4FCE6
:101C00000390006FF0B1022002F046FA039890F8BA
:101C10007C10C1F3C00100EB8100006C02F095F96B
:101C20000398406B02F0AEF90398006F00F0CCFC13
:101C300003990990B1F95A2005A900F08DFF09A870
:101C400000F0EAFC03A800F0E7FC21E0208AADF8F0
:101C50001400A08AADF81600208BADF81800A08BF8
:101C6000ADF81A00A86802F070F905A801F0E8F8CC
:101C70000EE0206800F0A8FC039030F85A1F41F0F5
:101C80000C01018003A800F0C7FC206809F01AF8D5
:101C900000206AE63404012038B505004FF0000446
:101CA0000FD001F015FC284600F08EFC009090F853
:101CB0007C00000700D50124684600F0ADFC02F06E
:101CC000D3FC204638BD70B50D46040009D001F0A4
:101CD000FFFB2946204610F0FBFBBDE8704002F0F8
:101CE000C3BC70BD7CB50D4604001DD001F0F0FBF7
:101CF000204600F069FC0090006F0190684600F0FB
:101D00008BFC294601A803F0C7FB58B1204600F020
:101D10005BFC009001990167684600F07DFC20465D
:101D200008F00CFD02F0A0FC7CBD2DE9F34F85B05E
:101D300000270C46B846059800F046FC0090C06DA0
:101D40000121856805982A68904782462A68032100
:101D50000598904704902A680221059890470390BF
:101D60002A680021059890470646009809F068F90E
:101D70008346009809F06BF98146009890F832107C
:101D8000890601D5B0F9588000F036F8054600986C
:101D9000C06E10B108F026FA074625806780A4F8C7
:101DA00004A0049AABEB020006EB0802401E2A4492
:101DB00020813A44E280039BA9EB0302521E628118
:101DC000A4F80CA020827019E681401E608268464B
:101DD00000F022FCB4F90C000190B4F9100002905C
:101DE00002AA01A9059800F039F80198A08102988B
:101DF000208207B0BDE8F08F10B50146002091F8B1
:101E00003220920607D5B1F95400002803D1486B5F
:101E100001F022F9801C10BD70B58AB00C46054651
:101E200000F0D2FB0990C06D866809A800F0F4FBB1
:101E3000009534B1012C06D0022C0BD0032C04D118
:101E40000AE0182000E01620019071686846884773
:101E50000AB070BD1520F7E71720F5E72DE9FC4122
:101E600017468846044600F0AFFB0090C16D056838
:101E700068468E6800F0D0FB32680021204690470B
:101E80000646204608F02EF927E000BF00F09CFB34
:101E90000190B0F900102AB2B0F90430891A9A1AE8
:101EA000B0F90230A3EB2543B34210D190F82800DB
:101EB000000605D53868884209DB491E396006E00E
:101EC000D8F80000904202DC521CC8F8002001A89B
:101ED00000F0A2FB204608F030F90400D6D1BDE89E
:101EE000FC8100002DE9F0430446406889B00546B6
:101EF00008F030F9814600F067FB0290D0F8488086
:101F0000D0F88070466E02A800F086FB2068172883
:101F100052D008DC0E2839D00F2811D014284BD00D
:101F200015283CD148E01E281DD01F2829D0222882
:101F30003FD0312833D10020E06009B0BDE8F08304
:101F40001F494046884503D006F01CFE00F0E0FB28
:101F5000002EF2D0D4E902122068CDE90405CDE9C3
:101F6000061204A81FE0E0680028E6D02FB1AF42B7
:101F700003D0384608F0FAFDDFE7284608F04AFEAD
:101F8000DBE72146484607F040FDD6E7E0684168B8
:101F9000002904DD00680928EFD00A2805D05EB1C9
:101FA0002046C4F80490B047C7E7284608F066FE0C
:101FB000C3E7C4F80C80C0E7204607F00FFFBCE77A
:101FC000785634FF0E4810B5006801F0B3FF0D4895
:101FD000006801F0BAFF012002F040F8002002F092
:101FE0004BF8002002F058F8002001F0BFFF06482F
:101FF000006801F0C7FFBDE81040002002F000B803
:102000004C0101204801012044010120014AC2E99C
:1020100000017047F0000120014AC2E90001704749
:10202000F8000120014AC2E90001704700010120C7
:10203000014AC2E900017047F40101202DE9F04F87
:10204000DFF828B191B04FF0FF35DBF80030B3F97D
:1020500022100691DE69B3F92490F469A1898142C6
:1020600006D8E289824203D3471AD4F8008012E0EE
:10207000D4E9018100296FD00A8882426CD84D884A
:10208000854269D3801A82B2486800EB8200B0F9B9
:102090000070B0F90250781C5ED0307EA17C10FB3D
:1020A00001FA217CCDE90701B3F92A60304606F038
:1020B000CFFDC0B20E90DBF8000007FB0A81A37CC5
:1020C000826B0127CDE90412CDE90273C069089A39
:1020D000C17E807ECDE90001DDE90603494606F0B8
:1020E000C7F8681C18D046F0020006F0B1FDDBF816
:1020F0000000A37C05FB0A81826BCDE90273CDE968
:102100000412C069089AC17E807ECDE90001DDE934
:102110000603494606F0ACF8DBF800005D46C069EE
:10212000417E007E814214D9022E12D086F0040036
:1021300006F08EFD2868C069027EC37E12FB039103
:10214000437E857E089A06984B4412FB050206F0F2
:102150001BFA0E9806F07CFDDBF80000627C418CD7
:102160001144418411B0BDE8F08F000050010120FE
:1021700004480068C069C06909B1027C0A60407CFB
:102180007047000050010120022008807047C0699C
:1021900082898A4202D8C2898A4210D2806880B17C
:1021A00002888A420DD843888B420AD3406800EBEC
:1021B0008100A0EB8200B0F90000002801DB0120C3
:1021C00070470020704700002DE9F043304C034673
:1021D00087B020681946B0F92A60C069C06900F06C
:1021E00086F8002850D041680088181A01EBC00515
:1021F0003046AF7806F02CFD814620686A680123DE
:10220000816BCDE90237CDE90421C169CB7E8A7E9D
:10221000CDE900230B7EB0F924102A78B0F9220012
:1022200006F026F82068C069417E027E91421FD9DF
:10223000C07E11FB00F812FB00F7022E18D000F050
:102240009AFE064600F060FE01F07FFE21682A78C3
:10225000CB69B1F92200DB7E12FB0302B1F9241035
:1022600001EB0803394406F08FF9304601F06DFEAA
:10227000484606F0EDFC20686A78C369B0F9221080
:102280009B7E12FB0311418407B0BDE8F083000080
:102290005001012030B50F4C05460B4620682946F9
:1022A000C069C06900F023F8002812D04168008896
:1022B00024682A1A0120E46900EBC200085CA47EAD
:1022C00010FB04F0002B04D011F8321011FB04F1C4
:1022D000196030BD5001012001200880704700B511
:1022E000C06900F004F8002800D0012000BD06E01D
:1022F00002888A4202D842888A4202D28068002834
:10230000F6D170472DE9F0410025154E154C18E027
:102310002069C5EB451700EB87007422001D31686A
:10232000FEF7DAF92069002140F8271000EB87005A
:1023300000F10C018161011D0A1DC0E90F126D1C25
:102340004164A0688542E3DB0DF0B4FF2169C0EB76
:10235000401001EB8000001D3060BDE8F0810000FE
:10236000500101204C03012070B510490E4808604F
:10237000084603F089F80D4C143CA068C0EB4010EF
:102380008500284600F09AF8094B20612A461B6810
:10239000002198474FF0FF30206002F0ABF9BDE814
:1023A00070400DF087BF0000391C01086003012058
:1023B0002C03012000F076FEFEF7ECFF05490860D3
:1023C00006E000F0E9FC052011F016FE02F064F9C9
:1023D000F7E700000000012010B5040009D001F06B
:1023E00077F8204609F0D4FA044602F03DF9204679
:1023F00010BD002010BD000038B5054601F068F89A
:102400002846FFF7E9FF04000AD000F0DDF8064B8C
:1024100000902A461B6800219847684600F0FCF8A7
:1024200002F022F9204638BD2C030120024A106038
:1024300021F0030050607047345B032010B50400A6
:1024400011D001F045F80848042101EBC401406BAC
:102450004158486809F054FA20460FF0A3FEBDE841
:10246000104002F001B910BD745A0320002805D0B5
:10247000034AD16B016001B14860D063704700002E
:10248000745A032010B5044601F022F82068FFF7C3
:10249000D5FF00202060BDE8104002F0E5B8000044
:1024A00070B50D460646002405E000BF06EB84002B
:1024B000FFF7E8FF641CAC42F8DB70BD2DE9F0418A
:1024C00004460EF0E9FC2848E41C24F00305016CE6
:1024D0002D1DA94200D90D46C46B13E054F8042CFD
:1024E000AA420ED184B1216809B162684A6061686C
:1024F00009B122680A60C26BA24231D12168C1636E
:102500002EE02468002CE9D18046816BC0680F184A
:1025100057F8040C3E1A306838B100200FF048FF1D
:1025200057F8040C3E1A3068D0B97068A84217DB1F
:102530003044441B3046241D0FF0F2FED8F80C1036
:10254000491BC8F80C10D8F814102944C8F8141006
:102550007068401B02D0314609F0D2F944F8045C9F
:102560002046BDE8F0810000745A032010B5002415
:102570000EF092FC0C490F2001EBC002526C1AB114
:1025800001EBC000406C08E0401EF5D508E0416852
:10259000A14200D90C46806810B180680028F6D1AD
:1025A000A4F10C0010BD0000745A0320002138B1C2
:1025B0000449042202EBC000496B085841680C39F9
:1025C00008467047745A03200549CA69521CCA61FB
:1025D000496B01EBC0010A78521C0A7000F034B854
:1025E000745A032010B500F073FFFFF7BFFF642299
:1025F0000849B0F5800F04D990FBF2F4086A44430F
:1026000003E0096A4143B1FBF2F402F02DF82046E1
:1026100010BD0000745A03200A4902684B6B52F83F
:10262000082C03EBC2021378022B03D3CB690BB146
:102630005B1ECB611178491E1170002101600846B4
:1026400070470000745A03200349042202EBC000C3
:10265000496B085808307047745A032070B5144607
:102660000D46064600F034FF204600F091FC0300C2
:10267000174804EB840109D050F8210041688068B4
:10268000711A2A1A184601F0ABFC1CE000EB810419
:10269000A268B24201D0012200E00022E368AB420E
:1026A00001D0012300E000231A430CD0236943B179
:1026B00050F82100816840686A1A311A184601F002
:1026C000F5FBC4E90265BDE8704001F0CDBF000034
:1026D000B45C032010B5C2B2CBB2D21A00D55242BC
:1026E00093B25B43C0F30722C1F30724121B00D54A
:1026F0005242000C92B2A0EB114002FB023200B237
:10270000002801DA404200B280B200FB002010BD78
:1027100010B50021084600F0B5FC43F6FF725042A8
:10272000BDE8104013460146AFF300802DE9FC419F
:102730001C4615460E46074600F0CAFE042006F069
:1027400087FA804612484069C16C006D0F44064408
:102750000D440444ADF80070ADF80450ADF80260CB
:10276000ADF80640684608F079FC07E023462A46A3
:102770003146384605F008FF08F024FC0028F5D162
:10278000404606F065FA01F06FFFBDE8FC810000ED
:102790003C0101202DE9F8431C00DDE908981646AC
:1027A0000F46054602D107F05FFC044600962E68EE
:1027B00043464A4621462846B047061E39D007F010
:1027C00048FC8146698A304607F0B4F9304608F083
:1027D000D1FA484608F0CEFA4FF000080CE000BFEE
:1027E000CDF8008055F81CCF00231A4649462846EC
:1027F000E04700B308F0BEFA7F1E002FF0DC1D2179
:10280000484608F016F9601C12D000F061FE07F08F
:1028100077FC30B1FFF718FF8469B44201D0200083
:10282000F8D1B44202D0304608F0F4F901F01CFFB0
:102830003046BDE8F883304607F00AFB0020F8E791
:102840002DE9F0411C4616460D460746022B02DBD9
:102850000020BDE8F0811C20FFF730FE0028F8D0F2
:102860000DB105610AE0094A52F8241009B905E0E2
:1028700011460A68002AFBD10969016184618682D8
:10288000002101604160C0E90217E2E784010120F4
:1028900070B51D46FFF7D4FF040009D000F00EF814
:1028A000E068006820B90348006800EB8500846593
:1028B000204670BD50010120FFF7D8BD70B5C0B3F0
:1028C0008269022A36DA2149531C0C789C4200DACC
:1028D0000B701F4C54F8221019B944F8220032E052
:1028E00019464B68002BFBD106E0CB68C5681B6816
:1028F0002D68AB4203DD09680029F6D11AE0C1B1A9
:10290000CB68C6681B683668B3420CD1838A012B3A
:1029100005D008E01946DB681B68AB4203DB0B6897
:10292000002BF7D129B14B6833B118604A68426077
:1029300004E0FFE7012070BD44F8220048608842AF
:1029400000D100210160002070BD0000AA0101201B
:102950008401012010B503E00468FFF7AFFF2046B3
:102960000028F9D110BD000010B50C4B8269002180
:1029700053F82240844205D1046843F8224002689B
:1029800002B1516042680AB10368136002680AB17B
:10299000436853600160416010BD00008401012064
:1029A00000207047022801DB00207047054951F8DC
:1029B000200004E0C16809680029F6D000680028FA
:1029C000F8D17047840101202DE9F8431D461646D1
:1029D000884604000CD0FFF7F7FD009000680768F8
:1029E0006846FFF719FE2B46324641462046B84757
:1029F000BDE8F8832DE9FC4706005FD000F068FDD4
:102A000000F0DCFA3C4C81462068B0F9228000F0EE
:102A100005FB216807468A8CD01B888441E000BFF3
:102A200047F6FF71304602F0C3FB8246014630464E
:102A300002F094FB2168054691F82C0000F0030099
:102A4000012841D002283BD000204A8C101A48842B
:102A5000ADF800006A1E1044ADF80400888CADF893
:102A60000200A9F101010844ADF806006A4651468A
:102A7000304601F0E3FF2168BDF80200888451462A
:102A8000304601F0DFFC064430780A281ED00D28BD
:102A90001CD0BDF80000216828444884307818B163
:102AA000761C30780028BBD12068818C3944818421
:102AB000818D21F00301818501F0D6FDBDE8FC8701
:102AC00005EBD5704010C0E72846BEE7206890F8B7
:102AD0002C1001F0030101290BD0022909D0018C2F
:102AE000418431780A29D9D1828C02EB0901818491
:102AF000D4E7A0F82280F4E75001012070B5144615
:102B00000D46064600F0E4FC0548006845848484D0
:102B10003046FFF76FFFBDE8704001F0A5BD000033
:102B2000500101202DE9F04107460A4815460E469E
:102B30000068B0F92C0040F0020001F09DFA044654
:102B40002A4631463846FFF7D9FF2046BDE8F04116
:102B500001F092BA5001012047F6FF73AFF30080F5
:102B60002DE9FC411F4690460D4606004FF000043B
:102B70001AD000F0ADFC65B1284608F0EBF804006F
:102B800007D002462946684602F076FB684608F000
:102B9000E1F83B4642462946304601F0A7FF204671
:102BA00008F0D8F801F060FDBDE8FC812DE9F04F98
:102BB00087B09B46DDE9109892460C46054600F02A
:102BC00087FC16480168C86C096D47190E1900EB9F
:102BD0000A0501EB0B04ADF81070ADF81450ADF818
:102BE0001260ADF8164004A808F038FA88B1DFF892
:102BF00030B04FF0010ACDE90098CDE902BA234682
:102C00002A46314638460BF023FF08F0DBF900284E
:102C1000F1D101F029FD07B0BDE8F08F500101208E
:102C2000758400082DE9FC4114460D46064600F067
:102C30004FFC114F3968C86C096D054404440E44BB
:102C4000ADF80050ADF80440ADF80260ADF8066094
:102C5000684608F003FA08E0386822463146406EBC
:102C600003682846984708F0ADF90028F4D101F030
:102C7000FBFCBDE8FC810000500101207CB50C4646
:102C8000064600F025FC0F4D2868C16C006D0E440F
:102C90000444ADF80460ADF80060ADF80640ADF84E
:102CA0000240684608F0DAF907E028682146406EDD
:102CB00042683046904708F085F90028F5D101F0C8
:102CC000D3FC7CBD500101202DE9FC411C46164679
:102CD0000D46074600F0FCFB1A480168087ECA6CE6
:102CE000096D17440D440C44401E391A1644ADF8C2
:102CF00000103118ADF80410291A2044ADF8060070
:102D0000ADF80210684608F0A9F915E032462946E8
:102D1000384605F0AFFB32462146384605F0AAFB9F
:102D2000621E691C384605F005FC621E691C3046AF
:102D300005F000FC08F046F90028E7D101F094FC0A
:102D4000BDE8FC81500101207CB514460D460646C5
:102D500000F0BEFB0F480068C16C006D0E440544D6
:102D60000444ADF80060ADF80460ADF80250ADF871
:102D70000640684608F072F906E0224629463046C9
:102D800005F0D8FB08F01EF90028F6D101F06CFC24
:102D90007CBD00005001012010B5002400E001249A
:102DA00000F004F80028FAD1204610BD0B4810B5F9
:102DB0000068002410B1804700B1012407F0D2F868
:102DC00000B101240648006810B1804700B1012419
:102DD0000448006800B18047204610BD580101201A
:102DE000900101208C0101202DE9FC411C46154673
:102DF0000E46074600F06CFB10480068C16C006D81
:102E00000F4406440D440444ADF80070ADF804507E
:102E1000ADF80260ADF80640684608F01FF907E01B
:102E200023462A463146384605F0AEFB08F0CAF87C
:102E30000028F5D101F018FCBDE8FC81500101200B
:102E4000B0F90630B0F90420B0F90210B0F9000072
:102E5000FFF7CABF08B50B46002805D0009281884D
:102E60008268C08800F001F808BD10B50828029CEF
:102E700030D008DC04FB01F401280AD0022813D06A
:102E8000042804D11CE0102828D020282CD00020B1
:102E900010BD04EBD30003F00701105CC1F1070182
:102EA000C84000F0010010BD04EB93000621105C47
:102EB00001EA4301C1F10601C84000F0030010BD62
:102EC00004EB5300D907105C02D000F00F0010BDD6
:102ED000000910BD04FB0130105C10BD481004FB5C
:102EE000003032F8100010BD881004FB003052F89A
:102EF000200010BD034951F82000C1688A6A0821EA
:102F0000104700008401012010B500F0E1FA05F03F
:102F10006BFB05F033FC044601F0A6FB204610BD18
:102F200010B5044600F0D4FA054800210068C069D5
:102F3000426820469047044601F096FB204610BDAB
:102F40005001012070B50C46054600F0C1FA064854
:102F500021460068C069426828469047044601F04F
:102F600083FB204670BD000050010120002801D0E5
:102F700007F04CB8704710B500F0AAFA05F03CFB1A
:102F800005F0FCFB044601F06FFB204610BD00007D
:102F90000021022802D2024951F820100846704749
:102FA000E401012010B500F093FA03480068047CA6
:102FB00001F05AFB204610BD5001012010B500F071
:102FC00087FA04480068C069447E01F04DFB204642
:102FD00010BD00005001012070B515460E46044694
:102FE00000F076FA2A463146204605F04BFB0400F5
:102FF00002D000203060286001F036FB204670BD12
:1030000070B50C46054600F063FA2146284602F0EA
:10301000EBF8BDE8704001F027BB000010B50024BC
:1030200000F056FA0B48006890F82C1001F00C01E3
:10303000042904D0082906D00C2907D103E0C0696F
:10304000047E641E02E0C069007E440801F00CFBAF
:10305000204610BD50010120017EC07E11FB00F012
:1030600070470000024951F820000069006870476D
:1030700084010120024951F820000069406870472E
:103080008401012070B50C46054600F021FA044881
:1030900000684584848401F0E7FA002070BD0000D8
:1030A0005001012070B501F0F9FB1B4C2E2020705F
:1030B00001F0FCFA19480DF0B1FD05F0D1FB054611
:1030C00005F00AFBC0B1002605F01AFBB0B10020E4
:1030D000064307D005F01DFB064605F006FB31460A
:1030E00005F0B0FD0021084600F098FF07F078FADF
:1030F000FFF708F9206B09E00126E5E70120E7E783
:10310000006800B18047206B406820630028F7D139
:103110000120A070284670BD3C010120405B0320C7
:103120001CB5CDE900016946014800F003F81CBD5B
:10313000C33300082DE9F04107460D481C461546EB
:10314000D0F800C00E46BCF1000F384601D0E04771
:1031500001E00DF0ADFF002807D023462A46314696
:103160003846BDE8F0410DF0A3BFBDE8F081000096
:10317000380301201CB5CDE900016946014800F083
:1031800003F81CBDC33300082DE9F84390460D46F3
:103190000646012700F09CF948F29840FFF72CF909
:1031A00004000FD0FFF710FA0090C0E901656846EF
:1031B000FFF732FA4146204600F013F90746204651
:1031C000FFF73CF901F050FA3846BDE8F8830000FB
:1031D0002DE9F04700F5E0448246DFF86491D4F829
:1031E0008804A2B04FF00108002538B194F8080413
:1031F000F0B300BFD4F8800430B32BE094F8090496
:103200000028504603D00EF0F3FA90B915E009F00B
:10321000C1FF70B9D4F82014D4F8840488420CDCBF
:10322000694650460EF0D2FF18B99DF80000D92823
:1032300003D0012022B0BDE8F08784F80884D4F8D8
:103240002004C4F88804D5E7D4F87C04FFF7BCF95F
:10325000C4F880040746D4F87404FFF7B5F9209049
:10326000C0B10026D4F81804B04210DD209800E068
:1032700012E000EBC611D9F800308022684698476A
:10328000394668460DF0D2F8761C4037EAE720A8A8
:10329000FFF7C2F984F8085494F80A0405281CD2F0
:1032A000DFE800F02B270B0F030094F88804C00719
:1032B0000BD1504609F03EF90DE0504609F0B8F840
:1032C00009E094F88804C00702D084F8948404E0EC
:1032D000504609F01FF884F89454D4F88804401E2E
:1032E000C4F88804D4F88404401EC4F88404002080
:1032F000A0E7504608F0BAFFEDE7D4F88814D4F8F8
:103300002004461AD4F88C04FFF75EF9804600903A
:10331000D4F8800400EBC607D4F80C6409E0D9F8AF
:1033200000300822394640469847761E08F10808C2
:103330004037002EF3DC6846FFF76EF9CBE700005C
:10334000300301202DE9F04100F5E0440546D4F8B2
:10335000800418B105F5E940FFF75EF9D4F88C0454
:1033600008B1FFF76BF8D4F8900408B1FFF766F8DE
:10337000D4F8740408B1FFF761F8D4F87C0408B1FC
:10338000FFF75CF800260EE005EB061707F5E047AF
:10339000D7F8C40308B1FFF751F8D7F8840308B190
:1033A000FFF74CF8761C94F81C03B042ECDCD4F820
:1033B0007804002803D0BDE8F041FFF73FB8BDE82E
:1033C000F08130B5054600206C68E41A002C07DD5A
:1033D000944201DD104600E020462A681A440A6043
:1033E00030BDF8B50C46064600F032F805465CB133
:1033F0003046FFF7E9F80090008A20600098408A84
:1034000060606846FFF708F92846F8BD38B50546FC
:1034100000F01EF8040019D128460DF043FC04000A
:1034200014D12846FFF7D0F847F209410090095C13
:1034300031B16846FFF7F0F8284609F0ADFF38BD16
:103440000DF082FD04466846FFF7E6F8204638BDD9
:103450007FB50025FFF7B8F80126009004460677EF
:103460001A4820600020A06102A920460CF081FFCC
:1034700020BB226803A920469047F8B99DF80800B0
:10348000FF281BD19DF80C00D82817D18DF8040017
:1034900001A900980EF09AFE80B99DF80400C0289A
:1034A00008D0C12806D0C22809D1009800F5E04014
:1034B00080F8096400980CF003FE00B1012568460D
:1034C000FFF7AAF804B0284670BD00007303010896
:1034D00070B5184CE06820B101F0E3F861688842EB
:1034E00004D001F013F901F0DCF86060E068401CE2
:1034F000E06001281CD10CF0DDFE05462068854205
:1035000016D0002813DBFFF74BFA01462068C0EB0A
:103510004012206900EB82029167C5EB4511064A13
:1035200000EB8100011D1160806FFFF713FA256029
:1035300070BD00004C030120500101201CB50400A7
:1035400004D10E480068046E002C16D0FFF7C0FFAF
:103550002046FFF739F8009044696846FFF75CF8A9
:103560004CB12046FFF730F80190816889688847A0
:1035700001A8FFF751F801F077F81CBD50010120B8
:1035800001490A4600F002B801F0FFFF2DE9F043BF
:1035900087B015460C465FEA000846D0FFF798FF53
:1035A000002000F0E3FC814621480068066E40469A
:1035B000FFF70AF800900068806900F09FFC07465A
:1035C00040F6FF70C44204D10098B0F90440B0F94D
:1035D00006500098611E0289ADF804401144ADF810
:1035E00008104189681E0844ADF80650ADF80A007D
:1035F00006F0E4FA6846FFF70FF801A807F02EFD81
:1036000006E02A462146404600F026FB07F0DAFC99
:103610000028F6D1384600F071FC304600F0E6F99B
:10362000484600F0A3FC01F01FF807B0BDE8F083A6
:103630005001012038B50024009400F001F838BD95
:103640002DE9FE4F984691468A46834600270C9EF8
:10365000FFF73EFF184819490068407C51F82040A8
:10366000E1680968042903D02468002CF8D100E03F
:103670001CB9FFF797F9041E1BD0E0680121C26A4C
:1036800020469047050011D02469A0688047401C5F
:1036900002D10B4C46F001060096CDE90154434699
:1036A0004A465146584600F035FA074600F0DCFF1E
:1036B0003846BDE8FE8F0000500101208401012042
:1036C000203A03082DE9FE4F9846DDE90D650C9F71
:1036D00091468A46834600246DB1FFF7F9FE0097B4
:1036E000CDE9016543464A465146584600F012FA74
:1036F000044600F0B9FF2046BDE8FE8F38B504004F
:103700001CD0FFF7E5FE0E480068006EA04201D114
:1037100000F0E6FB2046FEF757FF0090406908B135
:1037200000F08BFF00980068FFF7C6F86846FEF7C8
:1037300073FF2046FEF782FE00F096FF38BD0000C2
:10374000500101202DE9FF4F83B09A468B46074672
:10375000FFF7BEFEDFF83891D9F80000447C4D48F1
:1037600000570128204606DD04F0BCFF0546204630
:1037700004F0CCFF05E004F09EFF0546204604F06F
:10378000A0FF04461FB302A901A8FFF739FCB7F94F
:103790000000002800DA0020B7F902608046002E01
:1037A00000DA002601984119B7F90400491E0EF00D
:1037B0001CF9054602980119B7F90600491E0EF0DA
:1037C00014F9A5EB0802841B521C641C03E04FF0A3
:1037D000000846462A46BAF1000F01D1C4F1000A9A
:1037E000002A51DD002C4FDD1098009053463146E1
:1037F0004046FFF725FF5FEA000A10D000F0B0F85E
:103800000746A04206D0D9F80000806C10B13221E2
:1038100007F0B4FF504600F0E9F8002523E05946D0
:103820000598884700F020FF012007B0BDE8F08F21
:10383000611BB94202DA504600F0BCF83DB1721982
:103840004146504600F0FAF85046FFF777FE5946D9
:10385000059888471048016809B1002088475046FC
:10386000FFF78EFE3D44A542E2DB5046FFF746FFE0
:10387000002000F0BBF8A74206D0D9F80000806C09
:1038800010B1332107F07AFF00F0EEFE0020CCE704
:1038900050010120A80101208C03012038B505004A
:1038A0004FF0000411D0FFF713FE2846FEF78CFE00
:1038B0000090006800698068804705F075FD044647
:1038C0006846FEF7A9FE00F0CFFE204638BD38B5A9
:1038D00004000ED0FFF7FCFD2046FEF775FE00F158
:1038E000180400906846FEF797FE00F0BDFE2046E3
:1038F00038BD002038BD000038B504460025FFF76C
:10390000E7FD1CB908480068046E44B12046FEF784
:103910005BFE0090B0F904506846FEF77DFE00F0B3
:10392000A3FE284638BD00005001012038B50446EA
:103930000025FFF7CDFD1CB908480068046E44B1AE
:103940002046FEF741FE0090B0F906506846FEF7AB
:1039500063FE00F089FE284638BD000050010120BA
:1039600038B504460025FFF7B3FD1CB908480068C8
:10397000046E44B12046FEF727FE0090B0F90A50CD
:103980006846FEF749FE00F06FFE284638BD00008D
:103990005001012070B505460024284608F0E6FFD6
:1039A000641C18B1BDE8704000F07AB8052CF4DB57
:1039B00070BD000038B50C46050004D10A48006807
:1039C000056E002D0FD0FFF783FD2846FEF7FCFDA6
:1039D0000090B0F90A10A14200DD44816846FEF76C
:1039E0001BFE00F041FE38BD50010120F8B5054630
:1039F000FFF76EFD104E3068046ECDB10CB100F0D3
:103A00006FFA06F0DBF92846FEF7DEFD009031681C
:103A10000D660068FEF752FF6846FEF7FDFD05F0F3
:103A2000AFF905F0D9F800BF00F01EFE2046F8BD42
:103A300000F056FAF8E70000500101207CB5154669
:103A40000E46040004D115480068046E002C24D0F2
:103A5000FFF73EFD2046FEF7B7FD2DB20090C58072
:103A600034B2848005F0B8F80098406980B1FEF760
:103A7000ABFD009A0190B2F908108180B2F90A20DA
:103A8000C28011B10AB10480458001A8FEF7C4FDCF
:103A90006846FEF7C1FD00F0E7FD7CBD5001012046
:103AA00001490A4600F002B801F0FFFF7FB5154654
:103AB0000C4606002DD0FFF70BFD3046FEF784FDC7
:103AC00040F6FF710190CC4203D1B0F90440B0F947
:103AD00006500289611E1144ADF80840ADF80C1083
:103AE0004189681E0844ADF80E00ADF80A5001A8DF
:103AF000FEF792FD02A807F0B1FA06E02A46214639
:103B0000304600F091F807F05DFA0028F6D100F099
:103B1000ABFD7FBD2DE9FF4FDFF8E8B083B01C4659
:103B2000DBF80010DDE9106092464FF000084B7C96
:103B300042461299FEF784FE050060D0286980682D
:103B4000804705F031FC81460AFB09F1C91DCF0809
:103B5000FEF748FDF10705D1C11700EB9170801009
:103B600000EB4000002C09DC1FB11838B0FBF7F067
:103B700000E000206442A04200DC0446F00707D1C8
:103B80000090DDE903012346524600F0DBFC80464D
:103B9000002C03DC2846FEF78FFE30E004FB07F024
:103BA0001830F10702D0FEF717FC01E0FEF724FC05
:103BB00006001CD0FEF708FD019005600399818086
:103BC0000499C180A0F808A04481C0F81480C0E91D
:103BD000037901A8FEF720FD1298AE602861DBF89A
:103BE0000000407CA861304607B0BDE8F08F284651
:103BF000FEF762FEB8F1000001D0FEF71FFC0020C6
:103C0000F2E7000050010120054B30B41B68054C61
:103C10005B7C54F823301B6930BC0FF037BA0000CE
:103C20005001012084010120F8B515460E460746D3
:103C3000FEF7CAFC009000681621C068426A0020A6
:103C4000904704466846FEF7E7FC002C03D02A465E
:103C500031463846A047F8BDF8B516460F46050070
:103C600012D0FEF7B1FC009044696846FEF7D4FC20
:103C70002846FFF713FE0346082800DD2CB1324624
:103C8000394628460FF0CCFAF8BD32463946284668
:103C90000FF066FCF8BD0000094A126802B100206E
:103CA000074A243252F82030002B07DBA2F1180318
:103CB00043F820104FF0FF3142F820107047000009
:103CC000B801012010B5002821D009B30AB3B1F919
:103CD0000040B2F900309C4200DA23460380B1F97B
:103CE0000240B2F902309C4200DA23464380B1F927
:103CF0000440B2F904309C4200DD23468380B1F9D0
:103D00000610B2F90620914200DC1146C18010BDB8
:103D100011460A6802604968416010BD00280BD056
:103D200003880B44038083881944818041881144AF
:103D30004180C1881144C1807047000070B50E4DAC
:103D40000446D5E90001884209D10C49884201D1D5
:103D50003C3000E00C3807C884E8070006E090E833
:103D60000E0084E80E000CF065FD2860207A002823
:103D700000D0012070BD0000AC040120F45C0320E1
:103D80000448D0E90010814201D101207047002091
:103D900070470000AC04012010B5094904460868CA
:103DA00020B908480860084601F06EFB074906483C
:103DB000086020460FF076F8BDE8104000F07CB9AE
:103DC000BC0401204D1C010815A20008940101202B
:103DD00070B50025FFF77CFB094CD4E90020824236
:103DE0000AD0D2E9005610460CF02EFD2060314674
:103DF000284606F02FFD012500F036FC284670BD50
:103E00003C0301202DE9FC41154DDDE908742D68C6
:103E1000B5F90860864200DD3046B5F90C6096427F
:103E200000DA3246824219DBB5F90A608E4200DDC3
:103E30003146B5F90E509D4200DA2B468B420DDB20
:103E400000E02C46E5682D6825B1042D02D02568D8
:103E5000002DF6D1CDE9007404F0A8FDBDE8FC8189
:103E600050010120B0F90220B1F906309A4213DC6A
:103E7000B1F90220B0F906309A420DDCB0F9002009
:103E8000B1F904309A4207DCB1F90010B0F904002E
:103E9000814201DC01207047002070470146024842
:103EA00074220068FCF718BC5001012070B515465B
:103EB0000E4604000AD0FFF70BFB2A463146204687
:103EC0000EF02AFDBDE8704000F0CEBB70BD0000D2
:103ED000024974220968FCF7FFBB00005001012071
:103EE00010B5FFF7F5FA04F02DFE04F049FF05F0D8
:103EF00065FEBDE8104000F0B7BB000070B50B4D8B
:103F000004462868467CFFF7E3FA022C09D22046D3
:103F1000FEF748FD28B128684474FFF7E1FF044824
:103F2000046000F0A1FB304670BD0000500101208C
:103F3000A402012010B50446FFF7CAFA204604F097
:103F400021FEBDE8104000F08FBB10B50446FFF71E
:103F5000BFFA204604F04EFEBDE8104000F084BBDE
:103F600001498860704700003C01012010B50446FB
:103F7000FFF7AEFA204604F06BFE044600F074FB37
:103F8000204610BD70B50446FFF7A2FA0448006849
:103F9000C56904B1C46100F067FB284670BD00002C
:103FA000500101200249CA69C861104670470000EB
:103FB0000801012001494860704700003C010120D0
:103FC00002490A6808601046704700000801012095
:103FD00002494A6848601046704700000801012005
:103FE00070B514460D460646FFF772FA224629467A
:103FF000304604F06FFE044600F036FB204670BDEC
:1040000070B50546FFF764FA03480068847E85763C
:1040100000F02AFB204670BD5001012070B50C460F
:104020000546FFF755FA09482246058008480480EE
:1040300008480068417C084850F82100C1680B6AB4
:1040400029469847BDE8704000F00EBBB001012042
:10405000B2010120500101208401012070B5054604
:10406000FFF736FA03480068047E057600F0FCFA94
:10407000204670BD5001012070B50446FFF728FAB4
:1040800004480068B0F92C50848500F0EDFA284609
:1040900070BD00005001012070B50446FFF718FA0A
:1040A00004480068B0F92A50448500F0DDFA28463B
:1040B00070BD00005001012002480068002800D0B7
:1040C000004770478003012002498A6802B988606E
:1040D000FFF7F2BF3C03012010B504000ED0FFF73C
:1040E000F7F920460EF036F920460EF02DFF204657
:1040F000FEF7A4F9BDE8104000F0B6BA10BD38B51F
:104100000C46050011D0FFF7E3F92846FEF75CFAEC
:1041100000908089204201D0012400E000246846FC
:10412000FEF77AFA00F0A0FA00E00124204638BD3C
:1041300038B50546002028600648046844B120468A
:10414000FEF742FA0090006928606846FEF764FABC
:10415000204638BD6803012038B504004FF0000048
:104160000D46086011D02046FEF72EFA00908468B4
:1041700044B16846FEF750FA2046FEF725FA009053
:10418000006928606846FEF747FA204638BD0000FF
:104190002DE9F04706460C4617461D46DDF82080FF
:1041A000BC4201D0454502D10120BDE8F08716B1DF
:1041B000012E18D10BE01B48007800F0040010B16C
:1041C00004F096FA01E004F07FFA81460DE015480C
:1041D000007800F0040010B104F076FA01E004F079
:1041E00087FA814601E00120DFE700BF6042A8EBCB
:1041F00005014843391B90FBF1F028440A4941F876
:104200003600A9F10100001BA8EB05014843391B4A
:1042100090FBF1F02844044901EBC60148600020FE
:10422000C3E7000088000120940001202DE9FC472D
:10423000684605F0A5FB08B1BDE8FC879DF80400C1
:10424000002879D04348007800F0040040B1BDF95F
:10425000020041490860BDF900004049086007E0DC
:10426000BDF900003C490860BDF902003B49086007
:104270003B480068384909680C1A39488068374952
:1042800009680D1A3348007800F0040030B104F0DA
:104290002FFA074604F018FA064605E004F014FA6F
:1042A000074604F025FA0646781E44432C48406829
:1042B0002B490968401A94FBF0F4701E45432848C6
:1042C000C06827498968401A95FBF0F525480078B1
:1042D000012824D124480068844203DD2248006874
:1042E000201A02E020480068001B80461F48006832
:1042F000854203DD1D480068281A02E01B4800685B
:10430000401B814608EB0900022820DD2946204693
:1043100000F038F8144804601448056017E0294696
:10432000204600F02FF81048046010480560012076
:104330000C4908700BE0FFE70A480078012806D115
:10434000002008490870411E084600F01BF800BF15
:1043500072E70000880001208C00012090000120FD
:1043600094000120A4000120A8000120AC0001203D
:1043700010B505F023FB10BD01490860704700002F
:1043800088000120074A002806DB002904DB0123FE
:104390001372C2E9000101E000201072014800F030
:1043A00003B80000B45B03203EB504460C2211495B
:1043B000FCF7FCF8002813D00F480E4D026882B1BC
:1043C00094E80B008DE80B00684601A990479DE832
:1043D0000E0085E80E00002802D16846FFF7DCFCDD
:1043E0003EBD2046FFF7D8FC94E8070085E80700AB
:1043F0003EBD0000605C03207C03012010B5044634
:10440000FFF714FF10BD000002490968491C014A6A
:1044100011607047740001202DE9F041084E0446F8
:104420000568306801682846884707463068416853
:1044300028468847284420603846BDE8F0810000BF
:10444000540101202DE9F0410C4606460025064F97
:1044500005E0386841683046884706440544641ED4
:10446000F7D22846BDE8F081540101202DE9F04142
:104470001E46069C1746884605463A46A8687F1C95
:104480003346D0F804C041462846E047641EF4D1C4
:10449000BDE8F08170B5B0F90040091BB0F90440E7
:1044A0008C422CDD00F11404B0F902500069521B5B
:1044B00002FB0040CA1800EBE104521ED010B0EB22
:1044C000E10501F007034FF0FF0102F0070221FAB6
:1044D00003F0C2F1070201FA02F1CEB221780FD047
:1044E00001436D1E04F8011B002D05DDFF22294646
:1044F0002046FCF72EF92C4420783043207070BD04
:1045000030400143217070BD10B5B0F90030B0F9F2
:104510000240C91A00F114030069121B02FB0030AB
:1045200000EBE10001F0070302788021D9400A4343
:10453000027010BDB0F90610026951431430FCF747
:1045400010B900002DE9F843804602F10F00001178
:10455000470003FB07F01C46154689461430FDF75B
:104560004BFF060018D0FEF7B3FF3046FEF72CF8DD
:104570000090A0F80080A0F802908580C4800749D0
:1045800081600121818107616846FEF745F800F0EE
:104590006BF83046BDE8F8830020FBE7284C0308A1
:1045A00070B5B0F90660B0F904400B6800F114056D
:1045B00096421BDD0069A34202FB005000EBE302C0
:1045C00014DA641EE010A0EBE30512F8010B03F00F
:1045D0000704A040C4B206E045B1083312F8014B0D
:1045E00023F007036D1E002CF6D004E0002070BD00
:1045F0006006040E5B1C2006FAD5FF2C07D0184677
:1046000002E06406240E401C6606FAD400E0D81DC1
:10461000C443640705D006E012F8014BFF2C09D112
:1046200008306D1EF8D5C01A401C0B6070BD6206C4
:10463000140E401C2206FAD4F5E738B50546FEF7FD
:1046400047FF2846FDF7C0FF00908189491E0CB244
:1046500084816846FDF7E0FF14B92846FDF7EEFEB9
:1046600000F002F838BD00000348C168491EC1606F
:1046700001D100F055B870474C03012010B54FF43C
:1046800000310348FDF7D2FE0248FFF769FC10BD78
:1046900058550120D403030810B501200FF0ACFCDD
:1046A00010BD10B50FF058FD10BD000010B5002270
:1046B00001210C480FF062FD0B49086001210A48F6
:1046C00000680FF071FDFFF753FE0022012107483B
:1046D0000FF054FD064908601421054800680FF0EA
:1046E00063FD10BDBCFB020878000120C4FB02087A
:1046F0007C00012010B503480FF0DEFC0249086081
:1047000010BD0000CCFB02088000012010B54FF066
:10471000FF31024800680FF0F1FC10BD800001205D
:1047200010B5024800680FF0DDFC10BD80000120CC
:104730000EB508B102AA00E00022002301A96846D4
:1047400000F0BEFC0EBD0000074910B50C7818B192
:1047500001200870801E03E0002008706FF07F4089
:1047600003F044FD204610BD3D01012010B5082A8C
:104770000EDC0346012A18D0022A56D0042A76D02D
:1047800010F8042B03F8012B491EF9D1012010BDAC
:10479000102A08DC4FEA000230F8043B22F8023B02
:1047A000491EF9D1F2E7002010BD10F8042BD20702
:1047B000120E491E34D010F8044B491E04F00104B7
:1047C00042EA84122CD010F8044B491E04F0010474
:1047D00042EA441224D010F8044B491E04F00104AC
:1047E00042EA04121CD010F8044B491E04F00104E4
:1047F00042EAC40214D010F8044B491E04F001042C
:1048000042EA84020CD010F8044B491E04F0010463
:1048100042EA440204D010F8044B04F0010422439D
:1048200003F8012B0029C0D1B0E710F8042B920740
:10483000120E491E15D010F8044B491E04F0030453
:1048400042EA04120DD010F8044B491E04F0030490
:1048500042EA840205D010F8044B04F0030422431A
:10486000491E03F8012B0029DFD18FE7FFE710F87D
:10487000042B1207120E491E05D010F8044B04F049
:104880000F042243491E03F8012B0029EFD17DE7D5
:1048900038B50024009400F01DF838BD0B4810B561
:1048A000416B002910D101214163FFF7E7FEFDF7BD
:1048B0005BFD04F077FA0549054838310860BDE82A
:1048C0001040084600F0E0BD10BD00003C01012092
:1048D000611B01082DE9F0410D460699044601B916
:1048E00001461F68082A09DC0E46012A1AD0022A4E
:1048F0005BD0042A7DD0082A13D18DE0102A07DC72
:10490000D3F810C00E46BCF1000F04D0022389E09A
:104910000020BDE8F08101CCB84726F8020B6D1EDF
:10492000F9D189E001CCB847C0074FEA10686D1E85
:1049300036D001CCB84748EA801000F0FF086D1E61
:104940002ED001CCB84748EA401000F0FF086D1E99
:1049500026D001CCB84748EA001000F0FF086D1ED1
:104960001ED001CCB84748EAC00000F0FF086D1E19
:1049700016D001CCB84748EA800000F0FF086D1E51
:104980000ED001CCB84748EA400000F0FF086D1E89
:1049900006D001CCB84740EA080000F0FF086D1EC1
:1049A00006F8018B002DBDD146E001CCB847800749
:1049B0004FEA10686D1E16D001CCB84748EA0010C7
:1049C00000F0FF086D1E0ED001CCB84748EA800009
:1049D00000F0FF086D1E06D001CCB84740EA080081
:1049E00000F0FF086D1E06F8018B002DDDD123E0DD
:1049F000FFE701CCB84700074FEA10686D1E06D0EC
:104A000001CCB84740EA080000F0FF086D1E06F828
:104A1000018B002DEDD10FE0D3F810C0BCF1000FD9
:104A200004D001232A462046E04705E001CCB847E0
:104A300006F8010B6D1EF9D101206AE77CB5064628
:104A400028480D46006868B1002006F007FB06E024
:104A50006A462946304608F0DBFD06F0B3FA002826
:104A6000F6D17CBD106800901F4C50680190226800
:104A7000BDF8000032F84C1F0844ADF80000BDF846
:104A8000020091880844ADF80200BDF804001188C6
:104A90000844ADF80400BDF8060091880844ADF85C
:104AA0000600684606F0DAFA0EE000BF2068BDF89E
:104AB00000106A464184BDF80210818429463046C0
:104AC00008F0A6FD06F07EFA0028EFD1206830F845
:104AD000221F428D891A01804188C28D891A418026
:104AE0007CBD0000AC010120500101202DE9FF4FE9
:104AF00085B000209B4691460D4602900390FEF73C
:104B00005DFA4FF0000ADDF814800646544625B1E0
:104B1000286800906868019002E06846FEF726FA6F
:104B200019F00C0F02D05D46002713E0BDF90240DA
:104B30002DE029467F1C059800F03AFB01466D1ACE
:104B40000598FFF77FFC05990844059005A800F03B
:104B500065FB08B9002DECD109F00C00042804D045
:104B6000082802D00C2812D105E0BDF9060007FB89
:104B70001604641C0BE0BDF90600BDF90210401AD2
:104B800007FB1600401C00EBD07001EB60045D4693
:104B9000DFF838B14E4FCDF8148079E029460598FA
:104BA00000F006FB2D1A01460490059800F0D6FA95
:104BB00019F003010ED0012965D002290DD1BDF9EC
:104BC0000420BDF90010521A121A02EBD27201EB46
:104BD000620101E0BDF900108A463A68401E504467
:104BE000A2F822A09484ADF80C00A019401EADF8E4
:104BF0000E00DDE90410ADF808A0ADF80A4002AAE5
:104C0000FFF71CFF9BF8000070B3386890F82A008B
:104C1000800729D4059941450CD1BDF90A30BDF969
:104C200002108B4206DDBDF90420BDF900005B1EB9
:104C3000FDF77CFDBDF90820BDF90000824206DDCC
:104C4000BDF90E30BDF90A10521EFDF76FFDBDF91A
:104C50000C00BDF90420904206DABDF90E30BDF912
:104C60000A10401CFDF762FDDDE90410FFF7EAFBC6
:104C7000059908440590FEF7A1F9044405A800F041
:104C8000CDFA28B106E0BDF90410091A491CA3E7C2
:104C9000002D83D19BF80000002814D0386890F8CC
:104CA0002A0080070FD4059941450CD0BDF90E109C
:104CB000BDF90630994206DABDF90420BDF90000BD
:104CC000491CFDF733FD09B0BDE8F08FB4010120A8
:104CD000500101202DE9FF4F8DB00020DDF86C90D0
:104CE000164600901D4604460246C9F8000008AB6F
:104CF00003A902A800F0E4F918B1002011B0BDE842
:104D0000F08F0898854200DD0546604F0B9560499D
:104D10003868407C51F82010049109690691FEF72B
:104D2000E9F805903868407CFEF7A4F959498346B4
:104D3000884201D0012000E000200A9001CE1A999B
:104D400088478246000E079077D0009870BB0D9878
:104D500000EB04084D480068B0F90800404503DD49
:104D6000A0EB0807804600E000270299049801EBB9
:104D7000840101EB8701CDE900100B990D984218D1
:104D800009920E9B40461946521EFFF73BF8012040
:104D90000090059818280ADA0298DDE9052300EB4F
:104DA000840000EB8700E91B00F0E8F812E00A98A5
:104DB00080B1029800EB840000EB87070998A0EB14
:104DC000080859463868884701C7A8F101005FEA1A
:104DD0000008F6D1304BD86980B3DDE9020700EB5B
:104DE000840007EB8402CDE902022B4C361F2B46D0
:104DF000E46930460299A047FF203168B0EB116F9B
:104E000002D10299096804E0029A1268B0EB126FAD
:104E100001D1039A1160029906F10406091D02915D
:104E20000399091D03916D1EE7D10397D9F800007E
:104E300040F00100C9F8000021E022E0FFE70798F8
:104E4000FF2812D0C0F1FF0202981B6850F824100E
:104E50002AF07F409847039941F82400D9F80000D0
:104E600040F00101C9F8001005E00298039950F8DC
:104E7000240041F82400641C6D1E7FF45FAF03988A
:104E80003CE7039941F824A0E8E700005001012025
:104E900084010120FD870008080101202DE9F04F61
:104EA00085B09B46DDE90F8792460C460546DDF846
:104EB0003890FEF70DFB15480068C16C4E190D19AE
:104EC000016DABF1010001EB0A04ADF81050204474
:104ED000ADF80C60ADF81200ADF80E4003A806F076
:104EE000BDF80BE0CDF80090CDE901875B46224686
:104EF0002946304609F0A0FE06F064F80028F1D1FA
:104F0000FFF7B2FB05B0BDE8F08F000050010120B3
:104F10002DE9FF4F87B00C46DDE91698DDE914BA9C
:104F20000546FEF7D5FA1448099A0168C86C096D60
:104F3000471985180E190A98ADF810700C18ADF8BD
:104F40001450ADF81260ADF8164004A806F086F8CB
:104F50000BE0CDE90298CDE900BA23462A46314656
:104F6000384609F0EDFE06F02DF80028F1D1FFF7E4
:104F70007BFB0BB0BDE8F08F500101202DE9F05F05
:104F80000C1E16DD5E68014600EB8405082A12DC63
:104F9000611E012A26D0022A47D0042A6AD0082A94
:104FA00007D1071917F8010DB04745F8040D641E25
:104FB000F8D1BDE8F09F102AFBDC5F693FB12246C3
:104FC000BC46BDE8F04F02235DF804EB604701EBFF
:104FD000440700BF37F8020DB04745F8040D641EC2
:104FE000F8D1E6E700EBE10001F0070710F801A9AE
:104FF0008146802020FA07F8B5F104050AEA080086
:10500000C7F10701C840B04745F804093FB14FEA6E
:1050100048604FEA10687F1E641EEFD1C9E719F897
:1050200001A907274FF00108F6E700EBA10001F006
:10503000030710F801A981467900C02020FA01F881
:105040004FF0060BB5F104050AEA0800ABEB470187
:10505000C840B04745F804093FB14FEA88604FEABD
:1050600010687F1E641EEFD1A3E7032719F801A97A
:10507000B846F7E700EB6100012710F801A9A74344
:105080008146B900F02020FA01F84FF0040B2D1FE3
:105090000AEA0800ABEB8701C840B04745F80409AD
:1050A0003FB14FEA08704FEA10687F1E641EEFD1CF
:1050B0007FE719F801A901274FF00F08F6E7000074
:1050C0002DE9F047224C06461F46A06990468946C6
:1050D000002540B90120A06104F128011D480860A5
:1050E000084600F0D1F9606930B91B48006860617A
:1050F00010B903F0E3FA606107B138604EB1A068FF
:1051000030B960698000FDF7D9F9A06000B90125C8
:105110003060B9F1000F0AD0E06830B960698000F2
:10512000FDF7CCF9E06000B90125C9F80000B8F13D
:10513000000F0AD0206930B960698000FDF7BEF920
:10514000206100B90125C8F800002846BDE8F087B5
:1051500008010120391B0108A001012073B5124A82
:1051600001A900981268904700240090C8B10F4927
:1051700000250968C969496959B10A684AB10199A4
:1051800090477CBD6846FFF747F90546FDF7C8FE26
:1051900004440198401E0190F4D5284600F032F8EE
:1051A000044420467CBD000034030120500101204E
:1051B00073B50D460098002490B10A490968C96981
:1051C000496959B14A684AB1294690477CBD684649
:1051D000FFF722F920B10A2802D0641CAC42F6DBAA
:1051E00020467CBD50010120044AB2F90020026033
:1051F0000348B0F90000086070470000B0010120CA
:10520000B201012038B5002469460094FDF79AFEEA
:105210000099814200DD0C1A204638BD38B504469D
:10522000006800906846FFF7F7F810B10A2802D02E
:1052300003E0012038BD00982060002038BDB0F99F
:105240000030B1F90020934200DA0280B0F9023058
:10525000B1F90220934200DA4280B0F90430B1F98A
:105260000420934200DD8280B0F90620B1F90610D7
:105270008A4200DDC180704770B5B1F90040B2F9D3
:1052800000309C4200DD23460380B1F90250B2F9A0
:105290000240A54200DD2C464480B1F90460B2F919
:1052A0000450AE4200DA35468580B1F90610B2F9F5
:1052B0000620914200DB1146C1809D4201DBA142E4
:1052C00001DA002070BD012070BD000001460248D7
:1052D0000068407C00F002B8500101202DE9F8433D
:1052E00001268946044602285DDA304F7A6802B109
:1052F00090472E4D5FEA090005F1100532D00128D4
:1053000003D0B9F1020F4ED118E055F8240088B946
:105310002046FDF747FB009018B3C0680D21426A94
:105320006846904702003ED049460098904755F89D
:1053300024000026401C45F8240034E02046FDF7F8
:1053400031FB009068B1C0680D21426A6846904701
:10535000040028D0386800B1804749460098A0472B
:10536000002620E055F82400A846012812D1204646
:10537000FDF718FB009068B1C0680D21426A6846CD
:105380009047050006D0386800B18047494600982C
:10539000A847002658F8241009B1012200E0002295
:1053A000891A48F824103046BDE8F8831403012018
:1053B00030B581F07F43FF2480F07F4094EA116193
:1053C00001D120F07F43010E11FB02F1B1FBF4F19A
:1053D00000F0FF15C1F1FF0203F0FF14544301FB7D
:1053E00005444FF0FF15240A05EA1323C0F30720F4
:1053F000534340F0807001FB003104F0FF1001F0D6
:10540000FF21084380F07F4030BD00002DE9F05FB0
:105410000646DDF8389015460C4600200D9980466A
:1054200088421ED2DFF840B00C9F4FF0FF0A02CE38
:1054300008CCAAEB116202FB09F2B2FBFAF0C2B28D
:1054400021F07F401946DBF80030984720F07F407C
:1054500001C57F1EEBD10A9804EB800408F101001E
:10546000DCE7BDE8F09F0000080101200B88134431
:1054700003808B889B1A83804B8813444380C988A0
:10548000891AC180704700000249CA6A4260C86236
:10549000704700003C0101202DE9F84307680646EB
:1054A00088460025384600F079F848B3404600F0B9
:1054B00085F8441C3846FDF779F884420DD1FCB1DB
:1054C0003846FDF781F8104B009022461B68414694
:1054D00098476846FDF7A0F811E02046FCF77CFFEE
:1054E00004000DD0FDF770F841460090FBF78AF8F4
:1054F0006846FDF791F83046FCF7C4FF346001259B
:105500002846BDE8F88300003003012030B503468B
:10551000CCB202E003F8014B521E0AB19907F9D14F
:10552000910818D004EB044502F0030205EB0525B1
:1055300006E020C3091F20C343F8085B43F8045C5E
:105540000429F6DA01E020C3491E0029FBD102E05C
:1055500003F8014B521E002AFAD130BD024600204A
:105560004FF080414318934201D8D21A581840088E
:105570008908F7D17047000000B907A021B906A13A
:1055800002E03AB1401C491C02780B789A42F8D0EC
:1055900001207047002070470000000038B50D461C
:1055A000012448B1FDF710F829460090FFF7E4FF09
:1055B00004466846FDF730F8204638BD4FF0FF310D
:1055C00028B100BF10F8012B491C002AFAD1084667
:1055D000704770B504460CB9012070BD94F83500D1
:1055E000022800D1F9E72068006820F00100216856
:1055F0000860002021680860216848602168886090
:105600002168C8602168086121202168486120461E
:10561000FBF7DCFE054694F85C103F208840A8604C
:105620000020606584F8350000BF84F8340000BFB6
:1056300000BFD2E72DE9F0410446002500F092F9C1
:10564000074614B90120BDE8F081606A00B100BFCF
:1056500000BF002084F8340000BF022084F8350029
:105660002068006820F00100216808600AE000F06E
:1056700079F9C01B052805D920206065032084F82E
:105680003500E0E72068006800F001000028EED156
:105690002068056820480540D4E901010843E16815
:1056A00008432169084361690843A1690843E16926
:1056B0000843216A08430543606A042803D1D4E9FA
:1056C0000B0108430543206805602068456925F003
:1056D0000705606A0543606A04280BD1A06A054388
:1056E0002046FBF78DFE28B140206065012084F83C
:1056F0003500A8E7206845612046FBF767FE0646AF
:1057000094F85C103F208840B06000206065012064
:1057100084F83500002096E73F8010F031B5002472
:1057200000F020F9044600BF00F01CF9001B0099AE
:105730008842F9D338BD0000F8B502460B46002177
:1057400000250024002000BFE4E0012606FA01F550
:105750001E6806EA0504AC4271D15E68022E02D0D2
:105760005E68122E13D1CF0802F1200656F82700EA
:105770004E07F70E0F26BE40B0434F07FF0E1E69BF
:10578000BE403043CF0802F1200646F827001068DB
:105790004F000326BE40B0431E7906F003064F00BB
:1057A000BE40304310605E68012E08D05E68022E55
:1057B00005D05E68112E02D05E68122E13D190685B
:1057C0004F000326BE40B0434F00DE68BE4030436A
:1057D0009060506801268E40B0431E79C6F30016D3
:1057E0008E4030435060D0684F000326BE40B04327
:1057F0004F009E68BE403043D0605E6806F0805621
:10580000B6F1805FA8D100BF444E366846F48046AA
:10581000424F3E603E46366806F48046009600BF22
:1058200000BF3F4E8F0856F827008E07370F0F2610
:10583000BE40B0433B4EB24202D100262EE068E0AB
:10584000394EB24201D1012628E0384EB24201D190
:10585000022623E0364EB24201D103261EE0354E29
:10586000B24201D1042619E0334EB24201D10526DD
:1058700014E0324EB24201D106260FE0304EB24261
:1058800001D107260AE02F4EB24201D1082605E0D9
:105890002D4EB24201D1092600E00A268F073F0FA4
:1058A000BE4030431E4E8F0846F82700274E306812
:1058B000A0435E6806F48036B6F5803F00D12043F1
:1058C000224E3060361D3068A0435E6806F4003614
:1058D000B6F5003F00D120431C4E361D3060361D0A
:1058E0003068A0435E6806F48016B6F5801F00D1CC
:1058F0002043164E08363060361D3068A0435E687F
:1059000006F40016B6F5001F00D120430F4E0C36EA
:105910003060491C1029FFF418AFF8BD443802402C
:105920000838014000000240000402400008024024
:10593000000C024000100240001402400018024017
:10594000001C02400020024000240240003C0140B4
:1059500042694A40426170470AB1816101E00B042B
:10596000836170470148006870470000EC00012027
:1059700010B504460CB9012010BD242084F8410064
:105980002068006820F0010021680860204600F0CF
:105990002DFA0020606484F84100206384F84200FE
:1059A00000BF84F8400000BF00BFE5E7014691F862
:1059B0004100704710B504460CB9012010BD94F8A1
:1059C000410028B9002084F84000204600F00FFA7A
:1059D000242084F841002068006820F0010021683C
:1059E0000860606820F07060216808612068806845
:1059F00020F4004021688860E068012805D1A06893
:105A000040F400402168886004E0A06840F404404D
:105A100021688860E068022802D18002216848601D
:105A20002068406813490843216848602068C068BE
:105A300020F400402168C860D4E904010843A1694A
:105A400040EA01202168C860D4E9070108432168C1
:105A500008602068006840F00100216808600020AC
:105A60006064202084F841000020206384F8420014
:105A700000BFA3E7008000022DE9FC5F04468946D1
:105A800092469B46DDE90C780E9E002594F8410075
:105A900020287DD117B1B8F1000F02D10120BDE857
:105AA000FC9F00BF94F84000012801D10220F6E7D6
:105AB000012084F8400000BFFFF754FF054619237A
:105AC0000122D1032046009502F010F808B103200E
:105AD000E5E7222084F84100402084F842000020BD
