:020000040800F2
:10000000E8040020DD0100082B1C00086D18000822
:10001000291C0008C5020008392100080000000062
:10002000000000000000000000000000531C000859
:10003000C7020008000000004F1C0008551C000803
:10004000F7010008F7010008F7010008F7010008B0
:10005000F7010008511C0008F7010008F70100082B
:10006000F7010008F7010008F7010008F701000890
:10007000F7010008F7010008F7010008F701000880
:10008000F7010008F7010008F7010008F701000870
:10009000F7010008F7010008F7010008F701000860
:1000A000F7010008F7010008F7010008F701000850
:1000B000F7010008F7010008F7010008F701000840
:1000C000F7010008F7010008F7010008F701000830
:1000D000F7010008F7010008F7010008F701000820
:1000E000F7010008F7010008F7010008F701000810
:1000F000F7010008F7010008F7010008F701000800
:10010000F7010008F7010008F7010008F7010008EF
:10011000F7010008F7010008F7010008F7010008DF
:10012000F7010008F7010008F7010008F7010008CF
:10013000F7010008F7010008F7010008F7010008BF
:10014000F7010008F7010008F7010008F7010008AF
:10015000F7010008F7010008F7010008F70100089F
:10016000F7010008F7010008F7010008F70100088F
:10017000F7010008F7010008F7010008000000007F
:10018000F7010008F7010008F7010008F70100086F
:10019000F7010008F7010008F7010008F70100085F
:1001A000F7010008F7010008F7010008F70100084F
:1001B000F7010008F7010008F7010008F70100083F
:1001C000F7010008F7010008DFF80CD000F068F82C
:1001D0000048004759210008E804002006488047ED
:1001E00006480047FEE7FEE7FEE7FEE7FEE7FEE71C
:1001F000FEE7FEE7FEE7FEE7211D0008C901000853
:100200002DE9F05F0546002092469B46884606464B
:10021000814640241BE0284641464746224600F0DE
:100220002FF853465A46C01A914110D3114618462A
:10023000224600F016F82D1A67EB01084F462246B9
:100240000120002100F00DF817EB00094E41201E9F
:10025000A4F10104DFDC484631462A464346BDE8A6
:10026000F09F202A04DB203A00FA02F100207047B8
:100270009140C2F1200320FA03F3194390407047E4
:10028000202A04DB203A21FA02F00021704721FAEB
:1002900002F3D040C2F12002914008431946704752
:1002A000064C074D06E0E06840F0010394E80700C3
:1002B00098471034AC42F6D3FFF78AFFEC220008CF
:1002C0000C230008FEE770472DE9F84FDFF89CE1AA
:1002D00000224FF001084FF0030B4FF00F0A00BF50
:1002E0000B6808FA02F42340A34271D14D68022D35
:1002F00001D0122D0FD1D5080E69570700EB8505E7
:10030000A9462D6AFF0E0AFA07FCBE4025EA0C0535
:100310002E43C9F820600F79550006680BFA05FCDA
:1003200007F0030726EA0C06AF40374307604E6824
:10033000012E05D0022E03D0112E01D0122E0ED187
:100340008668CF6826EA0C06AF4037438760466868
:100350000F79A643C7F30017974037434760C46837
:100360008E6824EA0C04AE402643C6604C68E40064
:1003700075D53F4C256845F480452560246822F0FA
:100380000306950704F4804400943A4C2D0F26444C
:10039000D6F80848DFF8E0C00AFA05F7604524EA15
:1003A000070401D100272EE0344FB84201D10127C4
:1003B00029E0334FB84201D1022724E0314FB8423F
:1003C00001D103271FE0304FB84202D104271AE0C1
:1003D00045E02E4FB84201D1052714E02C4FB8421A
:1003E00001D106270FE02B4FB84201D107270AE0C1
:1003F000294FB84201D1082705E0284FB84201D162
:10040000092700E00A27AF4027437546C6F8087859
:100410004E68DEF80040F60324EA030400D51C43CE
:10042000124E2C60361D4D683468AD0324EA030477
:1004300000D51C430D4F346008374D683C68ED0211
:1004400024EA030400D51C43084D3C600C354E687B
:100450002C68B60224EA030400D51C432C60521C0D
:10046000102AFFF43DAFBDE8F88F0000003C0140CA
:1004700044380240003001400000024000040240C5
:1004800000080240000C024000100240001402402C
:1004900000180240001C02400020024000240240DC
:1004A00042694A40426170470AB18161704709045C
:1004B000FBE7000001488068704700001C00002036
:1004C00030B590F84120202A24D190F84020012A0C
:1004D00020D0012380F84030242280F841202023BE
:1004E00000240268156825F001051560026815688A
:1004F00025F480551560026815680D431560016884
:100500000A6842F001020A6080F8413080F84040F9
:10051000002030BD022030BD30B590F84120202AA7
:1005200022D190F84020012A1ED0012380F84030CB
:10053000242280F84120202400250268136823F03B
:10054000010313600268136823F4706343EA012116
:10055000116001680A6842F001020A6080F84140B7
:1005600080F84050002030BD022030BD70B504003E
:1005700004D094F84100002510B106E0012070BDC0
:10058000204684F8405000F0C3FA242084F841004B
:100590002068016821F001010160D4E9001020F019
:1005A000706008612068816821F400418160E06822
:1005B00021680128A06806D040F404408860E06803
:1005C000022803D006E040F40040F7E721684FF42A
:1005D0000060486020212068114A4368134343604B
:1005E0002068C26822F40042C26054F8106B0DCC3F
:1005F000104340EA0320F06054F81C3CD4E90002A8
:100600001043186054F81C0D026842F001020260A9
:10061000656484F84110256384F84250002070BD61
:10062000008000022DE9FC470027044699469246C7
:100630000197884690F8410020287CD12068806985
:10064000C043000477D594F84000012873D00121FD
:1006500084F84010242084F8410020256764E06875
:10066000012809D028F4544040F420502168486003
:10067000FFF720FF064615E0304A314948EA0200FC
:100680000840F3E7B9F1FF3F0CD0B9F1000F04D0F7
:10069000FFF710FF811B494504D984F8415084F8C5
:1006A00040703FE020688169C943890607D58069A9
:1006B000C043C00603D594F84100A028E2D12068C9
:1006C00080694B464FF000024FF02001C043009676
:1006D000C00620460BD501F067F918BB2068C5613C
:1006E00084F84150002084F84070BDE8FC8701F098
:1006F0005BF9B8B921681020C8612068C56101980C
:10070000504500F10100019011D12068416841F489
:100710008041416000224B4620212046009601F096
:1007200043F910B10320E0E705E02068C5610199B5
:10073000514594D3B1E70220D7E700000020000222
:10074000FF2300022DE9F84F044690F841001F46B0
:100750009046DDF828A08B4620287DD194F84000F3
:10076000012879D0012084F84000FFF7A3FE012280
:10077000064619230090D103204601F015F938BB35
:100780000025222184F84110102084F8420065647D
:100790006785618DFF2735484FF00079C4F82480C4
:1007A000FF294FF08078656303D927853A4600908A
:1007B00032E0618D2185009033E05946204601F0FA
:1007C000DDF832E001F01AF918B1606C042848D065
:1007D00019E02168606A496A421C62620170208DDA
:1007E000401E0004000C2085618DA1F1010161858E
:1007F0001BD1608DC8B1002253468021204600964F
:1008000001F0D2F810B10320BDE8F88F608DFF2809
:1008100004D927853A4600954346CEE7608D20856A
:1008200000954B4694F82820C7E7608D3246514624
:1008300000282046C6D101F027F90028C5D120683C
:1008400020210B4AC161206843681340436084F84B
:10085000411084F8425000E005E0002084F8405048
:10086000D2E70120D0E70220CEE70000002400807C
:1008700000E800FE2DE9F84F044690F841001F46BD
:100880009046DDF828A08B4620287CD194F84000C3
:1008900001287FD0012084F84000FFF70BFE0122E1
:1008A000064619230090D103204601F07DF838BB9D
:1008B0000025212184F84110102084F8420065644D
:1008C0006785618DFF2734484FF00079C4F8248094
:1008D000FF294FF08078656303D927853A46009059
:1008E00031E0618D2185009032E05946204601F0CB
:1008F00045F831E001F0F0F818B1606C042847D0F9
:1009000018E0606A411C6162017820688162608D34
:10091000401E6085208D401E0004000C20851BD1E8
:10092000608DC8B10022534680212046009601F018
:100930003BF810B10320BDE8F88F608DFF2804D983
:1009400027853A4600954346CFE7608D2085009580
:100950004B4694F82820C8E7608D3246514600285F
:100960002046C7D101F090F80028C6D12068202188
:100970000A4AC161206843681340436084F841100B
:1009800084F8425000E005E0002084F84050D2E7AF
:100990000120D0E70220CEE70020008000E800FE22
:1009A0002DE9FF4F83B0044690F841009A469346E4
:1009B000DDE91087DDF84890202874D15FEA08004F
:1009C00072D0002F70D094F8400001286BD0012025
:1009D00084F84000FFF76EFD0122064619230090BF
:1009E000D103204600F0E0FF002874D10025C4F8B0
:1009F0002480222184F84110402084F8420065645C
:100A00006785534665635A4604992046CDE90096AA
:100A100000F07CFF28B1606C84F8405004285ED060
:100A200059E0618DFF2738484FF08078FF294FF05B
:100A3000007A04D927853A464346009005E0618D47
:100A400053462185009094F828202046049900F010
:100A500095FF00224B4604212046009600F0A4FF9B
:100A6000C8BB2168606A496A421C62620170208DBD
:100A7000401E0004000C2085618DA1F101016185FB
:100A80001DD1608DD8B100224B46802120460096B2
:100A900000F08AFFF8B9608DFF2806D927853A460D
:100AA0004346009507E02CE019E0608D5346208511
:100AB000009594F828202046049900F05FFF608D8F
:100AC0000028C6D132464946204600F0DDFF40B13D
:100AD000606C042803D0032007B0BDE8F08F01202C
:100AE000FAE720682021094AC16120684368134061
:100AF000436084F8411084F84250002084F840504C
:100B0000EAE70220E8E700000024008000E800FE99
:100B100010B5006886B00D49884214D11221012217
:100B2000032304244FF440708DE81F0008486946F1
:100B3000FFF7CAFB0748016841F400110160006833
:100B400000F40010059006B010BD000000540040F5
:100B50000004024040380240024881680278114493
:100B6000816070471C000020094810B5016841F4FD
:100B700000710160016841F480710160032000F0A0
:100B80009FF8002000F006F800F024F8002010BDC7
:100B9000003C024070B50D4D04464FF47A700C4A8B
:100BA00029781268B0FBF1F0B2FBF0F000F0E5FD3F
:100BB00048B9102C07D200222146501E00F060F8E0
:100BC00000206C6070BD012070BD00001C00002082
:100BD00028000020234808B5016841F080510160D9
:100BE000006800F0805000901E48001D016841F42C
:100BF00080410160006800F480400090032000F014
:100C00005FF800226FF00B00114600F039F8002267
:100C10006FF00A00114600F033F800226FF009006F
:100C2000114600F02DF80022501F114600F028F860
:100C30000022101F114600F023F80022901E1146DA
:100C400000F01EF80022501E114600F019F8002294
:100C50000520114600F014F8BDE80840052000F01A
:100C600003B8000040380240410900F01F0289002B
:100C7000012001F1E0219040C1F80001704700001F
:100C80000E4BF0B41B680D46C3F30223C3F10706F5
:100C9000042E00D90426191D072901D2002300E0E3
:100CA000DB1E012404FA06F19C40491E2940641E03
:100CB000994014402143F0BC00F0B8BF0CED00E0B7
:100CC000064900F0070210B54FF6FF040868044B10
:100CD000204040EA02201843086010BD0CED00E0FF
:100CE0000000FA051848F8B5016841F0805101602C
:100CF0000068164C00F080500090206840F480306E
:100D00002060FFF7D7FB4FF47A76054605E000BF79
:100D1000FFF7D0FB401BB0420FD86068C003F7D587
:100D2000206840F400302060FFF7C4FB054606E071
:100D3000FFF7C0FB401BB04201D90320F8BD60683B
:100D40008003F5D50020F8BD403802400070004017
:100D50002DE9F84F04460078DFF824944FF00006A0
:100D60003746C0070ED0D9F8001021F40001C9F8A9
:100D70000010D9F80010626B1143C9F80010606BC5
:100D800000B90126FE4D2068843500030ED5E16BC5
:100D9000286820F4401008432860E06BB0F5801FFD
:100DA00001D010B102E0012600E0012720684FF4D5
:100DB000800BC0020CD5216C286820F44000084349
:100DC0002860206C584501D1012601E000B90127B7
:100DD0002068C10100D50126800666D5E848383074
:100DE000016841F0805101600068DFF898A300F0CD
:100DF00080500090DAF8001041F48071CAF80010B9
:100E0000FFF758FB804605E0FFF754FBA0EB080016
:100E100064287DD8DAF80000C005F5D5DFF86083D6
:100E200008F16808D8F8000010F440702AD0218E2C
:100E300001F44071814225D0D8F80010D8F8002084
:100E400021F4407142F48032C8F80020D8F8002024
:100E500022F48032C8F80020C8F80010D8F800004A
:100E6000C0070FD0FFF726FB824607E0FFF722FB03
:100E7000A0EB0A0141F288308142CAD8D8F80000BC
:100E80008007F3D5206BC0F3012103297ED0D9F868
:100E9000001021F4F811C9F80010228ED8F80010C3
:100EA000C2F30B021143C8F800102078C00607D522
:100EB000286820F0807028602868A16B08432860AB
:100EC0002188AF488830490405D5626E016821F455
:100ED0004031114301602188090405D5A26E0168E3
:100EE00021F44021114301602168C90305D5E26E58
:100EF000016821F44011114301602168890305D57F
:100F0000226F016821F4400111430160217800E063
:100F100018E1490605D5626C016821F0030111430F
:100F200001602178090605D5A26C016821F00C0149
:100F3000114301602188C90505D5E26C016821F0E3
:100F40003001114301602188890505D5226D0168B2
:100F500021F0C001114301602188490505D5626D6A
:100F6000016821F44071114301602188090505D50C
:100F7000A26D016821F44061114301602188C90418
:100F800007D5E26D016821F4405100E041E01143D2
:100F900001602188890405D5226E016821F4404151
:100FA000114301602168490205D5A26F016821F053
:100FB00080611143016021684FF0006A890209D500
:100FC000E26F016821F0006111430160E16F51455A
:100FD00000D1012721680A0700D50127490305D55B
:100FE000626F016821F040711143016021680902BC
:100FF00006D5D4F88020016821F0805111430160AA
:10100000DFF88491012E0ED02068B0F1007F0AD065
:101010008FE05E4AD9F80030104023F4F812024302
:10102000C9F8002039E7D9F800004E4620F080606A
:10103000C9F80000FFF73EFA804605E0FFF73AFAEC
:10104000A0EB080064287DD830680001F6D4217830
:101050004B487C30C90712D0616B81B9237A626832
:101060000168D0F800C09201C1F3014142EA014297
:10107000CCF3036142EA016141EA03710160216836
:101080000A0303D5E26BB2F5801F04D0C9021AD55A
:10109000216C594517D16368016894F80CC0026847
:1010A0009B01C1F3014143EA0141C2F3027241EAEB
:1010B0000C6141EA027101602968626A21F01F0136
:1010C000521E114329602168C90110D5238A626824
:1010D0000168D0F800C09201C1F3036142EA034203
:1010E00042EA0162CCF3027142EA017101602168B7
:1010F00089010CD56168228A237B94F808C0890194
:1011000041EA024141EA036141EA0C710160316840
:10111000B04641F080613160FFF7CCF9064604E04B
:10112000FFF7C8F9801B64280CD8D8F8000000012C
:10113000F6D56FB3D9F800004E4620F08050C9F8BC
:10114000000000E079E0FFF7B5F9074605E000BFD1
:10115000FFF7B0F9C01B64286FD83068C043800027
:10116000F6D50748216880300A0301D5E26B1AB131
:10117000C90225D5216C19BB63690168277E08E087
:10118000083802400070004000380240FFFCFF0FAA
:101190005AE00268C1F301419B0143EA0143C2F3F3
:1011A000027143EA076242EA0171016029686FF047
:1011B000FF03A26A21F4F85103EB022211432960D4
:1011C0002168890212D5E16F51450FD1238C6269E4
:1011D000016807689201C1F3036142EA034242EAEF
:1011E0000162C7F3027142EA0171016021780907C7
:1011F00016D561690268D0F800C08B01277FC2F361
:101200000362CCF3014143EA014141EA026141EA50
:10121000077101602868E16A20F4403008432860C3
:10122000306840F080503060FFF744F9044607E032
:10123000FFF740F9001B642802D90320BDE8F88FAE
:101240003068C0438000F3D40020F7E72DE9F04771
:1012500005000F4663D0444E306800F00F00B842DE
:1012600009D2306820F00F0038433060306800F059
:101270000F00B84253D128683C4C810712D5400773
:1012800003D5206840F4E05020602878000703D59B
:10129000206840F460402060A968206820F0F000D9
:1012A000084320602878C0072AD030496868083988
:1012B000012810D00968022810D0890700292EDAE9
:1012C000216821F0030101432160FFF7F3F8804614
:1012D00041F288390DE009688903EFE78901EDE7FC
:1012E000FFF7E8F8A0EB0801494502D90320BDE863
:1012F000F0876868216801F00C01B1EB800FEFD135
:10130000306800F00F00B8420BD9306820F00F00B1
:1013100038433060306800F00F00B84201D001203F
:10132000E5E72878400705D5E968206820F4E05013
:10133000084320602878000706D52869216821F431
:10134000604141EAC000206000F03CF82168084A92
:10135000C1F30311515CC840064908600020FFF743
:1013600019FC0020C3E70000003C0240083802409E
:10137000D4220008280000200148006870470000BF
:10138000280000200449054809680068044AC1F3A0
:101390008221515CC8407047083802402800002074
:1013A000E42200080449054809680068044AC1F3BA
:1013B0004231515CC8407047083802402800002084
:1013C000E4220008154910B51548096811F00C020F
:1013D00013D01449042A0FD0082A0ED10F4C241F11
:1013E0002268236802F03F025B0207D52068C0F341
:1013F0008810A0FB010106E0084610BD2168C1F37A
:101400008811A1FB00010023FEF7FAFE2168C1F359
:101410000141491C4900B0FBF1F010BD0838024001
:101420000024F40040787D012DE9F84F05004FF0CD
:1014300000076ED02878DFF81C93A9F1040AC007D2
:10144000AAF104044CD0D9F800104846C1F3810138
:10145000012908D00068C0F3810002280AD1DAF817
:101460000000400206D52068800339D5686800284E
:10147000DFD035E06868B0F5803F0BD010B1B0F533
:10148000A02F11D0206820F480302060206820F444
:10149000802002E0206840F480302060686890B1CD
:1014A000FFF708F806460AE0206840F48020206034
:1014B000F0E700BFFEF7FEFF801B642872D82068AB
:1014C0008003F7D50CE0FEF7F5FF064605E000BF08
:1014D000FEF7F0FF801B6428F0D820688003F7D463
:1014E0002878800742D5D9F80010484611F00C0F33
:1014F00008D00068C0F3810002280BD1DAF80000A0
:10150000400207D42068800718D5E868012800D178
:1015100014E01CE1E8680028206817D040F00100C2
:101520002060FEF7C7FF064605E000BFFEF7C2FFDA
:10153000801B0228C2D820688007F7D52869216857
:1015400021F0F80141EAC00020600FE020F0010026
:101550002060FEF7AFFF064605E000BFFEF7AAFFDA
:10156000801B02281ED820688007F7D4287800073F
:1015700029D5784869696C3000298046016812D005
:1015800041F001010160FEF795FF064605E000BF4E
:10159000FEF790FF801B022804D8D8F800008007CF
:1015A000F6D510E089E021F001010160FEF782FF2D
:1015B000064604E0FEF77EFF801B02287DD8D8F89F
:1015C00000008007F6D4287840076BD5DFF88481C7
:1015D00008F13808D8F80000C0000BD4D8F8001083
:1015E00041F08051C8F80010D8F80000012700F041
:1015F0008050009058480168C90512D4016883469C
:1016000041F480710160FEF755FF064605E000BF1A
:10161000FEF750FF801B64284FD8DBF80000C005A0
:10162000F6D54C4EA868683601280AD008B10528BE
:1016300011D0306820F001003060306820F00400E4
:1016400002E0306840F001003060A868A0B1FEF709
:1016500031FF83460CE0306840F004003060F0E772
:10166000FEF728FFA0EB0B0141F28830814266D8DB
:1016700030688007F4D50EE0FEF71CFF834607E0D4
:10168000FEF718FFA0EB0B0141F28830814256D8DB
:1016900030688007F4D42FB1D8F8001021F08051C1
:1016A000C8F80010A869C8B3D9F80010C1F38101C7
:1016B00002294CD00228206800E040E020F0807031
:1016C000206003D0FEF7F6FE05463BE0FEF7F2FE93
:1016D000064604E0FEF7EEFE801B02282FD82068A5
:1016E0008001F7D4D5E90962D5E907011B4B5708FA
:1016F00095F82C20084303EB074343EA861108437F
:1017000040EA026040F00050CAF80000206840F053
:1017100080702060FEF7CEFE054606E015E000BFB3
:10172000FEF7C8FE401B022809D820688001F7D5C3
:101730000BE000BFFEF7BEFE401B022802D90320CB
:10174000BDE8F88F20688001F4D40020F8E701207C
:10175000F6E7000008380240007000400000FFFF7C
:1017600004284FF0E020016903D021F00401016159
:10177000704741F00401FAE77047401EB0F1807FE6
:1017800010B501D3012010BD4FF0E02460610F219E
:10179000601700F04BFA0020A0610721216110BD05
:1017A00010B5FFF7E9FF10BD10B5040003D094F8A1
:1017B000690010B107E0012010BD002084F8680026
:1017C000204600F027F8242084F86900206801688A
:1017D00021F001010160204600F050FB0128EBD010
:1017E000606A10B1204600F0C5FA2068416821F413
:1017F000904141602068816821F02A018160206861
:10180000016841F0010101602046BDE8104000F090
:1018100015BB0000F0B5006887B0104988421AD1A6
:101820000F48016841F010010160006802240025A2
:10183000694600F0100005900326072780208DE8F8
:10184000F1000848FEF740FD200269468DE8F100EE
:101850000548FEF739FD07B0F0BD0000001001405B
:10186000443802400004024000000240FEE70168E4
:101870008A69D243920701D400228A620068816992
:10188000C943C90703D0816941F0010181617047F3
:101890002DE9F0410446006890460E468069C04339
:1018A000C0062FD40025202720688069C043800609
:1018B00011D5701CF8D02EB1FEF7FCFDA0EB08008E
:1018C000B042F1D984F8417084F84250032084F882
:1018D0004050BDE8F08121681020C8612068C761D0
:1018E0002046FFF7C4FF20680422074943680B40E5
:1018F0004360626484F8417084F84250012084F8A7
:101900004050E6E70020E4E700E800FE2DE9F84358
:10191000174604461848DAB2DDE908981E460090DA
:101920000023204600F02AF842464946204600F0AF
:10193000D3F818B1606C04281CD018E0012EFDB259
:1019400009D02068390A816242464946204600F0A3
:10195000C3F80028EED120688562002240214B4662
:101960002046CDF8008000F01FF8002800D00320AA
:10197000BDE8F8830120FBE70020008070B5006817
:10198000C1F30901074E41EA0241049C4FF480650E
:101990004268194305EA54553543AA4321430A4393
:1019A000426070BDFF63FF032DE9F0411D461746FD
:1019B0000E460446DDF8188013E0681C11D02DB1E6
:1019C000FEF778FDA0EB0800A8420AD900202021EC
:1019D00084F8411084F8420084F840000320BDE8F8
:1019E000F0812068806936EA000004D00020B84207
:1019F000E3D00020F3E70120F9E700002DE9F041F2
:101A00000025904620260F46044633E042463946DC
:101A10002046FFF73DFF10B10120BDE8F0812068AE
:101A20008069C043800614D420688169C94349078E
:101A300001D4218D19BB1349C661206842680A4050
:101A40004260656484F8416084F8425084F84050F4
:101A5000E2E72FB1FEF72EFDA0EB0800B84209D94E
:101A6000606C84F8405040F02000606484F841606D
:101A70000320D2E720688069C0434007C6D4002015
:101A8000CBE7000000E800FE70B516460D460446A0
:101A90001BE0324629462046FFF7FAFE08B1012036
:101AA00070BD25B1FEF706FD801BA8420DD9626C02
:101AB000002084F84000202142F02002626484F873
:101AC000411084F84200032070BD20688069C04343
:101AD0008006DED4002070BD70B516460D46044663
:101AE0001DE0324629462046FFF7D2FE08B101200C
:101AF00070BD681C13D025B1FEF7DCFC801BA8422A
:101B00000DD9626C002084F84000202142F02002B0
:101B1000626484F8411084F84200032070BD20689C
:101B20008069C0438007DCD4002070BD1A4810B51E
:101B300086B0016841F002010160016801F0020114
:101B40000591016841F001010160016801F00101A6
:101B50000591016841F480710160016801F48071B0
:101B60000591016841F080010160006800220B4C82
:101B7000022100F0800005902046FEF795FC002130
:101B80000220009001222046CDE9012103916946FF
:101B9000FEF79AFB06B010BD30380240002002402C
:101BA0001148002110B50F4C0123104A0460C0E910
:101BB0000121C0E9033141618161C1610162FEF728
:101BC000D5FC00B1FEE708480021FEF779FC00B122
:101BD000FEE705480021FEF79FFC002800D0FEE745
:101BE00010BD0000005400402C0000204434C030E0
:101BF0000C48002110B50A4C0C224FF41653046017
:101C0000C0E90131C160C0E904128161C1610162B2
:101C10004162FFF7C9FD002800D0FEE710BD0000BB
:101C20000010014078000020FEE7704709070028F7
:101C30004FEA116106DA00F00F0000F1E02080F8B1
:101C4000141D704700F1E02080F8001470477047C1
:101C50007047704710B5FEF77FFFBDE81040FFF7F3
:101C60009FBD00002C4870B5B4B0016841F08051B0
:101C70000160006800F0805032902848016841F40B
:101C800040410160006802244FF4D87500F44040E0
:101C9000329001200926820501041923CDE927424B
:101CA000CDE92101CDE92935CDE92B4621A8FFF762
:101CB000BBFB00B1FEE7FFF715F800B1FEE74FF4FC
:101CC00080524FF4A0510025CDE930122DAA0F20EB
:101CD000072182E831002DA8FFF7B8FA00B1FEE72E
:101CE00044F240001995119500906846FFF730F8CE
:101CF00000B1FEE7FFF740FB4FF47A71B0FBF1F063
:101D0000FFF73BFD0420FFF72BFD0022501E11467C
:101D1000FEF7B6FF34B070BD40380240007000409E
:101D2000104A30B51048146800210F4B44F4700479
:101D30001460083305680D4A0D4C45F00105056037
:101D400019600368051D1340074A03600C322C60BC
:101D50000568E305034C25F480250560803C11608F
:101D6000236030BD88ED00E000380240FFFFF6FE42
:101D70001030002490F82410C90706D00168836A47
:101D80004A6822F400321A434A6090F82410890706
:101D900006D50168C36A4A6822F480321A434A6051
:101DA00090F82410490706D50168036B4A6822F4AD
:101DB00080221A434A6090F82410090706D501686A
:101DC000436B4A6822F400421A434A6090F8241098
:101DD000C90606D50168836B8A6822F480521A43CB
:101DE0008A6090F82410890606D50168C36B8A685A
:101DF00022F400521A438A6090F82410490611D543
:101E00000168036C4A6822F480121A434A60016C2C
:101E1000B1F5801F06D10168436C4A6822F4C00204
:101E20001A434A6090F82410090606D50168826CAE
:101E3000486820F4002010434860704738B50025FA
:101E40000446C566FEF736FB0346206800680007B7
:101E50000BD56FF07E400090002220464FF4001119
:101E600000F038F908B1032038BD202084F869005B
:101E700084F8685084F86A00002038BD2DE9F047E6
:101E800004468068874B884F2668D4E90415E269C8
:101E90000843D6F800C010211543002228431546F8
:101EA0000CEA030C814B4CEA000CC6F800C04FF45E
:101EB00000492068D4F80CC0466826F4405646EA2B
:101EC0000C0646602668D4F82080A069D6F808C0C1
:101ED00040EA08002CF4306C4CEA000CC6F808C04C
:101EE0002068B8420AD11B6813F0030352D0012BBB
:101EF0007AD0022B76D0032B79D177E06C4EB042AA
:101F00000AD11B6813F00C036AD0042B6CD0082B89
:101F100068D00C2B6BD169E0664EB0420AD11B68C9
:101F200013F030035CD0102B5ED0202B5AD0302B16
:101F30005DD15BE0604EB0420AD11B6813F0C00374
:101F40004ED0402B50D0802B4CD0C02B4FD14DE0E9
:101F50005A4EB0420DD11B6813F4407340D0B3F514
:101F6000807F41D0B3F5007F3CD0B3F5407F3ED1B8
:101F70003CE0534EB0420FD11B6813F4406309D0CC
:101F8000B3F5806F30D0B3F5006F2BD0B3F5406F51
:101F90002DD12BE001212AE04A4EB0420DD11B6821
:101FA00013F440531CD0B3F5805F1DD0B3F5005F30
:101FB00018D0B3F5405F1AD118E0434EB04216D1A5
:101FC0001B6813F440430BD0B3F5804F0CD04B4546
:101FD00008D0B3F5404F0AD108E005E002E0FFE782
:101FE000002104E0022102E0042100E00821E6696A
:101FF0004E452AD109291FD2DFE801F00508141E39
:10200000171E1E1E1A00FFF7BDF901E0FFF7CAF9FF
:102010000146D4F80400490001EB5001B1FBF0F097
:1020200082B20AE029496068F6E7FFF7CBF9EFE7EB
:1020300060684FF48031EFE70125216822F00F003E
:10204000C2F342021043C86028E0092925D2DFE824
:1020500001F005080B24102424241C00FFF792F93A
:1020600009E0FFF79FF906E06168194A02EB5102A7
:102070000EE0FFF7A7F90146D4E9002001EB50017B
:10208000B1FBF0F080B2D06008E0616809EB51026A
:10209000B2FBF1F189B2C16000E001252846BDE83C
:1020A000F0870000F369FFEF001001409038024014
:1020B0000044004000480040004C004000500040F8
:1020C0000014014000780040007C00400048E80116
:1020D0000024F4002DE9F041984617460E460446C8
:1020E000069D1DE0681C1BD02DB1FEF7E3F9A0EBA7
:1020F0000800A84214D32168202000220B6823F492
:10210000D0730B6021688B6823F001038B6084F827
:10211000690084F86A00032084F86820BDE8F08133
:102120002068C06936EA000004D00020B842D9D047
:102130000020F3E70120F9E7FEE702E008C8121FDC
:1021400008C1002AFAD170477047002001E001C1A0
:10215000121F002AFBD170470EB5BFF34F8FBFF39C
:102160006F8F5848002656490660086840F40030D2
:102170000860BFF34F8FBFF36F8F51487030066018
:10218000BFF34F8F001F4F4C43F6FF7510340068AC
:10219000C0F34E32C0F3C90305EA4217184600BF28
:1021A00047EA807CC4F800C0401EF9D2521EF3D228
:1021B000BFF34F8F086840F480300860BFF34F8F43
:1021C000BFF36F8FFEF7D0FCFFF74CFDFFF7AEFCBF
:1021D000FFF7E6FCFFF70CFD00243B480A232146ED
:1021E0000122FEF71FFA002865D0641CE4B2FF2C20
:1021F000F3D300BF354C4FF01C08082132480223AE
:1022000022464FF47A7784F800806170D0210097DD
:10221000FEF730FB84F800800A252B480123D021EB
:1022200022460095FEF726FB01216670601C8DE8B2
:102230008300254808231C22D121FEF7B1FBA4F11D
:1022400014074FF03B0800BF84F8008001231F4AA9
:10225000D0211D480095FEF70DFB667006231A4835
:10226000621CD1210095FEF76DFAB4F8010040BA66
:10227000404281B23980B4F8030040BA404280B293
:102280007880B4F80520400B00EE900A52BA534211
:102290004A0B99B2B98000EE102A4B0B01EE103AAE
:1022A000B8EE400A07F10800B8EE411AF8EE600AED
:1022B00080EC030AC8E706480221FEF7F1F899E727
:1022C00014ED00E050EF00E02C000020140000208E
:1022D0000020024000000000000000000102030492
:1022E0000607080900000000010203040C2300088F
:1022F000000000202C0000003A21000838230008CC
:102300002C000020BC0400004A210008000000004E
:1023100000000000000000000000000000000000BD
:10232000000000000000000001000000100000009C
:08233000000000000024F4008D
:04000005080001C925
:00000001FF
