:020000040800F2
:1000000048160020DD010008671D0008111C0008CB
:10001000651D000879030008A12B000800000000FE
:10002000000000000000000000000000032600089F
:100030007B030008000000008B1D00080526000857
:10004000F7010008F7010008F7010008F7010008B0
:10005000F70100088D1D0008F7010008F7010008EE
:10006000F7010008F7010008F7010008F701000890
:10007000F7010008F7010008F7010008F701000880
:10008000F7010008F7010008F7010008F701000870
:10009000F7010008F7010008F7010008F701000860
:1000A000F7010008F7010008F7010008F701000850
:1000B000F7010008F7010008F7010008F701000840
:1000C000F7010008F7010008F7010008F701000830
:1000D000F7010008952B0008F7010008F701000858
:1000E000F7010008F7010008F7010008F701000810
:1000F000F7010008F7010008F7010008F701000800
:10010000F7010008F7010008F7010008F7010008EF
:10011000F7010008F7010008F7010008F7010008DF
:10012000F7010008F7010008F7010008F7010008CF
:10013000F7010008F7010008F7010008F7010008BF
:10014000F7010008F7010008F7010008F7010008AF
:10015000F7010008F7010008F7010008F70100089F
:10016000F7010008F7010008F7010008F70100088F
:10017000F7010008F7010008F7010008000000007F
:10018000F7010008F7010008F7010008F70100086F
:10019000F7010008F7010008F7010008F70100085F
:1001A000F7010008F7010008F7010008F70100084F
:1001B000F7010008F7010008F7010008F70100083F
:1001C000F7010008F7010008DFF80CD000F07EF816
:1001D00000480047294C0008481600200648804780
:1001E00006480047FEE7FEE7FEE7FEE7FEE7FEE71C
:1001F000FEE7FEE7FEE7FEE7D5260008C901000896
:100200002DE9F05F0546002092469B46884606464B
:10021000814640241BE0284641464746224600F0DE
:1002200045F853465A46C01A914110D31146184614
:10023000224600F02CF82D1A67EB01084F462246A3
:100240000120002100F023F817EB00094E41201E89
:10025000A4F10104DFDC484631462A464346BDE8A6
:10026000F09F30B50B46014600202022012409E012
:1002700021FA02F59D4205D303FA02F5491B04FA5F
:1002800002F52844151EA2F10102F1DC30BD202A3E
:1002900004DB203A00FA02F1002070479140C2F1DD
:1002A000200320FA03F3194390407047202A04DB0F
:1002B000203A21FA02F00021704721FA02F3D040DF
:1002C000C2F120029140084319467047064C074D81
:1002D00006E0E06840F0010394E807009847103416
:1002E000AC42F6D3FFF774FF1C5700083C570008D8
:1002F0000146014801F087B85C000020044810B5B1
:1003000001F093F8042801D0012010BD002010BD99
:100310005C00002082B001208DF800009DF80000F4
:10032000012802D0022002B07047024802B001F05A
:1003300092B800005C00002038B5002400931346FA
:100340000A460146034801F0FBF800B101242046AB
:1003500038BD00005C00002038B50024009313462F
:100360000A460146034801F0C3F900B101242046C2
:1003700038BD00005C000020FEE77047002200F05E
:1003800001B800000E4B70B505465C7A0120002CC8
:1003900014D15E7A03F108009C555E7A03EB860661
:1003A00075605D7A2A54587A421C5A723A232F2279
:1003B000303008704B7020468A70CC7070BD0000E1
:1003C0003C06002090F83510022903D080214165B9
:1003D00001207047052180F835100068016821F080
:1003E000010101600020704770B5044600F004F977
:1003F0000546601C02D004480078044400F0FCF874
:10040000401BA042FAD370BD400000202DE9F84FF8
:10041000DFF89CE100224FF001084FF0030B4FF092
:100420000F0A00BF0B6808FA02F42340A34271D1FF
:100430004D68022D01D0122D0FD1D5080E69570736
:1004400000EB8505A9462D6AFF0E0AFA07FCBE409F
:1004500025EA0C052E43C9F820600F79550006687F
:100460000BFA05FC07F0030726EA0C06AF403743FA
:1004700007604E68012E05D0022E03D0112E01D048
:10048000122E0ED18668CF6826EA0C06AF4037439D
:10049000876046680F79A643C7F300179740374334
:1004A0004760C4688E6824EA0C04AE402643C660E8
:1004B0004C68E40075D53F4C256845F480452560BF
:1004C000246822F00306950704F4804400943A4C13
:1004D0002D0F2644D6F80848DFF8E0C00AFA05F7E1
:1004E000604524EA070401D100272EE0344FB842CA
:1004F00001D1012729E0334FB84201D1022724E07E
:10050000314FB84201D103271FE0304FB84202D12A
:1005100004271AE045E02E4FB84201D1052714E028
:100520002C4FB84201D106270FE02B4FB84201D122
:1005300007270AE0294FB84201D1082705E0284FD4
:10054000B84201D1092700E00A27AF40274375468A
:10055000C6F808784E68DEF80040F60324EA030483
:1005600000D51C43124E2C60361D4D683468AD0317
:1005700024EA030400D51C430D4F346008374D684E
:100580003C68ED0224EA030400D51C43084D3C609E
:100590000C354E682C68B60224EA030400D51C43CF
:1005A0002C60521C102AFFF43DAFBDE8F88F00000C
:1005B000003C01404438024000300140000002404D
:1005C0000004024000080240000C024000100240FB
:1005D0000014024000180240001C024000200240AB
:1005E0000024024042694A40426170470AB1816179
:1005F00070470904FBE7000001488068704700006D
:1006000040000020024881680278114481607047F0
:1006100040000020094810B5016841F400710160F4
:10062000016841F480710160032000F09FF8002010
:1006300000F006F800F024F8002010BD003C024055
:1006400070B50D4D04464FF47A700C4A2978126843
:10065000B0FBF1F0B2FBF0F001F028F948B9102C32
:1006600007D200222146501E00F060F800206C6086
:1006700070BD012070BD0000400000204C00002033
:10068000234808B5016841F080510160006800F01E
:10069000805000901E48001D016841F480410160B7
:1006A000006800F480400090032000F05FF8002212
:1006B0006FF00B00114600F039F800226FF00A00CD
:1006C000114600F033F800226FF00900114600F0E7
:1006D0002DF80022501F114600F028F80022101FAC
:1006E000114600F023F80022901E114600F01EF87B
:1006F0000022501E114600F019F800220520114674
:1007000000F014F8BDE80840052000F003B8000030
:1007100040380240410900F01F028900012001F128
:10072000E0219040C1F80001704700000E4BF0B48A
:100730001B680D46C3F30223C3F10706042E00D93C
:100740000426191D072901D2002300E0DB1E012425
:1007500004FA06F19C40491E2940641E9940144049
:100760002143F0BC01F000BB0CED00E0064900F0B5
:10077000070210B54FF6FF040868044B204040EA1A
:1007800002201843086010BD0CED00E00000FA05DF
:100790001848F8B5016841F0805101600068164CB6
:1007A00000F080500090206840F480302060FFF717
:1007B00023FF4FF47A76054605E000BFFFF71CFFE4
:1007C000401BB0420FD86068C003F7D5206840F4E2
:1007D00000302060FFF710FF054606E0FFF70CFF32
:1007E000401BB04201D90320F8BD60688003F5D5F5
:1007F0000020F8BD40380240007000402DE9F84F5D
:1008000004460078DFF824944FF000063746C0070E
:100810000ED0D9F8001021F40001C9F80010D9F861
:100820000010626B1143C9F80010606B00B901261B
:10083000FE4D2068843500030ED5E16B286820F456
:10084000401008432860E06BB0F5801F01D010B164
:1008500002E0012600E0012720684FF4800BC0026F
:100860000CD5216C286820F4400008432860206CD7
:10087000584501D1012601E000B901272068C101D6
:1008800000D50126800666D5E8483830016841F079
:10089000805101600068DFF898A300F0805000905C
:1008A000DAF8001041F48071CAF80010FFF7A4FED6
:1008B000804605E0FFF7A0FEA0EB080064287DD885
:1008C000DAF80000C005F5D5DFF8608308F16808A4
:1008D000D8F8000010F440702AD0218E01F4407145
:1008E000814225D0D8F80010D8F8002021F44071BA
:1008F00042F48032C8F80020D8F8002022F4803278
:10090000C8F80020C8F80010D8F80000C0070FD0C1
:10091000FFF772FE824607E0FFF76EFEA0EB0A01CA
:1009200041F288308142CAD8D8F800008007F3D558
:10093000206BC0F3012103297ED0D9F8001021F4E7
:10094000F811C9F80010228ED8F80010C2F30B027B
:100950001143C8F800102078C00607D5286820F099
:10096000807028602868A16B084328602188AF4800
:100970008830490405D5626E016821F44031114385
:1009800001602188090405D5A26E016821F4402187
:10099000114301602168C90305D5E26E016821F4A5
:1009A0004011114301602168890305D5226F016858
:1009B00021F4400111430160217800E018E149066B
:1009C00005D5626C016821F00301114301602178B3
:1009D000090605D5A26C016821F00C0111430160E4
:1009E0002188C90505D5E26C016821F03001114369
:1009F00001602188890505D5226D016821F0C001BB
:100A0000114301602188490505D5626D016821F413
:100A10004071114301602188090505D5A26D016867
:100A200021F44061114301602188C90407D5E26DBA
:100A3000016821F4405100E041E011430160218848
:100A4000890405D5226E016821F4404111430160FB
:100A50002168490205D5A26F016821F08061114328
:100A6000016021684FF0006A890209D5E26F0168D0
:100A700021F0006111430160E16F514500D1012770
:100A800021680A0700D50127490305D5626F01686F
:100A900021F04071114301602168090206D5D4F8A4
:100AA0008020016821F0805111430160DFF88491BA
:100AB000012E0ED02068B0F1007F0AD08FE05E4A90
:100AC000D9F80030104023F4F8120243C9F800208E
:100AD00039E7D9F800004E4620F08060C9F80000E0
:100AE000FFF78AFD804605E0FFF786FDA0EB0800D2
:100AF00064287DD830680001F6D421784B487C30DA
:100B0000C90712D0616B81B9237A62680168D0F895
:100B100000C09201C1F3014142EA0142CCF30361FA
:100B200042EA016141EA0371016021680A0303D5C9
:100B3000E26BB2F5801F04D0C9021AD5216C594569
:100B400017D16368016894F80CC002689B01C1F377
:100B5000014143EA0141C2F3027241EA0C6141EAF8
:100B6000027101602968626A21F01F01521E11435F
:100B700029602168C90110D5238A62680168D0F80C
:100B800000C09201C1F3036142EA034242EA0162FA
:100B9000CCF3027142EA01710160216889010CD530
:100BA0006168228A237B94F808C0890141EA0241E6
:100BB00041EA036141EA0C7101603168B04641F0DD
:100BC00080613160FFF718FD064604E0FFF714FD71
:100BD000801B64280CD8D8F800000001F6D56FB34C
:100BE000D9F800004E4620F08050C9F8000000E01F
:100BF00079E0FFF701FD074605E000BFFFF7FCFCC9
:100C0000C01B64286FD83068C0438000F6D5074801
:100C1000216880300A0301D5E26B1AB1C90225D5DB
:100C2000216C19BB63690168277E08E0083802401F
:100C30000070004000380240FFFCFF0F5AE00268DD
:100C4000C1F301419B0143EA0143C2F3027143EA4C
:100C5000076242EA0171016029686FF0FF03A26A2E
:100C600021F4F85103EB0222114329602168890223
:100C700012D5E16F51450FD1238C62690168076875
:100C80009201C1F3036142EA034242EA0162C7F3FF
:100C9000027142EA017101602178090716D5616984
:100CA0000268D0F800C08B01277FC2F30362CCF347
:100CB000014143EA014141EA026141EA07710160F1
:100CC0002868E16A20F4403008432860306840F02A
:100CD00080503060FFF790FC044607E0FFF78CFC83
:100CE000001B642802D90320BDE8F88F3068C04398
:100CF0008000F3D40020F7E72DE9F04705000F4608
:100D000063D0444E306800F00F00B84209D230681A
:100D100020F00F0038433060306800F00F00B84218
:100D200053D128683C4C810712D5400703D5206871
:100D300040F4E05020602878000703D5206840F494
:100D400060402060A968206820F0F000084320601F
:100D50002878C0072AD0304968680839012810D09F
:100D60000968022810D0890700292EDA216821F0AD
:100D7000030101432160FFF73FFC804641F28839BF
:100D80000DE009688903EFE78901EDE7FFF734FC1F
:100D9000A0EB0801494502D90320BDE8F087686847
:100DA000216801F00C01B1EB800FEFD1306800F049
:100DB0000F00B8420BD9306820F00F003843306084
:100DC000306800F00F00B84201D00120E5E7287834
:100DD000400705D5E968206820F4E050084320600A
:100DE0002878000706D52869216821F4604141EA86
:100DF000C000206000F03CF82168084AC1F30311EC
:100E0000515CC840064908600020FFF719FC00202B
:100E1000C3E70000003C024008380240AC52000822
:100E20004C00002001480068704700004C00002082
:100E30000449054809680068044AC1F38221515CED
:100E4000C8407047083802404C000020BC520008DF
:100E50000449054809680068044AC1F34231515CFD
:100E6000C8407047083802404C000020BC520008BF
:100E7000154910B51548096811F00C0213D0144932
:100E8000042A0FD0082A0ED10F4C241F2268236891
:100E900002F03F025B0207D52068C0F38810A0FB78
:100EA000010106E0084610BD2168C1F38811A1FBCD
:100EB00000010023FFF7A4F92168C1F30141491C97
:100EC0004900B0FBF1F010BD083802400024F400E6
:100ED00040787D012DE9F84F05004FF000076ED0F6
:100EE0002878DFF81C93A9F1040AC007AAF10404CA
:100EF0004CD0D9F800104846C1F38101012908D02F
:100F00000068C0F3810002280AD1DAF8000040022C
:100F100006D52068800339D568680028DFD035E021
:100F20006868B0F5803F0BD010B1B0F5A02F11D09C
:100F3000206820F480302060206820F4802002E0C7
:100F4000206840F480302060686890B1FFF754FB5F
:100F500006460AE0206840F480202060F0E700BFE9
:100F6000FFF74AFB801B642872D820688003F7D5FE
:100F70000CE0FFF741FB064605E000BFFFF73CFB36
:100F8000801B6428F0D820688003F7D42878800775
:100F900042D5D9F80010484611F00C0F08D000686F
:100FA000C0F3810002280BD1DAF80000400207D418
:100FB0002068800718D5E868012800D114E01CE1FA
:100FC000E8680028206817D040F001002060FFF793
:100FD00013FB064605E000BFFFF70EFB801B02284F
:100FE000C2D820688007F7D52869216821F0F80168
:100FF00041EAC00020600FE020F001002060FFF710
:10100000FBFA064605E000BFFFF7F6FA801B022850
:101010001ED820688007F7D42878000729D578489B
:1010200069696C3000298046016812D041F00101E5
:101030000160FFF7E1FA064605E000BFFFF7DCFAC2
:10104000801B022804D8D8F800008007F6D510E0ED
:1010500089E021F001010160FFF7CEFA064604E0C5
:10106000FFF7CAFA801B02287DD8D8F80000800755
:10107000F6D4287840076BD5DFF8848108F138086A
:10108000D8F80000C0000BD4D8F8001041F080510F
:10109000C8F80010D8F80000012700F08050009038
:1010A00058480168C90512D40168834641F480712B
:1010B0000160FFF7A1FA064605E000BFFFF79CFAC2
:1010C000801B64284FD8DBF80000C005F6D54C4ED5
:1010D000A868683601280AD008B1052811D0306800
:1010E00020F001003060306820F0040002E0306839
:1010F00040F001003060A868A0B1FFF77DFA834698
:101100000CE0306840F004003060F0E7FFF774FA5C
:10111000A0EB0B0141F28830814266D8306880072D
:10112000F4D50EE0FFF768FA834607E0FFF764FAAC
:10113000A0EB0B0141F28830814256D8306880071D
:10114000F4D42FB1D8F8001021F08051C8F8001065
:10115000A869C8B3D9F80010C1F3810102294CD0A5
:101160000228206800E040E020F08070206003D07A
:10117000FFF742FA05463BE0FFF73EFA064604E079
:10118000FFF73AFA801B02282FD820688001F7D495
:10119000D5E90962D5E907011B4B570895F82C20C2
:1011A000084303EB074343EA8611084340EA026021
:1011B00040F00050CAF80000206840F080702060C5
:1011C000FFF71AFA054606E015E000BFFFF714FA2C
:1011D000401B022809D820688001F7D50BE000BF2A
:1011E000FFF70AFA401B022802D90320BDE8F88F56
:1011F00020688001F4D40020F8E70120F6E7000021
:1012000008380240007000400000FFFFF0B5426E59
:10121000120E93090B70C2F3830402F003024C70A8
:101220008A70426E120CCA70B0F86420120A0A71F9
:1012300090F864204A714FF6FF73826E120E03EA33
:101240000212CA80CB88826EC2F30742140923437C
:10125000CB8002F00F020A72B0F868200025C2F3BA
:101260000722D3094B72C2F38014C2F34016C2F3B3
:1012700000178C72CE720F734D730123446C4FF4C0
:1012800000766CB1012C46D0026840F2FF519163A8
:10129000816B41F08051816380F834300120F0BDD2
:1012A0009207120D0A610C6990F8682044EA8202E4
:1012B0000A610C69C26E120E9709C2F3C20C3C435C
:1012C0000C6102F0070281F814C04A75C26EC2F3C5
:1012D0000742940757098F75640FC2F38202CA75DB
:1012E0000C760A7EB0F86C40C4F3072442EAD412AC
:1012F0000A760A69521C42650F7EBF1CBA404265DD
:101300000F7A03FA07F787654FEA572C02FB0CF2B6
:10131000C0E917261CE090F868209206920A0A613C
:101320000C69C26E120E44EA02220A610C69C26E96
:10133000C2F3074214430C610A69B0F86C40521CB6
:101340004FEA82224265C4F30724C0E916620666AA
:10135000C4F380124FEA84644A764FEA54648C7670
:1013600090F86C208C7E4FEAD21602F07F0244EA9D
:1013700006048C76CA7650F8702F4FEA12624FEA54
:10138000D2140C77C2F34116C2F382074FEA82727D
:101390004E778F774FEA1272CA77CC7F0268C2F31A
:1013A000074244EA9214CC77C2F3401602F00102DD
:1013B00081F8206081F8215081F822200288C2F350
:1013C00007224FEAD21481F82340C2F38015C2F3FA
:1013D0004016C2F30017C2F3810C02F0030281F839
:1013E000245081F8256081F8267081F827C081F8A3
:1013F000282000784FEA500081F8290081F82A302F
:101400004FF00000F0BD426C0A60826C4A60C26C12
:101410008A60026DCA60426D0A61826D4A61C26D66
:101420008A61006EC8610020704770B5B0F8501036
:10143000002504460068090400F0C6FD18B1A16B40
:101440000143A16304E02068002100F06BFF054622
:10145000C5F3432070BD70B5040004D094F8340087
:10146000002510B105E0012070BD2046257700F071
:101470003BF8032084F83400204600F007F80120F0
:10148000A563256384F83400002070BD3EB5044692
:101490007620002100910B460A46CDE90110206814
:1014A00000F046FF2068416821F4807141602068A7
:1014B00000F04FFF2068416841F4807141600220D4
:1014C000FEF792FF204600F0E4FF4FF0010520B93F
:1014D000204600F06BFF002805D084F83450A16B43
:1014E0000143A16301203EBDF0B5006887B01049FB
:1014F00088421BD10F48016841F400610160006817
:1015000002240025694600F40060059003260C279C
:101510004FF488508DE8F1000748FEF777FF04206C
:1015200069468DE8F1000548FEF770FF07B0F0BD91
:10153000002C01404438024000080240000C0240E8
:101540002DE9F04F87B09A4617460E460446DDF85F
:1015500040B0FFF751F800903EB194F834000128F4
:1015600007D0A06B40F000500FE0A06B40F000608F
:101570000BE0E16D07EB0A004FF00008C4F838807B
:10158000884204D9A06B40F00070A0637DE0032086
:1015900084F834002068C0F82C80606C012800D0EA
:1015A0007F0220684FF4007100F024FC40F2FF59E4
:1015B0004FF0010530B12268C2F83890A16B0143A9
:1015C000A16360E002204FF0FF324FEA4A239021EE
:1015D000CDE90310CDE90123CDE90585206801A9F6
:1015E00000F070FDBAF1010F06D9022020632068D7
:1015F000394600F073FC04E025633946206800F0AA
:1016000086FC0028D7D122E0406B000409D50027D2
:10161000206800F0A2FE46F827007F1C082FF7D3B1
:101620002036BBF1000F05D0FEF7E6FF0099411A06
:1016300059450CD32168C1F83890A06B40F00040A8
:10164000A06384F83450032007B0BDE8F08F206811
:10165000416B11F4957FD7D0416BC90509D5BAF11B
:10166000010F06D9616C032903D000F0DFFC0028CC
:10167000A1D12068416B090709D5C0F83890A06B4B
:1016800040F0080028E084F834500120DCE7416B8A
:10169000890705D5C0F83890A06B40F002001BE028
:1016A000416B89061AD5C0F83890A06B40F0200035
:1016B00012E000BF00F051FEBBF1000F01C605D0E3
:1016C000FEF79AFF0099411A594507D32168C1F8DE
:1016D0003890A06B40F00040A063D4E72068416BD5
:1016E0008902E7D4C0F8389084F834500020ABE782
:1016F0002DE9F04F87B09A4616460D460446FEF790
:101700007BFF83463DB194F83400012807D0A06BDD
:1017100040F000500DE0A06B40F0006009E0E26D89
:10172000002006EB0A01A063914204D9A06B40F0AF
:101730000070A0639CE00321814684F83410216886
:10174000C862606C012800D0760220684FF40071F6
:1017500000F050FB40F2FF584FF0010730B1226813
:10176000C2F83880A16B0143A16317E0BAF1010F01
:1017700006D9202020632068314600F071FC05E086
:10178000102020632068314600F083FC060008D05A
:101790002168C1F83880A06B3043A06384F83470AE
:1017A00066E048464FF0FF314FEA4A23B94690229F
:1017B000CDE90407CDE90220CDE900132068694690
:1017C00000F080FC22E0406B40040AD55FF0000787
:1017D000206805EB870100F0D4FD7F1C082FF7D3AC
:1017E0002035109830B1FEF707FFA0EB0B011098E1
:1017F00081420BD32268C2F83880A06B3043A063CB
:1018000084F83490032007B0BDE8F08F2068416B66
:1018100011F48D7FD7D0416BC90510D5BAF1010FF6
:101820000DD9616C03290AD000F000FC38B123689F
:101830004946C3F83880A26B0243A26316E02068D1
:10184000416B090708D5C0F83880A06B40F008004C
:10185000A06384F834900BE0416B89070AD54946B0
:10186000C0F83880A06B40F002000CE084F834101F
:101870000120C8E7416BC0F83880C906494604D545
:10188000A06B40F01000A063F0E784F83410002053
:10189000B9E704284FF0E020016903D021F00401EA
:1018A0000161704741F00401FAE77047401EB0F152
:1018B000807F10B501D3012010BD4FF0E02460619E
:1018C0000F21601700F050FA0020A061072121616C
:1018D00010BD10B5FFF7E9FF10BD704770B5016886
:1018E0000446C8690A688B6810F00F0F5CD003F0DB
:1018F000010502F490762E4369D0C60707D0D605BD
:1019000005D501260E62E16E41F00101E166810715
:1019100008D5D90706D0266802213162E16E41F070
:101920000401E166410708D5D90706D023680421E0
:101930001962E16E41F00201E16601070AD502F089
:101940002001294306D0236808211962E16E41F085
:101950000801E166E16E002932D0800604D59006C8
:1019600002D5204600F07CFFE06E000703D420681B
:101970008068400625D5204600F064FF2068816815
:1019800049061AD5816821F040018160606EA0B1DE
:101990002F490165606EFEF715FD002810D0606EBE
:1019A000016DBDE870400847830610D593060ED53B
:1019B0002046BDE8704000F053BF2046FFF78DFF82
:1019C00070BD2046FFF789FF0020E06670BD03066A
:1019D0002FD513062DD594F869002128F6D1B4F837
:1019E000520020B1A068B0F5805F0AD00BE0086813
:1019F00020F0800008602068016841F0400101602B
:101A000070BD206960B1E06C411CE1642168007820
:101A1000C1F82800B4F85200401EA4F8520070BD6E
:101A2000E06C0088C0F308008862E06C801CE06411
:101A3000F0E74006F3D55006F1D50B68202220468A
:101A400023F040030B6084F8692000F0CAF870BDF1
:101A50003128000810B5040003D094F8690010B1D3
:101A600007E0012010BD002084F86800204600F047
:101A700027F8242084F869002068016821F001011A
:101A80000160204600F028FF0128EBD0606A10B109
:101A9000204600F049FE2068416821F490414160F1
:101AA0002068816821F02A0181602068016841F086
:101AB000010101602046BDE8104000F099BE000021
:101AC000F0B5006887B01449884222D113480168F4
:101AD00041F010010160006802240025694600F011
:101AE000100005900326072780208DE8F1000C48A0
:101AF000FEF78CFC200269468DE8F1000948FEF7EC
:101B000085FC002225201146FEF710FE2520FEF759
:101B100001FE07B0F0BD0000001001404438024053
:101B20000004024000000240704700002DE9F84325
:101B3000044690F869001F4616460D4620284ED1EF
:101B4000C5B1BEB194F86800012848D0012284F8DC
:101B5000682021214FF00008C4F86C8084F86910D7
:101B60005034FEF749FD268081466680503C4FF494
:101B7000805619E00120BDE8F88300BFB4F8520098
:101B8000401EA4F8520000224B46802120460097B8
:101B900000F0CEFFA0B9A068B04201D1206988B1A1
:101BA00015F8010B21688862B4F852000028E5D1CD
:101BB00000224B4640212046009700F0B9FF38B183
:101BC0000320D8E735F8020B2168C0F30800EAE7E4
:101BD000202184F86910002084F86880CBE7022077
:101BE000C9E7704770B5094D002402212846FEF769
:101BF000F9FC6420FEF7F8FB641C0A2CF5DB284690
:101C0000BDE8704000220221FEF7F0BC0020024037
:101C1000FEE7000070B5C8B006464FF480650DF1D0
:101C20001A04304601A902F061FB00281AD19DF880
:101C30001A00002816D0019A0020AA4201D9920A5F
:101C400001209DF80C10C90601D507A100E007A1ED
:101C5000009108B107A300E007A3214607A000F008
:101C6000A1FFDEE748B070BD4469720046696C654B
:101C7000000000004B420000420000002D3E252DD8
:101C800033307325356C64252D32732020202020BD
:101C900020252D35730A0D000449054810B5FEF7BF
:101CA0006DFB0249491E087010BD00003C00002079
:101CB000985200081B4800B587B0016841F0040144
:101CC0000160016801F004010591016841F0010122
:101CD0000160016801F001010591016841F008010E
:101CE0000160016801F008010591016841F080017F
:101CF0000160016801F080010591016841F4807183
:101D0000016000680221012200F48070059000202B
:101D100000916946CDE9012003900348FEF776FB68
:101D200007B000BD30380240002002400C480021BE
:101D300010B50A4C0C224FF416530460C0E901316F
:101D4000C160C0E904128161C16101624162FFF7B3
:101D500081FE002800D0FEE710BD00000010014009
:101D6000E0000020FEE77047090700284FEA1161F4
:101D700006DA00F00F0000F1E02080F8141D704733
:101D800000F1E02080F8001470477047704730B5CC
:101D900085B00446372040220DF1080CCDE9001033
:101DA00000236946150120468CE82C0000F0D8FA83
:101DB000372141F28832204600F098F905B030BD55
:101DC00030B50B4A85B004462920114340220DF15D
:101DD000080CCDE9001000236946150120468CE867
:101DE0002C0000F0BDFA204600F036FA05B030BDF8
:101DF0000000108030B585B0044610200DF1080CAD
:101E00008501CDE9001040226946002320468CE878
:101E10002C0000F0A5FA102141F28832204600F093
:101E200065F905B030BD000030B585B00546002429
:101E300069464FF48060009401940294CDE9034018
:101E4000284600F08DFA0B4A4FF4FA5041F28831DF
:101E50001268B2FBF0F04843401E03D24FF000403E
:101E600005B030BD696B0906F6D540F2FF5120463A
:101E7000A963F5E74C00002070B50821044685B041
:101E80004FF4D5704026CA018DE84300002569460D
:101E9000CDE90352204600F063FA0F4A4FF4FA509E
:101EA00041F288311268B2FBF0F04843401E02D282
:101EB0004FF000450CE0616B11F0450FF6D0606B00
:101EC000400701D5042502E0606B400600D5A663FB
:101ED00005B0284670BD00004C00002030B585B02C
:101EE0000446122040220DF1080CCDE90010002319
:101EF0006946150120468CE82C0000F031FA1221C9
:101F000041F28832204600F0F1F805B030BD30B51E
:101F100085B00446112040220DF1080CCDE90010D7
:101F200000236946150120468CE82C0000F018FAC1
:101F3000112141F28832204600F0D8F805B030BDBA
:101F400030B585B0044640210DF1040C0720009205
:101F500000230D018CE82B006946204600F000FAB2
:101F6000072141F28832204600F0C0F805B030BDAC
:101F700010B586B0044600210220C022430204931B
:101F8000CDE90010CDE902216946204600F0E8F9CC
:101F9000204600F039F906B010BD30B585B00446D2
:101FA00009200DF1080CC022CDE90010002369467C
:101FB0004FF4806520468CE82C0000F0D1F92046D3
:101FC00000F022F905B030BD30B585B004460D20D3
:101FD00040220DF1080CCDE90010002369461501DF
:101FE00020468CE82C0000F0BBF90D2141F288322C
:101FF000204600F07BF805B030BD30B585B00C460A
:102000000021054603204022CDE90221CDE9001040
:10201000130169462846049300F0A2F903212246E1
:10202000284600F039F905B030BD000010B586B083
:10203000044600210C204022CDE90221CDE9001008
:10204000130169462046049300F08AF9034A0C21E3
:10205000204600F04BF806B010BD000000E1F50589
:1020600030B585B00446192040220DF1080CCDE9A9
:10207000001000236946150120468CE82C0000F072
:102080006FF9192141F28832204600F02FF805B08F
:1020900030BD30B585B00446182040220DF1080C43
:1020A000CDE9001000236946150120468CE82C007C
:1020B00000F056F9182141F28832204600F016F857
:1020C00005B030BD70B50A6842624A688262C46A6F
:1020D000D1E90225D1E9043624F0F7012A4333433C
:1020E0001A431143C162002070BD000010B5444C7A
:1020F0004FF4FA532468B4FBF3F353435B1E02D24C
:102100004FF0004010BD426B12F0450FF6D0426B0D
:10211000520703D504218163084610BD426BD207E4
:1021200002D00121816303E00269D2B28A4201D068
:10213000012010BD40F2FF518163002100F0F2F850
:102140003049084201D1002010BD002802DA4FF0CA
:10215000007010BD410001D5402010BD810001D5A7
:10216000802010BDC10002D54FF4807010BD010168
:1021700002D54FF4007010BD410102D54FF48060CC
:1021800010BDC10102D54FF4006010BD010202D59F
:102190004FF4805010BD410202D54FF4005010BDE5
:1021A000810202D54FF4804010BDC10202D54FF428
:1021B000004010BD410302D54FF4003010BD810333
:1021C00002D54FF4802010BDC10302D54FF400208A
:1021D00010BD010402D54FF4801010BD410402D59A
:1021E0004FF4001010BD810402D54FF4800010BDE3
:1021F000000702D54FF4000010BD4FF4803010BD31
:102200004C00002008E0FFFD124B4FF4FA5141F260
:1022100088321B68B3FBF1F15143491E02D24FF0E3
:1022200000407047426B12F0450FF6D0416B4907F2
:1022300003D50421816308467047416BC90703D069
:10224000012181630846704740F2FF5181630020FD
:10225000704700004C0000200E4B4FF4FA5141F241
:1022600088321B68B3FBF1F15143491E02D24FF093
:1022700000407047426B12F0450FF6D0416B4907A2
:1022800003D5042181630846704740F2FF51816302
:10229000002070474C00002030B51F4D4FF4FA531A
:1022A00041F288342D68B5FBF3F363435B1E02D221
:1022B0004FF0004030BD446B14F0450FF6D0436B37
:1022C0005B0703D504218163084630BD436BDB0700
:1022D00002D00121816303E00369DBB28B4201D0AC
:1022E000012030BD40F2FF518163002100F01AF857
:1022F00010F4604F04D0410406D54FF4005030BDB7
:10230000000C1080002030BD000402D54FF4805036
:1023100030BD4FF4803030BD4C000020006800F02C
:1023200003007047084408B514300090006808BDE9
:1023300070B511434268049EDDE90554334347F606
:10234000FF6619432943B24321430A4342600020F8
:1023500070BD0321016000207047D0F880007047F5
:1023600070B50A688260C468D1E90125D1E90336F5
:10237000210B2A43334309031A431143C160002050
:1023800070BD0968C0F880100020704710B5064C79
:1023900001202070FDF7B2FF18B9207820F001006D
:1023A0002070207810BD00003A00002010B590B0D9
:1023B00004460120ADF838002068FFF7AFFF002881
:1023C00064D0606C032842D02068FFF7D1FD00285C
:1023D0005AD120680021FFF7A5FF6067042120681B
:1023E000FFF7A0FFA06708212068FFF79BFFE067C9
:1023F0000C212068FFF796FF616CC4F88000032968
:1024000025D020680EA9FFF7F8FD00283CD1606CAC
:1024100003281CD0BDF83810216520680904FFF797
:10242000BCFD002830D120680021FFF77BFF6066EB
:1024300004212068FFF776FFA06608212068FFF7D7
:1024400071FFE0660C212068FFF76CFF2067042114
:102450002068FFF767FF000DE06403A92046FEF740
:10246000D5FEB4F85000002302042068FFF768FD91
:10247000002809D104F1100007C88DE8070094E88E
:102480000F00FFF755FF002010B010BD4FF0806027
:10249000FAE72DE9F8430025044600950068FFF7A8
:1024A000C3FC00281BD12068FFF7E6FC4FF08078C2
:1024B0004FF6FF76E0B14FF08057A5640098B04228
:1024C00000F1010000901BD020680021FFF75FFCA5
:1024D00020B920680021FFF773FC10B13846BDE831
:1024E000F88320680021FFF71DFFC00FE6D020E031
:1024F0000127A7640098B04200F10100009001D1CB
:102500004046ECE720680021FFF741FC0028E6D1B7
:1025100020684FF08041FFF753FC0028DFD120688E
:102520000021FFF7FFFEC10FE4D0400001D5676432
:1025300000E065640020D2E770B5064C0546012036
:102540002070FDF7E7FE18B92846FFF71FFF20703F
:10255000207870BD3A000020144810B588B01446A9
:102560000078C00702D0032008B010BD39B101299E
:1025700007D002290BD0032910D00420F4E7002053
:10258000F2E76846FDF7B4FE069900200CE06846C5
:10259000FDF7AEFE079900202180E5E76846FDF7CC
:1025A000A7FE07990020490A2160DDE73A000020D4
:1025B00070B501241D4616460846A31E2A4631461C
:1025C000FDF7BAFE28B900BFFDF798FE0028FBD141
:1025D0000024204670BDFFF7D9BE000070B501246D
:1025E0001D4616460846A31E2A463146FDF7B4FE90
:1025F00028B900BFFDF782FE0028FBD10024204649
:1026000070BD704710B5FDF7FDFFBDE81040FFF746
:1026100060B900002C4870B5B4B0016841F0805139
:102620000160006800F0805032902848016841F451
:102630004041016000680225192300F440403290B7
:1026400001200926820501044FF4D874CDE92752F0
:10265000CDE9210129A921A881E87800FEF73AFCFB
:1026600000B1FEE7FEF794F800B1FEE74FF48052A8
:102670004FF4A05100242F94CDE930120F20CDE962
:102680002D0507212DA8FEF737FB00B1FEE7104806
:1026900011941F94209400906846FEF7AFF800B1A3
:1026A000FEE7FEF7BFFB4FF47A71B0FBF1F0FFF7E6
:1026B000FDF80420FFF7EDF80022501E1146FEF74A
:1026C00035F834B070BD0000403802400070004062
:1026D0004000A000104A30B51048146800210F4B8C
:1026E00044F470041460083305680D4A0D4C45F03D
:1026F0000105056019600368051D1340074A036062
:102700000C322C600568E305034C25F48025056038
:10271000803C1160236030BD88ED00E0003802404D
:10272000FFFFF6FE1030002490F82410C90706D0F1
:102730000168836A4A6822F400321A434A6090F8BA
:102740002410890706D50168C36A4A6822F48032DA
:102750001A434A6090F82410490706D50168036BB4
:102760004A6822F480221A434A6090F8241009072C
:1027700006D50168436B4A6822F400421A434A6056
:1027800090F82410C90606D50168836B8A6822F484
:1027900080521A438A6090F82410890606D5016891
:1027A000C36B8A6822F400521A438A6090F824109E
:1027B000490611D50168036C4A6822F480121A4355
:1027C0004A60016CB1F5801F06D10168436C4A680C
:1027D00022F4C0021A434A6090F82410090606D574
:1027E0000168826C486820F40020104348607047FC
:1027F00038B500250446C566FDF7FEFE0346206891
:10280000006800070BD56FF07E4000900022204644
:102810004FF4001100F08CF908B1032038BD2020DE
:1028200084F8690084F8685084F86A00002038BD94
:1028300010B5806B0021A0F85A10A0F85210FFF7D5
:102840004CF810BD016820220B6823F490730B60D4
:1028500001688B6823F001038B6080F86A20704761
:1028600010B590F86A10B0F85C202229016805D0F4
:10287000886940F008008861022010BD8368B3F5C4
:10288000805F01D1036973B14B6A416D13404A1CEB
:1028900042650B70B0F85A10491E0904090CA0F8E3
:1028A0005A1008D016E04B6A416D13400B80416D01
:1028B000891C4165EEE7016820220B6823F49073C0
:1028C0000B6001688B6823F001038B6080F86A203D
:1028D000FFF72AF9002010BD2DE9F0470446806873
:1028E000874B884F2668D4E90415E2690843D6F877
:1028F00000C0102115430022284315460CEA030CA2
:10290000814B4CEA000CC6F800C04FF40049206827
:10291000D4F80CC0466826F4405646EA0C064660D9
:102920002668D4F82080A069D6F808C040EA0800DC
:102930002CF4306C4CEA000CC6F808C02068B84291
:102940000AD11B6813F0030352D0012B7AD0022B5B
:1029500076D0032B79D177E06C4EB0420AD11B6858
:1029600013F00C036AD0042B6CD0082B68D00C2B0E
:102970006BD169E0664EB0420AD11B6813F0300398
:102980005CD0102B5ED0202B5AD0302B5DD15BE079
:10299000604EB0420AD11B6813F0C0034ED0402BEA
:1029A00050D0802B4CD0C02B4FD14DE05A4EB0426E
:1029B0000DD11B6813F4407340D0B3F5807F41D034
:1029C000B3F5007F3CD0B3F5407F3ED13CE0534EA1
:1029D000B0420FD11B6813F4406309D0B3F5806F88
:1029E00030D0B3F5006F2BD0B3F5406F2DD12BE075
:1029F00001212AE04A4EB0420DD11B6813F4405326
:102A00001CD0B3F5805F1DD0B3F5005F18D0B3F5CF
:102A1000405F1AD118E0434EB04216D11B6813F440
:102A200040430BD0B3F5804F0CD04B4508D0B3F5E5
:102A3000404F0AD108E005E002E0FFE7002104E092
:102A4000022102E0042100E00821E6694E452AD176
:102A500009291FD2DFE801F00508141E171E1E1EEB
:102A60001A00FEF7E5F901E0FEF7F2F90146D4F8A5
:102A70000400490001EB5001B1FBF0F082B20AE022
:102A800029496068F6E7FEF7F3F9EFE760684FF46D
:102A90008031EFE70125216822F00F00C2F34202E6
:102AA0001043C86028E0092925D2DFE801F00508B5
:102AB0000B24102424241C00FEF7BAF909E0FEF7C9
:102AC000C7F906E06168194A02EB51020EE0FEF711
:102AD000CFF90146D4E9002001EB5001B1FBF0F041
:102AE00080B2D06008E0616809EB5102B2FBF1F1FD
:102AF00089B2C16000E001252846BDE8F0870000EA
:102B0000F369FFEF0010014090380240004400409C
:102B100000480040004C00400050004000140140BC
:102B200000780040007C00400048E8010024F400E8
:102B30002DE9F041984617460E460446069D1DE0D5
:102B4000681C1BD02DB1FDF757FDA0EB0800A84273
:102B500014D32168202000220B6823F4D0730B606B
:102B600021688B6823F001038B6084F8690084F886
:102B70006A00032084F86820BDE8F0812068C069FD
:102B800036EA000004D00020B842D9D00020F3E794
:102B90000120F9E70148FEF7A1BE0000E000002097
:102BA000FEE700000FB4054B10B503A9044A0298D4
:102BB00000F018F810BC5DF814FB0000E1480008B4
:102BC0005800002002E008C8121F08C1002AFAD1EC
:102BD00070477047002001E001C1121F002AFBD19D
:102BE000704700002DE9FF4F8BB088460546002650
:102BF00006E025280BD0DDE90D1290476D1C761CF0
:102C000028780028F5D10FB03046BDE8F08F0024B9
:102C1000A146A2460122AE4900E0044315F8013F57
:102C2000203B02FA03F00842F7D128782A2810D076
:102C30006FF02F022878A0F13001092915D809EB8F
:102C4000890102EB410144F0020400EB01096D1C13
:102C5000F0E758F8041B5FEA010903D544F4005477
:102C6000C9F1000944F002046D1C28782E2817D100
:102C700015F8010F44F004042A280ED06FF02F023B
:102C80002878A0F1300109290AD80AEB8A0102EB61
:102C9000410100EB010A6D1CF2E758F804AB6D1C12
:102CA00028786C280FD006DC4C2817D068280DD067
:102CB0006A2814D104E0742810D07A280FD10DE0CE
:102CC00044F400140AE044F4801401E044F4401495
:102CD0006978814202D104F580146D1C6D1C28783E
:102CE000692865D006DC00288DD0632827D06428A9
:102CF00006D15DE06E2808D073282AD0752877D0D9
:102D0000DDE90D129047761CE0E0C4F30250022882
:102D100009D003280DD0D8F8001004280DD00E607B
:102D200008F10408D2E0D8F80010F217C1E90062F7
:102D3000F6E7D8F800100E80F2E70E70F0E718F80A
:102D4000041B8DF8001000208DF80100EB460120D7
:102D500003E058F804BB4FF0FF3061074FF0000765
:102D600001D40AE07F1C57450DDA8742FADB1BF8D5
:102D700007100029F6D106E07F1C8742FCDB1BF818
:102D800007100029F8D1DDE90D23A9EB07008146E2
:102D9000214600F0B1F83044C61904E0DDE90D1217
:102DA0001BF8010B90477F1EF8D22146484688E069
:102DB00058F8040BC4F302514FF00A0B032900D159
:102DC00000B2042900D140B2002802DA40422D218D
:102DD00002E0210505D52B218DF82410012104E006
:102DE00006E0E10710D02021F6E708AF089113E0D4
:102DF00058F8040BC4F302514FF00A0B032900D119
:102E000080B2042900D1C0B20021EEE75946FDF797
:102E100028FA303107F8011D0028F7D1ADEB070083
:102E200000F1200B600702D524F4803401E04FF05C
:102E3000010ADA4502DDAAEB0B0000E00020824621
:102E400000EB0B0108980144A9EB01000A90E00394
:102E500006D4DDE90D2321460A9800F04DF806441A
:102E60004FF0000908E009A911F80900DDE90D1289
:102E7000904709F10109761C08998945F3DBE003C5
:102E80000CD5DDE90D2321460A9800F035F80644FB
:102E900004E0DDE90D1230209047761CBAF1000104
:102EA000AAF1010AF5DC05E0DDE90D1217F8010BC6
:102EB0009047761CBBF10001ABF1010BF4DC0A98E2
:102EC0002146DDE90D2300F005F806446D1C97E668
:102ED000092801002DE9F041044600251E46174649
:102EE000880404D405E039462020B0476D1C641ED8
:102EF000F9D52846BDE8F0812DE9F04104460025CA
:102F00001E469046C80301D5302700E020278804DC
:102F100004D505E041463846B0476D1C641EF9D51E
:102F20002846BDE8F081000010B504460022501E7E
:102F3000E2702063204601F0BEFF08B1042010BDFE
:102F400004F2322001F06AFEA0F52A41553901D081
:102F5000032010BD94F83400E92805D0EB2814D1E3
:102F600094F83600902810D104F16A0001F04BFE6D
:102F70000749B1EB002F06D004F1860001F043FEB3
:102F80000449884201D1002010BD022010BD00007C
:102F9000004641544641543300E0401C02780AB1D7
:102FA0008A42FAD1D0B27047F0B5154D00221346CF
:102FB00005EB021426685EB10768BE4209D1666857
:102FC0008768BE4205D1A4684669B44204D000E0D7
:102FD0000123521C022AEBD3022A01D069B904E072
:102FE0004BB9022907D01220F0BD05EB02108089F1
:102FF000B0F5807F01D00020F0BD1020F0BD0000B2
:103000001C06002030B5064B0024214603EB0112BC
:103010001568854200D11460491C0229F6D330BDE1
:103020001C060020C26A490A00684089B1FBF0F022
:10303000121D02CA19B1884203D3401AF8E70020D2
:1030400070471168084470478269891E921E8A423F
:1030500001D800207047C26A408901FB00207047F8
:103060002DE9F05F0C46824601F11A0001F0D6FD11
:1030700078BB207801270026DFF8609000F03F0041
:103080004FF6FF7B401E00EB800101EBC00500BF47
:1030900019F80600204401F0C1FD80466FB1FF2DF4
:1030A00017D201F077FA07463AF815006D1C01F0C7
:1030B00071FA87420DD1474601E0D84509D1761C07
:1030C0000D2EE5D32078400606D52FB13AF815002D
:1030D00010B10020BDE8F09F0120FBE7F256000888
:1030E0002DE9F04105680F00804606D001F044FC50
:1030F000022809D20120BDE8F0812E6916B1A86925
:10310000B04207D8012605E0411CF4D0A9698142EC
:10311000F1D83E463446A869641CA04203D8022E6A
:103120004FF002040AD32146404601F025FC38B195
:103130000128E0D0411CDED0B442ECD10020DAE717
:103140004FF0FF3621463246284601F007FF30B9DE
:1031500057B122463946284601F000FF20B1012828
:103160000FD001242046C6E7D5E905012C61891E50
:10317000884201D8401E6861287940F0010028711A
:10318000F0E73446EEE700002DE9F84F8846016885
:10319000002482462546D8F80060CF68705D6D1C1B
:1031A00020281AD32F2813D05C2811D0FF2C38D216
:1031B000012101F0D1F95FEA000932D0B9F1800FA5
:1031C00012D201466BA0FFF7E7FE50BB0CE06D1C6E
:1031D000715D2F29FBD05C29F9D07119C8F8001056
:1031E000202805D204250EE027F81490641CD5E7AA
:1031F000002508E007EB440030F8020C202801D03D
:103200002E2802D1641E002CF4D1002027F81400CF
:103210003CB10B2220210AF1240001F045FE0026DA
:1032200003E00620BDE8F88F761C37F8160020284A
:10323000FAD02E28F8D01EB145F0030500E0641E38
:103240002CB107EB440030F8020C2E28F7D14FF0D8
:1032500000094FF0080BCDF8009000BF37F81600BA
:1032600006F101065FEA000824D0B8F1200F04D06F
:10327000B8F12E0F04D1A64202D045F00305EDE7C8
:103280000098584501D2A64219D1BBF10B0F0FD0BF
:10329000A64201D045F003050CD84FEA89612646C5
:1032A0004FF008004FF00B0B4FEA11690090D5E783
:1032B00045F003059AF82400E52836D038E0B8F147
:1032C000800F404610D3002101F046F95FEA000864
:1032D00005D02B4901EB080010F8800C8046B8F1AE
:1032E000000F45F0020504D0014626A0FFF754FE6A
:1032F00018B15F2045F003050EE0A8F14100192840
:1033000002D849F0020908E0A8F16100192804D8A0
:10331000413080B249F001098046009A0099524438
:10332000491C009182F8248098E705218AF824102E
:10333000BBF1080F03D14FEA89604FEA1069C9F366
:103340008100032803D06FEA0901890701D145F004
:103350000205A90709D409F00301012901D145F0AB
:103360001005012801D145F008058AF82F500020EA
:1033700058E70000222A3A3C3E3F7C7F00000000D4
:10338000725600082B2C3B3D5B5D0000401E02285E
:1033900012D20A4901EB00118889B0F5807F05D06F
:1033A00008B1401E80B2888110B103E00020FAE726
:1033B0000020086000207047022070471C06002093
:1033C0002DE9F047D0F800900021044600F02AFAD9
:1033D00000285CD1471E2763FF25A846E1694846BF
:1033E00001F069FD060051D1216A087850B1CA7A0E
:1033F000E52802F03F02A27140D0130704D50F2A3E
:103400003CD105E0042641E00F2A01D0E5B120E0DF
:1034100094F82F20520633D4420606D591F80D8039
:1034200000F0BF00636905462363A84209D14A7BC7
:10343000424506D1D9F80C00FFF712FE08B16D1E07
:1034400000E0FF25EDB21BE0084601F091FE40458B
:103450001CD094F82F00C00710D1D4F820100B22F4
:1034600004F12400521E11F8013B10F8015BA3EB9C
:10347000050302D0002BF5D000E03BB1FF25276308
:103480000021204600F006F80600A7D03046BDE82F
:10349000F08700002DE9F04705464769C069894675
:1034A00020372C6810B1B7F5001F02D30420BDE807
:1034B000F087F90560D1A969401C4FF00008E86168
:1034C00029B16089401E10EA572F05D054E02089A9
:1034D000B0EB571F1DD94FE0284601F04DFA0128E7
:1034E00006461BD9701C33D0A069B0423ED8B9F152
:1034F000000F0ED0A9692846FFF7F2FD06000BD099
:10350000012E0BD0701C23D0204601F083FEF8B9A9
:1035100006E0C5F81C80C9E70720C8E70220C6E717
:1035200000214FF4007204F1340001F0BDFC4FF0B3
:10353000000831462046FFF787FD4FF00109206360
:103540000DE000BF204684F8039001F063FE08B14F
:103550000120ACE7216B08F10108491C2163618956
:103560004145EFD8216BA1EB08002063314620468E
:10357000AE61FFF769FDE861C7F3080020446F61A1
:1035800034302862002092E72DE9F0470426D0F875
:103590000080FF2489460546274648E0404601F062
:1035A0008AFC060047D1286A017881B1C27AE529F0
:1035B00002F03F02AA7108D02E2906D022F0200383
:1035C000082B06D0B446CC4506D0FF2420E00426C4
:1035D00031E04FF0010CF6E70F2A01D01CBB1EE0D2
:1035E0004A0605D5477B01F0BF016A690C462A638C
:1035F000A1420BD1417BB94208D1D8F80C20014639
:10360000104601F071FC08B1641E00E0FF24E4B232
:1036100028460021FFF73EFF060008D00BE001F02E
:10362000A7FDB84209D04FF0FF30286305E0E969F3
:103630000029B3D10EB10020E8613046BDE8F08723
:103640002DE9F04F044690F82F008FB010F0A00F36
:10365000D4F8009003D006200FB0BDE8F08FD9F861
:103660000C00002500E06D1C30F815100029FAD17F
:103670000C2204F12401029108A801F00BFC9DF832
:103680002B00C00719D0402084F82F000126D9F85C
:103690000C20029808A9334601F02EF92046FFF7C6
:1036A0008FFE10B9761C642EF1D3642E0FD004283F
:1036B000D2D19DF82B0084F82F009DF82B008007B5
:1036C00007D50D200C35B5FBF0F56D1C02E0072089
:1036D000C2E7012527680021204600F0A3F888B939
:1036E0000026E169384601F0E6FB58B9206A007807
:1036F000E5280AD048B1002620460121FFF7CAFE7E
:103700000028EED0042812D012E0761C2846AE42E3
:10371000F2D1451E0B9567D06169684201EB4011FB
:10372000204600F07FF85FEA000803D076E007202B
:10373000804673E0029801F01BFD4FF6FF7B0C9072
:10374000E169484601F0B7FB5FEA000866D10B99D2
:103750000F23D4F82080C9B20391D9F80C100C982B
:103760000591002188F80D0008F11A0088F80B3047
:1037700088F80C1001F0F8FC03990027DFF8A0A0EE
:10378000491E01EB810202EBC10601E05D4503D059
:10379000059830F81650761C1AF8071001EB08004F
:1037A000294601F0E1FC05B95D467F1C0D2FEDD3E4
:1037B0005D4505D0059830F8160008B1039803E080
:1037C000039840F04000039088F800000120002199
:1037D00089F803002046FFF75DFE5FEA00081DD16F
:1037E0000B98401E0B90ABD1E169484601F063FB9A
:1037F0005FEA000812D1206A2022002101F054FB68
:10380000206A0B22029901F045FB226A012094F8FC
:103810002F1001F01801117389F8030040461BE7CF
:10382000F25600082DE9F0410768B1F5001F0E4679
:10383000054636D2F00634D1AC686E6124B93878CA
:10384000032805D3BC6A1CB178894FEA402812E0EE
:103850003889B0EB561F24D9B86A12E0284601F027
:103860008BF80446401C1AD0022C1AD3B869A04227
:1038700017D9A6EB080621464645EFD23846FFF792
:10388000E3FBC5E9064060B100EB5622C6F3080130
:10389000C8193430C5E907200020BDE8F0810120B7
:1038A000FBE70220F9E700000849002210B50B5C95
:1038B0004BB901220A5401EB800208445168007A96
:1038C000096888470246104610BD00003C060020EB
:1038D000044B30B403EB800418446368007A1B691E
:1038E00030BC18473C06002030B4054C04EB800582
:1038F00020446C68007AA468A44630BC604700008D
:103900003C060020034901EB800208445168007A1C
:10391000496808473C06002030B4054C04EB80059C
:1039200020446C68007AE468A44630BC604700001C
:103930003C06002038B5044600F001FD00280CD1FB
:103940006946204601F08FFC002806D12069FFF768
:103950001DFD002801D10021216038BD2DE9FE4F59
:103960000D460446694601F07EFC070067D1677D7D
:10397000002FFBD1E06A04F1300B4FF0020A4FF048
:10398000010800286DD0691C2CD0E068A84200D244
:103990000546A561002D52D0691E2046FFF742FB67
:1039A000E06101460098FFF74FFB002879D0009BAB
:1039B000A5F10105218B5A89C905A2F1010202EA8C
:1039C000552202EB0005E6D0226AAA42E3D0207D10
:1039D00000063BD5587801235946FFF79DFF002884
:1039E0006FD12FE004C8A168022583460192F1B18E
:1039F00000260291AD1C8946761C204600F0BCFFD3
:103A0000012801464DD9481C5BD009F101008142D3
:103A1000F1D00198854206D80BF10402CBF8006082
:103A2000029801C29346009880698842E0D8E16A12
:103A3000019885420D6003D80021CBF8001098E072
:103A4000112796E0207D00F07F002075009801236B
:103A50002A4659464078FFF747FF002831D12562B2
:103A600087E0E068A84203D2217D890700D405469B
:103A7000A0694FF00009C4F818900DB30099498966
:103A80004FEA412670B1691E401EB1FBF6F1B0FB52
:103A9000F6F2914206D3721EE1699043A0612D1A9D
:103AA0000DE04FE0A16849B900212046FFF718FB5F
:103AB0000128014646D0481C55D0A160E161D9B922
:103AC00027E050E0227DAD1BA0693044A061920741
:103AD000204605D5FFF704FB010004D100250DE0C9
:103AE00000F04AFF0146481C3DD001292AD9009820
:103AF0008069884226D9E161B542E3D8A069EA0528
:103B00002844A06105D00098FFF79EFAD0B100EBE1
:103B10005529E168A069884204D9217DE06041F01F
:103B200040012175C00524D0226A4A4521D0207D5C
:103B3000000610D50098012359464078FFF7ECFEA7
:103B400088B904E0022084F815A0BDE8FE8F207D2E
:103B500000F07F002075009801234A4659464078BE
:103B6000FFF7C2FE18B1012084F81580EDE7C4F814
:103B700020903846E9E72DE9F14FADF5167D022298
:103B8000694696A800F046FD04000098849009D18B
:103B900004A9C160969984A800F068FE040002D0D0
:103BA000042C02D079E0082477E0002184A8FFF7F4
:103BB00097FA00995FEA000848894FEA4020879009
:103BC0000ED0B8F1010F0DD0B8F1FF3F0CD0084670
:103BD00001F020FB044600F02EFF929034B157E034
:103BE0000724F8E70224F6E70124F4E700984146A9
:103BF000FFF72AFA009D4FF4007B0021064634357A
:103C00005A46284601F050F90B222846202101F09F
:103C10004BF92E242C704FF0100A85F80BA09299C6
:103C200005F1160001F098FA00984246294601F085
:103C30007FFA05F1200029462022074601F02AF9E3
:103C400085F821400098869A0178032903D1816A7A
:103C5000914200D10022394601F06AFA00984FF0F3
:103C6000010947897FB100980663761C80F80390AC
:103C700001F0D0FA04000BD100215A46284601F089
:103C800013F97F1EEFD184A8FFF7DAFC040009D0F6
:103C90000022414684A801F011FA0DF5177D204657
:103CA000BDE8F08F8C9C929904F1160001F054FA53
:103CB00000984246214601F03BFA84F80BA0009898
:103CC00080F8039001F062FA0446E6E72DE9F74137
:103CD00081B0904602980090684600F022FF0400F0
:103CE00003D50B2004B0BDE8F0810D4E002756F837
:103CF00024501DB12846FFF785F92F700198002840
:103D000000D0077046F8240002D0B8F1010F01D0AE
:103D10000020E7E7002201A902A800F07BFCE1E710
:103D2000540000202DE9F7430500ADF5147D0BD0BC
:103D300002F03F06694695A8324600F06BFC04008D
:103D40004FF0000805D0F0E009200DF5177DBDE823
:103D5000F083009801A98290C16082A8959900F033
:103D600085FD04000ED19DF83702000601D506241A
:103D700008E0700801D0012100E0002182A8FFF7CF
:103D800013F9044616F01C0F5DD04FF00109C4B1C1
:103D9000042C10D16849002002E0401C022804D203
:103DA00001EB00121268002AF7D1022807D082A87E
:103DB000FFF746FC044646F008065CB1B5E0122465
:103DC000B3E09DF80E0210F0110F47D1700701D536
:103DD0000824AAE0300747D500F02DFE07468A9850
:103DE00039460E3001F0B8F98A983946163001F09C
:103DF000B3F98A992020C8728A99009800F0F0FEE1
:103E00008A9900220746009801F092F98A980021C9
:103E10001C3001F0A1F9009981F8039017B3D1F893
:103E20003090002282A8394601F048F904007CD184
:103E30000098494601F03FF804000098A7F10107F7
:103E400007610DD071E0E4BB9DF80E02C10601D5FB
:103E500004246AE0B10703D5C00701D0072464E059
:103E6000300701D546F040060098006B68628A98DA
:103E7000A862700801D0012100E0002182A800F0B2
:103E80006FFE2861C0B38A99009800F0A9FEA8606F
:103E90008A981C3000F0B7FEC5F82C800146E96016
:103EA00005F1300000994FF40072296081460099B5
:103EB000C988A98000212E7585F81580C5F8208055
:103EC00000E032E0C5F8188000F0EEFFB0062ED515
:103ED000EE6866B3AE610098A968408947020FE0BA
:103EE000284600F049FD0128014600D80224481C5C
:103EF00003D0F61B24B105E01BE00124F61B01E012
:103F0000BE42EDD8E96184B9F00510D00098FFF702
:103F10009BF870B100EB56222A62009801234946B3
:103F20004078FFF7E1FC10B10124C5F8008020467D
:103F30000BE70224F9E700001C06002073B505001A
:103F4000ADF5027D09D0002280A983A800F062FBB4
:103F500004004FF0000604D033E009200DF5047D85
:103F600070BD8099284629608099C1F80CD083994A
:103F700000F07CFC040014D195F82F00000607D453
:103F8000A879C0061CD5296A809800F029FEA8608F
:103F90008098C1882846A9800021FFF743FC0400CF
:103FA00002D0042C0CD00CE0A86838B100212846BF
:103FB00000F0D6FD286128B9122402E02E6101E04C
:103FC00005242E602046C9E70FB400212DE9F047F3
:103FD0009CB00DF14C080DF19809CDE9000102915A
:103FE000259810F8011B2590002976D0252903D0AB
:103FF000684601F02BF8F3E710F8011B0025259027
:1040000030292E4602D02D2902D010E0012500E0F3
:10401000022510F8011B259009E000BF259806EB4A
:10402000860201EB4206303E10F8011B2590A1F1FB
:1040300030000928F2D96C2901D04C2905D12598E6
:1040400045F0040510F8011B2590002945D0A1F189
:1040500061000A46192801D8203AD2B24F2A42D02C
:1040600006DC422A3DD0432A38D0442AC0D13CE065
:10407000532A0DD0552A38D0582AB9D110236807B1
:1040800001D4442A33D059F8040B442A31D035E006
:1040900059F8047B002400E0641C385D0028FBD143
:1040A000A80704D50CE02021684600F0CFFFB442F9
:1040B00004F10104F7D303E07F1C684600F0C6FF5B
:1040C00039780029F8D103E02021684600F0BEFFCE
:1040D000B44204F1010483D2F6E755E019F8041B59
:1040E00086E70223CBE70823C9E70A23C7E759F885
:1040F000040B002802DA404245F008054746002438
:104100008446B0FBF3F2B0FBF3F003FB12C2D2B271
:10411000092A05D9782915D04FF0070C6244D2B28C
:1041200030323A5504F1010408B1202CE8D32807B5
:1041300003D52D2008F80400641CE807274604D0A6
:10414000302003E04FF0270CE8E72020824603E010
:104150005146684600F07AFFA80703D4B74207F13A
:104160000107F5D345466846641E295D00F06EFFE1
:10417000002CF8D103E05146684600F067FFB742D3
:1041800007F10107A7D2F6E7684600F082FF1CB0EE
:10419000BDE8F0075DF814FB2DE9F04F89B0154636
:1041A000002299460446884603A91A6001F05BF88C
:1041B000002812D1607D00280FD1207DC0070BD0D0
:1041C000A2690127E16804F1300B4FF0020A881A56
:1041D000854200D9054684E0072009B0BDE8F08F8C
:1041E000A169C80565D103984089401E10EA51268F
:1041F00011D129B1E06A28B12046FEF713FF05E08E
:10420000A06803E0E169204600F0B6FB02281BD35A
:10421000411C49D0E061E1690398FEF715FF98B1B0
:10422000690A04913044019025D00398721841899D
:104230008A4201D9891B049140784146049B019A26
:10424000FFF752FB80BB03E0022084F815A0C4E70F
:10425000207D00060CD5216A0198081A049988422D
:1042600006D208EB402059464FF4007200F012FECF
:10427000049846022BE0226A824218D0207D000674
:104280000AD50398012359464078FFF745FB58B9F2
:10429000207D00F07F00207503980123019A594684
:1042A0004078FFF721FB10B10120677595E7019871
:1042B0002062208BC0F30800C0F50076AE4200D922
:1042C0002E46011932463031404600F0E3FDA16927
:1042D000AD1BB0448819A061D9F800008119C9F854
:1042E0000010002D7FF47CAF002076E730B5ADF5EF
:1042F000017D0C4680A9054600F0B5FF002816D1C7
:10430000C4B180992846C1F80CD00021FFF73CF9D0
:10431000042801D000280AD12146284600F08DFB50
:1043200000212846FFF7B6F8042800D100200DF53B
:10433000017D30BD00212846FFF774FAF7E7F8B594
:104340000446694600F08FFF00280ED1217D4A0601
:104350000BD508060ED500980123226A04F130011E
:104360004078FFF7D9FA08B10120F8BD207D00F0B0
:104370007F00207500F05FFB616A0646009800F040
:104380009AFD0028F1D1A56A2946E87A40F020007C
:10439000E872A268206800F0CBFEE16805F11C001D
:1043A00000F0DAFE05F11600314600F0D5FE0021DE
:1043B00005F1120000F0D8FE00980121C17000F054
:1043C000E5FE217D01F0BF012175F8BD2DE9F04F1B
:1043D00089B01546002299460446884602A91A600B
:1043E00000F041FF002806D1607D002803D1207D28
:1043F000800703D4072009B0BDE8F08FA06901272A
:1044000004F1300B4FF0020A411900D3C5439AE082
:10441000A169C80574D102984089401E10EA51264E
:1044200018D129B1E06A38B12046FEF7FBFD07E05C
:10443000A06838B9002100E0E1692046FEF750FE8F
:1044400000287DD001282DD0411C53D0A168E06107
:1044500001B9A060207D00060BD502980123226AD5
:1044600059464078FFF758FAA0BB207D00F07F0046
:104470002075E1690298FEF7E7FD98B1690A03919A
:104480003044019027D00298721841898A4201D99C
:10449000891B039140784146039B019AFFF73CFA40
:1044A000C0B903E0022084F815A0A4E7216A0198AE
:1044B000081A039988420AD208EB402158464FF463
:1044C000007200F0E7FC207D00F07F00207503986B
:1044D000460227E00EE0216A81420FD0E168A06920
:1044E00088420BD202980123019A59464078FFF77F
:1044F000FBF918B1012067757DE701E001982062A2
:10450000208BC0F30800C0F50076AE4200D92E46DD
:10451000414620443246303000F0BCFC207D40F063
:1045200080002075A269B044E1689019A0618842BA
:1045300000D80846E060D9F80000AD1B811900E002
:1045400004E0C9F80010002D7FF462AF207D40F038
:104550004000207500204EE7802804D30C4A51B15A
:10456000FF2801D90020704702EB4000A0F58050E1
:10457000B0F8000F7047002132F81130834203D0A9
:10458000491C89B28029F7D38031C8B27047000036
:10459000C452000830B5B0F5805F01D21B4900E07D
:1045A0001B4931F8022B002A15D0904213D331F861
:1045B000024B52FA84F5230A8542E4B221D9092B31
:1045C00009D2DFE803F005090E11131517191B00B6
:1045D000801A31F8100030BD811A01F00101401A33
:1045E00000E0103880B230BD2038FBE73038F9E702
:1045F0001A38F7E70830F5E75038F3E7A0F5E3504D
:10460000F0E7002BCDD101EB4401CAE7C453000809
:10461000B65500082DE9FF41002790460E460F6071
:1046200000F07FFA050003D50B2004B0BDE8F0814F
:104630008B4850F825409CB1346008F0FE06207885
:1046400020B16078FFF75EF9C1070BD02770B8463C
:10465000E8B26070FFF728F9C10708D00320E4E74B
:104660000C20E2E70EB1400704D40020DDE71EB1C4
:10467000400701D50A20D8E7002620463146FEF73C
:1046800053FC022822D100254FEA0D0704EB051048
:1046900090F8F61100F5F97019B1083000F0B3FA8E
:1046A00000E0002047F825006D1C042DEED3002506
:1046B00057F8256036B131462046FEF735FC022812
:1046C00001D203E003206D1C042DF1D3042809D08E
:1046D00002286FD204F13F0000F0A0FAB0F5007F8D
:1046E00068D101E00120A0E704F14A0000F096FA49
:1046F000010004D104F1580000F085FA014694F855
:104700004450E161012DA57001D0022D52D14D43DD
:1047100094F841006081E8B3411E08424AD104F197
:10472000450000F07BFA0107208143D104F14700E6
:1047300000F074FA070004D104F1540000F063FAA9
:10474000074604F1420000F069FA020032D02389E2
:10475000501900EB13118F422CD360897F1AB7FBDD
:10476000F0F0B8B103274FF6F57C604500D802277A
:1047700040F6F57C604500D801273244801C314466
:10478000E162A061032FC4E9086215D013B1511989
:10479000022F00E00EE0A1621FD000F0010100EB4B
:1047A000400001EB500000BFE16900F2FF10B1EBE7
:1047B000502F14D20D2038E704F15E0000F02EFADD
:1047C0000028F7D120890028F4D104F1600000F01E
:1047D0001AFAA169A0628800E6E74000E4E74FF01A
:1047E000FF31616180202161032F20712CD104F100
:1047F000640000F013FA012826D1711C204600F055
:104800005AFB08BB04F2322084F8048000F006FA58
:10481000A0F52A41553917D104F1340000F0F3F91D
:104820001049884210D104F5067000F0ECF90E49E9
:10483000884209D104F5077000F0E5F9606104F5DC
:10484000087000F0E0F9206105492770091F088809
:10485000401C0880E0802046FEF7D4FB05E70000FE
:1048600054000020525261417272416173B5056873
:104870000446019801E0401C019001782F29FAD0EC
:104880005C29F8D00021A16001980078202806D288
:10489000802084F82F002046FEF7C4FF7CBD01A9CC
:1048A0002046FEF771FC0028F8D12046FEF788FD6F
:1048B00094F82F1028B10428F0D14907EED4052030
:1048C0007CBD4907FCD4A079C006F8D5A08AC0F306
:1048D000080041192846343100F082F9A060DEE773
:1048E00013B5044801224FF6FF736946FDF71EF920
:1048F00000981CBDE00000207CB51C4616460B222B
:10490000054600F0C7FA052C11D91A4A0CE000211F
:10491000B61C23460446400863F35F04E30300D556
:104920005440491C1029F4D330880028EFD10721C6
:104930004FEA0D0204F00F003030392800D9C01DB5
:1049400050542409A1F10101F4D17E2300205354D5
:1049500000E0401C884202D22B5C202BF9D10829B0
:1049600002D2535C491C00E020232B54401C082831
:10497000F5D37CBD211001002DE9F0410468022926
:104980000D460BD3A069A84208D920784FF0FF3616
:10499000012807D002282BD0032839D00126304621
:1049A000BDE8F081606A05EB550700EB5721204612
:1049B00000F081FA0028F2D1C7F3080020447F1CE0
:1049C00090F83480606A00EB5721204600F073FABB
:1049D0000028E4D1C7F308002044E90790F8342008
:1049E00048EA022001D00609D9E7C0F30B06D6E752
:1049F000606A00EB1521204600F05DFA0028CED158
:104A0000E8B204EB4000343000F008F90646C6E78F
:104A1000606A00EBD511204600F04DFA0028BED1A7
:104A200040F2FF1000EA85002044343000F0EBF83B
:104A300020F07046B3E7002070472DE9F047D0F82A
:104A400000804FF0000981F816900646C0690C46B8
:104A5000002864D0306B401C17D000252F460AE098
:104A60000021FFF779FD08B1FF2D01D3002509E0F2
:104A700061196D1C8875D8F80C0030F817007F1C80
:104A80000028EDD1611981F816900021A37D2E2513
:104A90000A46306A405C491C202824D0052800D1F1
:104AA000E520092905D10BB9A718BD75A718521C17
:104AB0007D7204EB020C8CF809009BB9A0F1410750
:104AC000192F0DD8376A09293F7B02D34FF0100800
:104AD00001E04FF0080817EA080F01D02030C0B2FB
:104AE0008CF81600521C0B29D3D333B9A11881F8C6
:104AF0001690306A007B00B90022A11881F8099055
:104B0000306AC07A2072306A1C3000F07CF8206075
:104B1000306A163000F077F8E080010CA180BDE823
:104B2000F08710B5026804464FF0FF30002A13D01A
:104B3000114600E0491C0B78202B0ED33A2BF9D1FB
:104B400012F8013B303B0A2B06D28A4204D1002BDB
:104B500002D1491C1846216010BD002010BD000084
:104B6000F0B51E4A034605685FF0000002EB001432
:104B70002668AE4207D166689F68BE4203D1A4682A
:104B80005E69B44202D0401C0228EFD3022814D13F
:104B9000002002E0401C022804D202EB001424682A
:104BA000002CF7D102280ED002EB0014002625605D
:104BB0009D6865605B69A360A681002902EB001116
:104BC000898902D019B10020F0BD491C01E04FF4E1
:104BD000807102EB0012401C9181F0BD1C06002088
:104BE00070B50D46064601F11A0000F017F80446AC
:104BF0003078032805D105F1140000F00FF844EADD
:104C00000044204670BD837842780178C07843EA3A
:104C1000002042EA002041EA0020704701784078F5
:104C200041EA002070470000BFF34F8FBFF36F8F42
:104C3000614800245F490460086840F4003008605F
:104C4000BFF34F8FBFF36F8F5A4870300460BFF3CC
:104C50004F8F001F584D43F6FF7610350068C0F3A4
:104C60004E32C0F3C90306EA4217184647EA807C71
:104C7000C5F800C0401EF9D2521EF4D2BFF34F8FC8
:104C8000086840F480300860BFF34F8FBFF36F8F28
:104C9000FBF7C0FCFDF7BEFCFDF70CF8474A48489F
:104CA00011150260C0E90141C4600461446184617E
:104CB000FCF7D1FBFCF7F0FFFDF738F841A0FDF75A
:104CC00071FF42A0FDF76EFF4EA0FDF76BFF3FA006
:104CD000FDF768FF3BA0FDF765FFFBF71BFB574C9B
:104CE000607008B1FCF77EFF3548012236A1F43030
:104CF000FEF7ECFF207008B1FCF774FF50A0FEF740
:104D00003AFF207008B1FCF76DFF50484EA1FFF745
:104D100015F92070C0B3FCF765FF504813224CA171
:104D2000FFF700F8207008B1FCF75CFF4B48C16842
:104D3000FEF714FE207008B1FCF754FF3F4A48A16B
:104D400046480832FFF740F94448FEF7F3FD434870
:104D500001223FA1FEF7E6FF207008B1FCF742FFF9
:104D6000364B322239493D481B1D3431FFF714FAC6
:104D7000207008B1FCF736FF3848FEF7DBFD2070E5
:104D800068B1FCF72FFF0FE0FFE736A0FDF70AFF41
:104D90003EA0FDF707FF2D48FCF73CFFBDE73C4870
:104DA00001220221FBF722FC0122002006A1FEF7CE
:104DB0008DFFFEE714ED00E050EF00E0002C014015
:104DC0005C0000200A0A0A0D000000000909092AF7
:104DD0002A2A2A2A2A2A2A2A2A2A2A2A2A2A2A2A33
:104DE0002A2A2A2A2A2A2A2A2A2A2A2A2A2A2A2A23
:104DF0002A2A2A2A2A2A2A2A2A2A2A2A2A2A2A2A13
:104E00002A0D0A000909092A2A2A2A2A2A2A2A2ACC
:104E10002A2A2A2A2A2A5344204341524420505203
:104E20004F4752414D4D494E47212A2A2A2A2A2AC4
:104E30002A2A2A2A2A2A2A2A2A0D0A0000000020C1
:104E4000524F4F54000000002F000000B405002016
:104E5000746573742E74787400000000840300205D
:104E60002573000009094F70656E696E67207468CC
:104E70006520726F6F74206469726563746F7279F4
:104E80002E2E2E2E2E2E0D0A000000000A0A0000E3
:104E900000200240002A05D011F8013B521E00F804
:104EA000013BF9D1704700005FFA81F1521E00F812
:104EB000011BFBD1704770B50446006B00260D4600
:104EC000A8420FD0204600F0A5F906000AD160786C
:104ED000012304F134012A46FEF706FD08B1751ED0
:104EE00001262563304670BD2DE9F0470E46814608
:104EF00001F11A00FFF792FE28BB30780125002748
:104F0000DFF8548020F040004FF6FF7A401E00EB9F
:104F1000800101EBC00400BF18F807003044FFF720
:104F20007DFE35B1FF2C0ED229F81400641C054615
:104F300001E0504507D17F1C0D2FEDD3307840069E
:104F400007D5FF2C02D30020BDE8F087002129F807
:104F500014100120F8E70000F25600082DE9F04790
:104F6000022917460D4604464FF002066BD3A0698E
:104F7000A84268D920784FF00109012804D00228FE
:104F800038D003285FD145E0616A05EB550820461B
:104F900001EB5821FFF78FFF060054D1C8F308003A
:104FA0002044EA0708F1010800F1340004D0017838
:104FB000FAB262F31F1100E03946017084F80390E1
:104FC0002046616A01EB5821FFF775FF06003AD1D0
:104FD000C8F308002044E90700F1340002D0C7F309
:104FE000071105E00178C7F3032201F0F001114336
:104FF000017026E0606A00EB15212046FFF75BFF99
:10500000060020D1E8B2B9B204EB4000343000F021
:10501000ABF816E0606A00EBD5112046FFF74BFFB6
:10502000060010D140F2FF1000EA85002044343021
:105030000546FFF7E8FD0146284667F31B0100F02F
:105040008BF884F803903046BDE8F087F8B50A295C
:105050000E46044602D10D21FFF7F8FF6568002DCA
:1050600016DB60196D1C3D2D06730DDB206804F105
:105070000C016B462A46FFF7A9F90098A84201D116
:10508000002501E04FF0FF35A068401CC4E9015045
:10509000F8BD38B542680446002A0CDB206804F1EC
:1050A0000C016B46FFF792F928B9606800998842B5
:1050B00001D1A06838BD4FF0FF3038BD2DE9F04177
:1050C0000568022913460E4607462DD3A869B0424B
:1050D0002AD93BB14FF0FF3219462846FFF73EFF71
:1050E00000281FD131463846FFF746FC040018D08F
:1050F000012C19D0601C19D0002231462846FFF738
:105100002DFF00280ED1D5E90510821E914205D24F
:105110002A79491C696142F001022A712646B0428F
:10512000E0D80020BDE8F0810220FBE70120F9E78C
:1051300070B50C46154691B2064604F11A0000F00F
:1051400013F83078032806D1290C04F11400BDE8C7
:10515000704000F009B870BD0A0A01704270110A6F
:1051600081700A0AC27070470A0A01704270704763
:10517000014600200B2210B5440811F8013B04EB56
:10518000C0101844521EC0B2F6D110BD70B504460E
:1051900000F040F8050036D1207803282CD1207982
:1051A000012829D1420204F1340000210646FFF70C
:1051B0007BFE04F232204AF65521FFF7D5FF134952
:1051C0003046FFF7C9FF124904F50670FFF7C4FF28
:1051D000616904F50770FFF7BFFF216904F50870E6
:1051E000FFF7BAFF226A01233146521C226360781E
:1051F000FEF792FB00202071002260781146FEF736
:1052000067FB00B10125284670BD00005252614184
:10521000727241612DE9F0410446C0780027F8B16F
:10522000256B04F13401607801232A468846FEF795
:1052300073FB08B1012713E0626A0020E169AA1A32
:10524000E0708A420CD2A67808E0E069012341466A
:10525000054460782A46FEF75FFB761E022EF4D2E4
:105260003846BDE8F08170B504000D460CD02068CA
:1052700050B1017841B1C188A288914204D14078EF
:10528000FEF740FBC00702D00021092001E02168A1
:105290000020296070BD000039250008D7250008CE
:1052A000B1250008DD250008592500080000000090
:1052B00000000000010203040607080900000000C6
:1052C00001020304C700FC00E900E200E400E00082
:1052D000E500E700EA00EB00E800EF00EE00EC007C
:1052E000C400C500C900E600C600F400F600F200E4
:1052F000FB00F900FF00D600DC00F800A300D80096
:10530000D7009201E100ED00F300FA00F100D100B6
:10531000AA00BA00BF00AE00AC00BD00BC00A100F6
:10532000AB00BB0091259225932502252425C100C1
:10533000C200C000A9006325512557255D25A200A4
:10534000A5001025142534252C251C2500253C25D9
:10535000E300C3005A25542569256625602550259C
:105360006C25A400F000D000CA00CB00C8003101B9
:10537000CD00CE00CF0018250C2588258425A60059
:10538000CC008025D300DF00D400D200F500D5008A
:10539000B500FE00DE00DA00DB00D900FD00DD0014
:1053A000AF00B400AD00B1001720BE00B600A700EA
:1053B000F700B800B000A800B700B900B300B20011
:1053C000A025A00061001A03E0001703F8000703FE
:1053D000FF000100780100013001320106013901AE
:1053E00010014A012E017901060180014D0043029E
:1053F0008101820182018401840186018701870184
:1054000089018A018B018B018D018E018F01900131
:105410009101910193019401F60196019701980180
:1054200098013D029B019C019D0120029F01A0016A
:10543000A001A201A201A401A401A601A701A70144
:10544000A901AA01AB01AC01AC01AE01AF01AF01F2
:10545000B101B201B301B301B501B501B701B801A2
:10546000B801BA01BB01BC01BC01BE01F701C0011A
:10547000C101C201C301C401C501C401C701C80102
:10548000C701CA01CB01CA01CD011001DD01010034
:105490008E01DE011201F3010300F101F401F401B8
:1054A000F8012801220212013A020900652C3B0290
:1054B0003B023D02662C3F0240024102410246028D
:1054C0000A015302400081018601550289018A01C7
:1054D00058028F015A0290015C025D025E025F0277
:1054E000930161026202940164026502660267022E
:1054F000970196016A02622C6C026D026E029C0199
:10550000700271029D01730274029F01760277029C
:10551000780279027A027B027C02642C7E027F028E
:10552000A60181028202A901840285028602870205
:10553000AE014402B101B20145028D028E028F021A
:1055400090029102B7017B030300FD03FE03FF03FA
:10555000AC0304008603880389038A03B1031103A3
:10556000C2030200A303A303C4030803CC03030084
:105570008C038E038F03D8031801F2030A00F9038A
:10558000F303F403F503F603F703F703F903FA0350
:10559000FA033004200350041007600422018A0437
:1055A0003601C1040E01CF040100C004D00444013F
:1055B0006105260400007D1D0100632C001E96017C
:1055C000A01E5A01001F0806101F0606201F08060D
:1055D000301F0806401F0606511F0700591F521FA3
:1055E0005B1F541F5D1F561F5F1F601F0806701F43
:1055F0000E00BA1FBB1FC81FC91FCA1FCB1FDA1F4F
:10560000DB1FF81FF91FEA1FEB1FFA1FFB1F801F8C
:105610000806901F0806A01F0806B01F0400B81F48
:10562000B91FB21FBC1FCC1F0100C31FD01F020631
:10563000E01F0206E51F0100EC1FF21F0100FC1F26
:105640004E210100322170211002842101008321AA
:10565000D0241A05302C2F04602C0201672C06017F
:10566000752C0201802C6401002D260841FF1A03CD
:10567000000043554541414141434545454949495C
:1056800041414592924F4F4F5555594F554F9C4F61
:105690009E9F41494F55A5A5A6A7A8A9AAABACAD09
:1056A000AEAFB0B1B2B3B4414141B8B9BABBBCBD01
:1056B000BEBFC0C1C2C3C4C54141C8C9CACBCCCD9D
:1056C000CECFD1D145454549494949D9DADBDCDD61
:1056D00049DF4FE14F4F4F4FE6E8E85555555959CF
:1056E000EEEFF0F1F2F3F4F5F6F7F8F9FAFBFCFD62
:1056F000FEFF01030507090E10121416181C1E00E8
:105700000100040010004000000100020000010040
:105710000200040008001000200000003C570008B0
:10572000000000205C000000C42B0008985700080F
:105730005C000020EC150000D42B000800000000E5
:10574000000000005468697320697320534420638B
:105750006172642070726F6772616D6D696E670D42
:105760000A0000000000000000000000000000002F
:105770000000000000000100000000000100000027
:1057800010000000000000000024F40000000000F1
:08579000000000000000000011
:04000005080001C925
:00000001FF
